{
  "_format": "hh-sol-artifact-1",
  "contractName": "GNSBorrowingFeesV6_3_2",
  "sourceName": "contracts/v6.3.2/GNSBorrowingFeesV6_3_2.sol",
  "abi": [
    {
      "anonymous": false,
      "inputs": [
        {
          "indexed": true,
          "internalType": "uint16",
          "name": "groupIndex",
          "type": "uint16"
        },
        {
          "indexed": false,
          "internalType": "uint256",
          "name": "currentBlock",
          "type": "uint256"
        },
        {
          "indexed": false,
          "internalType": "uint64",
          "name": "accFeeLong",
          "type": "uint64"
        },
        {
          "indexed": false,
          "internalType": "uint64",
          "name": "accFeeShort",
          "type": "uint64"
        },
        {
          "indexed": false,
          "internalType": "uint256",
          "name": "accBlockWeightedMarketCap",
          "type": "uint256"
        }
      ],
      "name": "GroupAccFeesUpdated",
      "type": "event"
    },
    {
      "anonymous": false,
      "inputs": [
        {
          "indexed": true,
          "internalType": "uint16",
          "name": "groupIndex",
          "type": "uint16"
        },
        {
          "indexed": true,
          "internalType": "bool",
          "name": "long",
          "type": "bool"
        },
        {
          "indexed": true,
          "internalType": "bool",
          "name": "increase",
          "type": "bool"
        },
        {
          "indexed": false,
          "internalType": "uint112",
          "name": "amount",
          "type": "uint112"
        },
        {
          "indexed": false,
          "internalType": "uint112",
          "name": "oiLong",
          "type": "uint112"
        },
        {
          "indexed": false,
          "internalType": "uint112",
          "name": "oiShort",
          "type": "uint112"
        }
      ],
      "name": "GroupOiUpdated",
      "type": "event"
    },
    {
      "anonymous": false,
      "inputs": [
        {
          "indexed": true,
          "internalType": "uint16",
          "name": "groupIndex",
          "type": "uint16"
        },
        {
          "indexed": false,
          "internalType": "uint32",
          "name": "feePerBlock",
          "type": "uint32"
        },
        {
          "indexed": false,
          "internalType": "uint80",
          "name": "maxOi",
          "type": "uint80"
        }
      ],
      "name": "GroupUpdated",
      "type": "event"
    },
    {
      "anonymous": false,
      "inputs": [
        {
          "indexed": false,
          "internalType": "uint8",
          "name": "version",
          "type": "uint8"
        }
      ],
      "name": "Initialized",
      "type": "event"
    },
    {
      "anonymous": false,
      "inputs": [
        {
          "indexed": true,
          "internalType": "uint256",
          "name": "pairIndex",
          "type": "uint256"
        },
        {
          "indexed": false,
          "internalType": "uint256",
          "name": "currentBlock",
          "type": "uint256"
        },
        {
          "indexed": false,
          "internalType": "uint64",
          "name": "accFeeLong",
          "type": "uint64"
        },
        {
          "indexed": false,
          "internalType": "uint64",
          "name": "accFeeShort",
          "type": "uint64"
        },
        {
          "indexed": false,
          "internalType": "uint256",
          "name": "accBlockWeightedMarketCap",
          "type": "uint256"
        }
      ],
      "name": "PairAccFeesUpdated",
      "type": "event"
    },
    {
      "anonymous": false,
      "inputs": [
        {
          "indexed": true,
          "internalType": "uint256",
          "name": "pairIndex",
          "type": "uint256"
        },
        {
          "indexed": true,
          "internalType": "uint16",
          "name": "prevGroupIndex",
          "type": "uint16"
        },
        {
          "indexed": true,
          "internalType": "uint16",
          "name": "newGroupIndex",
          "type": "uint16"
        }
      ],
      "name": "PairGroupUpdated",
      "type": "event"
    },
    {
      "anonymous": false,
      "inputs": [
        {
          "indexed": true,
          "internalType": "uint256",
          "name": "pairIndex",
          "type": "uint256"
        },
        {
          "indexed": true,
          "internalType": "uint16",
          "name": "groupIndex",
          "type": "uint16"
        },
        {
          "indexed": false,
          "internalType": "uint32",
          "name": "feePerBlock",
          "type": "uint32"
        }
      ],
      "name": "PairParamsUpdated",
      "type": "event"
    },
    {
      "anonymous": false,
      "inputs": [
        {
          "indexed": true,
          "internalType": "address",
          "name": "trader",
          "type": "address"
        },
        {
          "indexed": true,
          "internalType": "uint256",
          "name": "pairIndex",
          "type": "uint256"
        },
        {
          "indexed": false,
          "internalType": "uint256",
          "name": "index",
          "type": "uint256"
        },
        {
          "indexed": false,
          "internalType": "bool",
          "name": "open",
          "type": "bool"
        },
        {
          "indexed": false,
          "internalType": "bool",
          "name": "long",
          "type": "bool"
        },
        {
          "indexed": false,
          "internalType": "uint256",
          "name": "positionSizeDai",
          "type": "uint256"
        }
      ],
      "name": "TradeActionHandled",
      "type": "event"
    },
    {
      "anonymous": false,
      "inputs": [
        {
          "indexed": true,
          "internalType": "address",
          "name": "trader",
          "type": "address"
        },
        {
          "indexed": true,
          "internalType": "uint256",
          "name": "pairIndex",
          "type": "uint256"
        },
        {
          "indexed": false,
          "internalType": "uint256",
          "name": "index",
          "type": "uint256"
        },
        {
          "indexed": false,
          "internalType": "uint64",
          "name": "initialPairAccFee",
          "type": "uint64"
        },
        {
          "indexed": false,
          "internalType": "uint64",
          "name": "initialGroupAccFee",
          "type": "uint64"
        }
      ],
      "name": "TradeInitialAccFeesStored",
      "type": "event"
    },
    {
      "inputs": [],
      "name": "getAllPairs",
      "outputs": [
        {
          "components": [
            {
              "components": [
                {
                  "internalType": "uint16",
                  "name": "groupIndex",
                  "type": "uint16"
                },
                {
                  "internalType": "uint48",
                  "name": "block",
                  "type": "uint48"
                },
                {
                  "internalType": "uint64",
                  "name": "initialAccFeeLong",
                  "type": "uint64"
                },
                {
                  "internalType": "uint64",
                  "name": "initialAccFeeShort",
                  "type": "uint64"
                },
                {
                  "internalType": "uint64",
                  "name": "prevGroupAccFeeLong",
                  "type": "uint64"
                },
                {
                  "internalType": "uint64",
                  "name": "prevGroupAccFeeShort",
                  "type": "uint64"
                },
                {
                  "internalType": "uint64",
                  "name": "pairAccFeeLong",
                  "type": "uint64"
                },
                {
                  "internalType": "uint64",
                  "name": "pairAccFeeShort",
                  "type": "uint64"
                },
                {
                  "internalType": "uint64",
                  "name": "_placeholder",
                  "type": "uint64"
                }
              ],
              "internalType": "struct GNSBorrowingFeesInterfaceV6_3_2.PairGroup[]",
              "name": "groups",
              "type": "tuple[]"
            },
            {
              "internalType": "uint32",
              "name": "feePerBlock",
              "type": "uint32"
            },
            {
              "internalType": "uint64",
              "name": "accFeeLong",
              "type": "uint64"
            },
            {
              "internalType": "uint64",
              "name": "accFeeShort",
              "type": "uint64"
            },
            {
              "internalType": "uint48",
              "name": "accLastUpdatedBlock",
              "type": "uint48"
            },
            {
              "internalType": "uint48",
              "name": "_placeholder",
              "type": "uint48"
            },
            {
              "internalType": "uint256",
              "name": "lastAccBlockWeightedMarketCap",
              "type": "uint256"
            }
          ],
          "internalType": "struct GNSBorrowingFeesInterfaceV6_3_2.Pair[]",
          "name": "",
          "type": "tuple[]"
        }
      ],
      "stateMutability": "view",
      "type": "function"
    },
    {
      "inputs": [
        {
          "internalType": "uint16",
          "name": "groupIndex",
          "type": "uint16"
        }
      ],
      "name": "getGroup",
      "outputs": [
        {
          "components": [
            {
              "internalType": "uint112",
              "name": "oiLong",
              "type": "uint112"
            },
            {
              "internalType": "uint112",
              "name": "oiShort",
              "type": "uint112"
            },
            {
              "internalType": "uint32",
              "name": "feePerBlock",
              "type": "uint32"
            },
            {
              "internalType": "uint64",
              "name": "accFeeLong",
              "type": "uint64"
            },
            {
              "internalType": "uint64",
              "name": "accFeeShort",
              "type": "uint64"
            },
            {
              "internalType": "uint48",
              "name": "accLastUpdatedBlock",
              "type": "uint48"
            },
            {
              "internalType": "uint80",
              "name": "maxOi",
              "type": "uint80"
            },
            {
              "internalType": "uint256",
              "name": "lastAccBlockWeightedMarketCap",
              "type": "uint256"
            }
          ],
          "internalType": "struct GNSBorrowingFeesInterfaceV6_3_2.Group",
          "name": "",
          "type": "tuple"
        }
      ],
      "stateMutability": "view",
      "type": "function"
    },
    {
      "inputs": [
        {
          "internalType": "uint16",
          "name": "groupIndex",
          "type": "uint16"
        },
        {
          "internalType": "uint256",
          "name": "currentBlock",
          "type": "uint256"
        },
        {
          "internalType": "bool",
          "name": "long",
          "type": "bool"
        }
      ],
      "name": "getGroupPendingAccFee",
      "outputs": [
        {
          "internalType": "uint64",
          "name": "accFee",
          "type": "uint64"
        }
      ],
      "stateMutability": "view",
      "type": "function"
    },
    {
      "inputs": [
        {
          "internalType": "uint16",
          "name": "groupIndex",
          "type": "uint16"
        },
        {
          "internalType": "uint256",
          "name": "currentBlock",
          "type": "uint256"
        }
      ],
      "name": "getGroupPendingAccFees",
      "outputs": [
        {
          "internalType": "uint64",
          "name": "accFeeLong",
          "type": "uint64"
        },
        {
          "internalType": "uint64",
          "name": "accFeeShort",
          "type": "uint64"
        },
        {
          "internalType": "int256",
          "name": "groupAccFeeDelta",
          "type": "int256"
        }
      ],
      "stateMutability": "view",
      "type": "function"
    },
    {
      "inputs": [
        {
          "internalType": "uint16",
          "name": "groupIndex",
          "type": "uint16"
        },
        {
          "internalType": "uint256",
          "name": "currentBlock",
          "type": "uint256"
        }
      ],
      "name": "getGroupWeightedVaultMarketCapSinceLastUpdate",
      "outputs": [
        {
          "internalType": "uint256",
          "name": "",
          "type": "uint256"
        }
      ],
      "stateMutability": "view",
      "type": "function"
    },
    {
      "inputs": [
        {
          "internalType": "uint16[]",
          "name": "indices",
          "type": "uint16[]"
        }
      ],
      "name": "getGroups",
      "outputs": [
        {
          "components": [
            {
              "internalType": "uint112",
              "name": "oiLong",
              "type": "uint112"
            },
            {
              "internalType": "uint112",
              "name": "oiShort",
              "type": "uint112"
            },
            {
              "internalType": "uint32",
              "name": "feePerBlock",
              "type": "uint32"
            },
            {
              "internalType": "uint64",
              "name": "accFeeLong",
              "type": "uint64"
            },
            {
              "internalType": "uint64",
              "name": "accFeeShort",
              "type": "uint64"
            },
            {
              "internalType": "uint48",
              "name": "accLastUpdatedBlock",
              "type": "uint48"
            },
            {
              "internalType": "uint80",
              "name": "maxOi",
              "type": "uint80"
            },
            {
              "internalType": "uint256",
              "name": "lastAccBlockWeightedMarketCap",
              "type": "uint256"
            }
          ],
          "internalType": "struct GNSBorrowingFeesInterfaceV6_3_2.Group[]",
          "name": "",
          "type": "tuple[]"
        }
      ],
      "stateMutability": "view",
      "type": "function"
    },
    {
      "inputs": [
        {
          "internalType": "uint256",
          "name": "pairIndex",
          "type": "uint256"
        }
      ],
      "name": "getPair",
      "outputs": [
        {
          "components": [
            {
              "components": [
                {
                  "internalType": "uint16",
                  "name": "groupIndex",
                  "type": "uint16"
                },
                {
                  "internalType": "uint48",
                  "name": "block",
                  "type": "uint48"
                },
                {
                  "internalType": "uint64",
                  "name": "initialAccFeeLong",
                  "type": "uint64"
                },
                {
                  "internalType": "uint64",
                  "name": "initialAccFeeShort",
                  "type": "uint64"
                },
                {
                  "internalType": "uint64",
                  "name": "prevGroupAccFeeLong",
                  "type": "uint64"
                },
                {
                  "internalType": "uint64",
                  "name": "prevGroupAccFeeShort",
                  "type": "uint64"
                },
                {
                  "internalType": "uint64",
                  "name": "pairAccFeeLong",
                  "type": "uint64"
                },
                {
                  "internalType": "uint64",
                  "name": "pairAccFeeShort",
                  "type": "uint64"
                },
                {
                  "internalType": "uint64",
                  "name": "_placeholder",
                  "type": "uint64"
                }
              ],
              "internalType": "struct GNSBorrowingFeesInterfaceV6_3_2.PairGroup[]",
              "name": "groups",
              "type": "tuple[]"
            },
            {
              "internalType": "uint32",
              "name": "feePerBlock",
              "type": "uint32"
            },
            {
              "internalType": "uint64",
              "name": "accFeeLong",
              "type": "uint64"
            },
            {
              "internalType": "uint64",
              "name": "accFeeShort",
              "type": "uint64"
            },
            {
              "internalType": "uint48",
              "name": "accLastUpdatedBlock",
              "type": "uint48"
            },
            {
              "internalType": "uint48",
              "name": "_placeholder",
              "type": "uint48"
            },
            {
              "internalType": "uint256",
              "name": "lastAccBlockWeightedMarketCap",
              "type": "uint256"
            }
          ],
          "internalType": "struct GNSBorrowingFeesInterfaceV6_3_2.Pair",
          "name": "",
          "type": "tuple"
        }
      ],
      "stateMutability": "view",
      "type": "function"
    },
    {
      "inputs": [
        {
          "internalType": "uint256",
          "name": "i",
          "type": "uint256"
        },
        {
          "components": [
            {
              "internalType": "uint16",
              "name": "groupIndex",
              "type": "uint16"
            },
            {
              "internalType": "uint48",
              "name": "block",
              "type": "uint48"
            },
            {
              "internalType": "uint64",
              "name": "initialAccFeeLong",
              "type": "uint64"
            },
            {
              "internalType": "uint64",
              "name": "initialAccFeeShort",
              "type": "uint64"
            },
            {
              "internalType": "uint64",
              "name": "prevGroupAccFeeLong",
              "type": "uint64"
            },
            {
              "internalType": "uint64",
              "name": "prevGroupAccFeeShort",
              "type": "uint64"
            },
            {
              "internalType": "uint64",
              "name": "pairAccFeeLong",
              "type": "uint64"
            },
            {
              "internalType": "uint64",
              "name": "pairAccFeeShort",
              "type": "uint64"
            },
            {
              "internalType": "uint64",
              "name": "_placeholder",
              "type": "uint64"
            }
          ],
          "internalType": "struct GNSBorrowingFeesInterfaceV6_3_2.PairGroup[]",
          "name": "pairGroups",
          "type": "tuple[]"
        },
        {
          "components": [
            {
              "internalType": "uint64",
              "name": "accPairFee",
              "type": "uint64"
            },
            {
              "internalType": "uint64",
              "name": "accGroupFee",
              "type": "uint64"
            },
            {
              "internalType": "uint48",
              "name": "block",
              "type": "uint48"
            },
            {
              "internalType": "uint80",
              "name": "_placeholder",
              "type": "uint80"
            }
          ],
          "internalType": "struct GNSBorrowingFeesInterfaceV6_3_2.InitialAccFees",
          "name": "initialFees",
          "type": "tuple"
        },
        {
          "internalType": "uint256",
          "name": "pairIndex",
          "type": "uint256"
        },
        {
          "internalType": "bool",
          "name": "long",
          "type": "bool"
        },
        {
          "internalType": "uint256",
          "name": "currentBlock",
          "type": "uint256"
        }
      ],
      "name": "getPairGroupAccFeesDeltas",
      "outputs": [
        {
          "internalType": "uint64",
          "name": "deltaGroup",
          "type": "uint64"
        },
        {
          "internalType": "uint64",
          "name": "deltaPair",
          "type": "uint64"
        },
        {
          "internalType": "bool",
          "name": "beforeTradeOpen",
          "type": "bool"
        }
      ],
      "stateMutability": "view",
      "type": "function"
    },
    {
      "inputs": [
        {
          "internalType": "uint256",
          "name": "pairIndex",
          "type": "uint256"
        }
      ],
      "name": "getPairGroupIndex",
      "outputs": [
        {
          "internalType": "uint16",
          "name": "groupIndex",
          "type": "uint16"
        }
      ],
      "stateMutability": "view",
      "type": "function"
    },
    {
      "inputs": [
        {
          "internalType": "uint256",
          "name": "pairIndex",
          "type": "uint256"
        }
      ],
      "name": "getPairOpenInterestDai",
      "outputs": [
        {
          "internalType": "uint256",
          "name": "",
          "type": "uint256"
        },
        {
          "internalType": "uint256",
          "name": "",
          "type": "uint256"
        }
      ],
      "stateMutability": "view",
      "type": "function"
    },
    {
      "inputs": [
        {
          "internalType": "uint256",
          "name": "pairIndex",
          "type": "uint256"
        },
        {
          "internalType": "uint256",
          "name": "currentBlock",
          "type": "uint256"
        },
        {
          "internalType": "bool",
          "name": "long",
          "type": "bool"
        }
      ],
      "name": "getPairPendingAccFee",
      "outputs": [
        {
          "internalType": "uint64",
          "name": "accFee",
          "type": "uint64"
        }
      ],
      "stateMutability": "view",
      "type": "function"
    },
    {
      "inputs": [
        {
          "internalType": "uint256",
          "name": "pairIndex",
          "type": "uint256"
        },
        {
          "internalType": "uint256",
          "name": "currentBlock",
          "type": "uint256"
        }
      ],
      "name": "getPairPendingAccFees",
      "outputs": [
        {
          "internalType": "uint64",
          "name": "accFeeLong",
          "type": "uint64"
        },
        {
          "internalType": "uint64",
          "name": "accFeeShort",
          "type": "uint64"
        },
        {
          "internalType": "int256",
          "name": "pairAccFeeDelta",
          "type": "int256"
        }
      ],
      "stateMutability": "view",
      "type": "function"
    },
    {
      "inputs": [
        {
          "internalType": "uint256",
          "name": "pairIndex",
          "type": "uint256"
        },
        {
          "internalType": "uint256",
          "name": "currentBlock",
          "type": "uint256"
        }
      ],
      "name": "getPairWeightedVaultMarketCapSinceLastUpdate",
      "outputs": [
        {
          "internalType": "uint256",
          "name": "",
          "type": "uint256"
        }
      ],
      "stateMutability": "view",
      "type": "function"
    },
    {
      "inputs": [
        {
          "internalType": "uint256",
          "name": "currentBlock",
          "type": "uint256"
        }
      ],
      "name": "getPendingAccBlockWeightedMarketCap",
      "outputs": [
        {
          "internalType": "uint256",
          "name": "",
          "type": "uint256"
        }
      ],
      "stateMutability": "view",
      "type": "function"
    },
    {
      "inputs": [
        {
          "internalType": "uint64",
          "name": "accFeeLong",
          "type": "uint64"
        },
        {
          "internalType": "uint64",
          "name": "accFeeShort",
          "type": "uint64"
        },
        {
          "internalType": "uint256",
          "name": "oiLong",
          "type": "uint256"
        },
        {
          "internalType": "uint256",
          "name": "oiShort",
          "type": "uint256"
        },
        {
          "internalType": "uint32",
          "name": "feePerBlock",
          "type": "uint32"
        },
        {
          "internalType": "uint256",
          "name": "currentBlock",
          "type": "uint256"
        },
        {
          "internalType": "uint256",
          "name": "accLastUpdatedBlock",
          "type": "uint256"
        },
        {
          "internalType": "uint256",
          "name": "vaultMarketCap",
          "type": "uint256"
        }
      ],
      "name": "getPendingAccFees",
      "outputs": [
        {
          "internalType": "uint64",
          "name": "newAccFeeLong",
          "type": "uint64"
        },
        {
          "internalType": "uint64",
          "name": "newAccFeeShort",
          "type": "uint64"
        },
        {
          "internalType": "int256",
          "name": "delta",
          "type": "int256"
        }
      ],
      "stateMutability": "pure",
      "type": "function"
    },
    {
      "inputs": [
        {
          "components": [
            {
              "internalType": "address",
              "name": "trader",
              "type": "address"
            },
            {
              "internalType": "uint256",
              "name": "pairIndex",
              "type": "uint256"
            },
            {
              "internalType": "uint256",
              "name": "index",
              "type": "uint256"
            },
            {
              "internalType": "bool",
              "name": "long",
              "type": "bool"
            },
            {
              "internalType": "uint256",
              "name": "collateral",
              "type": "uint256"
            },
            {
              "internalType": "uint256",
              "name": "leverage",
              "type": "uint256"
            }
          ],
          "internalType": "struct GNSBorrowingFeesInterfaceV6_3_2.BorrowingFeeInput",
          "name": "input",
          "type": "tuple"
        }
      ],
      "name": "getTradeBorrowingFee",
      "outputs": [
        {
          "internalType": "uint256",
          "name": "fee",
          "type": "uint256"
        }
      ],
      "stateMutability": "view",
      "type": "function"
    },
    {
      "inputs": [
        {
          "internalType": "address",
          "name": "trader",
          "type": "address"
        },
        {
          "internalType": "uint256",
          "name": "pairIndex",
          "type": "uint256"
        },
        {
          "internalType": "uint256",
          "name": "index",
          "type": "uint256"
        }
      ],
      "name": "getTradeInitialAccFees",
      "outputs": [
        {
          "components": [
            {
              "internalType": "uint64",
              "name": "accPairFee",
              "type": "uint64"
            },
            {
              "internalType": "uint64",
              "name": "accGroupFee",
              "type": "uint64"
            },
            {
              "internalType": "uint48",
              "name": "block",
              "type": "uint48"
            },
            {
              "internalType": "uint80",
              "name": "_placeholder",
              "type": "uint80"
            }
          ],
          "internalType": "struct GNSBorrowingFeesInterfaceV6_3_2.InitialAccFees",
          "name": "borrowingFees",
          "type": "tuple"
        },
        {
          "components": [
            {
              "internalType": "uint256",
              "name": "rollover",
              "type": "uint256"
            },
            {
              "internalType": "int256",
              "name": "funding",
              "type": "int256"
            },
            {
              "internalType": "bool",
              "name": "openedAfterUpdate",
              "type": "bool"
            }
          ],
          "internalType": "struct GNSPairInfosInterfaceV6.TradeInitialAccFees",
          "name": "otherFees",
          "type": "tuple"
        }
      ],
      "stateMutability": "view",
      "type": "function"
    },
    {
      "inputs": [
        {
          "components": [
            {
              "internalType": "address",
              "name": "trader",
              "type": "address"
            },
            {
              "internalType": "uint256",
              "name": "pairIndex",
              "type": "uint256"
            },
            {
              "internalType": "uint256",
              "name": "index",
              "type": "uint256"
            },
            {
              "internalType": "uint256",
              "name": "openPrice",
              "type": "uint256"
            },
            {
              "internalType": "bool",
              "name": "long",
              "type": "bool"
            },
            {
              "internalType": "uint256",
              "name": "collateral",
              "type": "uint256"
            },
            {
              "internalType": "uint256",
              "name": "leverage",
              "type": "uint256"
            }
          ],
          "internalType": "struct GNSBorrowingFeesInterfaceV6_3_2.LiqPriceInput",
          "name": "input",
          "type": "tuple"
        }
      ],
      "name": "getTradeLiquidationPrice",
      "outputs": [
        {
          "internalType": "uint256",
          "name": "",
          "type": "uint256"
        }
      ],
      "stateMutability": "view",
      "type": "function"
    },
    {
      "inputs": [
        {
          "internalType": "uint256",
          "name": "accBlockWeightedMarketCap",
          "type": "uint256"
        },
        {
          "internalType": "uint256",
          "name": "lastAccBlockWeightedMarketCap",
          "type": "uint256"
        },
        {
          "internalType": "uint256",
          "name": "blockDelta",
          "type": "uint256"
        }
      ],
      "name": "getWeightedVaultMarketCap",
      "outputs": [
        {
          "internalType": "uint256",
          "name": "",
          "type": "uint256"
        }
      ],
      "stateMutability": "pure",
      "type": "function"
    },
    {
      "inputs": [
        {
          "internalType": "uint16",
          "name": "",
          "type": "uint16"
        }
      ],
      "name": "groups",
      "outputs": [
        {
          "internalType": "uint112",
          "name": "oiLong",
          "type": "uint112"
        },
        {
          "internalType": "uint112",
          "name": "oiShort",
          "type": "uint112"
        },
        {
          "internalType": "uint32",
          "name": "feePerBlock",
          "type": "uint32"
        },
        {
          "internalType": "uint64",
          "name": "accFeeLong",
          "type": "uint64"
        },
        {
          "internalType": "uint64",
          "name": "accFeeShort",
          "type": "uint64"
        },
        {
          "internalType": "uint48",
          "name": "accLastUpdatedBlock",
          "type": "uint48"
        },
        {
          "internalType": "uint80",
          "name": "maxOi",
          "type": "uint80"
        },
        {
          "internalType": "uint256",
          "name": "lastAccBlockWeightedMarketCap",
          "type": "uint256"
        }
      ],
      "stateMutability": "view",
      "type": "function"
    },
    {
      "inputs": [
        {
          "internalType": "address",
          "name": "trader",
          "type": "address"
        },
        {
          "internalType": "uint256",
          "name": "pairIndex",
          "type": "uint256"
        },
        {
          "internalType": "uint256",
          "name": "index",
          "type": "uint256"
        },
        {
          "internalType": "uint256",
          "name": "positionSizeDai",
          "type": "uint256"
        },
        {
          "internalType": "bool",
          "name": "open",
          "type": "bool"
        },
        {
          "internalType": "bool",
          "name": "long",
          "type": "bool"
        }
      ],
      "name": "handleTradeAction",
      "outputs": [],
      "stateMutability": "nonpayable",
      "type": "function"
    },
    {
      "inputs": [
        {
          "internalType": "address",
          "name": "",
          "type": "address"
        },
        {
          "internalType": "uint256",
          "name": "",
          "type": "uint256"
        },
        {
          "internalType": "uint256",
          "name": "",
          "type": "uint256"
        }
      ],
      "name": "initialAccFees",
      "outputs": [
        {
          "internalType": "uint64",
          "name": "accPairFee",
          "type": "uint64"
        },
        {
          "internalType": "uint64",
          "name": "accGroupFee",
          "type": "uint64"
        },
        {
          "internalType": "uint48",
          "name": "block",
          "type": "uint48"
        },
        {
          "internalType": "uint80",
          "name": "_placeholder",
          "type": "uint80"
        }
      ],
      "stateMutability": "view",
      "type": "function"
    },
    {
      "inputs": [
        {
          "internalType": "contract StorageInterfaceV5",
          "name": "_storageT",
          "type": "address"
        },
        {
          "internalType": "contract GNSPairInfosInterfaceV6",
          "name": "_pairInfos",
          "type": "address"
        }
      ],
      "name": "initialize",
      "outputs": [],
      "stateMutability": "nonpayable",
      "type": "function"
    },
    {
      "inputs": [],
      "name": "pairInfos",
      "outputs": [
        {
          "internalType": "contract GNSPairInfosInterfaceV6",
          "name": "",
          "type": "address"
        }
      ],
      "stateMutability": "view",
      "type": "function"
    },
    {
      "inputs": [
        {
          "internalType": "uint256",
          "name": "",
          "type": "uint256"
        }
      ],
      "name": "pairs",
      "outputs": [
        {
          "internalType": "uint32",
          "name": "feePerBlock",
          "type": "uint32"
        },
        {
          "internalType": "uint64",
          "name": "accFeeLong",
          "type": "uint64"
        },
        {
          "internalType": "uint64",
          "name": "accFeeShort",
          "type": "uint64"
        },
        {
          "internalType": "uint48",
          "name": "accLastUpdatedBlock",
          "type": "uint48"
        },
        {
          "internalType": "uint48",
          "name": "_placeholder",
          "type": "uint48"
        },
        {
          "internalType": "uint256",
          "name": "lastAccBlockWeightedMarketCap",
          "type": "uint256"
        }
      ],
      "stateMutability": "view",
      "type": "function"
    },
    {
      "inputs": [
        {
          "internalType": "uint16",
          "name": "groupIndex",
          "type": "uint16"
        },
        {
          "components": [
            {
              "internalType": "uint32",
              "name": "feePerBlock",
              "type": "uint32"
            },
            {
              "internalType": "uint80",
              "name": "maxOi",
              "type": "uint80"
            }
          ],
          "internalType": "struct GNSBorrowingFeesInterfaceV6_3_2.GroupParams",
          "name": "value",
          "type": "tuple"
        }
      ],
      "name": "setGroupParams",
      "outputs": [],
      "stateMutability": "nonpayable",
      "type": "function"
    },
    {
      "inputs": [
        {
          "internalType": "uint16[]",
          "name": "indices",
          "type": "uint16[]"
        },
        {
          "components": [
            {
              "internalType": "uint32",
              "name": "feePerBlock",
              "type": "uint32"
            },
            {
              "internalType": "uint80",
              "name": "maxOi",
              "type": "uint80"
            }
          ],
          "internalType": "struct GNSBorrowingFeesInterfaceV6_3_2.GroupParams[]",
          "name": "values",
          "type": "tuple[]"
        }
      ],
      "name": "setGroupParamsArray",
      "outputs": [],
      "stateMutability": "nonpayable",
      "type": "function"
    },
    {
      "inputs": [
        {
          "internalType": "uint256",
          "name": "pairIndex",
          "type": "uint256"
        },
        {
          "components": [
            {
              "internalType": "uint16",
              "name": "groupIndex",
              "type": "uint16"
            },
            {
              "internalType": "uint32",
              "name": "feePerBlock",
              "type": "uint32"
            }
          ],
          "internalType": "struct GNSBorrowingFeesInterfaceV6_3_2.PairParams",
          "name": "value",
          "type": "tuple"
        }
      ],
      "name": "setPairParams",
      "outputs": [],
      "stateMutability": "nonpayable",
      "type": "function"
    },
    {
      "inputs": [
        {
          "internalType": "uint256[]",
          "name": "indices",
          "type": "uint256[]"
        },
        {
          "components": [
            {
              "internalType": "uint16",
              "name": "groupIndex",
              "type": "uint16"
            },
            {
              "internalType": "uint32",
              "name": "feePerBlock",
              "type": "uint32"
            }
          ],
          "internalType": "struct GNSBorrowingFeesInterfaceV6_3_2.PairParams[]",
          "name": "values",
          "type": "tuple[]"
        }
      ],
      "name": "setPairParamsArray",
      "outputs": [],
      "stateMutability": "nonpayable",
      "type": "function"
    },
    {
      "inputs": [],
      "name": "storageT",
      "outputs": [
        {
          "internalType": "contract StorageInterfaceV5",
          "name": "",
          "type": "address"
        }
      ],
      "stateMutability": "view",
      "type": "function"
    },
    {
      "inputs": [
        {
          "internalType": "uint256",
          "name": "pairIndex",
          "type": "uint256"
        },
        {
          "internalType": "bool",
          "name": "long",
          "type": "bool"
        },
        {
          "internalType": "uint256",
          "name": "positionSizeDai",
          "type": "uint256"
        }
      ],
      "name": "withinMaxGroupOi",
      "outputs": [
        {
          "internalType": "bool",
          "name": "",
          "type": "bool"
        }
      ],
      "stateMutability": "view",
      "type": "function"
    }
  ],
  "bytecode": "0x608060405234801561001057600080fd5b5061455f806100206000396000f3fe608060405234801561001057600080fd5b50600436106101a55760003560e01c80638ee1caa7116100ef578063bdf391cc11610092578063bdf391cc146106b1578063ca90cda5146106d1578063ce67edfb146106e4578063cee4fa5a146106f7578063d62745051461070a578063e4d668671461072d578063f800ece914610740578063ff933fc41461075557600080fd5b80638ee1caa7146104cd5780638f694238146104e057806390895ff114610506578063979b0895146105af5780639d1798cb146105c2578063a4e95196146105d5578063b91ac788146105e8578063bcb788711461069e57600080fd5b80633d17a5d0116101575780633d17a5d014610391578063485cc955146103a65780634c67cfa0146103b9578063706faf3a146103e15780637b64112b146103f45780637cbd3c9814610407578063826616b514610481578063876ffd97146104ba57600080fd5b80630f8df7e0146101aa5780631346b0ff146101ea57806316fff074146102155780631ab5911a1461022e57806322005202146102595780632d28a817146102795780633979324d1461029a575b600080fd5b6101bd6101b83660046138fa565b610775565b604080516001600160401b0394851681529390921660208401521515908201526060015b60405180910390f35b6001546101fd906001600160a01b031681565b6040516001600160a01b0390911681526020016101e1565b6000546101fd906201000090046001600160a01b031681565b61024161023c366004613a8a565b6108f5565b6040516001600160401b0390911681526020016101e1565b61026c610267366004613b15565b610920565b6040516101e19190613bdc565b61028c610287366004613c40565b610a89565b6040519081526020016101e1565b6103266102a8366004613cca565b60026020819052600091825260409091208054600182015491909201546001600160701b0380841693600160701b810490911692600160e01b90910463ffffffff16916001600160401b0380831692600160401b810490911691600160801b820465ffffffffffff1691600160b01b90046001600160501b03169088565b604080516001600160701b03998a16815298909716602089015263ffffffff909516958701959095526001600160401b0392831660608701529116608085015265ffffffffffff1660a08401526001600160501b0390911660c083015260e0820152610100016101e1565b6103a461039f366004613cfd565b610d99565b005b6103a46103b4366004613d31565b610e57565b6103cc6103c7366004613d6a565b610ffe565b604080519283526020830191909152016101e1565b61028c6103ef366004613d83565b6110fb565b610241610402366004613d95565b611397565b61041a610415366004613dc3565b6113a6565b6040805183516001600160401b039081168252602080860151909116818301528483015165ffffffffffff16828401526060948501516001600160501b031694820194909452825160808201529282015160a08401520151151560c082015260e0016101e1565b61049461048f366004613e0c565b6114db565b604080516001600160401b039485168152939092166020840152908201526060016101e1565b61028c6104c8366004613e7e565b6115ce565b6104946104db366004613e7e565b611752565b6104f36104ee366004613d6a565b611902565b60405161ffff90911681526020016101e1565b61056e610514366004613dc3565b60046020908152600093845260408085208252928452828420905282529020546001600160401b0380821691600160401b810490911690600160801b810465ffffffffffff1690600160b01b90046001600160501b031684565b604080516001600160401b03958616815294909316602085015265ffffffffffff909116918301919091526001600160501b031660608201526080016101e1565b61028c6105bd366004613d6a565b611a25565b6103a46105d0366004613ea0565b611aca565b61028c6105e3366004613ec4565b611b7b565b6106526105f6366004613d6a565b6003602052600090815260409020600181015460029091015463ffffffff8216916001600160401b03600160201b8204811692600160601b83049091169165ffffffffffff600160a01b8204811692600160d01b909204169086565b6040805163ffffffff9790971687526001600160401b039586166020880152939094169285019290925265ffffffffffff908116606085015216608083015260a082015260c0016101e1565b6104946106ac366004613ec4565b611c49565b6106c46106bf366004613d6a565b611d93565b6040516101e19190614025565b6103a46106df36600461407c565b611ef3565b6103a46106f23660046140e7565b61201c565b6103a461070536600461407c565b61236e565b61071d61071836600461414e565b612481565b60405190151581526020016101e1565b61028c61073b366004614186565b6125a7565b6107486125e6565b6040516101e191906141b2565b610768610763366004613cca565b612905565b6040516101e19190614214565b600080600080888a8151811061078d5761078d614223565b60200260200101519050876040015165ffffffffffff16816020015165ffffffffffff16109150600189516107c2919061424f565b8a036107e95780516107d59086886108f5565b93506107e2878688611397565b9250610879565b6000896107f78c6001614262565b8151811061080757610807614223565b602002602001015190508280156108365750886040015165ffffffffffff16816020015165ffffffffffff1611155b15610849576000809450945050506108e9565b86610858578060a0015161085e565b80608001515b94508661086f578060e00151610875565b8060c001515b9350505b81156108a457602088015161088e9085614275565b885190945061089d9084614275565b92506108e7565b856108b35780606001516108b9565b80604001515b6108c39085614275565b9350856108d4578060e001516108da565b8060c001515b6108e49084614275565b92505b505b96509650969350505050565b60008060006109048686611c49565b5091509150836109145780610916565b815b9695505050505050565b60606000826001600160401b0381111561093c5761093c613795565b60405190808252806020026020018201604052801561097557816020015b610962613715565b81526020019060019003908161095a5790505b5090508260005b81811015610a7d576002600087878481811061099a5761099a614223565b90506020020160208101906109af9190613cca565b61ffff168152602080820192909252604090810160002081516101008101835281546001600160701b038082168352600160701b82041694820194909452600160e01b90930463ffffffff169183019190915260018101546001600160401b038082166060850152600160401b8204166080840152600160801b810465ffffffffffff1660a0840152600160b01b90046001600160501b031660c08301526002015460e08201528351849083908110610a6a57610a6a614223565b602090810291909101015260010161097c565b50909150505b92915050565b80516001600160a01b03166000908152600460209081526040808320828501805185529083528184208286015185528352818420825160808101845290546001600160401b038082168352600160401b82041682860152600160801b810465ffffffffffff1682850152600160b01b90046001600160501b0316606082015290518452600383528184208054835181860281018601909452808452919385939290849084015b82821015610be0576000848152602090819020604080516101208101825260028602909201805461ffff8116845265ffffffffffff62010000820416848601526001600160401b03600160401b808304821694860194909452600160801b80830482166060870152600160c01b928390048216608087015260019384015480831660a0880152948504821660c08701528404811660e086015292049091166101008301529083529092019101610b2f565b5050505090506000610bf06129b6565b6040805161012081018252600080825260208201819052918101829052606081018290526080810182905260a0810182905260c0810182905260e08101829052610100810191909152909150825115610c615782600081518110610c5657610c56614223565b602002602001015190505b82511580610c865750836040015165ffffffffffff16816020015165ffffffffffff16115b15610cda578351835115610cb1578660600151610ca7578160e00151610cc4565b8160c00151610cc4565b610cc48760200151848960600151611397565b610cce9190614275565b6001600160401b031694505b82515b8015610d5d5760008080610d07610cf560018661424f565b888a8d602001518e606001518b610775565b925092509250816001600160401b0316836001600160401b031611610d2c5781610d2e565b825b610d41906001600160401b03168a614262565b98508015610d5157505050610d5d565b50505060001901610cdd565b5060646402540be400868860a001518960800151610d7b9190614295565b610d859190614295565b610d8f91906142c2565b61091691906142c2565b600160009054906101000a90046001600160a01b03166001600160a01b031663481c6a756040518163ffffffff1660e01b8152600401602060405180830381865afa158015610dec573d6000803e3d6000fd5b505050506040513d601f19601f82011682018060405250810190610e1091906142d6565b6001600160a01b0316336001600160a01b031614610e495760405162461bcd60e51b8152600401610e40906142f3565b60405180910390fd5b610e538282612a3c565b5050565b600054610100900460ff1615808015610e775750600054600160ff909116105b80610e915750303b158015610e91575060005460ff166001145b610ef45760405162461bcd60e51b815260206004820152602e60248201527f496e697469616c697a61626c653a20636f6e747261637420697320616c72656160448201526d191e481a5b9a5d1a585b1a5e995960921b6064820152608401610e40565b6000805460ff191660011790558015610f17576000805461ff0019166101001790555b6001600160a01b03831615801590610f3757506001600160a01b03821615155b610f725760405162461bcd60e51b815260206004820152600c60248201526b57524f4e475f504152414d5360a01b6044820152606401610e40565b6000805462010000600160b01b031916620100006001600160a01b038681169190910291909117909155600180546001600160a01b0319169184169190911790558015610ff9576000805461ff0019169055604051600181527f7f26b83ff96e1f2b6a682f133852f6798a09c465da95921460cefb38474024989060200160405180910390a15b505050565b600080546040516328daca2160e01b8152600481018490526024810183905282916201000090046001600160a01b0316906328daca2190604401602060405180830381865afa158015611055573d6000803e3d6000fd5b505050506040513d601f19601f820116820180604052508101906110799190614319565b6000546040516328daca2160e01b81526004810186905260016024820152620100009091046001600160a01b0316906328daca2190604401602060405180830381865afa1580156110ce573d6000803e3d6000fd5b505050506040513d601f19601f820116820180604052508101906110f29190614319565b91509150915091565b6001546000906001600160a01b0316636bcbe860606084013561112460a0860160808701614332565b8560a001358660c0013561119f6040518060c001604052808a600001602081019061114f919061434f565b6001600160a01b0316815260208b810135908201526040808c01359082015260600161118160a08c0160808d01614332565b151581526020018a60a0013581526020018a60c00135815250610a89565b6001546001600160a01b03166358f796bc6111bd60208c018c61434f565b604080516001600160e01b031960e085901b1681526001600160a01b03909216600483015260208d013560248301528c0135604482015260a08c01356064820152608401602060405180830381865afa15801561121e573d6000803e3d6000fd5b505050506040513d601f19601f820116820180604052508101906112429190614319565b61124c9190614262565b6001546001600160a01b031663f6c50efe61126a60208c018c61434f565b8b602001358c604001358d60800160208101906112879190614332565b6040516001600160e01b031960e087901b1681526001600160a01b039094166004850152602484019290925260448301521515606482015260a08c0135608482015260c08c013560a482015260c401602060405180830381865afa1580156112f3573d6000803e3d6000fd5b505050506040513d601f19601f820116820180604052508101906113179190614319565b6040516001600160e01b031960e089901b1681526004810196909652931515602486015260448501929092526064840152608483015260a482015260c4015b602060405180830381865afa158015611373573d6000803e3d6000fd5b505050506040513d601f19601f82011682018060405250810190610a839190614319565b60008060006109048686611752565b604080516080810182526000808252602080830182905282840182905260608084018390528451908101855282815290810182905292830152906001600160a01b0385811660008181526004602081815260408084208a85528252808420898552825292839020835160808101855290546001600160401b038082168352600160401b82041692820192909252600160801b820465ffffffffffff1681850152600160b01b9091046001600160501b031660608201526001549251632f6ac02760e11b815291820193909352602481018890526044810187905291945090911690635ed5804e90606401606060405180830381865afa1580156114ad573d6000803e3d6000fd5b505050506040513d601f19601f820116820180604052508101906114d1919061436c565b9050935093915050565b60008060008486101561151e5760405162461bcd60e51b815260206004820152600b60248201526a212627a1a5afa7a92222a960a91b6044820152606401610e40565b83611529868861424f565b63ffffffff891661153a8b8d6143cd565b61154491906143ed565b61154e91906143ed565b611558919061441d565b905060008082121561158657611570826000196143ed565b8c9450905061157f818c61444b565b9250611598565b5080611592818d61444b565b93508a92505b6001600160401b038111156115bf5760405162461bcd60e51b8152600401610e409061446b565b50985098509895505050505050565b6000828152600360209081526040808320815181546101009481028201850190935260e08101838152859491938492849190879085015b828210156116b6576000848152602090819020604080516101208101825260028602909201805461ffff8116845265ffffffffffff62010000820416848601526001600160401b03600160401b808304821694860194909452600160801b80830482166060870152600160c01b928390048216608087015260019384015480831660a0880152948504821660c08701528404811660e086015292049091166101008301529083529092019101611605565b50505090825250600182015463ffffffff811660208301526001600160401b03600160201b820481166040840152600160601b820416606083015265ffffffffffff600160a01b820481166080840152600160d01b9091041660a082015260029091015460c090910152905061174a61172e84611a25565b60c0830151608084015161073b9065ffffffffffff168761424f565b949350505050565b60008060008061176286866115ce565b6000878152600360209081526040808320815181546101009481028201850190935260e081018381529596509394909284928491879085015b8282101561184c576000848152602090819020604080516101208101825260028602909201805461ffff8116845265ffffffffffff62010000820416848601526001600160401b03600160401b808304821694860194909452600160801b80830482166060870152600160c01b928390048216608087015260019384015480831660a0880152948504821660c08701528404811660e08601529204909116610100830152908352909201910161179b565b50505090825250600182015463ffffffff811660208301526001600160401b03600160201b820481166040840152600160601b820416606083015265ffffffffffff600160a01b820481166080840152600160d01b9091041660a082015260029091015460c09091015290506000806118c489610ffe565b915091506118f083604001518460600151848487602001518d896080015165ffffffffffff168b6114db565b919b909a509098509650505050505050565b600081815260036020908152604080832080548251818502810185019093528083528493849084015b828210156119dc576000848152602090819020604080516101208101825260028602909201805461ffff8116845265ffffffffffff62010000820416848601526001600160401b03600160401b808304821694860194909452600160801b80830482166060870152600160c01b928390048216608087015260019384015480831660a0880152948504821660c08701528404811660e08601529204909116610100830152908352909201910161192b565b5050505090508051600014611a1b5780600182516119fa919061424f565b81518110611a0a57611a0a614223565b602002602001015160000151611a1e565b60005b9392505050565b60008060029054906101000a90046001600160a01b03166001600160a01b031663fbfa77cf6040518163ffffffff1660e01b8152600401602060405180830381865afa158015611a79573d6000803e3d6000fd5b505050506040513d601f19601f82011682018060405250810190611a9d91906142d6565b6001600160a01b031663979b0895836040518263ffffffff1660e01b815260040161135691815260200190565b600160009054906101000a90046001600160a01b03166001600160a01b031663481c6a756040518163ffffffff1660e01b8152600401602060405180830381865afa158015611b1d573d6000803e3d6000fd5b505050506040513d601f19601f82011682018060405250810190611b4191906142d6565b6001600160a01b0316336001600160a01b031614611b715760405162461bcd60e51b8152600401610e40906142f3565b610e538282612b8d565b61ffff8216600090815260026020818152604080842081516101008101835281546001600160701b038082168352600160701b82041694820194909452600160e01b90930463ffffffff169183019190915260018101546001600160401b038082166060850152600160401b8204166080840152600160801b810465ffffffffffff1660a0840152600160b01b90046001600160501b031660c08301529091015460e082015261174a611c2d84611a25565b60e083015160a084015161073b9065ffffffffffff168761424f565b600080600080611c598686611b7b565b61ffff871660009081526002602081815260409283902083516101008101855281546001600160701b03808216808452600160701b830490911694830194909452600160e01b900463ffffffff169481019490945260018101546001600160401b0380821660608701819052600160401b830490911660808701819052600160801b830465ffffffffffff1660a0880152600160b01b9092046001600160501b031660c0870152919093015460e08501529394509192611d83929091906402540be40090611d2f90670de0b6b3a7640000614295565b611d3991906142c2565b6402540be40085602001516001600160701b0316670de0b6b3a7640000611d609190614295565b611d6a91906142c2565b85604001518b8760a0015165ffffffffffff16896114db565b9199909850909650945050505050565b611d9b613759565b6000828152600360209081526040808320815181546101009481028201850190935260e08101838152909491938593919285929185015b82821015611e83576000848152602090819020604080516101208101825260028602909201805461ffff8116845265ffffffffffff62010000820416848601526001600160401b03600160401b808304821694860194909452600160801b80830482166060870152600160c01b928390048216608087015260019384015480831660a0880152948504821660c08701528404811660e086015292049091166101008301529083529092019101611dd2565b50505090825250600182015463ffffffff811660208301526001600160401b03600160201b820481166040840152600160601b820416606083015265ffffffffffff600160a01b820481166080840152600160d01b9091041660a082015260029091015460c09091015292915050565b600160009054906101000a90046001600160a01b03166001600160a01b031663481c6a756040518163ffffffff1660e01b8152600401602060405180830381865afa158015611f46573d6000803e3d6000fd5b505050506040513d601f19601f82011682018060405250810190611f6a91906142d6565b6001600160a01b0316336001600160a01b031614611f9a5760405162461bcd60e51b8152600401610e40906142f3565b82818114611fba5760405162461bcd60e51b8152600401610e409061448d565b60005b818110156120145761200c868683818110611fda57611fda614223565b9050602002016020810190611fef9190613cca565b85858481811061200157612001614223565b905060400201612a3c565b600101611fbd565b505050505050565b600060029054906101000a90046001600160a01b03166001600160a01b031662b127836040518163ffffffff1660e01b8152600401602060405180830381865afa15801561206e573d6000803e3d6000fd5b505050506040513d601f19601f8201168201806040525081019061209291906142d6565b6001600160a01b0316336001600160a01b0316146120e35760405162461bcd60e51b815260206004820152600e60248201526d43414c4c4241434b535f4f4e4c5960901b6044820152606401610e40565b60006120ee86611902565b905060006120fa6129b6565b905060008061210989846132c5565b9150915060008061211a86866133e4565b9150915061212a86888a8c6134e9565b8715612300576000604051806080016040528089612148578561214a565b865b6001600160401b03168152602001896121635783612165565b845b6001600160401b0316815260200161217c886136e9565b65ffffffffffff16815260200160006001600160501b0316815250905080600460008f6001600160a01b03166001600160a01b0316815260200190815260200160002060008e815260200190815260200160002060008d815260200190815260200160002060008201518160000160006101000a8154816001600160401b0302191690836001600160401b0316021790555060208201518160000160086101000a8154816001600160401b0302191690836001600160401b0316021790555060408201518160000160106101000a81548165ffffffffffff021916908365ffffffffffff16021790555060608201518160000160166101000a8154816001600160501b0302191690836001600160501b031602179055509050508b8d6001600160a01b03167faa00ca5c6f282cb9f35953ecb0eaf8e39c95b7c8df114efac12162a85c085e608d846000015185602001516040516122f6939291909283526001600160401b03918216602084015216604082015260600190565b60405180910390a3505b8a8c6001600160a01b03167f66baa1848f5d4d14567e9bc527e5608778c86e512490d413cfafc9250327308f8c8b8b8e6040516123589493929190938452911515602084015215156040830152606082015260800190565b60405180910390a3505050505050505050505050565b600160009054906101000a90046001600160a01b03166001600160a01b031663481c6a756040518163ffffffff1660e01b8152600401602060405180830381865afa1580156123c1573d6000803e3d6000fd5b505050506040513d601f19601f820116820180604052508101906123e591906142d6565b6001600160a01b0316336001600160a01b0316146124155760405162461bcd60e51b8152600401610e40906142f3565b828181146124355760405162461bcd60e51b8152600401610e409061448d565b60005b818110156120145761247986868381811061245557612455614223565b9050602002013585858481811061246e5761246e614223565b905060400201612b8d565b600101612438565b6000806002600061249187611902565b61ffff168152602080820192909252604090810160002081516101008101835281546001600160701b038082168352600160701b82041694820194909452600160e01b90930463ffffffff169183019190915260018101546001600160401b038082166060850152600160401b8204166080840152600160801b810465ffffffffffff1660a0840152600160b01b90046001600160501b031660c0830181905260029091015460e0830152909150158061259e575060c08101516001600160501b0316670de0b6b3a764000061256c6402540be40086614295565b61257691906142c2565b85612585578260200151612588565b82515b6001600160701b031661259b9190614262565b11155b95945050505050565b60008082116125b757600161174a565b6125c1838561424f565b6125dc701d6329f1c35ca4bfabb9f561000000000084614295565b61174a91906142c2565b606060008060029054906101000a90046001600160a01b03166001600160a01b0316633078fff56040518163ffffffff1660e01b8152600401602060405180830381865afa15801561263c573d6000803e3d6000fd5b505050506040513d601f19601f8201168201806040525081019061266091906142d6565b6001600160a01b03166335b03c176040518163ffffffff1660e01b8152600401602060405180830381865afa15801561269d573d6000803e3d6000fd5b505050506040513d601f19601f820116820180604052508101906126c191906142d6565b6001600160a01b031663b81b2b716040518163ffffffff1660e01b8152600401602060405180830381865afa1580156126fe573d6000803e3d6000fd5b505050506040513d601f19601f820116820180604052508101906127229190614319565b90506000816001600160401b0381111561273e5761273e613795565b60405190808252806020026020018201604052801561277757816020015b612764613759565b81526020019060019003908161275c5790505b50905060005b828110156128fe576000818152600360209081526040808320815181546101009481028201850190935260e08101838152909491938593919285929185015b8282101561286d576000848152602090819020604080516101208101825260028602909201805461ffff8116845265ffffffffffff62010000820416848601526001600160401b03600160401b808304821694860194909452600160801b80830482166060870152600160c01b928390048216608087015260019384015480831660a0880152948504821660c08701528404811660e0860152920490911661010083015290835290920191016127bc565b50505090825250600182015463ffffffff811660208301526001600160401b03600160201b820481166040840152600160601b820416606083015265ffffffffffff600160a01b820481166080840152600160d01b9091041660a082015260029091015460c09091015282518390839081106128eb576128eb614223565b602090810291909101015260010161277d565b5092915050565b61290d613715565b5061ffff1660009081526002602081815260409283902083516101008101855281546001600160701b038082168352600160701b82041693820193909352600160e01b90920463ffffffff169382019390935260018301546001600160401b038082166060840152600160401b8204166080830152600160801b810465ffffffffffff1660a0830152600160b01b90046001600160501b031660c082015291015460e082015290565b600061a4b14614806129ca575062066eed46145b15612a375760646001600160a01b031663a3b1b31d6040518163ffffffff1660e01b8152600401602060405180830381865afa158015612a0e573d6000803e3d6000fd5b505050506040513d601f19601f82011682018060405250810190612a329190614319565b905090565b504390565b60008261ffff1611612a7a5760405162461bcd60e51b8152602060048201526007602482015266047524f55505f360cc1b6044820152606401610e40565b612a8b82612a866129b6565b6133e4565b50612a9b905060208201826144b3565b61ffff8316600090815260026020908152604091829020805463ffffffff94909416600160e01b026001600160e01b0390941693909317909255612ae4919083019083016144ce565b61ffff8316600081815260026020908152604090912060010180546001600160501b0394909416600160b01b026001600160b01b0390941693909317909255907f88d808712bd68b7f7473d7173bcddf46451c2122e6b14ff487edb7384a063a0a90612b52908401846144b3565b612b6260408501602086016144ce565b6040805163ffffffff90931683526001600160501b0390911660208301520160405180910390a25050565b600082815260036020526040812090612ba584611902565b90506000612bb16129b6565b9050612bbd85826132c5565b505061ffff8216612bd16020860186613cca565b61ffff161461323757612be482826133e4565b50612bfd9050612bf76020860186613cca565b826133e4565b5050600080612c0b87610ffe565b91509150612c1d8460016000856134e9565b612c2a84600080846134e9565b612c43612c3a6020880188613cca565b600180856134e9565b612c5d612c536020880188613cca565b60006001846134e9565b6000600281612c6f60208a018a613cca565b61ffff1661ffff168152602001908152602001600020604051806101000160405290816000820160009054906101000a90046001600160701b03166001600160701b03166001600160701b0316815260200160008201600e9054906101000a90046001600160701b03166001600160701b03166001600160701b0316815260200160008201601c9054906101000a900463ffffffff1663ffffffff1663ffffffff1681526020016001820160009054906101000a90046001600160401b03166001600160401b03166001600160401b031681526020016001820160089054906101000a90046001600160401b03166001600160401b03166001600160401b031681526020016001820160109054906101000a900465ffffffffffff1665ffffffffffff1665ffffffffffff1681526020016001820160169054906101000a90046001600160501b03166001600160501b03166001600160501b0316815260200160028201548152505090506000600260008761ffff1661ffff168152602001908152602001600020604051806101000160405290816000820160009054906101000a90046001600160701b03166001600160701b03166001600160701b0316815260200160008201600e9054906101000a90046001600160701b03166001600160701b03166001600160701b0316815260200160008201601c9054906101000a900463ffffffff1663ffffffff1663ffffffff1681526020016001820160009054906101000a90046001600160401b03166001600160401b03166001600160401b031681526020016001820160089054906101000a90046001600160401b03166001600160401b03166001600160401b031681526020016001820160109054906101000a900465ffffffffffff1665ffffffffffff1665ffffffffffff1681526020016001820160169054906101000a90046001600160501b03166001600160501b03166001600160501b031681526020016002820154815250509050866000016040518061012001604052808a6000016020810190612f6f9190613cca565b61ffff168152602001612f81886136e9565b65ffffffffffff16815260200184606001516001600160401b0316815260200184608001516001600160401b0316815260200183606001516001600160401b0316815260200183608001516001600160401b031681526020018960010160049054906101000a90046001600160401b03166001600160401b0316815260200189600101600c9054906101000a90046001600160401b03166001600160401b0316815260200160006001600160401b0316815250908060018154018082558091505060019003906000526020600020906002020160009091909190915060008201518160000160006101000a81548161ffff021916908361ffff16021790555060208201518160000160026101000a81548165ffffffffffff021916908365ffffffffffff16021790555060408201518160000160086101000a8154816001600160401b0302191690836001600160401b0316021790555060608201518160000160106101000a8154816001600160401b0302191690836001600160401b0316021790555060808201518160000160186101000a8154816001600160401b0302191690836001600160401b0316021790555060a08201518160010160006101000a8154816001600160401b0302191690836001600160401b0316021790555060c08201518160010160086101000a8154816001600160401b0302191690836001600160401b0316021790555060e08201518160010160106101000a8154816001600160401b0302191690836001600160401b031602179055506101008201518160010160186101000a8154816001600160401b0302191690836001600160401b0316021790555050508760000160208101906131fc9190613cca565b61ffff168661ffff168a7f5beb7d73e1c3cd532d47c9e896931df26d9be450a833bd5fe1ace6bf5690d46860405160405180910390a4505050505b61324760408501602086016144b3565b60018401805463ffffffff191663ffffffff929092169190911790556132706020850185613cca565b61ffff16857fb952776dd028b221fddb797daabb4b4fde763e8273080fec7183df71ab84507b6132a660408801602089016144b3565b60405163ffffffff909116815260200160405180910390a35050505050565b60008060006132d48585611752565b60008881526003602052604090206001810180546001600160401b03808716600160201b026bffffffffffffffff0000000019918716600160601b0291909116640100000000600160a01b031990921691909117179055929550909350915061333c856136e9565b8160010160146101000a81548165ffffffffffff021916908365ffffffffffff16021790555061336b85611a25565b600282018190556001820154604080518881526001600160401b03600160201b840481166020830152600160601b90930490921690820152606081019190915286907fdfb420060d958fae05b55542f1db8397c379c7b40461f5ccc47df0df8ecf0551906080015b60405180910390a250509250929050565b60008060006133f38585611c49565b61ffff881660009081526002602052604090206001810180546001600160801b031916600160401b6001600160401b038681169190910267ffffffffffffffff1916919091179086161790559295509093509150613450856136e9565b8160010160106101000a81548165ffffffffffff021916908365ffffffffffff16021790555061347f85611a25565b600282018190556001820154604080518881526001600160401b038084166020830152600160401b90930490921690820152606081019190915261ffff8716907f7672014c79d6eb7b66523664177345f0729875e37653757b1cc1f70ba0f15798906080016133d3565b61ffff84166000818152600260205260408120911561367c57670de0b6b3a764000061351a6402540be40085614295565b61352491906142c2565b92506001600160701b0383111561354d5760405162461bcd60e51b8152600401610e409061446b565b508184156135d7578361359a5781546001600160701b0380831691161161357e5781546001600160701b0316613580565b805b825461359591906001600160701b03166144e9565b6135b0565b81546135b09082906001600160701b0316614509565b82546dffffffffffffffffffffffffffff19166001600160701b039190911617825561367c565b836136315781546001600160701b03808316600160701b909204161161360e578154600160701b90046001600160701b0316613610565b805b825461362c9190600160701b90046001600160701b03166144e9565b61364e565b815461364e908290600160701b90046001600160701b0316614509565b82546001600160701b0391909116600160701b026dffffffffffffffffffffffffffff60701b199091161782555b8154604080516001600160701b0380851682528084166020830152600160701b90930490921690820152841515908615159061ffff8916907f946036ec838a96db6089510038e2de4a934fb985f2ba9ef85dd4166f622db2339060600160405180910390a4505050505050565b600065ffffffffffff8211156137115760405162461bcd60e51b8152600401610e409061446b565b5090565b6040805161010081018252600080825260208201819052918101829052606081018290526080810182905260a0810182905260c0810182905260e081019190915290565b6040805160e081018252606080825260006020830181905292820183905281018290526080810182905260a0810182905260c081019190915290565b634e487b7160e01b600052604160045260246000fd5b60405161012081016001600160401b03811182821017156137ce576137ce613795565b60405290565b604051601f8201601f191681016001600160401b03811182821017156137fc576137fc613795565b604052919050565b803561ffff8116811461381657600080fd5b919050565b803565ffffffffffff8116811461381657600080fd5b80356001600160401b038116811461381657600080fd5b80356001600160501b038116811461381657600080fd5b60006080828403121561387157600080fd5b604051608081018181106001600160401b038211171561389357613893613795565b6040529050806138a283613831565b81526138b060208401613831565b60208201526138c16040840161381b565b60408201526138d260608401613848565b60608201525092915050565b80151581146138ec57600080fd5b50565b8035613816816138de565b60008060008060008061012080888a03121561391557600080fd5b873596506020808901356001600160401b038082111561393457600080fd5b818b0191508b601f83011261394857600080fd5b81358181111561395a5761395a613795565b613968848260051b016137d4565b818152848101925090850283018401908d82111561398557600080fd5b928401925b81841015613a4b5785848f0312156139a25760008081fd5b6139aa6137ab565b6139b385613804565b81526139c086860161381b565b8682015260406139d1818701613831565b9082015260606139e2868201613831565b9082015260806139f3868201613831565b9082015260a0613a04868201613831565b9082015260c0613a15868201613831565b9082015260e0613a26868201613831565b90820152610100613a38868201613831565b908201528352928501929184019161398a565b809a50505050505050613a61886040890161385f565b935060c08701359250613a7660e088016138ef565b915061010087013590509295509295509295565b600080600060608486031215613a9f57600080fd5b613aa884613804565b9250602084013591506040840135613abf816138de565b809150509250925092565b60008083601f840112613adc57600080fd5b5081356001600160401b03811115613af357600080fd5b6020830191508360208260051b8501011115613b0e57600080fd5b9250929050565b60008060208385031215613b2857600080fd5b82356001600160401b03811115613b3e57600080fd5b613b4a85828601613aca565b90969095509350505050565b6001600160701b038082511683528060208301511660208401525063ffffffff604082015116604083015260608101516001600160401b038082166060850152806080840151166080850152505065ffffffffffff60a08201511660a083015260c0810151613bd060c08401826001600160501b03169052565b5060e090810151910152565b6020808252825182820181905260009190848201906040850190845b81811015613c1f57613c0b838551613b56565b928401926101009290920191600101613bf8565b50909695505050505050565b6001600160a01b03811681146138ec57600080fd5b600060c08284031215613c5257600080fd5b60405160c081018181106001600160401b0382111715613c7457613c74613795565b6040528235613c8281613c2b565b8082525060208301356020820152604083013560408201526060830135613ca8816138de565b60608201526080838101359082015260a0928301359281019290925250919050565b600060208284031215613cdc57600080fd5b611a1e82613804565b600060408284031215613cf757600080fd5b50919050565b60008060608385031215613d1057600080fd5b613d1983613804565b9150613d288460208501613ce5565b90509250929050565b60008060408385031215613d4457600080fd5b8235613d4f81613c2b565b91506020830135613d5f81613c2b565b809150509250929050565b600060208284031215613d7c57600080fd5b5035919050565b600060e08284031215613cf757600080fd5b600080600060608486031215613daa57600080fd5b83359250602084013591506040840135613abf816138de565b600080600060608486031215613dd857600080fd5b8335613de381613c2b565b95602085013595506040909401359392505050565b803563ffffffff8116811461381657600080fd5b600080600080600080600080610100898b031215613e2957600080fd5b613e3289613831565b9750613e4060208a01613831565b96506040890135955060608901359450613e5c60808a01613df8565b979a969950949793969560a0850135955060c08501359460e001359350915050565b60008060408385031215613e9157600080fd5b50508035926020909101359150565b60008060608385031215613eb357600080fd5b82359150613d288460208501613ce5565b60008060408385031215613ed757600080fd5b613ee083613804565b946020939093013593505050565b805160e08084528151848201819052600092610100916020918201918388019190865b82811015613fa1578451805161ffff1685528281015165ffffffffffff16838601526040808201516001600160401b039081169187019190915260608083015182169087015260808083015182169087015260a08083015182169087015260c080830151821690870152888201518116898701529087015116868501529381019361012090930192600101613f11565b508781015163ffffffff1690890152506040808701516001600160401b039081169189019190915260608088015191821690890152935060808601519350613ff3608088018565ffffffffffff169052565b60a0860151935061400e60a088018565ffffffffffff169052565b60c086015160c08801528094505050505092915050565b602081526000611a1e6020830184613eee565b60008083601f84011261404a57600080fd5b5081356001600160401b0381111561406157600080fd5b6020830191508360208260061b8501011115613b0e57600080fd5b6000806000806040858703121561409257600080fd5b84356001600160401b03808211156140a957600080fd5b6140b588838901613aca565b909650945060208701359150808211156140ce57600080fd5b506140db87828801614038565b95989497509550505050565b60008060008060008060c0878903121561410057600080fd5b863561410b81613c2b565b95506020870135945060408701359350606087013592506080870135614130816138de565b915060a0870135614140816138de565b809150509295509295509295565b60008060006060848603121561416357600080fd5b833592506020840135614175816138de565b929592945050506040919091013590565b60008060006060848603121561419b57600080fd5b505081359360208301359350604090920135919050565b6000602080830181845280855180835260408601915060408160051b870101925083870160005b8281101561420757603f198886030184526141f5858351613eee565b945092850192908501906001016141d9565b5092979650505050505050565b6101008101610a838284613b56565b634e487b7160e01b600052603260045260246000fd5b634e487b7160e01b600052601160045260246000fd5b81810381811115610a8357610a83614239565b80820180821115610a8357610a83614239565b6001600160401b038281168282160390808211156128fe576128fe614239565b8082028115828204841417610a8357610a83614239565b634e487b7160e01b600052601260045260246000fd5b6000826142d1576142d16142ac565b500490565b6000602082840312156142e857600080fd5b8151611a1e81613c2b565b6020808252600c908201526b4d414e414745525f4f4e4c5960a01b604082015260600190565b60006020828403121561432b57600080fd5b5051919050565b60006020828403121561434457600080fd5b8135611a1e816138de565b60006020828403121561436157600080fd5b8135611a1e81613c2b565b60006060828403121561437e57600080fd5b604051606081018181106001600160401b03821117156143a0576143a0613795565b8060405250825181526020830151602082015260408301516143c1816138de565b60408201529392505050565b81810360008312801583831316838312821617156128fe576128fe614239565b80820260008212600160ff1b8414161561440957614409614239565b8181058314821517610a8357610a83614239565b60008261442c5761442c6142ac565b600160ff1b82146000198414161561444657614446614239565b500590565b6001600160401b038181168382160190808211156128fe576128fe614239565b6020808252600890820152674f564552464c4f5760c01b604082015260600190565b6020808252600c908201526b0aea49e9c8ebe988a9c8ea8960a31b604082015260600190565b6000602082840312156144c557600080fd5b611a1e82613df8565b6000602082840312156144e057600080fd5b611a1e82613848565b6001600160701b038281168282160390808211156128fe576128fe614239565b6001600160701b038181168382160190808211156128fe576128fe61423956fea2646970667358221220455741ae1c097709f1a140a9bf7b2af337ce8f6034fa8f2aba6abd687682e4fa64736f6c63430008110033",
  "linkReferences": {},
  "deployedLinkReferences": {}
}