{
  "_format": "hh-sol-artifact-1",
  "contractName": "GNSBorrowingFeesV6_4",
  "sourceName": "contracts/v6.4/GNSBorrowingFeesV6_4.sol",
  "abi": [
    {
      "anonymous": false,
      "inputs": [
        {
          "indexed": true,
          "internalType": "uint16",
          "name": "groupIndex",
          "type": "uint16"
        },
        {
          "indexed": false,
          "internalType": "uint256",
          "name": "currentBlock",
          "type": "uint256"
        },
        {
          "indexed": false,
          "internalType": "uint64",
          "name": "accFeeLong",
          "type": "uint64"
        },
        {
          "indexed": false,
          "internalType": "uint64",
          "name": "accFeeShort",
          "type": "uint64"
        },
        {
          "indexed": false,
          "internalType": "uint256",
          "name": "accBlockWeightedMarketCap",
          "type": "uint256"
        }
      ],
      "name": "GroupAccFeesUpdated",
      "type": "event"
    },
    {
      "anonymous": false,
      "inputs": [
        {
          "indexed": true,
          "internalType": "uint16",
          "name": "groupIndex",
          "type": "uint16"
        },
        {
          "indexed": true,
          "internalType": "bool",
          "name": "long",
          "type": "bool"
        },
        {
          "indexed": true,
          "internalType": "bool",
          "name": "increase",
          "type": "bool"
        },
        {
          "indexed": false,
          "internalType": "uint112",
          "name": "amount",
          "type": "uint112"
        },
        {
          "indexed": false,
          "internalType": "uint112",
          "name": "oiLong",
          "type": "uint112"
        },
        {
          "indexed": false,
          "internalType": "uint112",
          "name": "oiShort",
          "type": "uint112"
        }
      ],
      "name": "GroupOiUpdated",
      "type": "event"
    },
    {
      "anonymous": false,
      "inputs": [
        {
          "indexed": true,
          "internalType": "uint16",
          "name": "groupIndex",
          "type": "uint16"
        },
        {
          "indexed": false,
          "internalType": "uint32",
          "name": "feePerBlock",
          "type": "uint32"
        },
        {
          "indexed": false,
          "internalType": "uint80",
          "name": "maxOi",
          "type": "uint80"
        }
      ],
      "name": "GroupUpdated",
      "type": "event"
    },
    {
      "anonymous": false,
      "inputs": [
        {
          "indexed": false,
          "internalType": "uint8",
          "name": "version",
          "type": "uint8"
        }
      ],
      "name": "Initialized",
      "type": "event"
    },
    {
      "anonymous": false,
      "inputs": [
        {
          "indexed": true,
          "internalType": "uint256",
          "name": "pairIndex",
          "type": "uint256"
        },
        {
          "indexed": false,
          "internalType": "uint256",
          "name": "currentBlock",
          "type": "uint256"
        },
        {
          "indexed": false,
          "internalType": "uint64",
          "name": "accFeeLong",
          "type": "uint64"
        },
        {
          "indexed": false,
          "internalType": "uint64",
          "name": "accFeeShort",
          "type": "uint64"
        },
        {
          "indexed": false,
          "internalType": "uint256",
          "name": "accBlockWeightedMarketCap",
          "type": "uint256"
        }
      ],
      "name": "PairAccFeesUpdated",
      "type": "event"
    },
    {
      "anonymous": false,
      "inputs": [
        {
          "indexed": true,
          "internalType": "uint256",
          "name": "pairIndex",
          "type": "uint256"
        },
        {
          "indexed": true,
          "internalType": "uint16",
          "name": "prevGroupIndex",
          "type": "uint16"
        },
        {
          "indexed": true,
          "internalType": "uint16",
          "name": "newGroupIndex",
          "type": "uint16"
        }
      ],
      "name": "PairGroupUpdated",
      "type": "event"
    },
    {
      "anonymous": false,
      "inputs": [
        {
          "indexed": true,
          "internalType": "uint256",
          "name": "pairIndex",
          "type": "uint256"
        },
        {
          "indexed": true,
          "internalType": "uint72",
          "name": "maxOi",
          "type": "uint72"
        }
      ],
      "name": "PairMaxOiUpdated",
      "type": "event"
    },
    {
      "anonymous": false,
      "inputs": [
        {
          "indexed": true,
          "internalType": "uint256",
          "name": "pairIndex",
          "type": "uint256"
        },
        {
          "indexed": true,
          "internalType": "uint16",
          "name": "groupIndex",
          "type": "uint16"
        },
        {
          "indexed": false,
          "internalType": "uint32",
          "name": "feePerBlock",
          "type": "uint32"
        }
      ],
      "name": "PairParamsUpdated",
      "type": "event"
    },
    {
      "anonymous": false,
      "inputs": [
        {
          "indexed": true,
          "internalType": "address",
          "name": "trader",
          "type": "address"
        },
        {
          "indexed": true,
          "internalType": "uint256",
          "name": "pairIndex",
          "type": "uint256"
        },
        {
          "indexed": false,
          "internalType": "uint256",
          "name": "index",
          "type": "uint256"
        },
        {
          "indexed": false,
          "internalType": "bool",
          "name": "open",
          "type": "bool"
        },
        {
          "indexed": false,
          "internalType": "bool",
          "name": "long",
          "type": "bool"
        },
        {
          "indexed": false,
          "internalType": "uint256",
          "name": "positionSizeDai",
          "type": "uint256"
        }
      ],
      "name": "TradeActionHandled",
      "type": "event"
    },
    {
      "anonymous": false,
      "inputs": [
        {
          "indexed": true,
          "internalType": "address",
          "name": "trader",
          "type": "address"
        },
        {
          "indexed": true,
          "internalType": "uint256",
          "name": "pairIndex",
          "type": "uint256"
        },
        {
          "indexed": false,
          "internalType": "uint256",
          "name": "index",
          "type": "uint256"
        },
        {
          "indexed": false,
          "internalType": "uint64",
          "name": "initialPairAccFee",
          "type": "uint64"
        },
        {
          "indexed": false,
          "internalType": "uint64",
          "name": "initialGroupAccFee",
          "type": "uint64"
        }
      ],
      "name": "TradeInitialAccFeesStored",
      "type": "event"
    },
    {
      "inputs": [],
      "name": "getAllPairs",
      "outputs": [
        {
          "components": [
            {
              "components": [
                {
                  "internalType": "uint16",
                  "name": "groupIndex",
                  "type": "uint16"
                },
                {
                  "internalType": "uint48",
                  "name": "block",
                  "type": "uint48"
                },
                {
                  "internalType": "uint64",
                  "name": "initialAccFeeLong",
                  "type": "uint64"
                },
                {
                  "internalType": "uint64",
                  "name": "initialAccFeeShort",
                  "type": "uint64"
                },
                {
                  "internalType": "uint64",
                  "name": "prevGroupAccFeeLong",
                  "type": "uint64"
                },
                {
                  "internalType": "uint64",
                  "name": "prevGroupAccFeeShort",
                  "type": "uint64"
                },
                {
                  "internalType": "uint64",
                  "name": "pairAccFeeLong",
                  "type": "uint64"
                },
                {
                  "internalType": "uint64",
                  "name": "pairAccFeeShort",
                  "type": "uint64"
                },
                {
                  "internalType": "uint64",
                  "name": "_placeholder",
                  "type": "uint64"
                }
              ],
              "internalType": "struct GNSBorrowingFeesInterfaceV6_4.PairGroup[]",
              "name": "groups",
              "type": "tuple[]"
            },
            {
              "internalType": "uint32",
              "name": "feePerBlock",
              "type": "uint32"
            },
            {
              "internalType": "uint64",
              "name": "accFeeLong",
              "type": "uint64"
            },
            {
              "internalType": "uint64",
              "name": "accFeeShort",
              "type": "uint64"
            },
            {
              "internalType": "uint48",
              "name": "accLastUpdatedBlock",
              "type": "uint48"
            },
            {
              "internalType": "uint48",
              "name": "_placeholder",
              "type": "uint48"
            },
            {
              "internalType": "uint256",
              "name": "lastAccBlockWeightedMarketCap",
              "type": "uint256"
            }
          ],
          "internalType": "struct GNSBorrowingFeesInterfaceV6_4.Pair[]",
          "name": "",
          "type": "tuple[]"
        }
      ],
      "stateMutability": "view",
      "type": "function"
    },
    {
      "inputs": [
        {
          "internalType": "uint16",
          "name": "groupIndex",
          "type": "uint16"
        }
      ],
      "name": "getGroup",
      "outputs": [
        {
          "components": [
            {
              "internalType": "uint112",
              "name": "oiLong",
              "type": "uint112"
            },
            {
              "internalType": "uint112",
              "name": "oiShort",
              "type": "uint112"
            },
            {
              "internalType": "uint32",
              "name": "feePerBlock",
              "type": "uint32"
            },
            {
              "internalType": "uint64",
              "name": "accFeeLong",
              "type": "uint64"
            },
            {
              "internalType": "uint64",
              "name": "accFeeShort",
              "type": "uint64"
            },
            {
              "internalType": "uint48",
              "name": "accLastUpdatedBlock",
              "type": "uint48"
            },
            {
              "internalType": "uint80",
              "name": "maxOi",
              "type": "uint80"
            },
            {
              "internalType": "uint256",
              "name": "lastAccBlockWeightedMarketCap",
              "type": "uint256"
            }
          ],
          "internalType": "struct GNSBorrowingFeesInterfaceV6_4.Group",
          "name": "",
          "type": "tuple"
        }
      ],
      "stateMutability": "view",
      "type": "function"
    },
    {
      "inputs": [
        {
          "internalType": "uint16",
          "name": "groupIndex",
          "type": "uint16"
        },
        {
          "internalType": "uint256",
          "name": "currentBlock",
          "type": "uint256"
        },
        {
          "internalType": "bool",
          "name": "long",
          "type": "bool"
        }
      ],
      "name": "getGroupPendingAccFee",
      "outputs": [
        {
          "internalType": "uint64",
          "name": "accFee",
          "type": "uint64"
        }
      ],
      "stateMutability": "view",
      "type": "function"
    },
    {
      "inputs": [
        {
          "internalType": "uint16",
          "name": "groupIndex",
          "type": "uint16"
        },
        {
          "internalType": "uint256",
          "name": "currentBlock",
          "type": "uint256"
        }
      ],
      "name": "getGroupPendingAccFees",
      "outputs": [
        {
          "internalType": "uint64",
          "name": "accFeeLong",
          "type": "uint64"
        },
        {
          "internalType": "uint64",
          "name": "accFeeShort",
          "type": "uint64"
        },
        {
          "internalType": "int256",
          "name": "groupAccFeeDelta",
          "type": "int256"
        }
      ],
      "stateMutability": "view",
      "type": "function"
    },
    {
      "inputs": [
        {
          "internalType": "uint16",
          "name": "groupIndex",
          "type": "uint16"
        },
        {
          "internalType": "uint256",
          "name": "currentBlock",
          "type": "uint256"
        }
      ],
      "name": "getGroupWeightedVaultMarketCapSinceLastUpdate",
      "outputs": [
        {
          "internalType": "uint256",
          "name": "",
          "type": "uint256"
        }
      ],
      "stateMutability": "view",
      "type": "function"
    },
    {
      "inputs": [
        {
          "internalType": "uint16[]",
          "name": "indices",
          "type": "uint16[]"
        }
      ],
      "name": "getGroups",
      "outputs": [
        {
          "components": [
            {
              "internalType": "uint112",
              "name": "oiLong",
              "type": "uint112"
            },
            {
              "internalType": "uint112",
              "name": "oiShort",
              "type": "uint112"
            },
            {
              "internalType": "uint32",
              "name": "feePerBlock",
              "type": "uint32"
            },
            {
              "internalType": "uint64",
              "name": "accFeeLong",
              "type": "uint64"
            },
            {
              "internalType": "uint64",
              "name": "accFeeShort",
              "type": "uint64"
            },
            {
              "internalType": "uint48",
              "name": "accLastUpdatedBlock",
              "type": "uint48"
            },
            {
              "internalType": "uint80",
              "name": "maxOi",
              "type": "uint80"
            },
            {
              "internalType": "uint256",
              "name": "lastAccBlockWeightedMarketCap",
              "type": "uint256"
            }
          ],
          "internalType": "struct GNSBorrowingFeesInterfaceV6_4.Group[]",
          "name": "",
          "type": "tuple[]"
        }
      ],
      "stateMutability": "view",
      "type": "function"
    },
    {
      "inputs": [
        {
          "internalType": "uint256",
          "name": "pairIndex",
          "type": "uint256"
        }
      ],
      "name": "getPair",
      "outputs": [
        {
          "components": [
            {
              "components": [
                {
                  "internalType": "uint16",
                  "name": "groupIndex",
                  "type": "uint16"
                },
                {
                  "internalType": "uint48",
                  "name": "block",
                  "type": "uint48"
                },
                {
                  "internalType": "uint64",
                  "name": "initialAccFeeLong",
                  "type": "uint64"
                },
                {
                  "internalType": "uint64",
                  "name": "initialAccFeeShort",
                  "type": "uint64"
                },
                {
                  "internalType": "uint64",
                  "name": "prevGroupAccFeeLong",
                  "type": "uint64"
                },
                {
                  "internalType": "uint64",
                  "name": "prevGroupAccFeeShort",
                  "type": "uint64"
                },
                {
                  "internalType": "uint64",
                  "name": "pairAccFeeLong",
                  "type": "uint64"
                },
                {
                  "internalType": "uint64",
                  "name": "pairAccFeeShort",
                  "type": "uint64"
                },
                {
                  "internalType": "uint64",
                  "name": "_placeholder",
                  "type": "uint64"
                }
              ],
              "internalType": "struct GNSBorrowingFeesInterfaceV6_4.PairGroup[]",
              "name": "groups",
              "type": "tuple[]"
            },
            {
              "internalType": "uint32",
              "name": "feePerBlock",
              "type": "uint32"
            },
            {
              "internalType": "uint64",
              "name": "accFeeLong",
              "type": "uint64"
            },
            {
              "internalType": "uint64",
              "name": "accFeeShort",
              "type": "uint64"
            },
            {
              "internalType": "uint48",
              "name": "accLastUpdatedBlock",
              "type": "uint48"
            },
            {
              "internalType": "uint48",
              "name": "_placeholder",
              "type": "uint48"
            },
            {
              "internalType": "uint256",
              "name": "lastAccBlockWeightedMarketCap",
              "type": "uint256"
            }
          ],
          "internalType": "struct GNSBorrowingFeesInterfaceV6_4.Pair",
          "name": "",
          "type": "tuple"
        }
      ],
      "stateMutability": "view",
      "type": "function"
    },
    {
      "inputs": [
        {
          "internalType": "uint256",
          "name": "i",
          "type": "uint256"
        },
        {
          "components": [
            {
              "internalType": "uint16",
              "name": "groupIndex",
              "type": "uint16"
            },
            {
              "internalType": "uint48",
              "name": "block",
              "type": "uint48"
            },
            {
              "internalType": "uint64",
              "name": "initialAccFeeLong",
              "type": "uint64"
            },
            {
              "internalType": "uint64",
              "name": "initialAccFeeShort",
              "type": "uint64"
            },
            {
              "internalType": "uint64",
              "name": "prevGroupAccFeeLong",
              "type": "uint64"
            },
            {
              "internalType": "uint64",
              "name": "prevGroupAccFeeShort",
              "type": "uint64"
            },
            {
              "internalType": "uint64",
              "name": "pairAccFeeLong",
              "type": "uint64"
            },
            {
              "internalType": "uint64",
              "name": "pairAccFeeShort",
              "type": "uint64"
            },
            {
              "internalType": "uint64",
              "name": "_placeholder",
              "type": "uint64"
            }
          ],
          "internalType": "struct GNSBorrowingFeesInterfaceV6_4.PairGroup[]",
          "name": "pairGroups",
          "type": "tuple[]"
        },
        {
          "components": [
            {
              "internalType": "uint64",
              "name": "accPairFee",
              "type": "uint64"
            },
            {
              "internalType": "uint64",
              "name": "accGroupFee",
              "type": "uint64"
            },
            {
              "internalType": "uint48",
              "name": "block",
              "type": "uint48"
            },
            {
              "internalType": "uint80",
              "name": "_placeholder",
              "type": "uint80"
            }
          ],
          "internalType": "struct GNSBorrowingFeesInterfaceV6_4.InitialAccFees",
          "name": "initialFees",
          "type": "tuple"
        },
        {
          "internalType": "uint256",
          "name": "pairIndex",
          "type": "uint256"
        },
        {
          "internalType": "bool",
          "name": "long",
          "type": "bool"
        },
        {
          "internalType": "uint256",
          "name": "currentBlock",
          "type": "uint256"
        }
      ],
      "name": "getPairGroupAccFeesDeltas",
      "outputs": [
        {
          "internalType": "uint64",
          "name": "deltaGroup",
          "type": "uint64"
        },
        {
          "internalType": "uint64",
          "name": "deltaPair",
          "type": "uint64"
        },
        {
          "internalType": "bool",
          "name": "beforeTradeOpen",
          "type": "bool"
        }
      ],
      "stateMutability": "view",
      "type": "function"
    },
    {
      "inputs": [
        {
          "internalType": "uint256",
          "name": "pairIndex",
          "type": "uint256"
        }
      ],
      "name": "getPairGroupIndex",
      "outputs": [
        {
          "internalType": "uint16",
          "name": "groupIndex",
          "type": "uint16"
        }
      ],
      "stateMutability": "view",
      "type": "function"
    },
    {
      "inputs": [
        {
          "internalType": "uint256",
          "name": "pairIndex",
          "type": "uint256"
        }
      ],
      "name": "getPairMaxOi",
      "outputs": [
        {
          "internalType": "uint256",
          "name": "",
          "type": "uint256"
        }
      ],
      "stateMutability": "view",
      "type": "function"
    },
    {
      "inputs": [
        {
          "internalType": "uint256",
          "name": "pairIndex",
          "type": "uint256"
        }
      ],
      "name": "getPairOpenInterestDai",
      "outputs": [
        {
          "internalType": "uint256",
          "name": "",
          "type": "uint256"
        },
        {
          "internalType": "uint256",
          "name": "",
          "type": "uint256"
        }
      ],
      "stateMutability": "view",
      "type": "function"
    },
    {
      "inputs": [
        {
          "internalType": "uint256",
          "name": "pairIndex",
          "type": "uint256"
        },
        {
          "internalType": "uint256",
          "name": "currentBlock",
          "type": "uint256"
        },
        {
          "internalType": "bool",
          "name": "long",
          "type": "bool"
        }
      ],
      "name": "getPairPendingAccFee",
      "outputs": [
        {
          "internalType": "uint64",
          "name": "accFee",
          "type": "uint64"
        }
      ],
      "stateMutability": "view",
      "type": "function"
    },
    {
      "inputs": [
        {
          "internalType": "uint256",
          "name": "pairIndex",
          "type": "uint256"
        },
        {
          "internalType": "uint256",
          "name": "currentBlock",
          "type": "uint256"
        }
      ],
      "name": "getPairPendingAccFees",
      "outputs": [
        {
          "internalType": "uint64",
          "name": "accFeeLong",
          "type": "uint64"
        },
        {
          "internalType": "uint64",
          "name": "accFeeShort",
          "type": "uint64"
        },
        {
          "internalType": "int256",
          "name": "pairAccFeeDelta",
          "type": "int256"
        }
      ],
      "stateMutability": "view",
      "type": "function"
    },
    {
      "inputs": [
        {
          "internalType": "uint256",
          "name": "pairIndex",
          "type": "uint256"
        },
        {
          "internalType": "uint256",
          "name": "currentBlock",
          "type": "uint256"
        }
      ],
      "name": "getPairWeightedVaultMarketCapSinceLastUpdate",
      "outputs": [
        {
          "internalType": "uint256",
          "name": "",
          "type": "uint256"
        }
      ],
      "stateMutability": "view",
      "type": "function"
    },
    {
      "inputs": [
        {
          "internalType": "uint256",
          "name": "currentBlock",
          "type": "uint256"
        }
      ],
      "name": "getPendingAccBlockWeightedMarketCap",
      "outputs": [
        {
          "internalType": "uint256",
          "name": "",
          "type": "uint256"
        }
      ],
      "stateMutability": "view",
      "type": "function"
    },
    {
      "inputs": [
        {
          "internalType": "uint64",
          "name": "accFeeLong",
          "type": "uint64"
        },
        {
          "internalType": "uint64",
          "name": "accFeeShort",
          "type": "uint64"
        },
        {
          "internalType": "uint256",
          "name": "oiLong",
          "type": "uint256"
        },
        {
          "internalType": "uint256",
          "name": "oiShort",
          "type": "uint256"
        },
        {
          "internalType": "uint32",
          "name": "feePerBlock",
          "type": "uint32"
        },
        {
          "internalType": "uint256",
          "name": "currentBlock",
          "type": "uint256"
        },
        {
          "internalType": "uint256",
          "name": "accLastUpdatedBlock",
          "type": "uint256"
        },
        {
          "internalType": "uint256",
          "name": "vaultMarketCap",
          "type": "uint256"
        }
      ],
      "name": "getPendingAccFees",
      "outputs": [
        {
          "internalType": "uint64",
          "name": "newAccFeeLong",
          "type": "uint64"
        },
        {
          "internalType": "uint64",
          "name": "newAccFeeShort",
          "type": "uint64"
        },
        {
          "internalType": "int256",
          "name": "delta",
          "type": "int256"
        }
      ],
      "stateMutability": "pure",
      "type": "function"
    },
    {
      "inputs": [
        {
          "components": [
            {
              "internalType": "address",
              "name": "trader",
              "type": "address"
            },
            {
              "internalType": "uint256",
              "name": "pairIndex",
              "type": "uint256"
            },
            {
              "internalType": "uint256",
              "name": "index",
              "type": "uint256"
            },
            {
              "internalType": "bool",
              "name": "long",
              "type": "bool"
            },
            {
              "internalType": "uint256",
              "name": "collateral",
              "type": "uint256"
            },
            {
              "internalType": "uint256",
              "name": "leverage",
              "type": "uint256"
            }
          ],
          "internalType": "struct GNSBorrowingFeesInterfaceV6_4.BorrowingFeeInput",
          "name": "input",
          "type": "tuple"
        }
      ],
      "name": "getTradeBorrowingFee",
      "outputs": [
        {
          "internalType": "uint256",
          "name": "fee",
          "type": "uint256"
        }
      ],
      "stateMutability": "view",
      "type": "function"
    },
    {
      "inputs": [
        {
          "internalType": "address",
          "name": "trader",
          "type": "address"
        },
        {
          "internalType": "uint256",
          "name": "pairIndex",
          "type": "uint256"
        },
        {
          "internalType": "uint256",
          "name": "index",
          "type": "uint256"
        }
      ],
      "name": "getTradeInitialAccFees",
      "outputs": [
        {
          "components": [
            {
              "internalType": "uint64",
              "name": "accPairFee",
              "type": "uint64"
            },
            {
              "internalType": "uint64",
              "name": "accGroupFee",
              "type": "uint64"
            },
            {
              "internalType": "uint48",
              "name": "block",
              "type": "uint48"
            },
            {
              "internalType": "uint80",
              "name": "_placeholder",
              "type": "uint80"
            }
          ],
          "internalType": "struct GNSBorrowingFeesInterfaceV6_4.InitialAccFees",
          "name": "borrowingFees",
          "type": "tuple"
        },
        {
          "components": [
            {
              "internalType": "uint256",
              "name": "rollover",
              "type": "uint256"
            },
            {
              "internalType": "int256",
              "name": "funding",
              "type": "int256"
            },
            {
              "internalType": "bool",
              "name": "openedAfterUpdate",
              "type": "bool"
            }
          ],
          "internalType": "struct GNSPairInfosInterfaceV6.TradeInitialAccFees",
          "name": "otherFees",
          "type": "tuple"
        }
      ],
      "stateMutability": "view",
      "type": "function"
    },
    {
      "inputs": [
        {
          "components": [
            {
              "internalType": "address",
              "name": "trader",
              "type": "address"
            },
            {
              "internalType": "uint256",
              "name": "pairIndex",
              "type": "uint256"
            },
            {
              "internalType": "uint256",
              "name": "index",
              "type": "uint256"
            },
            {
              "internalType": "uint256",
              "name": "openPrice",
              "type": "uint256"
            },
            {
              "internalType": "bool",
              "name": "long",
              "type": "bool"
            },
            {
              "internalType": "uint256",
              "name": "collateral",
              "type": "uint256"
            },
            {
              "internalType": "uint256",
              "name": "leverage",
              "type": "uint256"
            }
          ],
          "internalType": "struct GNSBorrowingFeesInterfaceV6_4.LiqPriceInput",
          "name": "input",
          "type": "tuple"
        }
      ],
      "name": "getTradeLiquidationPrice",
      "outputs": [
        {
          "internalType": "uint256",
          "name": "",
          "type": "uint256"
        }
      ],
      "stateMutability": "view",
      "type": "function"
    },
    {
      "inputs": [
        {
          "internalType": "uint256",
          "name": "accBlockWeightedMarketCap",
          "type": "uint256"
        },
        {
          "internalType": "uint256",
          "name": "lastAccBlockWeightedMarketCap",
          "type": "uint256"
        },
        {
          "internalType": "uint256",
          "name": "blockDelta",
          "type": "uint256"
        }
      ],
      "name": "getWeightedVaultMarketCap",
      "outputs": [
        {
          "internalType": "uint256",
          "name": "",
          "type": "uint256"
        }
      ],
      "stateMutability": "pure",
      "type": "function"
    },
    {
      "inputs": [
        {
          "internalType": "uint16",
          "name": "",
          "type": "uint16"
        }
      ],
      "name": "groups",
      "outputs": [
        {
          "internalType": "uint112",
          "name": "oiLong",
          "type": "uint112"
        },
        {
          "internalType": "uint112",
          "name": "oiShort",
          "type": "uint112"
        },
        {
          "internalType": "uint32",
          "name": "feePerBlock",
          "type": "uint32"
        },
        {
          "internalType": "uint64",
          "name": "accFeeLong",
          "type": "uint64"
        },
        {
          "internalType": "uint64",
          "name": "accFeeShort",
          "type": "uint64"
        },
        {
          "internalType": "uint48",
          "name": "accLastUpdatedBlock",
          "type": "uint48"
        },
        {
          "internalType": "uint80",
          "name": "maxOi",
          "type": "uint80"
        },
        {
          "internalType": "uint256",
          "name": "lastAccBlockWeightedMarketCap",
          "type": "uint256"
        }
      ],
      "stateMutability": "view",
      "type": "function"
    },
    {
      "inputs": [
        {
          "internalType": "address",
          "name": "trader",
          "type": "address"
        },
        {
          "internalType": "uint256",
          "name": "pairIndex",
          "type": "uint256"
        },
        {
          "internalType": "uint256",
          "name": "index",
          "type": "uint256"
        },
        {
          "internalType": "uint256",
          "name": "positionSizeDai",
          "type": "uint256"
        },
        {
          "internalType": "bool",
          "name": "open",
          "type": "bool"
        },
        {
          "internalType": "bool",
          "name": "long",
          "type": "bool"
        }
      ],
      "name": "handleTradeAction",
      "outputs": [],
      "stateMutability": "nonpayable",
      "type": "function"
    },
    {
      "inputs": [
        {
          "internalType": "address",
          "name": "",
          "type": "address"
        },
        {
          "internalType": "uint256",
          "name": "",
          "type": "uint256"
        },
        {
          "internalType": "uint256",
          "name": "",
          "type": "uint256"
        }
      ],
      "name": "initialAccFees",
      "outputs": [
        {
          "internalType": "uint64",
          "name": "accPairFee",
          "type": "uint64"
        },
        {
          "internalType": "uint64",
          "name": "accGroupFee",
          "type": "uint64"
        },
        {
          "internalType": "uint48",
          "name": "block",
          "type": "uint48"
        },
        {
          "internalType": "uint80",
          "name": "_placeholder",
          "type": "uint80"
        }
      ],
      "stateMutability": "view",
      "type": "function"
    },
    {
      "inputs": [
        {
          "internalType": "contract StorageInterfaceV5",
          "name": "_storageT",
          "type": "address"
        },
        {
          "internalType": "contract GNSPairInfosInterfaceV6",
          "name": "_pairInfos",
          "type": "address"
        }
      ],
      "name": "initialize",
      "outputs": [],
      "stateMutability": "nonpayable",
      "type": "function"
    },
    {
      "inputs": [],
      "name": "pairInfos",
      "outputs": [
        {
          "internalType": "contract GNSPairInfosInterfaceV6",
          "name": "",
          "type": "address"
        }
      ],
      "stateMutability": "view",
      "type": "function"
    },
    {
      "inputs": [
        {
          "internalType": "uint256",
          "name": "",
          "type": "uint256"
        }
      ],
      "name": "pairOis",
      "outputs": [
        {
          "internalType": "uint72",
          "name": "long",
          "type": "uint72"
        },
        {
          "internalType": "uint72",
          "name": "short",
          "type": "uint72"
        },
        {
          "internalType": "uint72",
          "name": "max",
          "type": "uint72"
        },
        {
          "internalType": "uint40",
          "name": "_placeholder",
          "type": "uint40"
        }
      ],
      "stateMutability": "view",
      "type": "function"
    },
    {
      "inputs": [
        {
          "internalType": "uint256",
          "name": "",
          "type": "uint256"
        }
      ],
      "name": "pairs",
      "outputs": [
        {
          "internalType": "uint32",
          "name": "feePerBlock",
          "type": "uint32"
        },
        {
          "internalType": "uint64",
          "name": "accFeeLong",
          "type": "uint64"
        },
        {
          "internalType": "uint64",
          "name": "accFeeShort",
          "type": "uint64"
        },
        {
          "internalType": "uint48",
          "name": "accLastUpdatedBlock",
          "type": "uint48"
        },
        {
          "internalType": "uint48",
          "name": "_placeholder",
          "type": "uint48"
        },
        {
          "internalType": "uint256",
          "name": "lastAccBlockWeightedMarketCap",
          "type": "uint256"
        }
      ],
      "stateMutability": "view",
      "type": "function"
    },
    {
      "inputs": [
        {
          "internalType": "uint16",
          "name": "groupIndex",
          "type": "uint16"
        },
        {
          "components": [
            {
              "internalType": "uint32",
              "name": "feePerBlock",
              "type": "uint32"
            },
            {
              "internalType": "uint80",
              "name": "maxOi",
              "type": "uint80"
            }
          ],
          "internalType": "struct GNSBorrowingFeesInterfaceV6_4.GroupParams",
          "name": "value",
          "type": "tuple"
        }
      ],
      "name": "setGroupParams",
      "outputs": [],
      "stateMutability": "nonpayable",
      "type": "function"
    },
    {
      "inputs": [
        {
          "internalType": "uint16[]",
          "name": "indices",
          "type": "uint16[]"
        },
        {
          "components": [
            {
              "internalType": "uint32",
              "name": "feePerBlock",
              "type": "uint32"
            },
            {
              "internalType": "uint80",
              "name": "maxOi",
              "type": "uint80"
            }
          ],
          "internalType": "struct GNSBorrowingFeesInterfaceV6_4.GroupParams[]",
          "name": "values",
          "type": "tuple[]"
        }
      ],
      "name": "setGroupParamsArray",
      "outputs": [],
      "stateMutability": "nonpayable",
      "type": "function"
    },
    {
      "inputs": [
        {
          "internalType": "uint256",
          "name": "pairIndex",
          "type": "uint256"
        },
        {
          "internalType": "uint72",
          "name": "value",
          "type": "uint72"
        }
      ],
      "name": "setPairMaxOi",
      "outputs": [],
      "stateMutability": "nonpayable",
      "type": "function"
    },
    {
      "inputs": [
        {
          "internalType": "uint256[]",
          "name": "indices",
          "type": "uint256[]"
        },
        {
          "internalType": "uint72[]",
          "name": "values",
          "type": "uint72[]"
        }
      ],
      "name": "setPairMaxOiArray",
      "outputs": [],
      "stateMutability": "nonpayable",
      "type": "function"
    },
    {
      "inputs": [
        {
          "internalType": "uint256",
          "name": "pairIndex",
          "type": "uint256"
        },
        {
          "components": [
            {
              "internalType": "uint16",
              "name": "groupIndex",
              "type": "uint16"
            },
            {
              "internalType": "uint32",
              "name": "feePerBlock",
              "type": "uint32"
            }
          ],
          "internalType": "struct GNSBorrowingFeesInterfaceV6_4.PairParams",
          "name": "value",
          "type": "tuple"
        }
      ],
      "name": "setPairParams",
      "outputs": [],
      "stateMutability": "nonpayable",
      "type": "function"
    },
    {
      "inputs": [
        {
          "internalType": "uint256[]",
          "name": "indices",
          "type": "uint256[]"
        },
        {
          "components": [
            {
              "internalType": "uint16",
              "name": "groupIndex",
              "type": "uint16"
            },
            {
              "internalType": "uint32",
              "name": "feePerBlock",
              "type": "uint32"
            }
          ],
          "internalType": "struct GNSBorrowingFeesInterfaceV6_4.PairParams[]",
          "name": "values",
          "type": "tuple[]"
        }
      ],
      "name": "setPairParamsArray",
      "outputs": [],
      "stateMutability": "nonpayable",
      "type": "function"
    },
    {
      "inputs": [],
      "name": "storageT",
      "outputs": [
        {
          "internalType": "contract StorageInterfaceV5",
          "name": "",
          "type": "address"
        }
      ],
      "stateMutability": "view",
      "type": "function"
    },
    {
      "inputs": [
        {
          "internalType": "uint256",
          "name": "pairIndex",
          "type": "uint256"
        },
        {
          "internalType": "bool",
          "name": "long",
          "type": "bool"
        },
        {
          "internalType": "uint256",
          "name": "positionSizeDai",
          "type": "uint256"
        }
      ],
      "name": "withinMaxGroupOi",
      "outputs": [
        {
          "internalType": "bool",
          "name": "",
          "type": "bool"
        }
      ],
      "stateMutability": "view",
      "type": "function"
    }
  ],
  "bytecode": "0x608060405234801561001057600080fd5b50614983806100206000396000f3fe608060405234801561001057600080fd5b50600436106102015760003560e01c80638f69423811610125578063bcb78871116100ad578063cee4fa5a1161007c578063cee4fa5a1461082d578063d627450514610840578063e4d6686714610863578063f800ece914610876578063ff933fc41461088b57600080fd5b8063bcb78871146107d4578063bdf391cc146107e7578063ca90cda514610807578063ce67edfb1461081a57600080fd5b8063a4e95196116100f4578063a4e9519614610644578063b1d9828314610657578063b91ac7881461066a578063b94ffa1c14610720578063bb219c751461075057600080fd5b80638f6942381461054f57806390895ff114610575578063979b08951461061e5780639d1798cb1461063157600080fd5b8063485cc955116101a85780637cbd3c98116101775780637cbd3c9814610463578063826616b5146104dd57806384c8f43414610516578063876ffd97146105295780638ee1caa71461053c57600080fd5b8063485cc955146104025780634c67cfa014610415578063706faf3a1461043d5780637b64112b1461045057600080fd5b80630f8df7e0146102065780631346b0ff1461024657806316fff074146102715780631ab5911a1461028a57806322005202146102b55780632d28a817146102d55780633979324d146102f65780633d17a5d0146103ed575b600080fd5b610219610214366004613c6a565b6108ab565b604080516001600160401b0394851681529390921660208401521515908201526060015b60405180910390f35b600154610259906001600160a01b031681565b6040516001600160a01b03909116815260200161023d565b600054610259906201000090046001600160a01b031681565b61029d610298366004613dfa565b610a2b565b6040516001600160401b03909116815260200161023d565b6102c86102c3366004613e85565b610a56565b60405161023d9190613f4c565b6102e86102e3366004613fb0565b610bbf565b60405190815260200161023d565b61038261030436600461403a565b60026020819052600091825260409091208054600182015491909201546001600160701b0380841693600160701b810490911692600160e01b90910463ffffffff16916001600160401b0380831692600160401b810490911691600160801b820465ffffffffffff1691600160b01b90046001600160501b03169088565b604080516001600160701b03998a16815298909716602089015263ffffffff909516958701959095526001600160401b0392831660608701529116608085015265ffffffffffff1660a08401526001600160501b0390911660c083015260e08201526101000161023d565b6104006103fb36600461406d565b610ecf565b005b6104006104103660046140a1565b610f8d565b6104286104233660046140da565b611134565b6040805192835260208301919091520161023d565b6102e861044b3660046140f3565b611231565b61029d61045e366004614105565b6114cd565b610476610471366004614133565b6114dc565b6040805183516001600160401b039081168252602080860151909116818301528483015165ffffffffffff16828401526060948501516001600160501b031694820194909452825160808201529282015160a08401520151151560c082015260e00161023d565b6104f06104eb36600461417c565b611611565b604080516001600160401b0394851681529390921660208401529082015260600161023d565b6104006105243660046141ee565b611704565b6102e8610537366004614259565b61182e565b6104f061054a366004614259565b6119b2565b61056261055d3660046140da565b611b62565b60405161ffff909116815260200161023d565b6105dd610583366004614133565b60046020908152600093845260408085208252928452828420905282529020546001600160401b0380821691600160401b810490911690600160801b810465ffffffffffff1690600160b01b90046001600160501b031684565b604080516001600160401b03958616815294909316602085015265ffffffffffff909116918301919091526001600160501b0316606082015260800161023d565b6102e861062c3660046140da565b611c85565b61040061063f36600461427b565b611d2a565b6102e861065236600461429f565b611ddb565b6104006106653660046142e0565b611ea9565b6106d46106783660046140da565b6003602052600090815260409020600181015460029091015463ffffffff8216916001600160401b03600160201b8204811692600160601b83049091169165ffffffffffff600160a01b8204811692600160d01b909204169086565b6040805163ffffffff9790971687526001600160401b039586166020880152939094169285019290925265ffffffffffff908116606085015216608083015260a082015260c00161023d565b6102e861072e3660046140da565b600090815260056020526040902054600160901b90046001600160481b031690565b61079d61075e3660046140da565b6005602052600090815260409020546001600160481b0380821691600160481b8104821691600160901b82041690600160d81b900464ffffffffff1684565b604080516001600160481b0395861681529385166020850152919093169082015264ffffffffff909116606082015260800161023d565b6104f06107e236600461429f565b611f5a565b6107fa6107f53660046140da565b6120a4565b60405161023d919061443a565b610400610815366004614491565b612204565b6104006108283660046144f0565b612325565b61040061083b366004614491565b612677565b61085361084e366004614557565b61278a565b604051901515815260200161023d565b6102e861087136600461458f565b6128b0565b61087e6128ef565b60405161023d91906145bb565b61089e61089936600461403a565b612c0e565b60405161023d919061461d565b600080600080888a815181106108c3576108c361462c565b60200260200101519050876040015165ffffffffffff16816020015165ffffffffffff16109150600189516108f89190614658565b8a0361091f57805161090b908688610a2b565b93506109188786886114cd565b92506109af565b60008961092d8c600161466b565b8151811061093d5761093d61462c565b6020026020010151905082801561096c5750886040015165ffffffffffff16816020015165ffffffffffff1611155b1561097f57600080945094505050610a1f565b8661098e578060a00151610994565b80608001515b9450866109a5578060e001516109ab565b8060c001515b9350505b81156109da5760208801516109c4908561467e565b88519094506109d3908461467e565b9250610a1d565b856109e95780606001516109ef565b80604001515b6109f9908561467e565b935085610a0a578060e00151610a10565b8060c001515b610a1a908461467e565b92505b505b96509650969350505050565b6000806000610a3a8686611f5a565b509150915083610a4a5780610a4c565b815b9695505050505050565b60606000826001600160401b03811115610a7257610a72613b05565b604051908082528060200260200182016040528015610aab57816020015b610a98613a85565b815260200190600190039081610a905790505b5090508260005b81811015610bb35760026000878784818110610ad057610ad061462c565b9050602002016020810190610ae5919061403a565b61ffff168152602080820192909252604090810160002081516101008101835281546001600160701b038082168352600160701b82041694820194909452600160e01b90930463ffffffff169183019190915260018101546001600160401b038082166060850152600160401b8204166080840152600160801b810465ffffffffffff1660a0840152600160b01b90046001600160501b031660c08301526002015460e08201528351849083908110610ba057610ba061462c565b6020908102919091010152600101610ab2565b50909150505b92915050565b80516001600160a01b03166000908152600460209081526040808320828501805185529083528184208286015185528352818420825160808101845290546001600160401b038082168352600160401b82041682860152600160801b810465ffffffffffff1682850152600160b01b90046001600160501b0316606082015290518452600383528184208054835181860281018601909452808452919385939290849084015b82821015610d16576000848152602090819020604080516101208101825260028602909201805461ffff8116845265ffffffffffff62010000820416848601526001600160401b03600160401b808304821694860194909452600160801b80830482166060870152600160c01b928390048216608087015260019384015480831660a0880152948504821660c08701528404811660e086015292049091166101008301529083529092019101610c65565b5050505090506000610d26612cbf565b6040805161012081018252600080825260208201819052918101829052606081018290526080810182905260a0810182905260c0810182905260e08101829052610100810191909152909150825115610d975782600081518110610d8c57610d8c61462c565b602002602001015190505b82511580610dbc5750836040015165ffffffffffff16816020015165ffffffffffff16115b15610e10578351835115610de7578660600151610ddd578160e00151610dfa565b8160c00151610dfa565b610dfa87602001518489606001516114cd565b610e04919061467e565b6001600160401b031694505b82515b8015610e935760008080610e3d610e2b600186614658565b888a8d602001518e606001518b6108ab565b925092509250816001600160401b0316836001600160401b031611610e625781610e64565b825b610e77906001600160401b03168a61466b565b98508015610e8757505050610e93565b50505060001901610e13565b5060646402540be400868860a001518960800151610eb1919061469e565b610ebb919061469e565b610ec591906146cb565b610a4c91906146cb565b600160009054906101000a90046001600160a01b03166001600160a01b031663481c6a756040518163ffffffff1660e01b8152600401602060405180830381865afa158015610f22573d6000803e3d6000fd5b505050506040513d601f19601f82011682018060405250810190610f4691906146df565b6001600160a01b0316336001600160a01b031614610f7f5760405162461bcd60e51b8152600401610f76906146fc565b60405180910390fd5b610f898282612d45565b5050565b600054610100900460ff1615808015610fad5750600054600160ff909116105b80610fc75750303b158015610fc7575060005460ff166001145b61102a5760405162461bcd60e51b815260206004820152602e60248201527f496e697469616c697a61626c653a20636f6e747261637420697320616c72656160448201526d191e481a5b9a5d1a585b1a5e995960921b6064820152608401610f76565b6000805460ff19166001179055801561104d576000805461ff0019166101001790555b6001600160a01b0383161580159061106d57506001600160a01b03821615155b6110a85760405162461bcd60e51b815260206004820152600c60248201526b57524f4e475f504152414d5360a01b6044820152606401610f76565b6000805462010000600160b01b031916620100006001600160a01b038681169190910291909117909155600180546001600160a01b031916918416919091179055801561112f576000805461ff0019169055604051600181527f7f26b83ff96e1f2b6a682f133852f6798a09c465da95921460cefb38474024989060200160405180910390a15b505050565b600080546040516328daca2160e01b8152600481018490526024810183905282916201000090046001600160a01b0316906328daca2190604401602060405180830381865afa15801561118b573d6000803e3d6000fd5b505050506040513d601f19601f820116820180604052508101906111af9190614722565b6000546040516328daca2160e01b81526004810186905260016024820152620100009091046001600160a01b0316906328daca2190604401602060405180830381865afa158015611204573d6000803e3d6000fd5b505050506040513d601f19601f820116820180604052508101906112289190614722565b91509150915091565b6001546000906001600160a01b0316636bcbe860606084013561125a60a086016080870161473b565b8560a001358660c001356112d56040518060c001604052808a60000160208101906112859190614758565b6001600160a01b0316815260208b810135908201526040808c0135908201526060016112b760a08c0160808d0161473b565b151581526020018a60a0013581526020018a60c00135815250610bbf565b6001546001600160a01b03166358f796bc6112f360208c018c614758565b604080516001600160e01b031960e085901b1681526001600160a01b03909216600483015260208d013560248301528c0135604482015260a08c01356064820152608401602060405180830381865afa158015611354573d6000803e3d6000fd5b505050506040513d601f19601f820116820180604052508101906113789190614722565b611382919061466b565b6001546001600160a01b031663f6c50efe6113a060208c018c614758565b8b602001358c604001358d60800160208101906113bd919061473b565b6040516001600160e01b031960e087901b1681526001600160a01b039094166004850152602484019290925260448301521515606482015260a08c0135608482015260c08c013560a482015260c401602060405180830381865afa158015611429573d6000803e3d6000fd5b505050506040513d601f19601f8201168201806040525081019061144d9190614722565b6040516001600160e01b031960e089901b1681526004810196909652931515602486015260448501929092526064840152608483015260a482015260c4015b602060405180830381865afa1580156114a9573d6000803e3d6000fd5b505050506040513d601f19601f82011682018060405250810190610bb99190614722565b6000806000610a3a86866119b2565b604080516080810182526000808252602080830182905282840182905260608084018390528451908101855282815290810182905292830152906001600160a01b0385811660008181526004602081815260408084208a85528252808420898552825292839020835160808101855290546001600160401b038082168352600160401b82041692820192909252600160801b820465ffffffffffff1681850152600160b01b9091046001600160501b031660608201526001549251632f6ac02760e11b815291820193909352602481018890526044810187905291945090911690635ed5804e90606401606060405180830381865afa1580156115e3573d6000803e3d6000fd5b505050506040513d601f19601f820116820180604052508101906116079190614775565b9050935093915050565b6000806000848610156116545760405162461bcd60e51b815260206004820152600b60248201526a212627a1a5afa7a92222a960a91b6044820152606401610f76565b8361165f8688614658565b63ffffffff89166116708b8d6147d6565b61167a91906147f6565b61168491906147f6565b61168e9190614826565b90506000808212156116bc576116a6826000196147f6565b8c945090506116b5818c614854565b92506116ce565b50806116c8818d614854565b93508a92505b6001600160401b038111156116f55760405162461bcd60e51b8152600401610f7690614874565b50985098509895505050505050565b600160009054906101000a90046001600160a01b03166001600160a01b031663481c6a756040518163ffffffff1660e01b8152600401602060405180830381865afa158015611757573d6000803e3d6000fd5b505050506040513d601f19601f8201168201806040525081019061177b91906146df565b6001600160a01b0316336001600160a01b0316146117ab5760405162461bcd60e51b8152600401610f76906146fc565b828181146117cb5760405162461bcd60e51b8152600401610f7690614896565b60005b818110156118265761181e8686838181106117eb576117eb61462c565b905060200201358585848181106118045761180461462c565b905060200201602081019061181991906148bc565b612e96565b6001016117ce565b505050505050565b6000828152600360209081526040808320815181546101009481028201850190935260e08101838152859491938492849190879085015b82821015611916576000848152602090819020604080516101208101825260028602909201805461ffff8116845265ffffffffffff62010000820416848601526001600160401b03600160401b808304821694860194909452600160801b80830482166060870152600160c01b928390048216608087015260019384015480831660a0880152948504821660c08701528404811660e086015292049091166101008301529083529092019101611865565b50505090825250600182015463ffffffff811660208301526001600160401b03600160201b820481166040840152600160601b820416606083015265ffffffffffff600160a01b820481166080840152600160d01b9091041660a082015260029091015460c09091015290506119aa61198e84611c85565b60c083015160808401516108719065ffffffffffff1687614658565b949350505050565b6000806000806119c2868661182e565b6000878152600360209081526040808320815181546101009481028201850190935260e081018381529596509394909284928491879085015b82821015611aac576000848152602090819020604080516101208101825260028602909201805461ffff8116845265ffffffffffff62010000820416848601526001600160401b03600160401b808304821694860194909452600160801b80830482166060870152600160c01b928390048216608087015260019384015480831660a0880152948504821660c08701528404811660e0860152920490911661010083015290835290920191016119fb565b50505090825250600182015463ffffffff811660208301526001600160401b03600160201b820481166040840152600160601b820416606083015265ffffffffffff600160a01b820481166080840152600160d01b9091041660a082015260029091015460c0909101529050600080611b2489611134565b91509150611b5083604001518460600151848487602001518d896080015165ffffffffffff168b611611565b919b909a509098509650505050505050565b600081815260036020908152604080832080548251818502810185019093528083528493849084015b82821015611c3c576000848152602090819020604080516101208101825260028602909201805461ffff8116845265ffffffffffff62010000820416848601526001600160401b03600160401b808304821694860194909452600160801b80830482166060870152600160c01b928390048216608087015260019384015480831660a0880152948504821660c08701528404811660e086015292049091166101008301529083529092019101611b8b565b5050505090508051600014611c7b578060018251611c5a9190614658565b81518110611c6a57611c6a61462c565b602002602001015160000151611c7e565b60005b9392505050565b60008060029054906101000a90046001600160a01b03166001600160a01b031663fbfa77cf6040518163ffffffff1660e01b8152600401602060405180830381865afa158015611cd9573d6000803e3d6000fd5b505050506040513d601f19601f82011682018060405250810190611cfd91906146df565b6001600160a01b031663979b0895836040518263ffffffff1660e01b815260040161148c91815260200190565b600160009054906101000a90046001600160a01b03166001600160a01b031663481c6a756040518163ffffffff1660e01b8152600401602060405180830381865afa158015611d7d573d6000803e3d6000fd5b505050506040513d601f19601f82011682018060405250810190611da191906146df565b6001600160a01b0316336001600160a01b031614611dd15760405162461bcd60e51b8152600401610f76906146fc565b610f898282612efd565b61ffff8216600090815260026020818152604080842081516101008101835281546001600160701b038082168352600160701b82041694820194909452600160e01b90930463ffffffff169183019190915260018101546001600160401b038082166060850152600160401b8204166080840152600160801b810465ffffffffffff1660a0840152600160b01b90046001600160501b031660c08301529091015460e08201526119aa611e8d84611c85565b60e083015160a08401516108719065ffffffffffff1687614658565b600160009054906101000a90046001600160a01b03166001600160a01b031663481c6a756040518163ffffffff1660e01b8152600401602060405180830381865afa158015611efc573d6000803e3d6000fd5b505050506040513d601f19601f82011682018060405250810190611f2091906146df565b6001600160a01b0316336001600160a01b031614611f505760405162461bcd60e51b8152600401610f76906146fc565b610f898282612e96565b600080600080611f6a8686611ddb565b61ffff871660009081526002602081815260409283902083516101008101855281546001600160701b03808216808452600160701b830490911694830194909452600160e01b900463ffffffff169481019490945260018101546001600160401b0380821660608701819052600160401b830490911660808701819052600160801b830465ffffffffffff1660a0880152600160b01b9092046001600160501b031660c0870152919093015460e08501529394509192612094929091906402540be4009061204090670de0b6b3a764000061469e565b61204a91906146cb565b6402540be40085602001516001600160701b0316670de0b6b3a7640000612071919061469e565b61207b91906146cb565b85604001518b8760a0015165ffffffffffff1689611611565b9199909850909650945050505050565b6120ac613ac9565b6000828152600360209081526040808320815181546101009481028201850190935260e08101838152909491938593919285929185015b82821015612194576000848152602090819020604080516101208101825260028602909201805461ffff8116845265ffffffffffff62010000820416848601526001600160401b03600160401b808304821694860194909452600160801b80830482166060870152600160c01b928390048216608087015260019384015480831660a0880152948504821660c08701528404811660e0860152920490911661010083015290835290920191016120e3565b50505090825250600182015463ffffffff811660208301526001600160401b03600160201b820481166040840152600160601b820416606083015265ffffffffffff600160a01b820481166080840152600160d01b9091041660a082015260029091015460c09091015292915050565b600160009054906101000a90046001600160a01b03166001600160a01b031663481c6a756040518163ffffffff1660e01b8152600401602060405180830381865afa158015612257573d6000803e3d6000fd5b505050506040513d601f19601f8201168201806040525081019061227b91906146df565b6001600160a01b0316336001600160a01b0316146122ab5760405162461bcd60e51b8152600401610f76906146fc565b828181146122cb5760405162461bcd60e51b8152600401610f7690614896565b60005b818110156118265761231d8686838181106122eb576122eb61462c565b9050602002016020810190612300919061403a565b8585848181106123125761231261462c565b905060400201612d45565b6001016122ce565b600060029054906101000a90046001600160a01b03166001600160a01b031662b127836040518163ffffffff1660e01b8152600401602060405180830381865afa158015612377573d6000803e3d6000fd5b505050506040513d601f19601f8201168201806040525081019061239b91906146df565b6001600160a01b0316336001600160a01b0316146123ec5760405162461bcd60e51b815260206004820152600e60248201526d43414c4c4241434b535f4f4e4c5960901b6044820152606401610f76565b60006123f786611b62565b90506000612403612cbf565b90506000806124128984613635565b915091506000806124238686613754565b9150915061243386888a8c613859565b87156126095760006040518060800160405280896124515785612453565b865b6001600160401b031681526020018961246c578361246e565b845b6001600160401b0316815260200161248588613a59565b65ffffffffffff16815260200160006001600160501b0316815250905080600460008f6001600160a01b03166001600160a01b0316815260200190815260200160002060008e815260200190815260200160002060008d815260200190815260200160002060008201518160000160006101000a8154816001600160401b0302191690836001600160401b0316021790555060208201518160000160086101000a8154816001600160401b0302191690836001600160401b0316021790555060408201518160000160106101000a81548165ffffffffffff021916908365ffffffffffff16021790555060608201518160000160166101000a8154816001600160501b0302191690836001600160501b031602179055509050508b8d6001600160a01b03167faa00ca5c6f282cb9f35953ecb0eaf8e39c95b7c8df114efac12162a85c085e608d846000015185602001516040516125ff939291909283526001600160401b03918216602084015216604082015260600190565b60405180910390a3505b8a8c6001600160a01b03167f66baa1848f5d4d14567e9bc527e5608778c86e512490d413cfafc9250327308f8c8b8b8e6040516126619493929190938452911515602084015215156040830152606082015260800190565b60405180910390a3505050505050505050505050565b600160009054906101000a90046001600160a01b03166001600160a01b031663481c6a756040518163ffffffff1660e01b8152600401602060405180830381865afa1580156126ca573d6000803e3d6000fd5b505050506040513d601f19601f820116820180604052508101906126ee91906146df565b6001600160a01b0316336001600160a01b03161461271e5760405162461bcd60e51b8152600401610f76906146fc565b8281811461273e5760405162461bcd60e51b8152600401610f7690614896565b60005b818110156118265761278286868381811061275e5761275e61462c565b905060200201358585848181106127775761277761462c565b905060400201612efd565b600101612741565b6000806002600061279a87611b62565b61ffff168152602080820192909252604090810160002081516101008101835281546001600160701b038082168352600160701b82041694820194909452600160e01b90930463ffffffff169183019190915260018101546001600160401b038082166060850152600160401b8204166080840152600160801b810465ffffffffffff1660a0840152600160b01b90046001600160501b031660c0830181905260029091015460e083015290915015806128a7575060c08101516001600160501b0316670de0b6b3a76400006128756402540be4008661469e565b61287f91906146cb565b8561288e578260200151612891565b82515b6001600160701b03166128a4919061466b565b11155b95945050505050565b60008082116128c05760016119aa565b6128ca8385614658565b6128e5701d6329f1c35ca4bfabb9f56100000000008461469e565b6119aa91906146cb565b606060008060029054906101000a90046001600160a01b03166001600160a01b0316633078fff56040518163ffffffff1660e01b8152600401602060405180830381865afa158015612945573d6000803e3d6000fd5b505050506040513d601f19601f8201168201806040525081019061296991906146df565b6001600160a01b03166335b03c176040518163ffffffff1660e01b8152600401602060405180830381865afa1580156129a6573d6000803e3d6000fd5b505050506040513d601f19601f820116820180604052508101906129ca91906146df565b6001600160a01b031663b81b2b716040518163ffffffff1660e01b8152600401602060405180830381865afa158015612a07573d6000803e3d6000fd5b505050506040513d601f19601f82011682018060405250810190612a2b9190614722565b90506000816001600160401b03811115612a4757612a47613b05565b604051908082528060200260200182016040528015612a8057816020015b612a6d613ac9565b815260200190600190039081612a655790505b50905060005b82811015612c07576000818152600360209081526040808320815181546101009481028201850190935260e08101838152909491938593919285929185015b82821015612b76576000848152602090819020604080516101208101825260028602909201805461ffff8116845265ffffffffffff62010000820416848601526001600160401b03600160401b808304821694860194909452600160801b80830482166060870152600160c01b928390048216608087015260019384015480831660a0880152948504821660c08701528404811660e086015292049091166101008301529083529092019101612ac5565b50505090825250600182015463ffffffff811660208301526001600160401b03600160201b820481166040840152600160601b820416606083015265ffffffffffff600160a01b820481166080840152600160d01b9091041660a082015260029091015460c0909101528251839083908110612bf457612bf461462c565b6020908102919091010152600101612a86565b5092915050565b612c16613a85565b5061ffff1660009081526002602081815260409283902083516101008101855281546001600160701b038082168352600160701b82041693820193909352600160e01b90920463ffffffff169382019390935260018301546001600160401b038082166060840152600160401b8204166080830152600160801b810465ffffffffffff1660a0830152600160b01b90046001600160501b031660c082015291015460e082015290565b600061a4b1461480612cd3575062066eed46145b15612d405760646001600160a01b031663a3b1b31d6040518163ffffffff1660e01b8152600401602060405180830381865afa158015612d17573d6000803e3d6000fd5b505050506040513d601f19601f82011682018060405250810190612d3b9190614722565b905090565b504390565b60008261ffff1611612d835760405162461bcd60e51b8152602060048201526007602482015266047524f55505f360cc1b6044820152606401610f76565b612d9482612d8f612cbf565b613754565b50612da4905060208201826148d7565b61ffff8316600090815260026020908152604091829020805463ffffffff94909416600160e01b026001600160e01b0390941693909317909255612ded919083019083016148f2565b61ffff8316600081815260026020908152604090912060010180546001600160501b0394909416600160b01b026001600160b01b0390941693909317909255907f88d808712bd68b7f7473d7173bcddf46451c2122e6b14ff487edb7384a063a0a90612e5b908401846148d7565b612e6b60408501602086016148f2565b6040805163ffffffff90931683526001600160501b0390911660208301520160405180910390a25050565b600082815260056020526040808220805468ffffffffffffffffff60901b1916600160901b6001600160481b038616908102919091179091559051909184917fd36ceb7ff70df9b11a62cd146778edc6d53a13eff5ef06573cd1897a26a1773d9190a35050565b600082815260036020526040812090612f1584611b62565b90506000612f21612cbf565b9050612f2d8582613635565b505061ffff8216612f41602086018661403a565b61ffff16146135a757612f548282613754565b50612f6d9050612f67602086018661403a565b82613754565b5050600080612f7b87611134565b91509150612f8d846001600085613859565b612f9a8460008084613859565b612fb3612faa602088018861403a565b60018085613859565b612fcd612fc3602088018861403a565b6000600184613859565b6000600281612fdf60208a018a61403a565b61ffff1661ffff168152602001908152602001600020604051806101000160405290816000820160009054906101000a90046001600160701b03166001600160701b03166001600160701b0316815260200160008201600e9054906101000a90046001600160701b03166001600160701b03166001600160701b0316815260200160008201601c9054906101000a900463ffffffff1663ffffffff1663ffffffff1681526020016001820160009054906101000a90046001600160401b03166001600160401b03166001600160401b031681526020016001820160089054906101000a90046001600160401b03166001600160401b03166001600160401b031681526020016001820160109054906101000a900465ffffffffffff1665ffffffffffff1665ffffffffffff1681526020016001820160169054906101000a90046001600160501b03166001600160501b03166001600160501b0316815260200160028201548152505090506000600260008761ffff1661ffff168152602001908152602001600020604051806101000160405290816000820160009054906101000a90046001600160701b03166001600160701b03166001600160701b0316815260200160008201600e9054906101000a90046001600160701b03166001600160701b03166001600160701b0316815260200160008201601c9054906101000a900463ffffffff1663ffffffff1663ffffffff1681526020016001820160009054906101000a90046001600160401b03166001600160401b03166001600160401b031681526020016001820160089054906101000a90046001600160401b03166001600160401b03166001600160401b031681526020016001820160109054906101000a900465ffffffffffff1665ffffffffffff1665ffffffffffff1681526020016001820160169054906101000a90046001600160501b03166001600160501b03166001600160501b031681526020016002820154815250509050866000016040518061012001604052808a60000160208101906132df919061403a565b61ffff1681526020016132f188613a59565b65ffffffffffff16815260200184606001516001600160401b0316815260200184608001516001600160401b0316815260200183606001516001600160401b0316815260200183608001516001600160401b031681526020018960010160049054906101000a90046001600160401b03166001600160401b0316815260200189600101600c9054906101000a90046001600160401b03166001600160401b0316815260200160006001600160401b0316815250908060018154018082558091505060019003906000526020600020906002020160009091909190915060008201518160000160006101000a81548161ffff021916908361ffff16021790555060208201518160000160026101000a81548165ffffffffffff021916908365ffffffffffff16021790555060408201518160000160086101000a8154816001600160401b0302191690836001600160401b0316021790555060608201518160000160106101000a8154816001600160401b0302191690836001600160401b0316021790555060808201518160000160186101000a8154816001600160401b0302191690836001600160401b0316021790555060a08201518160010160006101000a8154816001600160401b0302191690836001600160401b0316021790555060c08201518160010160086101000a8154816001600160401b0302191690836001600160401b0316021790555060e08201518160010160106101000a8154816001600160401b0302191690836001600160401b031602179055506101008201518160010160186101000a8154816001600160401b0302191690836001600160401b03160217905550505087600001602081019061356c919061403a565b61ffff168661ffff168a7f5beb7d73e1c3cd532d47c9e896931df26d9be450a833bd5fe1ace6bf5690d46860405160405180910390a4505050505b6135b760408501602086016148d7565b60018401805463ffffffff191663ffffffff929092169190911790556135e0602085018561403a565b61ffff16857fb952776dd028b221fddb797daabb4b4fde763e8273080fec7183df71ab84507b61361660408801602089016148d7565b60405163ffffffff909116815260200160405180910390a35050505050565b600080600061364485856119b2565b60008881526003602052604090206001810180546001600160401b03808716600160201b026bffffffffffffffff0000000019918716600160601b0291909116640100000000600160a01b03199092169190911717905592955090935091506136ac85613a59565b8160010160146101000a81548165ffffffffffff021916908365ffffffffffff1602179055506136db85611c85565b600282018190556001820154604080518881526001600160401b03600160201b840481166020830152600160601b90930490921690820152606081019190915286907fdfb420060d958fae05b55542f1db8397c379c7b40461f5ccc47df0df8ecf0551906080015b60405180910390a250509250929050565b60008060006137638585611f5a565b61ffff881660009081526002602052604090206001810180546001600160801b031916600160401b6001600160401b038681169190910267ffffffffffffffff19169190911790861617905592955090935091506137c085613a59565b8160010160106101000a81548165ffffffffffff021916908365ffffffffffff1602179055506137ef85611c85565b600282018190556001820154604080518881526001600160401b038084166020830152600160401b90930490921690820152606081019190915261ffff8716907f7672014c79d6eb7b66523664177345f0729875e37653757b1cc1f70ba0f1579890608001613743565b61ffff8416600081815260026020526040812091156139ec57670de0b6b3a764000061388a6402540be4008561469e565b61389491906146cb565b92506001600160701b038311156138bd5760405162461bcd60e51b8152600401610f7690614874565b50818415613947578361390a5781546001600160701b038083169116116138ee5781546001600160701b03166138f0565b805b825461390591906001600160701b031661490d565b613920565b81546139209082906001600160701b031661492d565b82546dffffffffffffffffffffffffffff19166001600160701b03919091161782556139ec565b836139a15781546001600160701b03808316600160701b909204161161397e578154600160701b90046001600160701b0316613980565b805b825461399c9190600160701b90046001600160701b031661490d565b6139be565b81546139be908290600160701b90046001600160701b031661492d565b82546001600160701b0391909116600160701b026dffffffffffffffffffffffffffff60701b199091161782555b8154604080516001600160701b0380851682528084166020830152600160701b90930490921690820152841515908615159061ffff8916907f946036ec838a96db6089510038e2de4a934fb985f2ba9ef85dd4166f622db2339060600160405180910390a4505050505050565b600065ffffffffffff821115613a815760405162461bcd60e51b8152600401610f7690614874565b5090565b6040805161010081018252600080825260208201819052918101829052606081018290526080810182905260a0810182905260c0810182905260e081019190915290565b6040805160e081018252606080825260006020830181905292820183905281018290526080810182905260a0810182905260c081019190915290565b634e487b7160e01b600052604160045260246000fd5b60405161012081016001600160401b0381118282101715613b3e57613b3e613b05565b60405290565b604051601f8201601f191681016001600160401b0381118282101715613b6c57613b6c613b05565b604052919050565b803561ffff81168114613b8657600080fd5b919050565b803565ffffffffffff81168114613b8657600080fd5b80356001600160401b0381168114613b8657600080fd5b80356001600160501b0381168114613b8657600080fd5b600060808284031215613be157600080fd5b604051608081018181106001600160401b0382111715613c0357613c03613b05565b604052905080613c1283613ba1565b8152613c2060208401613ba1565b6020820152613c3160408401613b8b565b6040820152613c4260608401613bb8565b60608201525092915050565b8015158114613c5c57600080fd5b50565b8035613b8681613c4e565b60008060008060008061012080888a031215613c8557600080fd5b873596506020808901356001600160401b0380821115613ca457600080fd5b818b0191508b601f830112613cb857600080fd5b813581811115613cca57613cca613b05565b613cd8848260051b01613b44565b818152848101925090850283018401908d821115613cf557600080fd5b928401925b81841015613dbb5785848f031215613d125760008081fd5b613d1a613b1b565b613d2385613b74565b8152613d30868601613b8b565b868201526040613d41818701613ba1565b908201526060613d52868201613ba1565b908201526080613d63868201613ba1565b9082015260a0613d74868201613ba1565b9082015260c0613d85868201613ba1565b9082015260e0613d96868201613ba1565b90820152610100613da8868201613ba1565b9082015283529285019291840191613cfa565b809a50505050505050613dd18860408901613bcf565b935060c08701359250613de660e08801613c5f565b915061010087013590509295509295509295565b600080600060608486031215613e0f57600080fd5b613e1884613b74565b9250602084013591506040840135613e2f81613c4e565b809150509250925092565b60008083601f840112613e4c57600080fd5b5081356001600160401b03811115613e6357600080fd5b6020830191508360208260051b8501011115613e7e57600080fd5b9250929050565b60008060208385031215613e9857600080fd5b82356001600160401b03811115613eae57600080fd5b613eba85828601613e3a565b90969095509350505050565b6001600160701b038082511683528060208301511660208401525063ffffffff604082015116604083015260608101516001600160401b038082166060850152806080840151166080850152505065ffffffffffff60a08201511660a083015260c0810151613f4060c08401826001600160501b03169052565b5060e090810151910152565b6020808252825182820181905260009190848201906040850190845b81811015613f8f57613f7b838551613ec6565b928401926101009290920191600101613f68565b50909695505050505050565b6001600160a01b0381168114613c5c57600080fd5b600060c08284031215613fc257600080fd5b60405160c081018181106001600160401b0382111715613fe457613fe4613b05565b6040528235613ff281613f9b565b808252506020830135602082015260408301356040820152606083013561401881613c4e565b60608201526080838101359082015260a0928301359281019290925250919050565b60006020828403121561404c57600080fd5b611c7e82613b74565b60006040828403121561406757600080fd5b50919050565b6000806060838503121561408057600080fd5b61408983613b74565b91506140988460208501614055565b90509250929050565b600080604083850312156140b457600080fd5b82356140bf81613f9b565b915060208301356140cf81613f9b565b809150509250929050565b6000602082840312156140ec57600080fd5b5035919050565b600060e0828403121561406757600080fd5b60008060006060848603121561411a57600080fd5b83359250602084013591506040840135613e2f81613c4e565b60008060006060848603121561414857600080fd5b833561415381613f9b565b95602085013595506040909401359392505050565b803563ffffffff81168114613b8657600080fd5b600080600080600080600080610100898b03121561419957600080fd5b6141a289613ba1565b97506141b060208a01613ba1565b965060408901359550606089013594506141cc60808a01614168565b979a969950949793969560a0850135955060c08501359460e001359350915050565b6000806000806040858703121561420457600080fd5b84356001600160401b038082111561421b57600080fd5b61422788838901613e3a565b9096509450602087013591508082111561424057600080fd5b5061424d87828801613e3a565b95989497509550505050565b6000806040838503121561426c57600080fd5b50508035926020909101359150565b6000806060838503121561428e57600080fd5b823591506140988460208501614055565b600080604083850312156142b257600080fd5b6142bb83613b74565b946020939093013593505050565b80356001600160481b0381168114613b8657600080fd5b600080604083850312156142f357600080fd5b82359150614098602084016142c9565b805160e08084528151848201819052600092610100916020918201918388019190865b828110156143b6578451805161ffff1685528281015165ffffffffffff16838601526040808201516001600160401b039081169187019190915260608083015182169087015260808083015182169087015260a08083015182169087015260c080830151821690870152888201518116898701529087015116868501529381019361012090930192600101614326565b508781015163ffffffff1690890152506040808701516001600160401b039081169189019190915260608088015191821690890152935060808601519350614408608088018565ffffffffffff169052565b60a0860151935061442360a088018565ffffffffffff169052565b60c086015160c08801528094505050505092915050565b602081526000611c7e6020830184614303565b60008083601f84011261445f57600080fd5b5081356001600160401b0381111561447657600080fd5b6020830191508360208260061b8501011115613e7e57600080fd5b600080600080604085870312156144a757600080fd5b84356001600160401b03808211156144be57600080fd5b6144ca88838901613e3a565b909650945060208701359150808211156144e357600080fd5b5061424d8782880161444d565b60008060008060008060c0878903121561450957600080fd5b863561451481613f9b565b9550602087013594506040870135935060608701359250608087013561453981613c4e565b915060a087013561454981613c4e565b809150509295509295509295565b60008060006060848603121561456c57600080fd5b83359250602084013561457e81613c4e565b929592945050506040919091013590565b6000806000606084860312156145a457600080fd5b505081359360208301359350604090920135919050565b6000602080830181845280855180835260408601915060408160051b870101925083870160005b8281101561461057603f198886030184526145fe858351614303565b945092850192908501906001016145e2565b5092979650505050505050565b6101008101610bb98284613ec6565b634e487b7160e01b600052603260045260246000fd5b634e487b7160e01b600052601160045260246000fd5b81810381811115610bb957610bb9614642565b80820180821115610bb957610bb9614642565b6001600160401b03828116828216039080821115612c0757612c07614642565b8082028115828204841417610bb957610bb9614642565b634e487b7160e01b600052601260045260246000fd5b6000826146da576146da6146b5565b500490565b6000602082840312156146f157600080fd5b8151611c7e81613f9b565b6020808252600c908201526b4d414e414745525f4f4e4c5960a01b604082015260600190565b60006020828403121561473457600080fd5b5051919050565b60006020828403121561474d57600080fd5b8135611c7e81613c4e565b60006020828403121561476a57600080fd5b8135611c7e81613f9b565b60006060828403121561478757600080fd5b604051606081018181106001600160401b03821117156147a9576147a9613b05565b8060405250825181526020830151602082015260408301516147ca81613c4e565b60408201529392505050565b8181036000831280158383131683831282161715612c0757612c07614642565b80820260008212600160ff1b8414161561481257614812614642565b8181058314821517610bb957610bb9614642565b600082614835576148356146b5565b600160ff1b82146000198414161561484f5761484f614642565b500590565b6001600160401b03818116838216019080821115612c0757612c07614642565b6020808252600890820152674f564552464c4f5760c01b604082015260600190565b6020808252600c908201526b0aea49e9c8ebe988a9c8ea8960a31b604082015260600190565b6000602082840312156148ce57600080fd5b611c7e826142c9565b6000602082840312156148e957600080fd5b611c7e82614168565b60006020828403121561490457600080fd5b611c7e82613bb8565b6001600160701b03828116828216039080821115612c0757612c07614642565b6001600160701b03818116838216019080821115612c0757612c0761464256fea2646970667358221220c46abbc28fbf96221b7bf8f2a84b5c08f6ee65ad2301059f128bf1e5ac517f7764736f6c63430008110033",
  "linkReferences": {},
  "deployedLinkReferences": {}
}