{
  "contractName": "GNSNftRewardsV6",
  "abi": [
    {
      "anonymous": false,
      "inputs": [
        {
          "indexed": false,
          "internalType": "uint8",
          "name": "version",
          "type": "uint8"
        }
      ],
      "name": "Initialized",
      "type": "event"
    },
    {
      "anonymous": false,
      "inputs": [
        {
          "indexed": false,
          "internalType": "string",
          "name": "name",
          "type": "string"
        },
        {
          "indexed": false,
          "internalType": "uint256",
          "name": "value",
          "type": "uint256"
        }
      ],
      "name": "NumberUpdated",
      "type": "event"
    },
    {
      "anonymous": false,
      "inputs": [
        {
          "indexed": false,
          "internalType": "uint256",
          "name": "firstP",
          "type": "uint256"
        },
        {
          "indexed": false,
          "internalType": "uint256",
          "name": "sameBlockP",
          "type": "uint256"
        },
        {
          "indexed": false,
          "internalType": "uint256",
          "name": "poolP",
          "type": "uint256"
        }
      ],
      "name": "PercentagesUpdated",
      "type": "event"
    },
    {
      "anonymous": false,
      "inputs": [
        {
          "indexed": false,
          "internalType": "address",
          "name": "bot",
          "type": "address"
        },
        {
          "indexed": false,
          "internalType": "uint256",
          "name": "fromRound",
          "type": "uint256"
        },
        {
          "indexed": false,
          "internalType": "uint256",
          "name": "toRound",
          "type": "uint256"
        },
        {
          "indexed": false,
          "internalType": "uint256",
          "name": "tokens",
          "type": "uint256"
        }
      ],
      "name": "PoolTokensClaimed",
      "type": "event"
    },
    {
      "anonymous": false,
      "inputs": [
        {
          "indexed": false,
          "internalType": "address",
          "name": "bot",
          "type": "address"
        },
        {
          "indexed": false,
          "internalType": "uint256",
          "name": "tokens",
          "type": "uint256"
        }
      ],
      "name": "TokensClaimed",
      "type": "event"
    },
    {
      "anonymous": false,
      "inputs": [
        {
          "components": [
            {
              "internalType": "address",
              "name": "trader",
              "type": "address"
            },
            {
              "internalType": "uint256",
              "name": "pairIndex",
              "type": "uint256"
            },
            {
              "internalType": "uint256",
              "name": "index",
              "type": "uint256"
            },
            {
              "internalType": "enum StorageInterfaceV5.LimitOrder",
              "name": "order",
              "type": "uint8"
            }
          ],
          "indexed": false,
          "internalType": "struct GNSNftRewardsV6.TriggeredLimitId",
          "name": "id",
          "type": "tuple"
        },
        {
          "indexed": false,
          "internalType": "address",
          "name": "first",
          "type": "address"
        },
        {
          "indexed": false,
          "internalType": "uint256",
          "name": "sameBlockCount",
          "type": "uint256"
        },
        {
          "indexed": false,
          "internalType": "uint256",
          "name": "reward",
          "type": "uint256"
        }
      ],
      "name": "TriggerRewarded",
      "type": "event"
    },
    {
      "anonymous": false,
      "inputs": [
        {
          "components": [
            {
              "internalType": "address",
              "name": "trader",
              "type": "address"
            },
            {
              "internalType": "uint256",
              "name": "pairIndex",
              "type": "uint256"
            },
            {
              "internalType": "uint256",
              "name": "index",
              "type": "uint256"
            },
            {
              "internalType": "enum StorageInterfaceV5.LimitOrder",
              "name": "order",
              "type": "uint8"
            }
          ],
          "indexed": false,
          "internalType": "struct GNSNftRewardsV6.TriggeredLimitId",
          "name": "id",
          "type": "tuple"
        }
      ],
      "name": "TriggerUnregistered",
      "type": "event"
    },
    {
      "anonymous": false,
      "inputs": [
        {
          "components": [
            {
              "internalType": "address",
              "name": "trader",
              "type": "address"
            },
            {
              "internalType": "uint256",
              "name": "pairIndex",
              "type": "uint256"
            },
            {
              "internalType": "uint256",
              "name": "index",
              "type": "uint256"
            },
            {
              "internalType": "enum StorageInterfaceV5.LimitOrder",
              "name": "order",
              "type": "uint8"
            }
          ],
          "indexed": false,
          "internalType": "struct GNSNftRewardsV6.TriggeredLimitId",
          "name": "id",
          "type": "tuple"
        },
        {
          "indexed": false,
          "internalType": "address",
          "name": "bot",
          "type": "address"
        }
      ],
      "name": "TriggeredFirst",
      "type": "event"
    },
    {
      "anonymous": false,
      "inputs": [
        {
          "components": [
            {
              "internalType": "address",
              "name": "trader",
              "type": "address"
            },
            {
              "internalType": "uint256",
              "name": "pairIndex",
              "type": "uint256"
            },
            {
              "internalType": "uint256",
              "name": "index",
              "type": "uint256"
            },
            {
              "internalType": "enum StorageInterfaceV5.LimitOrder",
              "name": "order",
              "type": "uint8"
            }
          ],
          "indexed": false,
          "internalType": "struct GNSNftRewardsV6.TriggeredLimitId",
          "name": "id",
          "type": "tuple"
        },
        {
          "indexed": false,
          "internalType": "address",
          "name": "bot",
          "type": "address"
        }
      ],
      "name": "TriggeredSameBlock",
      "type": "event"
    },
    {
      "inputs": [],
      "name": "currentOrder",
      "outputs": [
        {
          "internalType": "uint256",
          "name": "",
          "type": "uint256"
        }
      ],
      "stateMutability": "view",
      "type": "function"
    },
    {
      "inputs": [],
      "name": "currentRound",
      "outputs": [
        {
          "internalType": "uint256",
          "name": "",
          "type": "uint256"
        }
      ],
      "stateMutability": "view",
      "type": "function"
    },
    {
      "inputs": [],
      "name": "firstP",
      "outputs": [
        {
          "internalType": "uint256",
          "name": "",
          "type": "uint256"
        }
      ],
      "stateMutability": "view",
      "type": "function"
    },
    {
      "inputs": [
        {
          "internalType": "address",
          "name": "",
          "type": "address"
        },
        {
          "internalType": "uint256",
          "name": "",
          "type": "uint256"
        },
        {
          "internalType": "uint256",
          "name": "",
          "type": "uint256"
        }
      ],
      "name": "openLimitOrderTypes",
      "outputs": [
        {
          "internalType": "enum GNSNftRewardsV6.OpenLimitOrderType",
          "name": "",
          "type": "uint8"
        }
      ],
      "stateMutability": "view",
      "type": "function"
    },
    {
      "inputs": [],
      "name": "poolP",
      "outputs": [
        {
          "internalType": "uint256",
          "name": "",
          "type": "uint256"
        }
      ],
      "stateMutability": "view",
      "type": "function"
    },
    {
      "inputs": [
        {
          "internalType": "address",
          "name": "",
          "type": "address"
        },
        {
          "internalType": "uint256",
          "name": "",
          "type": "uint256"
        }
      ],
      "name": "roundOrdersToClaim",
      "outputs": [
        {
          "internalType": "uint256",
          "name": "",
          "type": "uint256"
        }
      ],
      "stateMutability": "view",
      "type": "function"
    },
    {
      "inputs": [
        {
          "internalType": "uint256",
          "name": "",
          "type": "uint256"
        }
      ],
      "name": "roundTokens",
      "outputs": [
        {
          "internalType": "uint256",
          "name": "",
          "type": "uint256"
        }
      ],
      "stateMutability": "view",
      "type": "function"
    },
    {
      "inputs": [],
      "name": "sameBlockLimit",
      "outputs": [
        {
          "internalType": "uint256",
          "name": "",
          "type": "uint256"
        }
      ],
      "stateMutability": "view",
      "type": "function"
    },
    {
      "inputs": [],
      "name": "sameBlockP",
      "outputs": [
        {
          "internalType": "uint256",
          "name": "",
          "type": "uint256"
        }
      ],
      "stateMutability": "view",
      "type": "function"
    },
    {
      "inputs": [],
      "name": "storageT",
      "outputs": [
        {
          "internalType": "contract StorageInterfaceV5",
          "name": "",
          "type": "address"
        }
      ],
      "stateMutability": "view",
      "type": "function"
    },
    {
      "inputs": [
        {
          "internalType": "address",
          "name": "",
          "type": "address"
        }
      ],
      "name": "tokensClaimed",
      "outputs": [
        {
          "internalType": "uint256",
          "name": "",
          "type": "uint256"
        }
      ],
      "stateMutability": "view",
      "type": "function"
    },
    {
      "inputs": [],
      "name": "tokensClaimedTotal",
      "outputs": [
        {
          "internalType": "uint256",
          "name": "",
          "type": "uint256"
        }
      ],
      "stateMutability": "view",
      "type": "function"
    },
    {
      "inputs": [
        {
          "internalType": "address",
          "name": "",
          "type": "address"
        }
      ],
      "name": "tokensToClaim",
      "outputs": [
        {
          "internalType": "uint256",
          "name": "",
          "type": "uint256"
        }
      ],
      "stateMutability": "view",
      "type": "function"
    },
    {
      "inputs": [],
      "name": "triggerTimeout",
      "outputs": [
        {
          "internalType": "uint256",
          "name": "",
          "type": "uint256"
        }
      ],
      "stateMutability": "view",
      "type": "function"
    },
    {
      "inputs": [
        {
          "internalType": "address",
          "name": "",
          "type": "address"
        },
        {
          "internalType": "uint256",
          "name": "",
          "type": "uint256"
        },
        {
          "internalType": "uint256",
          "name": "",
          "type": "uint256"
        },
        {
          "internalType": "enum StorageInterfaceV5.LimitOrder",
          "name": "",
          "type": "uint8"
        }
      ],
      "name": "triggeredLimits",
      "outputs": [
        {
          "internalType": "address",
          "name": "first",
          "type": "address"
        },
        {
          "internalType": "uint256",
          "name": "block",
          "type": "uint256"
        }
      ],
      "stateMutability": "view",
      "type": "function"
    },
    {
      "inputs": [
        {
          "internalType": "contract StorageInterfaceV5",
          "name": "_storageT",
          "type": "address"
        },
        {
          "internalType": "uint256",
          "name": "_triggerTimeout",
          "type": "uint256"
        },
        {
          "internalType": "uint256",
          "name": "_sameBlockLimit",
          "type": "uint256"
        },
        {
          "internalType": "uint256",
          "name": "_firstP",
          "type": "uint256"
        },
        {
          "internalType": "uint256",
          "name": "_sameBlockP",
          "type": "uint256"
        },
        {
          "internalType": "uint256",
          "name": "_poolP",
          "type": "uint256"
        }
      ],
      "name": "initialize",
      "outputs": [],
      "stateMutability": "nonpayable",
      "type": "function"
    },
    {
      "inputs": [
        {
          "internalType": "uint256",
          "name": "_triggerTimeout",
          "type": "uint256"
        }
      ],
      "name": "updateTriggerTimeout",
      "outputs": [],
      "stateMutability": "nonpayable",
      "type": "function"
    },
    {
      "inputs": [
        {
          "internalType": "uint256",
          "name": "_sameBlockLimit",
          "type": "uint256"
        }
      ],
      "name": "updateSameBlockLimit",
      "outputs": [],
      "stateMutability": "nonpayable",
      "type": "function"
    },
    {
      "inputs": [
        {
          "internalType": "uint256",
          "name": "_firstP",
          "type": "uint256"
        },
        {
          "internalType": "uint256",
          "name": "_sameBlockP",
          "type": "uint256"
        },
        {
          "internalType": "uint256",
          "name": "_poolP",
          "type": "uint256"
        }
      ],
      "name": "updatePercentages",
      "outputs": [],
      "stateMutability": "nonpayable",
      "type": "function"
    },
    {
      "inputs": [
        {
          "components": [
            {
              "internalType": "address",
              "name": "trader",
              "type": "address"
            },
            {
              "internalType": "uint256",
              "name": "pairIndex",
              "type": "uint256"
            },
            {
              "internalType": "uint256",
              "name": "index",
              "type": "uint256"
            },
            {
              "internalType": "enum StorageInterfaceV5.LimitOrder",
              "name": "order",
              "type": "uint8"
            }
          ],
          "internalType": "struct GNSNftRewardsV6.TriggeredLimitId",
          "name": "_id",
          "type": "tuple"
        },
        {
          "internalType": "address",
          "name": "_bot",
          "type": "address"
        }
      ],
      "name": "storeFirstToTrigger",
      "outputs": [],
      "stateMutability": "nonpayable",
      "type": "function"
    },
    {
      "inputs": [
        {
          "components": [
            {
              "internalType": "address",
              "name": "trader",
              "type": "address"
            },
            {
              "internalType": "uint256",
              "name": "pairIndex",
              "type": "uint256"
            },
            {
              "internalType": "uint256",
              "name": "index",
              "type": "uint256"
            },
            {
              "internalType": "enum StorageInterfaceV5.LimitOrder",
              "name": "order",
              "type": "uint8"
            }
          ],
          "internalType": "struct GNSNftRewardsV6.TriggeredLimitId",
          "name": "_id",
          "type": "tuple"
        },
        {
          "internalType": "address",
          "name": "_bot",
          "type": "address"
        }
      ],
      "name": "storeTriggerSameBlock",
      "outputs": [],
      "stateMutability": "nonpayable",
      "type": "function"
    },
    {
      "inputs": [
        {
          "components": [
            {
              "internalType": "address",
              "name": "trader",
              "type": "address"
            },
            {
              "internalType": "uint256",
              "name": "pairIndex",
              "type": "uint256"
            },
            {
              "internalType": "uint256",
              "name": "index",
              "type": "uint256"
            },
            {
              "internalType": "enum StorageInterfaceV5.LimitOrder",
              "name": "order",
              "type": "uint8"
            }
          ],
          "internalType": "struct GNSNftRewardsV6.TriggeredLimitId",
          "name": "_id",
          "type": "tuple"
        }
      ],
      "name": "unregisterTrigger",
      "outputs": [],
      "stateMutability": "nonpayable",
      "type": "function"
    },
    {
      "inputs": [
        {
          "components": [
            {
              "internalType": "address",
              "name": "trader",
              "type": "address"
            },
            {
              "internalType": "uint256",
              "name": "pairIndex",
              "type": "uint256"
            },
            {
              "internalType": "uint256",
              "name": "index",
              "type": "uint256"
            },
            {
              "internalType": "enum StorageInterfaceV5.LimitOrder",
              "name": "order",
              "type": "uint8"
            }
          ],
          "internalType": "struct GNSNftRewardsV6.TriggeredLimitId",
          "name": "_id",
          "type": "tuple"
        },
        {
          "internalType": "uint256",
          "name": "_reward",
          "type": "uint256"
        }
      ],
      "name": "distributeNftReward",
      "outputs": [],
      "stateMutability": "nonpayable",
      "type": "function"
    },
    {
      "inputs": [
        {
          "internalType": "uint256",
          "name": "_fromRound",
          "type": "uint256"
        },
        {
          "internalType": "uint256",
          "name": "_toRound",
          "type": "uint256"
        }
      ],
      "name": "claimPoolTokens",
      "outputs": [],
      "stateMutability": "nonpayable",
      "type": "function"
    },
    {
      "inputs": [],
      "name": "claimTokens",
      "outputs": [],
      "stateMutability": "nonpayable",
      "type": "function"
    },
    {
      "inputs": [
        {
          "internalType": "address",
          "name": "_trader",
          "type": "address"
        },
        {
          "internalType": "uint256",
          "name": "_pairIndex",
          "type": "uint256"
        },
        {
          "internalType": "uint256",
          "name": "_index",
          "type": "uint256"
        },
        {
          "internalType": "enum GNSNftRewardsV6.OpenLimitOrderType",
          "name": "_type",
          "type": "uint8"
        }
      ],
      "name": "setOpenLimitOrderType",
      "outputs": [],
      "stateMutability": "nonpayable",
      "type": "function"
    },
    {
      "inputs": [
        {
          "components": [
            {
              "internalType": "address",
              "name": "trader",
              "type": "address"
            },
            {
              "internalType": "uint256",
              "name": "pairIndex",
              "type": "uint256"
            },
            {
              "internalType": "uint256",
              "name": "index",
              "type": "uint256"
            },
            {
              "internalType": "enum StorageInterfaceV5.LimitOrder",
              "name": "order",
              "type": "uint8"
            }
          ],
          "internalType": "struct GNSNftRewardsV6.TriggeredLimitId",
          "name": "_id",
          "type": "tuple"
        }
      ],
      "name": "triggered",
      "outputs": [
        {
          "internalType": "bool",
          "name": "",
          "type": "bool"
        }
      ],
      "stateMutability": "view",
      "type": "function"
    },
    {
      "inputs": [
        {
          "components": [
            {
              "internalType": "address",
              "name": "trader",
              "type": "address"
            },
            {
              "internalType": "uint256",
              "name": "pairIndex",
              "type": "uint256"
            },
            {
              "internalType": "uint256",
              "name": "index",
              "type": "uint256"
            },
            {
              "internalType": "enum StorageInterfaceV5.LimitOrder",
              "name": "order",
              "type": "uint8"
            }
          ],
          "internalType": "struct GNSNftRewardsV6.TriggeredLimitId",
          "name": "_id",
          "type": "tuple"
        }
      ],
      "name": "timedOut",
      "outputs": [
        {
          "internalType": "bool",
          "name": "",
          "type": "bool"
        }
      ],
      "stateMutability": "view",
      "type": "function"
    },
    {
      "inputs": [
        {
          "components": [
            {
              "internalType": "address",
              "name": "trader",
              "type": "address"
            },
            {
              "internalType": "uint256",
              "name": "pairIndex",
              "type": "uint256"
            },
            {
              "internalType": "uint256",
              "name": "index",
              "type": "uint256"
            },
            {
              "internalType": "enum StorageInterfaceV5.LimitOrder",
              "name": "order",
              "type": "uint8"
            }
          ],
          "internalType": "struct GNSNftRewardsV6.TriggeredLimitId",
          "name": "_id",
          "type": "tuple"
        }
      ],
      "name": "sameBlockTriggers",
      "outputs": [
        {
          "internalType": "address[]",
          "name": "",
          "type": "address[]"
        }
      ],
      "stateMutability": "view",
      "type": "function"
    }
  ],
  "bytecode": "0x608060405234801561001057600080fd5b506120ca806100206000396000f3fe608060405234801561001057600080fd5b50600436106101cf5760003560e01c80637e21a07311610104578063d4de65ea116100a2578063f4e980ef11610071578063f4e980ef14610475578063fa827e2e1461047e578063fc6dcafc1461049e578063fc8b2698146104b157600080fd5b8063d4de65ea146103fb578063daa6a3e21461043c578063eb56faf01461044f578063ec5706101461046257600080fd5b80639e28229d116100de5780639e28229d14610360578063bf654d2b14610369578063c23c886c1461037c578063d15ccfaa1461038f57600080fd5b80637e21a073146103235780638a19c8bc1461034e5780639808e3771461035757600080fd5b806345ff4c80116101715780635087ad611161014b5780635087ad61146102de578063613e666e146102e7578063624601b6146102fa5780637ceea89a1461031a57600080fd5b806345ff4c80146102b057806346ea285b146102c357806348c54b9d146102d657600080fd5b80631e868334116101ad5780631e8683341461024557806321187a921461026557806324597b0314610288578063307677871461029d57600080fd5b80630c50b7ef146101d457806316fff074146101fd578063196e182f1461022e575b600080fd5b6101e76101e2366004611bc7565b6104ba565b6040516101f49190611be3565b60405180910390f35b600054610216906201000090046001600160a01b031681565b6040516001600160a01b0390911681526020016101f4565b61023760025481565b6040519081526020016101f4565b610237610253366004611c45565b600a6020526000908152604090205481565b610278610273366004611bc7565b6105a5565b60405190151581526020016101f4565b61029b610296366004611c62565b6106c2565b005b61029b6102ab366004611c84565b610905565b61029b6102be366004611caf565b610d0d565b61029b6102d1366004611cfb565b610edb565b61029b6110f2565b61023760035481565b61029b6102f5366004611d33565b61123f565b610237610308366004611c45565b600d6020526000908152604090205481565b610237600e5481565b610237610331366004611d4c565b600960209081526000928352604080842090915290825290205481565b61023760075481565b61023760045481565b61023760065481565b61029b610377366004611bc7565b611380565b61029b61038a366004611cfb565b611526565b6103dc61039d366004611d8c565b600b602090815260009485526040808620825293855283852081529184528284209091528252902080546002909101546001600160a01b039091169082565b604080516001600160a01b0390931683526020830191909152016101f4565b61042f610409366004611dd4565b600c60209081526000938452604080852082529284528284209052825290205460ff1681565b6040516101f49190611e1f565b61029b61044a366004611d33565b6116b9565b61029b61045d366004611e39565b6117fa565b61029b610470366004611e65565b611940565b61023760055481565b61023761048c366004611d33565b60086020526000908152604090205481565b6102786104ac366004611bc7565b611a3a565b61023760015481565b6060600b60006104cd6020850185611c45565b6001600160a01b031681526020808201929092526040908101600090812085840135825283528181208583013582529092528120906105126080850160608601611eb3565b600381111561052357610523611e09565b600381111561053457610534611e09565b815260200190815260200160002060010180548060200260200160405190810160405280929190818152602001828054801561059957602002820191906000526020600020905b81546001600160a01b0316815260019091019060200180831161057b575b50505050509050919050565b600080600b816105b86020860186611c45565b6001600160a01b031681526020808201929092526040908101600090812086840135825283528181208683013582529092528120906105fd6080860160608701611eb3565b600381111561060e5761060e611e09565b600381111561061f5761061f611e09565b81526020808201929092526040908101600020815160608101835281546001600160a01b0316815260018201805484518187028101870190955280855291949293858401939092908301828280156106a057602002820191906000526020600020905b81546001600160a01b03168152600190910190602001808311610682575b5050509183525050600291909101546020909101526040015115159392505050565b818110156107085760405162461bcd60e51b815260206004820152600e60248201526d544f5f4245464f52455f46524f4d60901b60448201526064015b60405180910390fd5b60075481106107455760405162461bcd60e51b8152602060048201526009602482015268544f4f5f4541524c5960b81b60448201526064016106ff565b6000825b8281116107c557600081815260086020908152604080832054338452600983528184208585529092529091205460329161078291611ee4565b61078c9190611f01565b6107969083611f23565b3360009081526009602090815260408083208584529091528120559150806107bd81611f36565b915050610749565b50600081116108095760405162461bcd60e51b815260206004820152601060248201526f4e4f5448494e475f544f5f434c41494d60801b60448201526064016106ff565b6000546040516329bc0a1f60e11b81523360048201526024810183905260016044820152620100009091046001600160a01b031690635378143e90606401600060405180830381600087803b15801561086157600080fd5b505af1158015610875573d6000803e3d6000fd5b5050336000908152600d602052604081208054859450909250610899908490611f23565b9250508190555080600e60008282546108b29190611f23565b90915550506040805133815260208101859052908101839052606081018290527f46ac8a38885612f1237f564a5c0956490dfd5f8e749e750a4c28fafb9f4e6f3a906080015b60405180910390a1505050565b600060029054906101000a90046001600160a01b03166001600160a01b031662b127836040518163ffffffff1660e01b8152600401602060405180830381865afa158015610957573d6000803e3d6000fd5b505050506040513d601f19601f8201168201806040525081019061097b9190611f4f565b6001600160a01b0316336001600160a01b0316146109cc5760405162461bcd60e51b815260206004820152600e60248201526d43414c4c4241434b535f4f4e4c5960901b60448201526064016106ff565b6000600b816109de6020860186611c45565b6001600160a01b03168152602080820192909252604090810160009081208684013582528352818120868301358252909252812090610a236080860160608701611eb3565b6003811115610a3457610a34611e09565b6003811115610a4557610a45611e09565b81526020808201929092526040908101600020815160608101835281546001600160a01b031681526001820180548451818702810187019095528085529194929385840193909290830182828015610ac657602002820191906000526020600020905b81546001600160a01b03168152600190910190602001808311610aa8575b5050505050815260200160028201548152505090506000816040015111610b1f5760405162461bcd60e51b815260206004820152600d60248201526c1393d517d5149251d1d1549151609a1b60448201526064016106ff565b606460035483610b2f9190611ee4565b610b399190611f01565b81516001600160a01b03166000908152600a602052604081208054909190610b62908490611f23565b909155505060208101515115610c1d576000606482602001515160045485610b8a9190611ee4565b610b949190611f01565b610b9e9190611f01565b905060005b826020015151811015610c1a5781600a600085602001518481518110610bcb57610bcb611f6c565b60200260200101516001600160a01b03166001600160a01b031681526020019081526020016000206000828254610c029190611f23565b90915550819050610c1281611f36565b915050610ba3565b50505b606460055483610c2d9190611ee4565b610c379190611f01565b60075460009081526008602052604081208054909190610c58908490611f23565b909155505080516001600160a01b0316600090815260096020908152604080832060075484529091528120805491610c8f83611f36565b9190505550603260065403610cbd57600160065560078054906000610cb383611f36565b9190505550610cd3565b60068054906000610ccd83611f36565b91905055505b80516020820151516040517fa221ef97658841f95c511da6be528d238f9870b9626f3cfa76a374906a351734926108f89287928790611fd3565b600054610100900460ff1615808015610d2d5750600054600160ff909116105b80610d475750303b158015610d47575060005460ff166001145b610daa5760405162461bcd60e51b815260206004820152602e60248201527f496e697469616c697a61626c653a20636f6e747261637420697320616c72656160448201526d191e481a5b9a5d1a585b1a5e995960921b60648201526084016106ff565b6000805460ff191660011790558015610dcd576000805461ff0019166101001790555b6001600160a01b03871615801590610de6575060018610155b8015610df3575060058510155b8015610e13575081610e058486611f23565b610e0f9190611f23565b6064145b610e4e5760405162461bcd60e51b815260206004820152600c60248201526b57524f4e475f504152414d5360a01b60448201526064016106ff565b6000805462010000600160b01b031916620100006001600160a01b038a1602179055600186815560028690556003859055600484905560058390556006558015610ed2576000805461ff0019169055604051600181527f7f26b83ff96e1f2b6a682f133852f6798a09c465da95921460cefb38474024989060200160405180910390a15b50505050505050565b600060029054906101000a90046001600160a01b03166001600160a01b031663ec44acf26040518163ffffffff1660e01b8152600401602060405180830381865afa158015610f2e573d6000803e3d6000fd5b505050506040513d601f19601f82011682018060405250810190610f529190611f4f565b6001600160a01b0316336001600160a01b031614610f825760405162461bcd60e51b81526004016106ff90612005565b6000600b81610f946020860186611c45565b6001600160a01b03168152602080820192909252604090810160009081208684013582528352818120868301358252909252812090610fd96080860160608701611eb3565b6003811115610fea57610fea611e09565b6003811115610ffb57610ffb611e09565b81526020019081526020016000209050438160020154146110495760405162461bcd60e51b8152602060048201526008602482015267544f4f5f4c41544560c01b60448201526064016106ff565b6002546001820154106110915760405162461bcd60e51b815260206004820152601060248201526f14d0535157d09313d0d2d7d31253525560821b60448201526064016106ff565b6001818101805491820181556000908152602090200180546001600160a01b0319166001600160a01b0384161790556040517fe76b06c761880bf9ea246e3e04ef2b18bc6979f1492c43a61b78ee673f79a399906108f8908590859061202b565b336000908152600a6020526040902054806111425760405162461bcd60e51b815260206004820152601060248201526f4e4f5448494e475f544f5f434c41494d60801b60448201526064016106ff565b336000818152600a6020526040808220829055905490516329bc0a1f60e11b8152600481019290925260248201839052600160448301526201000090046001600160a01b031690635378143e90606401600060405180830381600087803b1580156111ac57600080fd5b505af11580156111c0573d6000803e3d6000fd5b5050336000908152600d6020526040812080548594509092506111e4908490611f23565b9250508190555080600e60008282546111fd9190611f23565b909155505060408051338152602081018390527f896e034966eaaf1adc54acc0f257056febbd300c9e47182cf761982cf1f5e43091015b60405180910390a150565b600060029054906101000a90046001600160a01b03166001600160a01b03166312d43a516040518163ffffffff1660e01b8152600401602060405180830381865afa158015611292573d6000803e3d6000fd5b505050506040513d601f19601f820116820180604052508101906112b69190611f4f565b6001600160a01b0316336001600160a01b0316146112e65760405162461bcd60e51b81526004016106ff90612051565b60018110156113235760405162461bcd60e51b81526020600482015260096024820152682122a627abafa6a4a760b91b60448201526064016106ff565b600181905560408051818152600e918101919091526d1d1c9a59d9d95c951a5b595bdd5d60921b6060820152602081018290527f8cf3e35f6221b16e1670a3413180c9484bf5aa71787905909fa82a6a2662e9ab90608001611234565b600060029054906101000a90046001600160a01b03166001600160a01b031662b127836040518163ffffffff1660e01b8152600401602060405180830381865afa1580156113d2573d6000803e3d6000fd5b505050506040513d601f19601f820116820180604052508101906113f69190611f4f565b6001600160a01b0316336001600160a01b0316146114475760405162461bcd60e51b815260206004820152600e60248201526d43414c4c4241434b535f4f4e4c5960901b60448201526064016106ff565b600b60006114586020840184611c45565b6001600160a01b0316815260208082019290925260409081016000908120848401358252835281812084830135825290925281209061149d6080840160608501611eb3565b60038111156114ae576114ae611e09565b60038111156114bf576114bf611e09565b81526020810191909152604001600090812080546001600160a01b0319168155906114ed6001830182611b75565b600282016000905550507fbc446f372d672d41df09bf965eb61c029a34d21d04ebcd4c0ec9c7ee54f2cd84816040516112349190612073565b600060029054906101000a90046001600160a01b03166001600160a01b031663ec44acf26040518163ffffffff1660e01b8152600401602060405180830381865afa158015611579573d6000803e3d6000fd5b505050506040513d601f19601f8201168201806040525081019061159d9190611f4f565b6001600160a01b0316336001600160a01b0316146115cd5760405162461bcd60e51b81526004016106ff90612005565b6000600b816115df6020860186611c45565b6001600160a01b031681526020808201929092526040908101600090812086840135825283528181208683013582529092528120906116246080860160608701611eb3565b600381111561163557611635611e09565b600381111561164657611646611e09565b81526020810191909152604001600090812080546001600160a01b0319166001600160a01b0385161781559150611681906001830190611b75565b4360028201556040517f1474f6b5ca19838c98ce7eac6aca02feef9e454135a7390c9c9991bf314d04d6906108f8908590859061202b565b600060029054906101000a90046001600160a01b03166001600160a01b03166312d43a516040518163ffffffff1660e01b8152600401602060405180830381865afa15801561170c573d6000803e3d6000fd5b505050506040513d601f19601f820116820180604052508101906117309190611f4f565b6001600160a01b0316336001600160a01b0316146117605760405162461bcd60e51b81526004016106ff90612051565b600581101561179d5760405162461bcd60e51b81526020600482015260096024820152682122a627abafa6a4a760b91b60448201526064016106ff565b600281905560408051818152600e918101919091526d1cd85b59509b1bd8dad31a5b5a5d60921b6060820152602081018290527f8cf3e35f6221b16e1670a3413180c9484bf5aa71787905909fa82a6a2662e9ab90608001611234565b600060029054906101000a90046001600160a01b03166001600160a01b03166312d43a516040518163ffffffff1660e01b8152600401602060405180830381865afa15801561184d573d6000803e3d6000fd5b505050506040513d601f19601f820116820180604052508101906118719190611f4f565b6001600160a01b0316336001600160a01b0316146118a15760405162461bcd60e51b81526004016106ff90612051565b806118ac8385611f23565b6118b69190611f23565b6064146118f35760405162461bcd60e51b815260206004820152600b60248201526a053554d5f4e4f545f3130360ac1b60448201526064016106ff565b60038390556004829055600581905560408051848152602081018490529081018290527fb00a98da0c7a71c80f4eb7c6fc5182810a44793a250cbecc3064afdba5c8660b906060016108f8565b600060029054906101000a90046001600160a01b03166001600160a01b031663ec44acf26040518163ffffffff1660e01b8152600401602060405180830381865afa158015611993573d6000803e3d6000fd5b505050506040513d601f19601f820116820180604052508101906119b79190611f4f565b6001600160a01b0316336001600160a01b0316146119e75760405162461bcd60e51b81526004016106ff90612005565b6001600160a01b0384166000908152600c6020908152604080832086845282528083208584529091529020805482919060ff19166001836002811115611a2f57611a2f611e09565b021790555050505050565b600080600b81611a4d6020860186611c45565b6001600160a01b03168152602080820192909252604090810160009081208684013582528352818120868301358252909252812090611a926080860160608701611eb3565b6003811115611aa357611aa3611e09565b6003811115611ab457611ab4611e09565b81526020808201929092526040908101600020815160608101835281546001600160a01b031681526001820180548451818702810187019095528085529194929385840193909290830182828015611b3557602002820191906000526020600020905b81546001600160a01b03168152600190910190602001808311611b17575b50505050508152602001600282015481525050905060008160400151118015611b6e57506001546040820151611b6b9043612081565b10155b9392505050565b5080546000825590600052602060002090810190611b939190611b96565b50565b5b80821115611bab5760008155600101611b97565b5090565b600060808284031215611bc157600080fd5b50919050565b600060808284031215611bd957600080fd5b611b6e8383611baf565b6020808252825182820181905260009190848201906040850190845b81811015611c245783516001600160a01b031683529284019291840191600101611bff565b50909695505050505050565b6001600160a01b0381168114611b9357600080fd5b600060208284031215611c5757600080fd5b8135611b6e81611c30565b60008060408385031215611c7557600080fd5b50508035926020909101359150565b60008060a08385031215611c9757600080fd5b611ca18484611baf565b946080939093013593505050565b60008060008060008060c08789031215611cc857600080fd5b8635611cd381611c30565b9860208801359850604088013597606081013597506080810135965060a00135945092505050565b60008060a08385031215611d0e57600080fd5b611d188484611baf565b91506080830135611d2881611c30565b809150509250929050565b600060208284031215611d4557600080fd5b5035919050565b60008060408385031215611d5f57600080fd5b8235611d6a81611c30565b946020939093013593505050565b803560048110611d8757600080fd5b919050565b60008060008060808587031215611da257600080fd5b8435611dad81611c30565b93506020850135925060408501359150611dc960608601611d78565b905092959194509250565b600080600060608486031215611de957600080fd5b8335611df481611c30565b95602085013595506040909401359392505050565b634e487b7160e01b600052602160045260246000fd5b6020810160038310611e3357611e33611e09565b91905290565b600080600060608486031215611e4e57600080fd5b505081359360208301359350604090920135919050565b60008060008060808587031215611e7b57600080fd5b8435611e8681611c30565b93506020850135925060408501359150606085013560038110611ea857600080fd5b939692955090935050565b600060208284031215611ec557600080fd5b611b6e82611d78565b634e487b7160e01b600052601160045260246000fd5b8082028115828204841417611efb57611efb611ece565b92915050565b600082611f1e57634e487b7160e01b600052601260045260246000fd5b500490565b80820180821115611efb57611efb611ece565b600060018201611f4857611f48611ece565b5060010190565b600060208284031215611f6157600080fd5b8151611b6e81611c30565b634e487b7160e01b600052603260045260246000fd5b8035611f8d81611c30565b6001600160a01b031682526020818101359083015260408082013590830152611fb860608201611d78565b60048110611fc857611fc8611e09565b806060840152505050565b60e08101611fe18287611f82565b6001600160a01b0394909416608082015260a081019290925260c090910152919050565b6020808252600c908201526b54524144494e475f4f4e4c5960a01b604082015260600190565b60a081016120398285611f82565b6001600160a01b039290921660809190910152919050565b602080825260089082015267474f565f4f4e4c5960c01b604082015260600190565b60808101611efb8284611f82565b81810381811115611efb57611efb611ece56fea2646970667358221220e126b5c28e65bfab13e83d585484df501b03067e686fdf7da81cd5dd88368e0c64736f6c63430008110033",
  "immutableReferences": {},
  "source": "// SPDX-License-Identifier: MIT\nimport \"@openzeppelin/contracts-upgradeable/proxy/utils/Initializable.sol\";\n\nimport '../interfaces/StorageInterfaceV5.sol';\npragma solidity 0.8.17;\n\ncontract GNSNftRewardsV6 is Initializable {\n\n    // Contracts (constant)\n    StorageInterfaceV5 public storageT;\n\n    // Params (constant)\n    uint constant ROUND_LENGTH = 50;\n    uint constant MIN_TRIGGER_TIMEOUT = 1;\n    uint constant MIN_SAME_BLOCK_LIMIT = 5;\n\n    // Params (adjustable)\n    uint public triggerTimeout; // blocks\n    uint public sameBlockLimit; // bots\n\n    uint public firstP;         // %\n    uint public sameBlockP;     // %\n    uint public poolP;          // %\n\n    // Custom data types\n    struct TriggeredLimit{ address first; address[] sameBlock; uint block; }\n    struct TriggeredLimitId{ address trader; uint pairIndex; uint index; StorageInterfaceV5.LimitOrder order; }\n    \n    enum OpenLimitOrderType{ LEGACY, REVERSAL, MOMENTUM }\n\n    // State\n    uint public currentOrder;                                               // current order in round\n    uint public currentRound;                                               // current round (1 round = 50 orders)\n\n    mapping(uint => uint) public roundTokens;                               // total token rewards for a round\n    mapping(address => mapping(uint => uint)) public roundOrdersToClaim;    // orders to claim from a round (out of 50)\n\n    mapping(address => uint) public tokensToClaim;                          // rewards other than pool (first & same block)\n    \n    mapping(\n        address => mapping(\n            uint => mapping(\n                uint => mapping(\n                    StorageInterfaceV5.LimitOrder => TriggeredLimit\n                )\n            )\n        )\n    ) public triggeredLimits;   // limits being triggered\n\n    mapping(address => mapping(uint => mapping(uint => OpenLimitOrderType))) public openLimitOrderTypes;\n\n    // Statistics\n    mapping(address => uint) public tokensClaimed; // 1e18\n    uint public tokensClaimedTotal; // 1e18\n\n    // Events\n    event NumberUpdated(string name, uint value);\n    event PercentagesUpdated(uint firstP, uint sameBlockP, uint poolP);\n\n    event TriggeredFirst(TriggeredLimitId id, address bot);\n    event TriggeredSameBlock(TriggeredLimitId id, address bot);\n    event TriggerUnregistered(TriggeredLimitId id);\n    event TriggerRewarded(TriggeredLimitId id, address first, uint sameBlockCount, uint reward);\n    \n    event PoolTokensClaimed(address bot, uint fromRound, uint toRound, uint tokens);\n    event TokensClaimed(address bot, uint tokens);\n\n    function initialize(\n        StorageInterfaceV5 _storageT,\n        uint _triggerTimeout,\n        uint _sameBlockLimit,\n        uint _firstP,\n        uint _sameBlockP,\n        uint _poolP\n    ) external initializer {\n        require(address(_storageT) != address(0) && _triggerTimeout >= MIN_TRIGGER_TIMEOUT\n            && _sameBlockLimit >= MIN_SAME_BLOCK_LIMIT\n            && _firstP + _sameBlockP + _poolP == 100, \"WRONG_PARAMS\");\n\n        storageT = _storageT;\n\n        triggerTimeout = _triggerTimeout;\n        sameBlockLimit = _sameBlockLimit;\n\n        firstP = _firstP;\n        sameBlockP = _sameBlockP;\n        poolP = _poolP;\n\n        currentOrder = 1;\n    }\n\n    // Modifiers\n    modifier onlyGov(){ require(msg.sender == storageT.gov(), \"GOV_ONLY\"); _; }\n    modifier onlyTrading(){ require(msg.sender == storageT.trading(), \"TRADING_ONLY\"); _; }\n    modifier onlyCallbacks(){ require(msg.sender == storageT.callbacks(), \"CALLBACKS_ONLY\"); _; }\n\n    // Manage params\n    function updateTriggerTimeout(uint _triggerTimeout) external onlyGov{\n        require(_triggerTimeout >= MIN_TRIGGER_TIMEOUT, \"BELOW_MIN\");\n        triggerTimeout = _triggerTimeout;\n        emit NumberUpdated(\"triggerTimeout\", _triggerTimeout);\n    }\n    function updateSameBlockLimit(uint _sameBlockLimit) external onlyGov{\n        require(_sameBlockLimit >= MIN_SAME_BLOCK_LIMIT, \"BELOW_MIN\");\n        sameBlockLimit = _sameBlockLimit;\n        emit NumberUpdated(\"sameBlockLimit\", _sameBlockLimit);\n    }\n    function updatePercentages(uint _firstP, uint _sameBlockP, uint _poolP) external onlyGov{\n        require(_firstP + _sameBlockP + _poolP == 100, \"SUM_NOT_100\");\n\n        firstP = _firstP;\n        sameBlockP = _sameBlockP;\n        poolP = _poolP;\n\n        emit PercentagesUpdated(_firstP, _sameBlockP, _poolP);\n    }\n\n    // Triggers\n    function storeFirstToTrigger(TriggeredLimitId calldata _id, address _bot) external onlyTrading{\n        TriggeredLimit storage t = triggeredLimits[_id.trader][_id.pairIndex][_id.index][_id.order];\n\n        t.first = _bot;\n        delete t.sameBlock;\n        t.block = block.number;\n\n        emit TriggeredFirst(_id, _bot);\n    }\n    function storeTriggerSameBlock(TriggeredLimitId calldata _id, address _bot) external onlyTrading{\n        TriggeredLimit storage t = triggeredLimits[_id.trader][_id.pairIndex][_id.index][_id.order];\n        \n        require(t.block == block.number, \"TOO_LATE\");\n        require(t.sameBlock.length < sameBlockLimit, \"SAME_BLOCK_LIMIT\");\n        \n        t.sameBlock.push(_bot);\n        \n        emit TriggeredSameBlock(_id, _bot);\n    }\n    function unregisterTrigger(TriggeredLimitId calldata _id) external onlyCallbacks{\n        delete triggeredLimits[_id.trader][_id.pairIndex][_id.index][_id.order];\n        emit TriggerUnregistered(_id);\n    }\n\n    // Distribute rewards\n    function distributeNftReward(TriggeredLimitId calldata _id, uint _reward) external onlyCallbacks{\n        TriggeredLimit memory t = triggeredLimits[_id.trader][_id.pairIndex][_id.index][_id.order];\n\n        require(t.block > 0, \"NOT_TRIGGERED\");\n\n        tokensToClaim[t.first] += _reward * firstP / 100;\n\n        if(t.sameBlock.length > 0){\n            uint sameBlockReward = _reward * sameBlockP / t.sameBlock.length / 100;\n            for(uint i = 0; i < t.sameBlock.length; i++){\n                tokensToClaim[t.sameBlock[i]] += sameBlockReward;\n            }\n        }\n\n        roundTokens[currentRound] += _reward * poolP / 100;\n        roundOrdersToClaim[t.first][currentRound] ++;\n\n        if(currentOrder == ROUND_LENGTH){\n            currentOrder = 1;\n            currentRound ++;\n        }else{\n            currentOrder ++;\n        }\n\n        emit TriggerRewarded(_id, t.first, t.sameBlock.length, _reward);\n    }\n\n    // Claim rewards\n    function claimPoolTokens(uint _fromRound, uint _toRound) external{\n        require(_toRound >= _fromRound, \"TO_BEFORE_FROM\");\n        require(_toRound < currentRound, \"TOO_EARLY\");\n\n        uint tokens;\n\n        for(uint i = _fromRound; i <= _toRound; i++){\n            tokens += roundOrdersToClaim[msg.sender][i]*roundTokens[i]/ROUND_LENGTH;\n            roundOrdersToClaim[msg.sender][i] = 0;\n        }\n\n        require(tokens > 0, \"NOTHING_TO_CLAIM\");\n        storageT.handleTokens(msg.sender, tokens, true);\n\n        tokensClaimed[msg.sender] += tokens;\n        tokensClaimedTotal += tokens;\n        \n        emit PoolTokensClaimed(msg.sender, _fromRound, _toRound, tokens);\n    }\n    function claimTokens() external{\n        uint tokens = tokensToClaim[msg.sender];\n        require(tokens > 0, \"NOTHING_TO_CLAIM\");\n\n        tokensToClaim[msg.sender] = 0;\n        storageT.handleTokens(msg.sender, tokens, true);\n\n        tokensClaimed[msg.sender] += tokens;\n        tokensClaimedTotal += tokens;\n\n        emit TokensClaimed(msg.sender, tokens);\n    }\n\n    // Manage open limit order types\n    function setOpenLimitOrderType(address _trader, uint _pairIndex, uint _index, OpenLimitOrderType _type) external onlyTrading{\n        openLimitOrderTypes[_trader][_pairIndex][_index] = _type;\n    }\n\n    // Getters\n    function triggered(TriggeredLimitId calldata _id) external view returns(bool){\n        TriggeredLimit memory t = triggeredLimits[_id.trader][_id.pairIndex][_id.index][_id.order];\n        return t.block > 0;\n    }\n    function timedOut(TriggeredLimitId calldata _id) external view returns(bool){\n        TriggeredLimit memory t = triggeredLimits[_id.trader][_id.pairIndex][_id.index][_id.order];\n        return t.block > 0 && block.number - t.block >= triggerTimeout;\n    }\n    function sameBlockTriggers(TriggeredLimitId calldata _id) external view returns(address[] memory){\n        return triggeredLimits[_id.trader][_id.pairIndex][_id.index][_id.order].sameBlock;\n    }\n}",
  "sourcePath": "/Users/ntonani/workplace/trinzy/gains/arbitrum-v6.3/contracts/v6/GNSNftRewardsV6.sol",
  "compiler": {
    "name": "solc",
    "version": "0.8.17+commit.8df45f5f.Emscripten.clang"
  },
  "schemaVersion": "3.4.11",
  "updatedAt": "2023-01-02T17:31:31.054Z",
  "devdoc": {
    "kind": "dev",
    "methods": {},
    "version": 1
  },
  "userdoc": {
    "kind": "user",
    "methods": {},
    "version": 1
  }
}