{
  "_format": "hh-sol-artifact-1",
  "contractName": "GNSTradingCallbacksV6_3_2",
  "sourceName": "contracts/v6.3.2/GNSTradingCallbacksV6_3_2.sol",
  "abi": [
    {
      "inputs": [],
      "name": "Forbidden",
      "type": "error"
    },
    {
      "inputs": [],
      "name": "WrongParams",
      "type": "error"
    },
    {
      "anonymous": false,
      "inputs": [
        {
          "indexed": false,
          "internalType": "uint256",
          "name": "newValue",
          "type": "uint256"
        }
      ],
      "name": "CanExecuteTimeoutUpdated",
      "type": "event"
    },
    {
      "anonymous": false,
      "inputs": [
        {
          "indexed": false,
          "internalType": "uint256",
          "name": "daiVaultFeeP",
          "type": "uint256"
        },
        {
          "indexed": false,
          "internalType": "uint256",
          "name": "lpFeeP",
          "type": "uint256"
        },
        {
          "indexed": false,
          "internalType": "uint256",
          "name": "sssFeeP",
          "type": "uint256"
        }
      ],
      "name": "ClosingFeeSharesPUpdated",
      "type": "event"
    },
    {
      "anonymous": false,
      "inputs": [
        {
          "indexed": true,
          "internalType": "address",
          "name": "trader",
          "type": "address"
        },
        {
          "indexed": false,
          "internalType": "uint256",
          "name": "valueDai",
          "type": "uint256"
        }
      ],
      "name": "DaiVaultFeeCharged",
      "type": "event"
    },
    {
      "anonymous": false,
      "inputs": [
        {
          "indexed": true,
          "internalType": "address",
          "name": "trader",
          "type": "address"
        },
        {
          "indexed": false,
          "internalType": "uint256",
          "name": "valueDai",
          "type": "uint256"
        }
      ],
      "name": "DevGovFeeCharged",
      "type": "event"
    },
    {
      "anonymous": false,
      "inputs": [
        {
          "indexed": false,
          "internalType": "bool",
          "name": "done",
          "type": "bool"
        }
      ],
      "name": "Done",
      "type": "event"
    },
    {
      "anonymous": false,
      "inputs": [
        {
          "indexed": false,
          "internalType": "uint8",
          "name": "version",
          "type": "uint8"
        }
      ],
      "name": "Initialized",
      "type": "event"
    },
    {
      "anonymous": false,
      "inputs": [
        {
          "indexed": true,
          "internalType": "uint256",
          "name": "orderId",
          "type": "uint256"
        },
        {
          "indexed": false,
          "internalType": "uint256",
          "name": "limitIndex",
          "type": "uint256"
        },
        {
          "components": [
            {
              "internalType": "address",
              "name": "trader",
              "type": "address"
            },
            {
              "internalType": "uint256",
              "name": "pairIndex",
              "type": "uint256"
            },
            {
              "internalType": "uint256",
              "name": "index",
              "type": "uint256"
            },
            {
              "internalType": "uint256",
              "name": "initialPosToken",
              "type": "uint256"
            },
            {
              "internalType": "uint256",
              "name": "positionSizeDai",
              "type": "uint256"
            },
            {
              "internalType": "uint256",
              "name": "openPrice",
              "type": "uint256"
            },
            {
              "internalType": "bool",
              "name": "buy",
              "type": "bool"
            },
            {
              "internalType": "uint256",
              "name": "leverage",
              "type": "uint256"
            },
            {
              "internalType": "uint256",
              "name": "tp",
              "type": "uint256"
            },
            {
              "internalType": "uint256",
              "name": "sl",
              "type": "uint256"
            }
          ],
          "indexed": false,
          "internalType": "struct StorageInterfaceV5.Trade",
          "name": "t",
          "type": "tuple"
        },
        {
          "indexed": true,
          "internalType": "address",
          "name": "nftHolder",
          "type": "address"
        },
        {
          "indexed": false,
          "internalType": "enum StorageInterfaceV5.LimitOrder",
          "name": "orderType",
          "type": "uint8"
        },
        {
          "indexed": false,
          "internalType": "uint256",
          "name": "price",
          "type": "uint256"
        },
        {
          "indexed": false,
          "internalType": "uint256",
          "name": "priceImpactP",
          "type": "uint256"
        },
        {
          "indexed": false,
          "internalType": "uint256",
          "name": "positionSizeDai",
          "type": "uint256"
        },
        {
          "indexed": false,
          "internalType": "int256",
          "name": "percentProfit",
          "type": "int256"
        },
        {
          "indexed": false,
          "internalType": "uint256",
          "name": "daiSentToTrader",
          "type": "uint256"
        }
      ],
      "name": "LimitExecuted",
      "type": "event"
    },
    {
      "anonymous": false,
      "inputs": [
        {
          "indexed": true,
          "internalType": "address",
          "name": "trader",
          "type": "address"
        },
        {
          "indexed": false,
          "internalType": "uint256",
          "name": "valueDai",
          "type": "uint256"
        }
      ],
      "name": "LpFeeCharged",
      "type": "event"
    },
    {
      "anonymous": false,
      "inputs": [
        {
          "indexed": true,
          "internalType": "uint256",
          "name": "orderId",
          "type": "uint256"
        },
        {
          "indexed": true,
          "internalType": "address",
          "name": "trader",
          "type": "address"
        },
        {
          "indexed": true,
          "internalType": "uint256",
          "name": "pairIndex",
          "type": "uint256"
        },
        {
          "indexed": false,
          "internalType": "uint256",
          "name": "index",
          "type": "uint256"
        },
        {
          "indexed": false,
          "internalType": "enum GNSTradingCallbacksV6_3_2.CancelReason",
          "name": "cancelReason",
          "type": "uint8"
        }
      ],
      "name": "MarketCloseCanceled",
      "type": "event"
    },
    {
      "anonymous": false,
      "inputs": [
        {
          "indexed": true,
          "internalType": "uint256",
          "name": "orderId",
          "type": "uint256"
        },
        {
          "components": [
            {
              "internalType": "address",
              "name": "trader",
              "type": "address"
            },
            {
              "internalType": "uint256",
              "name": "pairIndex",
              "type": "uint256"
            },
            {
              "internalType": "uint256",
              "name": "index",
              "type": "uint256"
            },
            {
              "internalType": "uint256",
              "name": "initialPosToken",
              "type": "uint256"
            },
            {
              "internalType": "uint256",
              "name": "positionSizeDai",
              "type": "uint256"
            },
            {
              "internalType": "uint256",
              "name": "openPrice",
              "type": "uint256"
            },
            {
              "internalType": "bool",
              "name": "buy",
              "type": "bool"
            },
            {
              "internalType": "uint256",
              "name": "leverage",
              "type": "uint256"
            },
            {
              "internalType": "uint256",
              "name": "tp",
              "type": "uint256"
            },
            {
              "internalType": "uint256",
              "name": "sl",
              "type": "uint256"
            }
          ],
          "indexed": false,
          "internalType": "struct StorageInterfaceV5.Trade",
          "name": "t",
          "type": "tuple"
        },
        {
          "indexed": false,
          "internalType": "bool",
          "name": "open",
          "type": "bool"
        },
        {
          "indexed": false,
          "internalType": "uint256",
          "name": "price",
          "type": "uint256"
        },
        {
          "indexed": false,
          "internalType": "uint256",
          "name": "priceImpactP",
          "type": "uint256"
        },
        {
          "indexed": false,
          "internalType": "uint256",
          "name": "positionSizeDai",
          "type": "uint256"
        },
        {
          "indexed": false,
          "internalType": "int256",
          "name": "percentProfit",
          "type": "int256"
        },
        {
          "indexed": false,
          "internalType": "uint256",
          "name": "daiSentToTrader",
          "type": "uint256"
        }
      ],
      "name": "MarketExecuted",
      "type": "event"
    },
    {
      "anonymous": false,
      "inputs": [
        {
          "indexed": true,
          "internalType": "uint256",
          "name": "orderId",
          "type": "uint256"
        },
        {
          "indexed": true,
          "internalType": "address",
          "name": "trader",
          "type": "address"
        },
        {
          "indexed": true,
          "internalType": "uint256",
          "name": "pairIndex",
          "type": "uint256"
        },
        {
          "indexed": false,
          "internalType": "enum GNSTradingCallbacksV6_3_2.CancelReason",
          "name": "cancelReason",
          "type": "uint8"
        }
      ],
      "name": "MarketOpenCanceled",
      "type": "event"
    },
    {
      "anonymous": false,
      "inputs": [
        {
          "indexed": true,
          "internalType": "address",
          "name": "trader",
          "type": "address"
        },
        {
          "indexed": false,
          "internalType": "uint256",
          "name": "valueDai",
          "type": "uint256"
        }
      ],
      "name": "NftBotFeeCharged",
      "type": "event"
    },
    {
      "anonymous": false,
      "inputs": [
        {
          "indexed": true,
          "internalType": "uint256",
          "name": "orderId",
          "type": "uint256"
        },
        {
          "indexed": false,
          "internalType": "uint256",
          "name": "limitIndex",
          "type": "uint256"
        },
        {
          "indexed": true,
          "internalType": "address",
          "name": "nftHolder",
          "type": "address"
        },
        {
          "indexed": false,
          "internalType": "enum StorageInterfaceV5.LimitOrder",
          "name": "orderType",
          "type": "uint8"
        },
        {
          "indexed": false,
          "internalType": "enum GNSTradingCallbacksV6_3_2.CancelReason",
          "name": "cancelReason",
          "type": "uint8"
        }
      ],
      "name": "NftOrderCanceled",
      "type": "event"
    },
    {
      "anonymous": false,
      "inputs": [
        {
          "indexed": true,
          "internalType": "uint256",
          "name": "pairIndex",
          "type": "uint256"
        },
        {
          "indexed": false,
          "internalType": "uint256",
          "name": "maxLeverage",
          "type": "uint256"
        }
      ],
      "name": "PairMaxLeverageUpdated",
      "type": "event"
    },
    {
      "anonymous": false,
      "inputs": [
        {
          "indexed": false,
          "internalType": "bool",
          "name": "paused",
          "type": "bool"
        }
      ],
      "name": "Pause",
      "type": "event"
    },
    {
      "anonymous": false,
      "inputs": [
        {
          "indexed": true,
          "internalType": "address",
          "name": "trader",
          "type": "address"
        },
        {
          "indexed": false,
          "internalType": "uint256",
          "name": "valueDai",
          "type": "uint256"
        }
      ],
      "name": "ReferralFeeCharged",
      "type": "event"
    },
    {
      "anonymous": false,
      "inputs": [
        {
          "indexed": true,
          "internalType": "uint256",
          "name": "orderId",
          "type": "uint256"
        },
        {
          "indexed": true,
          "internalType": "address",
          "name": "trader",
          "type": "address"
        },
        {
          "indexed": true,
          "internalType": "uint256",
          "name": "pairIndex",
          "type": "uint256"
        },
        {
          "indexed": false,
          "internalType": "uint256",
          "name": "index",
          "type": "uint256"
        },
        {
          "indexed": false,
          "internalType": "enum GNSTradingCallbacksV6_3_2.CancelReason",
          "name": "cancelReason",
          "type": "uint8"
        }
      ],
      "name": "SlCanceled",
      "type": "event"
    },
    {
      "anonymous": false,
      "inputs": [
        {
          "indexed": true,
          "internalType": "uint256",
          "name": "orderId",
          "type": "uint256"
        },
        {
          "indexed": true,
          "internalType": "address",
          "name": "trader",
          "type": "address"
        },
        {
          "indexed": true,
          "internalType": "uint256",
          "name": "pairIndex",
          "type": "uint256"
        },
        {
          "indexed": false,
          "internalType": "uint256",
          "name": "index",
          "type": "uint256"
        },
        {
          "indexed": false,
          "internalType": "uint256",
          "name": "newSl",
          "type": "uint256"
        }
      ],
      "name": "SlUpdated",
      "type": "event"
    },
    {
      "anonymous": false,
      "inputs": [
        {
          "indexed": true,
          "internalType": "address",
          "name": "trader",
          "type": "address"
        },
        {
          "indexed": false,
          "internalType": "uint256",
          "name": "valueDai",
          "type": "uint256"
        }
      ],
      "name": "SssFeeCharged",
      "type": "event"
    },
    {
      "inputs": [],
      "name": "borrowingFees",
      "outputs": [
        {
          "internalType": "contract GNSBorrowingFeesInterfaceV6_3_2",
          "name": "",
          "type": "address"
        }
      ],
      "stateMutability": "view",
      "type": "function"
    },
    {
      "inputs": [],
      "name": "canExecuteTimeout",
      "outputs": [
        {
          "internalType": "uint256",
          "name": "",
          "type": "uint256"
        }
      ],
      "stateMutability": "view",
      "type": "function"
    },
    {
      "inputs": [
        {
          "components": [
            {
              "internalType": "uint256",
              "name": "orderId",
              "type": "uint256"
            },
            {
              "internalType": "uint256",
              "name": "price",
              "type": "uint256"
            },
            {
              "internalType": "uint256",
              "name": "spreadP",
              "type": "uint256"
            }
          ],
          "internalType": "struct GNSTradingCallbacksV6_3_2.AggregatorAnswer",
          "name": "a",
          "type": "tuple"
        }
      ],
      "name": "closeTradeMarketCallback",
      "outputs": [],
      "stateMutability": "nonpayable",
      "type": "function"
    },
    {
      "inputs": [],
      "name": "daiVaultFeeP",
      "outputs": [
        {
          "internalType": "uint256",
          "name": "",
          "type": "uint256"
        }
      ],
      "stateMutability": "view",
      "type": "function"
    },
    {
      "inputs": [],
      "name": "done",
      "outputs": [],
      "stateMutability": "nonpayable",
      "type": "function"
    },
    {
      "inputs": [
        {
          "components": [
            {
              "internalType": "uint256",
              "name": "orderId",
              "type": "uint256"
            },
            {
              "internalType": "uint256",
              "name": "price",
              "type": "uint256"
            },
            {
              "internalType": "uint256",
              "name": "spreadP",
              "type": "uint256"
            }
          ],
          "internalType": "struct GNSTradingCallbacksV6_3_2.AggregatorAnswer",
          "name": "a",
          "type": "tuple"
        }
      ],
      "name": "executeNftCloseOrderCallback",
      "outputs": [],
      "stateMutability": "nonpayable",
      "type": "function"
    },
    {
      "inputs": [
        {
          "components": [
            {
              "internalType": "uint256",
              "name": "orderId",
              "type": "uint256"
            },
            {
              "internalType": "uint256",
              "name": "price",
              "type": "uint256"
            },
            {
              "internalType": "uint256",
              "name": "spreadP",
              "type": "uint256"
            }
          ],
          "internalType": "struct GNSTradingCallbacksV6_3_2.AggregatorAnswer",
          "name": "a",
          "type": "tuple"
        }
      ],
      "name": "executeNftOpenOrderCallback",
      "outputs": [],
      "stateMutability": "nonpayable",
      "type": "function"
    },
    {
      "inputs": [],
      "name": "getAllPairsMaxLeverage",
      "outputs": [
        {
          "internalType": "uint256[]",
          "name": "",
          "type": "uint256[]"
        }
      ],
      "stateMutability": "view",
      "type": "function"
    },
    {
      "inputs": [
        {
          "internalType": "contract StorageInterfaceV5",
          "name": "_storageT",
          "type": "address"
        },
        {
          "internalType": "contract NftRewardsInterfaceV6_3_1",
          "name": "_nftRewards",
          "type": "address"
        },
        {
          "internalType": "contract GNSPairInfosInterfaceV6",
          "name": "_pairInfos",
          "type": "address"
        },
        {
          "internalType": "contract GNSReferralsInterfaceV6_2",
          "name": "_referrals",
          "type": "address"
        },
        {
          "internalType": "contract GNSStakingInterfaceV6_2",
          "name": "_staking",
          "type": "address"
        },
        {
          "internalType": "contract GNSBorrowingFeesInterfaceV6_3_2",
          "name": "_borrowingFees",
          "type": "address"
        },
        {
          "internalType": "address",
          "name": "vaultToApprove",
          "type": "address"
        },
        {
          "internalType": "uint256",
          "name": "_daiVaultFeeP",
          "type": "uint256"
        },
        {
          "internalType": "uint256",
          "name": "_lpFeeP",
          "type": "uint256"
        },
        {
          "internalType": "uint256",
          "name": "_sssFeeP",
          "type": "uint256"
        },
        {
          "internalType": "uint256",
          "name": "_canExecuteTimeout",
          "type": "uint256"
        }
      ],
      "name": "initialize",
      "outputs": [],
      "stateMutability": "nonpayable",
      "type": "function"
    },
    {
      "inputs": [],
      "name": "isDone",
      "outputs": [
        {
          "internalType": "bool",
          "name": "",
          "type": "bool"
        }
      ],
      "stateMutability": "view",
      "type": "function"
    },
    {
      "inputs": [],
      "name": "isPaused",
      "outputs": [
        {
          "internalType": "bool",
          "name": "",
          "type": "bool"
        }
      ],
      "stateMutability": "view",
      "type": "function"
    },
    {
      "inputs": [],
      "name": "lpFeeP",
      "outputs": [
        {
          "internalType": "uint256",
          "name": "",
          "type": "uint256"
        }
      ],
      "stateMutability": "view",
      "type": "function"
    },
    {
      "inputs": [],
      "name": "nftRewards",
      "outputs": [
        {
          "internalType": "contract NftRewardsInterfaceV6_3_1",
          "name": "",
          "type": "address"
        }
      ],
      "stateMutability": "view",
      "type": "function"
    },
    {
      "inputs": [
        {
          "components": [
            {
              "internalType": "uint256",
              "name": "orderId",
              "type": "uint256"
            },
            {
              "internalType": "uint256",
              "name": "price",
              "type": "uint256"
            },
            {
              "internalType": "uint256",
              "name": "spreadP",
              "type": "uint256"
            }
          ],
          "internalType": "struct GNSTradingCallbacksV6_3_2.AggregatorAnswer",
          "name": "a",
          "type": "tuple"
        }
      ],
      "name": "openTradeMarketCallback",
      "outputs": [],
      "stateMutability": "nonpayable",
      "type": "function"
    },
    {
      "inputs": [],
      "name": "pairInfos",
      "outputs": [
        {
          "internalType": "contract GNSPairInfosInterfaceV6",
          "name": "",
          "type": "address"
        }
      ],
      "stateMutability": "view",
      "type": "function"
    },
    {
      "inputs": [
        {
          "internalType": "uint256",
          "name": "",
          "type": "uint256"
        }
      ],
      "name": "pairMaxLeverage",
      "outputs": [
        {
          "internalType": "uint256",
          "name": "",
          "type": "uint256"
        }
      ],
      "stateMutability": "view",
      "type": "function"
    },
    {
      "inputs": [],
      "name": "pause",
      "outputs": [],
      "stateMutability": "nonpayable",
      "type": "function"
    },
    {
      "inputs": [],
      "name": "referrals",
      "outputs": [
        {
          "internalType": "contract GNSReferralsInterfaceV6_2",
          "name": "",
          "type": "address"
        }
      ],
      "stateMutability": "view",
      "type": "function"
    },
    {
      "inputs": [
        {
          "internalType": "uint256",
          "name": "_canExecuteTimeout",
          "type": "uint256"
        }
      ],
      "name": "setCanExecuteTimeout",
      "outputs": [],
      "stateMutability": "nonpayable",
      "type": "function"
    },
    {
      "inputs": [
        {
          "internalType": "uint256",
          "name": "_daiVaultFeeP",
          "type": "uint256"
        },
        {
          "internalType": "uint256",
          "name": "_lpFeeP",
          "type": "uint256"
        },
        {
          "internalType": "uint256",
          "name": "_sssFeeP",
          "type": "uint256"
        }
      ],
      "name": "setClosingFeeSharesP",
      "outputs": [],
      "stateMutability": "nonpayable",
      "type": "function"
    },
    {
      "inputs": [
        {
          "internalType": "uint256",
          "name": "pairIndex",
          "type": "uint256"
        },
        {
          "internalType": "uint256",
          "name": "maxLeverage",
          "type": "uint256"
        }
      ],
      "name": "setPairMaxLeverage",
      "outputs": [],
      "stateMutability": "nonpayable",
      "type": "function"
    },
    {
      "inputs": [
        {
          "internalType": "uint256[]",
          "name": "indices",
          "type": "uint256[]"
        },
        {
          "internalType": "uint256[]",
          "name": "values",
          "type": "uint256[]"
        }
      ],
      "name": "setPairMaxLeverageArray",
      "outputs": [],
      "stateMutability": "nonpayable",
      "type": "function"
    },
    {
      "inputs": [
        {
          "components": [
            {
              "internalType": "address",
              "name": "trader",
              "type": "address"
            },
            {
              "internalType": "uint256",
              "name": "pairIndex",
              "type": "uint256"
            },
            {
              "internalType": "uint256",
              "name": "index",
              "type": "uint256"
            },
            {
              "internalType": "enum GNSTradingCallbacksV6_3_2.TradeType",
              "name": "tradeType",
              "type": "uint8"
            }
          ],
          "internalType": "struct GNSTradingCallbacksV6_3_2.SimplifiedTradeId",
          "name": "_id",
          "type": "tuple"
        },
        {
          "components": [
            {
              "internalType": "uint32",
              "name": "tp",
              "type": "uint32"
            },
            {
              "internalType": "uint32",
              "name": "sl",
              "type": "uint32"
            },
            {
              "internalType": "uint32",
              "name": "limit",
              "type": "uint32"
            },
            {
              "internalType": "uint32",
              "name": "created",
              "type": "uint32"
            }
          ],
          "internalType": "struct GNSTradingCallbacksV6_3_2.LastUpdated",
          "name": "_lastUpdated",
          "type": "tuple"
        }
      ],
      "name": "setTradeLastUpdated",
      "outputs": [],
      "stateMutability": "nonpayable",
      "type": "function"
    },
    {
      "inputs": [],
      "name": "sssFeeP",
      "outputs": [
        {
          "internalType": "uint256",
          "name": "",
          "type": "uint256"
        }
      ],
      "stateMutability": "view",
      "type": "function"
    },
    {
      "inputs": [],
      "name": "staking",
      "outputs": [
        {
          "internalType": "contract GNSStakingInterfaceV6_2",
          "name": "",
          "type": "address"
        }
      ],
      "stateMutability": "view",
      "type": "function"
    },
    {
      "inputs": [],
      "name": "storageT",
      "outputs": [
        {
          "internalType": "contract StorageInterfaceV5",
          "name": "",
          "type": "address"
        }
      ],
      "stateMutability": "view",
      "type": "function"
    },
    {
      "inputs": [
        {
          "internalType": "address",
          "name": "",
          "type": "address"
        },
        {
          "internalType": "uint256",
          "name": "",
          "type": "uint256"
        },
        {
          "internalType": "uint256",
          "name": "",
          "type": "uint256"
        },
        {
          "internalType": "enum GNSTradingCallbacksV6_3_2.TradeType",
          "name": "",
          "type": "uint8"
        }
      ],
      "name": "tradeLastUpdated",
      "outputs": [
        {
          "internalType": "uint32",
          "name": "tp",
          "type": "uint32"
        },
        {
          "internalType": "uint32",
          "name": "sl",
          "type": "uint32"
        },
        {
          "internalType": "uint32",
          "name": "limit",
          "type": "uint32"
        },
        {
          "internalType": "uint32",
          "name": "created",
          "type": "uint32"
        }
      ],
      "stateMutability": "view",
      "type": "function"
    },
    {
      "inputs": [
        {
          "components": [
            {
              "internalType": "uint256",
              "name": "orderId",
              "type": "uint256"
            },
            {
              "internalType": "uint256",
              "name": "price",
              "type": "uint256"
            },
            {
              "internalType": "uint256",
              "name": "spreadP",
              "type": "uint256"
            }
          ],
          "internalType": "struct GNSTradingCallbacksV6_3_2.AggregatorAnswer",
          "name": "a",
          "type": "tuple"
        }
      ],
      "name": "updateSlCallback",
      "outputs": [],
      "stateMutability": "nonpayable",
      "type": "function"
    }
  ],
  "bytecode": "0x608060405234801561001057600080fd5b50615fd480620000216000396000f3fe608060405234801561001057600080fd5b50600436106101835760003560e01c806380d670eb116100d9578063b3f2f4d611610087578063b3f2f4d6146103ab578063b5228d13146103be578063b736ca82146103d1578063c68078b9146103e4578063c68365df146103f7578063d3dc753914610400578063e2f537101461041357600080fd5b806380d670eb146102c05780638456cb59146102d35780638f062227146102db5780639bd24d83146102fd578063a38ea9a81461038d578063ae8421e114610396578063b187bd261461039e57600080fd5b80634882912211610136578063488291221461024f5780634cf088d914610262578063531cc965146102755780635ad9f99314610288578063676c51641461029b5780637bb6c11c146102a45780637e09ae8a146102ad57600080fd5b8062e0fa8914610188578063029826351461019d5780631346b0ff146101b057806316fff074146101e05780631d98d0d0146101f9578063281b693c1461020c57806337edb1381461023a575b600080fd5b61019b610196366004615380565b610426565b005b61019b6101ab36600461549d565b6104a4565b6002546101c3906001600160a01b031681565b6040516001600160a01b0390911681526020015b60405180910390f35b6000546101c3906201000090046001600160a01b031681565b61019b61020736600461549d565b610cea565b61022c61021a366004615507565b600c6020526000908152604090205481565b6040519081526020016101d7565b61024261146f565b6040516101d79190615520565b61019b61025d366004615564565b61156d565b6004546101c3906001600160a01b031681565b600b546101c3906001600160a01b031681565b6001546101c3906001600160a01b031681565b61022c60095481565b61022c60075481565b61019b6102bb36600461559f565b611583565b61019b6102ce36600461549d565b611691565b61019b61220c565b6008546102ed90610100900460ff1681565b60405190151581526020016101d7565b61035d61030b36600461567c565b600a60209081526000948552604080862082529385528385208152918452828420909152825290205463ffffffff808216916401000000008104821691600160401b8204811691600160601b90041684565b6040805163ffffffff958616815293851660208501529184169183019190915290911660608201526080016101d7565b61022c60055481565b61019b612262565b6008546102ed9060ff1681565b61019b6103b9366004615507565b6122c2565b61019b6103cc36600461549d565b612327565b61019b6103df3660046156c4565b6128a6565b61019b6103f2366004615784565b612cc5565b61022c60065481565b6003546101c3906001600160a01b031681565b61019b61042136600461549d565b612d57565b61042e6135a4565b8281811461044f57604051635863f78960e01b815260040160405180910390fd5b60005b8181101561049c5761049486868381811061046f5761046f6157b0565b90506020020135858584818110610488576104886157b0565b9050602002013561364e565b600101610452565b505050505050565b6104ac61369f565b6104b46136f2565b6000805482516040516399794d3560e01b81526004810191909152620100009091046001600160a01b0316906399794d359060240160c060405180830381865afa158015610506573d6000803e3d6000fd5b505050506040513d601f19601f8201168201806040525081019061052a91906157d1565b60085490915060009060ff166105e3576020830151156105dc57600054604083810151606085015160808601519251636e6f99cd60e11b8152620100009094046001600160a01b03169363dcdf339a93610588939291600401615849565b602060405180830381865afa1580156105a5573d6000803e3d6000fd5b505050506040513d601f19601f820116820180604052508101906105c9919061587a565b156105d55760006105e6565b60096105e6565b60026105e6565b60015b9050600081600b8111156105fc576105fc615895565b03610b585760008054604084810151606086015160808701519251632e21e28b60e21b8152620100009094046001600160a01b03169363b8878a2c93610646939291600401615849565b6101a060405180830381865afa158015610664573d6000803e3d6000fd5b505050506040513d601f19601f8201168201806040525081019061068891906158ab565b600154604080860151606087015160808801519251636a6f32f560e11b81529495506000946001600160a01b039094169363d4de65ea936106cd939291600401615849565b602060405180830381865afa1580156106ea573d6000803e3d6000fd5b505050506040513d601f19601f8201168201806040525081019061070e919061595e565b9050600080600260009054906101000a90046001600160a01b03166001600160a01b0316637ea95f3261075389602001518a6040015188608001518960a0015161371b565b86602001518760a001518860c0015189606001516107719190615995565b6040516001600160e01b031960e087901b168152600481019490945260248401929092521515604483015260648201526084016040805180830381865afa1580156107c0573d6000803e3d6000fd5b505050506040513d601f19601f820116820180604052508101906107e491906159ac565b602089018190529092509050600083600281111561080457610804615895565b1461087857600183600281111561081d5761081d615895565b1461084d578360a0015161083c57836101400151876020015111610897565b836101200151876020015110610897565b8360a0015161086757836101200151876020015110610897565b836101400151876020015111610897565b8361012001518760200151108061089757508361014001518760200151115b61097a576108b784602001518560a0015186606001518760c0015161378f565b1561097357600260009054906101000a90046001600160a01b03166001600160a01b03166380f6cfc26040518163ffffffff1660e01b8152600401602060405180830381865afa15801561090f573d6000803e3d6000fd5b505050506040513d601f19601f8201168201806040525081019061093391906159d0565b60c08501516109429084615995565b1161096c5761095984602001518560c001516139b3565b1561096557600061097d565b600861097d565b600761097d565b600661097d565b600b5b9450600085600b81111561099357610993615895565b03610b5357600080610a5760405180610140016040528088600001516001600160a01b0316815260200188602001518152602001600081526020016000815260200188606001518152602001600160028111156109f2576109f2615895565b886002811115610a0457610a04615895565b14610a13578b60200151610a1a565b8861014001515b81526020018860a00151151581526020018860c0015181526020018860e00151815260200188610100015181525089602001518a608001516139d9565b600054885160208a01516040808c0151905163b4b0f56760e01b8152959750939550620100009092046001600160a01b03169363b4b0f56793610a9d9391600401615849565b600060405180830381600087803b158015610ab757600080fd5b505af1158015610acb573d6000803e3d6000fd5b5050505087600001516001600160a01b031689600001517f165b0f8d6347f7ebe92729625b03ace41aeea8fd7ebf640f89f2593ab0db63d18a608001518560038760a001518a6402540be400898b60600151610b279190615995565b610b3191906159ff565b600080604051610b48989796959493929190615a9b565b60405180910390a350505b505050505b600081600b811115610b6c57610b6c615895565b14610bc2578151835160808401516040516001600160a01b03909316927ffadc17fdbb19b190b3ba90f50d05f25667689178644c1b6269c38dc02606e7d791610bb9916003908790615afd565b60405180910390a35b600160009054906101000a90046001600160a01b03166001600160a01b031663bf654d2b604051806080016040528085604001516001600160a01b0316815260200185606001518152602001856080015181526020018560a001516003811115610c2e57610c2e615895565b8152506040518263ffffffff1660e01b8152600401610c4d9190615b55565b600060405180830381600087803b158015610c6757600080fd5b505af1158015610c7b573d6000803e3d6000fd5b5050600054855160405163201d8bdb60e01b81526004810191909152620100009091046001600160a01b0316925063201d8bdb9150602401600060405180830381600087803b158015610ccd57600080fd5b505af1158015610ce1573d6000803e3d6000fd5b50505050505050565b610cf261369f565b610cfa6136f2565b60008060029054906101000a90046001600160a01b03166001600160a01b0316633078fff56040518163ffffffff1660e01b8152600401602060405180830381865afa158015610d4e573d6000803e3d6000fd5b505050506040513d601f19601f82011682018060405250810190610d729190615b63565b82516040516337a3dba360e01b815260048101919091529091506000906001600160a01b038316906337a3dba39060240160c060405180830381865afa158015610dc0573d6000803e3d6000fd5b505050506040513d601f19601f82011682018060405250810190610de49190615b80565b90506000610dff826000015183602001518460400151614550565b905060008160e00151600014610e16576000610e19565b60095b9050600081600b811115610e2f57610e2f615895565b0361139c5760008054845160208601516040808801519051638c8ff1d560e01b8152620100009094046001600160a01b031693638c8ff1d593610e789390929091600401615849565b60c060405180830381865afa158015610e95573d6000803e3d6000fd5b505050506040513d601f19601f82011682018060405250810190610eb99190615bec565b9050610ec3615247565b856001600160a01b0316633c88e8826040518163ffffffff1660e01b81526004016020604051808303816000875af1158015610f03573d6000803e3d6000fd5b505050506040513d601f19601f82011682018060405250810190610f2791906159d0565b81604001818152505060026402540be4008560e0015184602001518760600151610f519190615995565b610f5b9190615995565b610f6591906159ff565b610f6f91906159ff565b60208201526080840151611052576040810151600054602086810151908401516402540be40093926201000090046001600160a01b03169163cfbacc14918490610fba908790615995565b610fc491906159ff565b6040516001600160e01b031960e085901b1681526004810192909252602482015260006044820181905260648201526084016020604051808303816000875af1158015611015573d6000803e3d6000fd5b505050506040513d601f19601f8201168201806040525081019061103991906159d0565b6110439190615995565b61104d91906159ff565b6110e5565b60008054602086810151908401516040516333eeb30560e21b8152600481019290925260248201526001604482015260648101929092526201000090046001600160a01b03169063cfbacc14906084016020604051808303816000875af11580156110c1573d6000803e3d6000fd5b505050506040513d601f19601f820116820180604052508101906110e591906159d0565b60e08201819052602083015190611102906402540be40090615995565b61110c91906159ff565b8460600181815161111d9190615c3e565b905250600054604051631a97b52160e31b8152620100009091046001600160a01b03169063d4bda90890611155908790600401615c51565b600060405180830381600087803b15801561116f57600080fd5b505af1158015611183573d6000803e3d6000fd5b5050505083600001516001600160a01b0316600080516020615f7f8339815191528260e001516040516111b891815260200190565b60405180910390a260208701511561122f57846080015115158460c0015115151415806111ed575084606001518460a0015114155b611228578360c0015161120a5786602001518560a0015110611216565b86602001518560a00151115b611221576000611232565b6005611232565b600a611232565b60025b9250600083600b81111561124857611248615895565b03611399576000548551602087015160408089015160a08a0151915163a354418160e01b81526001600160a01b03948516600482015260248101939093526044830152606482015262010000909204169063a354418190608401600060405180830381600087803b1580156112bc57600080fd5b505af11580156112d0573d6000803e3d6000fd5b505086516001600160a01b03166000908152600a60209081526040808320828b015184528252808320818b0151845282528083208380529091529020915061131890506145dd565b815463ffffffff919091166401000000000267ffffffff00000000199091161781556020860151865189516040808a015160a08b015191516001600160a01b03909416937fe57d6aa2ba102529f6f4f17498f4a95f866a5513e746e676e6cd037c991b6fe99261138f928252602082015260400190565b60405180910390a4505b50505b600081600b8111156113b0576113b0615895565b1461140b57826020015183600001516001600160a01b031686600001517face51fafb42b175930c8838832fe73ec3a89633042d61bcbb3ae51e4a19bf707866040015185604051611402929190615c60565b60405180910390a45b84516040516361417a4360e01b815260048101919091526001600160a01b038516906361417a4390602401600060405180830381600087803b15801561145057600080fd5b505af1158015611464573d6000803e3d6000fd5b505050505050505050565b6060600061147b614663565b6001600160a01b031663b81b2b716040518163ffffffff1660e01b8152600401602060405180830381865afa1580156114b8573d6000803e3d6000fd5b505050506040513d601f19601f820116820180604052508101906114dc91906159d0565b905060008167ffffffffffffffff8111156114f9576114f96153ec565b604051908082528060200260200182016040528015611522578160200160208202803683370190505b50905060005b82811015611566576000818152600c60205260409020548251839083908110611553576115536157b0565b6020908102919091010152600101611528565b5092915050565b6115756135a4565b61157f828261364e565b5050565b61158b61473c565b80600a600061159d6020860186615c74565b6001600160a01b031681526020808201929092526040908101600090812086840135825283528181208683013582529092528120906115e26080860160608701615c91565b60018111156115f3576115f3615895565b600181111561160457611604615895565b8152602080820192909252604090810160002083518154938501519285015160609095015163ffffffff908116600160601b0263ffffffff60601b19968216600160401b02969096166fffffffffffffffff0000000000000000199482166401000000000267ffffffffffffffff1990961691909216179390931791909116919091179190911790555050565b61169961369f565b6116a16136f2565b6000805482516040516399794d3560e01b81526004810191909152620100009091046001600160a01b0316906399794d359060240160c060405180830381865afa1580156116f3573d6000803e3d6000fd5b505050506040513d601f19601f8201168201806040525081019061171791906157d1565b90506000604051806080016040528083604001516001600160a01b0316815260200183606001518152602001836080015181526020018360a00151600381111561176357611763615895565b81525090506000611781836040015184606001518560800151614550565b905060008060029054906101000a90046001600160a01b03166001600160a01b0316633078fff56040518163ffffffff1660e01b8152600401602060405180830381865afa1580156117d7573d6000803e3d6000fd5b505050506040513d601f19601f820116820180604052508101906117fb9190615b63565b9050600085602001516000146118235760e08301511561181c576000611826565b6009611826565b60025b9050600081600b81111561183c5761183c615895565b036120cc5760008054845160208601516040808801519051638c8ff1d560e01b8152620100009094046001600160a01b031693638c8ff1d5936118859390929091600401615849565b60c060405180830381865afa1580156118a2573d6000803e3d6000fd5b505050506040513d601f19601f820116820180604052508101906118c69190615bec565b90506000836001600160a01b03166335b03c176040518163ffffffff1660e01b8152600401602060405180830381865afa158015611908573d6000803e3d6000fd5b505050506040513d601f19601f8201168201806040525081019061192c9190615b63565b9050611936615247565b60208601516040516324abd3fb60e01b815260048101919091526001600160a01b038316906324abd3fb90602401602060405180830381865afa158015611981573d6000803e3d6000fd5b505050506040513d601f19601f820116820180604052508101906119a5919061587a565b6119b3578860200151611a09565b60008860a0015160038111156119cb576119cb615895565b14611a025760018860a0015160038111156119e8576119e8615895565b146119f7578860200151611a09565b856101200151611a09565b8561010001515b608082015260e0860151602084015160608801516402540be4009291611a2e91615995565b611a389190615995565b611a4291906159ff565b6020820181905260e0870151611a57916159ff565b815260028860a001516003811115611a7157611a71615895565b03611be057600b546040805160e0808201835289516001600160a01b0390811683526020808c0151908401528a8401518385015260a0808c0151606085015260c0808d015115156080860152875191850191909152918b0151918301919091529151633837d79d60e11b8152919092169163706faf3a91611b44919060040181516001600160a01b0316815260208083015190820152604080830151908201526060808301519082015260808083015115159082015260a0828101519082015260c0918201519181019190915260e00190565b602060405180830381865afa158015611b61573d6000803e3d6000fd5b505050506040513d601f19601f82011682018060405250810190611b8591906159d0565b60a082015260c0860151611ba4578060a0015189602001511015611bb1565b8060a00151896020015111155b611bbc576000611bd6565b8051606490611bcc906005615995565b611bd691906159ff565b60e0820152611d49565b60008860a001516003811115611bf857611bf8615895565b148015611c0a57506000866101000151115b8015611c3a57508560c00151611c2c5785610100015189602001511115611c3a565b856101000151896020015110155b80611c9a575060018860a001516003811115611c5857611c58615895565b148015611c6a57506000866101200151115b8015611c9a57508560c00151611c8c5785610120015189602001511015611c9a565b856101200151896020015111155b611ca5576000611d43565b6402540be4006064836001600160a01b0316639c8dd2fa89602001516040518263ffffffff1660e01b8152600401611cdf91815260200190565b602060405180830381865afa158015611cfc573d6000803e3d6000fd5b505050506040513d601f19601f82011682018060405250810190611d2091906159d0565b8360200151611d2f9190615995565b611d3991906159ff565b611d4391906159ff565b60e08201525b60e081015115611d5a576000611d5d565b600b5b9350600084600b811115611d7357611d73615895565b036120c857611d948660a0015182608001518860c001518960e0015161478f565b816060018181525050846001600160a01b0316633c88e8826040518163ffffffff1660e01b81526004016020604051808303816000875af1158015611ddd573d6000803e3d6000fd5b505050506040513d601f19601f82011682018060405250810190611e0191906159d0565b816040018181525050611efe866000836060015184600001518a60e001518860400151611e2e91906159ff565b60028e60a001516003811115611e4657611e46615895565b14611eee576402540be4006064896001600160a01b031663836a341a8f602001516040518263ffffffff1660e01b8152600401611e8591815260200190565b602060405180830381865afa158015611ea2573d6000803e3d6000fd5b505050506040513d601f19601f82011682018060405250810190611ec691906159d0565b8960200151611ed59190615995565b611edf91906159ff565b611ee991906159ff565b611ef4565b8660e001515b8760e0015161480c565b60c0820152604081015160e0820151611f1d906402540be40090615995565b611f2791906159ff565b61010082018190526001546040808401519051630891674d60e31b81526001600160a01b039092169263448b3a6892611f65928c9291600401615cac565b600060405180830381600087803b158015611f7f57600080fd5b505af1158015611f93573d6000803e3d6000fd5b505060005460208b01516101008501516040516339caebcf60e11b815260048101929092526024820152620100009091046001600160a01b03169250637395d79e9150604401600060405180830381600087803b158015611ff357600080fd5b505af1158015612007573d6000803e3d6000fd5b5050505085600001516001600160a01b03167fcada75418f444febbe725c87360b063440c54e00e82d578010de1ed009d756c58260e0015160405161204e91815260200190565b60405180910390a287600001516001600160a01b031689600001517f165b0f8d6347f7ebe92729625b03ace41aeea8fd7ebf640f89f2593ab0db63d18a60800151898c60a0015186608001516000886000015189606001518a60c001516040516120bf989796959493929190615a9b565b60405180910390a35b5050505b600081600b8111156120e0576120e0615895565b1461213c5784600001516001600160a01b031686600001517ffadc17fdbb19b190b3ba90f50d05f25667689178644c1b6269c38dc02606e7d787608001518860a001518560405161213393929190615afd565b60405180910390a35b60015460405163bf654d2b60e01b81526001600160a01b039091169063bf654d2b9061216c908790600401615b55565b600060405180830381600087803b15801561218657600080fd5b505af115801561219a573d6000803e3d6000fd5b5050600054885160405163201d8bdb60e01b81526004810191909152620100009091046001600160a01b0316925063201d8bdb9150602401600060405180830381600087803b1580156121ec57600080fd5b505af1158015612200573d6000803e3d6000fd5b50505050505050505050565b612214614cbd565b6008805460ff8082161560ff1990921682179092556040519116151581527f9422424b175dda897495a07b091ef74a3ef715cf6d866fc972954c1c7f459304906020015b60405180910390a1565b61226a614cbd565b6008805460ff610100808304821615810261ff001990931692909217928390556040517fc3a6f986261de9467c2838c6df8ef74f9107855159205600c0bc7a14cdfd3888936122589390049091161515815260200190565b6122ca614cbd565b60058111156122ec57604051635863f78960e01b815260040160405180910390fd5b60098190556040518181527fa57398db99aea3c2cd0d30f5b4e8f597539206c95b9c5b73e84962d8b565bbeb9060200160405180910390a150565b61232f61369f565b6123376136f2565b60006123468260000151614d10565b90508060200151600003612358575050565b805160025460208401516040850151608085015160c085015160009485946001600160a01b0390911693637ea95f32936123919361371b565b85602001518660c001518760e0015188608001516123af9190615995565b6040516001600160e01b031960e087901b168152600481019490945260248401929092521515604483015260648201526084016040805180830381865afa1580156123fe573d6000803e3d6000fd5b505050506040513d601f19601f8201168201806040525081019061242291906159ac565b91509150808360a001818152505060006402540be40060648660600151876040015161244e9190615995565b61245891906159ff565b61246291906159ff565b60085490915060009060ff1661263057602087015115612629578460c001516124a0578186604001516124959190615c3e565b8560a00151106124b7565b8186604001516124b09190615ccb565b8560a00151115b6126225760008561010001511180156124f457508460c001516124e6578461010001518560a0015111156124f4565b8461010001518560a0015110155b61261b57600085610120015111801561253157508460c00151612523578461012001518560a001511015612531565b8461012001518560a0015111155b6126145761255185602001518660c0015187608001518860e0015161378f565b1561260d57600260009054906101000a90046001600160a01b03166001600160a01b03166380f6cfc26040518163ffffffff1660e01b8152600401602060405180830381865afa1580156125a9573d6000803e3d6000fd5b505050506040513d601f19601f820116820180604052508101906125cd91906159d0565b60e08601516125dc9086615995565b11612606576125f385602001518660e001516139b3565b156125ff576000612633565b6008612633565b6007612633565b6006612633565b6005612633565b6004612633565b6003612633565b6002612633565b60015b9050600081600b81111561264957612649615895565b036126d75760008061265f876105dc60006139d9565b9150915088600001517f2739a12dffae5d66bd9e126a286078ed771840f2288f0afa5709ce38c33309978360018560a001518a6402540be4008789606001516126a89190615995565b6126b291906159ff565b6000806040516126c89796959493929190615cde565b60405180910390a2505061282f565b60008060029054906101000a90046001600160a01b03166001600160a01b031663cfbacc1487602001518860e0015189608001516127159190615995565b6040516001600160e01b031960e085901b1681526004810192909252602482015260016044820181905260648201526084016020604051808303816000875af1158015612766573d6000803e3d6000fd5b505050506040513d601f19601f8201168201806040525081019061278a91906159d0565b90506127a986600001518288608001516127a49190615c3e565b614d8b565b85600001516001600160a01b0316600080516020615f7f833981519152826040516127d691815260200190565b60405180910390a2856020015186600001516001600160a01b031689600001517f1dc3532663e5566091476fb5aba1e514ef733714c83d4feec5723de6f16c3269856040516128259190615d23565b60405180910390a4505b6000548751604051630195728b60e71b8152600481019190915260016024820152620100009091046001600160a01b03169063cab9458090604401600060405180830381600087803b15801561288457600080fd5b505af1158015612898573d6000803e3d6000fd5b505050505050505050505b50565b600054600290610100900460ff161580156128c8575060005460ff8083169116105b61292f5760405162461bcd60e51b815260206004820152602e60248201527f496e697469616c697a61626c653a20636f6e747261637420697320616c72656160448201526d191e481a5b9a5d1a585b1a5e995960921b606482015260840160405180910390fd5b6000805461ffff191660ff8316176101001790556001600160a01b038c16158061296057506001600160a01b038b16155b8061297257506001600160a01b038a16155b8061298457506001600160a01b038916155b8061299657506001600160a01b038816155b806129a857506001600160a01b038716155b806129ba57506001600160a01b038616155b806129da5750826129cb8587615ccb565b6129d59190615ccb565b606414155b806129e55750600582115b15612a0357604051635863f78960e01b815260040160405180910390fd5b8b600060026101000a8154816001600160a01b0302191690836001600160a01b031602179055508a600160006101000a8154816001600160a01b0302191690836001600160a01b0316021790555089600260006101000a8154816001600160a01b0302191690836001600160a01b0316021790555088600360006101000a8154816001600160a01b0302191690836001600160a01b0316021790555087600460006101000a8154816001600160a01b0302191690836001600160a01b0316021790555086600b60006101000a8154816001600160a01b0302191690836001600160a01b031602179055508460058190555083600681905550826007819055508160098190555060008060029054906101000a90046001600160a01b03166001600160a01b031663f4b9fa756040518163ffffffff1660e01b8152600401602060405180830381865afa158015612b5d573d6000803e3d6000fd5b505050506040513d601f19601f82011682018060405250810190612b819190615b63565b6004805460405163095ea7b360e01b81526001600160a01b039182169281019290925260001960248301529192509082169063095ea7b3906044016020604051808303816000875af1158015612bdb573d6000803e3d6000fd5b505050506040513d601f19601f82011682018060405250810190612bff919061587a565b5060405163095ea7b360e01b81526001600160a01b038881166004830152600019602483015282169063095ea7b3906044016020604051808303816000875af1158015612c50573d6000803e3d6000fd5b505050506040513d601f19601f82011682018060405250810190612c74919061587a565b50506000805461ff001916905560405160ff821681527f7f26b83ff96e1f2b6a682f133852f6798a09c465da95921460cefb38474024989060200160405180910390a1505050505050505050505050565b612ccd614cbd565b80612cd88385615ccb565b612ce29190615ccb565b606414612d0257604051635863f78960e01b815260040160405180910390fd5b60058390556006829055600781905560408051848152602081018490529081018290527f0caa98ed9a1605da290817d1f67b1b83c63f9229abeca5123df5d90581c495589060600160405180910390a1505050565b612d5f61369f565b612d676136f2565b6000612d768260000151614d10565b90508060200151600003612d88575050565b805180516020820151604090920151600092612da49291614550565b905060008160e00151600014612dcc57602084015115612dc5576000612dcf565b6002612dcf565b60095b9050600981600b811115612de557612de5615895565b146134c15760008054835160208501516040808701519051638c8ff1d560e01b8152620100009094046001600160a01b031693638c8ff1d593612e2e9390929091600401615849565b60c060405180830381865afa158015612e4b573d6000803e3d6000fd5b505050506040513d601f19601f82011682018060405250810190612e6f9190615bec565b905060008060029054906101000a90046001600160a01b03166001600160a01b0316633078fff56040518163ffffffff1660e01b8152600401602060405180830381865afa158015612ec5573d6000803e3d6000fd5b505050506040513d601f19601f82011682018060405250810190612ee99190615b63565b9050612ef3615247565b6402540be4008560e0015184602001518760600151612f129190615995565b612f1c9190615995565b612f2691906159ff565b816020018181525050816001600160a01b0316633c88e8826040518163ffffffff1660e01b81526004016020604051808303816000875af1158015612f6f573d6000803e3d6000fd5b505050506040513d601f19601f82011682018060405250810190612f9391906159d0565b6040820152600084600b811115612fac57612fac615895565b0361326e57612fcd8560a0015188602001518760c001518860e0015161478f565b606082015260e08501516020820151612fe691906159ff565b808252606082015160e08701516040860151613210938993600193909261300d91906159ff565b6402540be4006064896001600160a01b03166335b03c176040518163ffffffff1660e01b8152600401602060405180830381865afa158015613053573d6000803e3d6000fd5b505050506040513d601f19601f820116820180604052508101906130779190615b63565b6001600160a01b031663836a341a8e602001516040518263ffffffff1660e01b81526004016130a891815260200190565b602060405180830381865afa1580156130c5573d6000803e3d6000fd5b505050506040513d601f19601f820116820180604052508101906130e991906159d0565b89602001516130f89190615995565b61310291906159ff565b61310c91906159ff565b6402540be40060648a6001600160a01b03166335b03c176040518163ffffffff1660e01b8152600401602060405180830381865afa158015613152573d6000803e3d6000fd5b505050506040513d601f19601f820116820180604052508101906131769190615b63565b6001600160a01b0316639c8dd2fa8f602001516040518263ffffffff1660e01b81526004016131a791815260200190565b602060405180830381865afa1580156131c4573d6000803e3d6000fd5b505050506040513d601f19601f820116820180604052508101906131e891906159d0565b8a602001516131f79190615995565b61320191906159ff565b61320b91906159ff565b61480c565b60c08201819052875160208901518351606085015160405193947f2739a12dffae5d66bd9e126a286078ed771840f2288f0afa5709ce38c333099794613261948c9460009491938593919291615cde565b60405180910390a26134bd565b600085608001511161334f576040810151600054602087810151908401516402540be40093926201000090046001600160a01b03169163cfbacc149184906132b7908790615995565b6132c191906159ff565b6040516001600160e01b031960e085901b1681526004810192909252602482015260006044820152600160648201526084016020604051808303816000875af1158015613312573d6000803e3d6000fd5b505050506040513d601f19601f8201168201806040525081019061333691906159d0565b6133409190615995565b61334a91906159ff565b6133e1565b600054602086810151908301516040516333eeb30560e21b8152600481019290925260248201526001604482018190526064820152620100009091046001600160a01b03169063cfbacc14906084016020604051808303816000875af11580156133bd573d6000803e3d6000fd5b505050506040513d601f19601f820116820180604052508101906133e191906159d0565b60e082018190526020840151906133fe906402540be40090615995565b61340891906159ff565b856060018181516134199190615c3e565b905250600054604051631a97b52160e31b8152620100009091046001600160a01b03169063d4bda90890613451908890600401615c51565b600060405180830381600087803b15801561346b57600080fd5b505af115801561347f573d6000803e3d6000fd5b5050505084600001516001600160a01b0316600080516020615f7f8339815191528260e001516040516134b491815260200190565b60405180910390a25b5050505b600081600b8111156134d5576134d5615895565b1461353057816020015182600001516001600160a01b031685600001517f293df767d6749666902026d2f6a2cc4e5f15cdede46402226c42ef4fdf27a17c856040015185604051613527929190615c60565b60405180910390a45b600080548551604051630195728b60e71b8152600481019190915260248101929092526201000090046001600160a01b03169063cab9458090604401600060405180830381600087803b15801561358657600080fd5b505af115801561359a573d6000803e3d6000fd5b5050505050505050565b600260009054906101000a90046001600160a01b03166001600160a01b031663481c6a756040518163ffffffff1660e01b8152600401602060405180830381865afa1580156135f7573d6000803e3d6000fd5b505050506040513d601f19601f8201168201806040525081019061361b9190615b63565b6001600160a01b0316336001600160a01b03161461364c57604051631dd2188d60e31b815260040160405180910390fd5b565b6000828152600c6020526040908190208290555182907f95924bc10431f9a625a06fe5a27d55f4348510b2da42a18fe3bf2a6f2c4eab67906136939084815260200190565b60405180910390a25050565b600060029054906101000a90046001600160a01b03166001600160a01b0316633078fff56040518163ffffffff1660e01b8152600401602060405180830381865afa1580156135f7573d6000803e3d6000fd5b600854610100900460ff161561364c57604051631dd2188d60e31b815260040160405180910390fd5b6000806402540be4006064806137318789615995565b61373b91906159ff565b6137459088615c3e565b61374f9089615995565b61375991906159ff565b61376391906159ff565b905082613779576137748187615c3e565b613783565b6137838187615ccb565b9150505b949350505050565b60008061379a614663565b6000546040516328daca2160e01b815260048101899052600260248201529192506201000090046001600160a01b0316906328daca2190604401602060405180830381865afa1580156137f1573d6000803e3d6000fd5b505050506040513d601f19601f8201168201806040525081019061381591906159d0565b61381f8486615995565b6000546201000090046001600160a01b03166328daca218989613843576001613846565b60005b6040516001600160e01b031960e085901b168152600481019290925260ff166024820152604401602060405180830381865afa15801561388a573d6000803e3d6000fd5b505050506040513d601f19601f820116820180604052508101906138ae91906159d0565b6138b89190615ccb565b111580156137835750604051636261466160e01b8152600481018790526001600160a01b03821690636261466190602401602060405180830381865afa158015613906573d6000803e3d6000fd5b505050506040513d601f19601f8201168201806040525081019061392a91906159d0565b604051634a90ba9f60e11b815260048101889052861515602482015285906001600160a01b03841690639521753e90604401602060405180830381865afa158015613979573d6000803e3d6000fd5b505050506040513d601f19601f8201168201806040525081019061399d91906159d0565b6139a79190615ccb565b11159695505050505050565b6000828152600c60205260408120548015806139cf5750808311155b9150505b92915050565b6139e161529a565b600080600060029054906101000a90046001600160a01b03166001600160a01b0316633078fff56040518163ffffffff1660e01b8152600401602060405180830381865afa158015613a37573d6000803e3d6000fd5b505050506040513d601f19601f82011682018060405250810190613a5b9190615b63565b90506000816001600160a01b03166335b03c176040518163ffffffff1660e01b8152600401602060405180830381865afa158015613a9d573d6000803e3d6000fd5b505050506040513d601f19601f82011682018060405250810190613ac19190615b63565b9050613acb615247565b8760e001518860800151613adf9190615995565b816020018181525050826001600160a01b0316633c88e8826040518163ffffffff1660e01b81526004016020604051808303816000875af1158015613b28573d6000803e3d6000fd5b505050506040513d601f19601f82011682018060405250810190613b4c91906159d0565b60408281019190915260035489519151631862c18d60e31b81526001600160a01b0392831660048201526000929091169063c3160c6890602401602060405180830381865afa158015613ba3573d6000803e3d6000fd5b505050506040513d601f19601f82011682018060405250810190613bc79190615b63565b6001600160a01b031614613e0b57600354885160405163201ad16d60e01b81526001600160a01b0391821660048201526402540be40092606492169063201ad16d90602401602060405180830381865afa158015613c29573d6000803e3d6000fd5b505050506040513d601f19601f82011682018060405250810190613c4d91906159d0565b613c5d6402540be4006064615995565b613c679190615c3e565b8360200151613c769190615995565b613c8091906159ff565b613c8a91906159ff565b81526003548851602080840151908b0151604051638251135b60e01b81526001600160a01b039485169463e78c6fd294939290881691638251135b91613cd69160040190815260200190565b602060405180830381865afa158015613cf3573d6000803e3d6000fd5b505050506040513d601f19601f82011682018060405250810190613d1791906159d0565b60408087015190516001600160e01b031960e087901b1681526001600160a01b0390941660048501526024840192909252604483015260648201526084016020604051808303816000875af1158015613d74573d6000803e3d6000fd5b505050506040513d601f19601f82011682018060405250810190613d9891906159d0565b60e082018190528851613dab9190614dfa565b8060e0015188608001818151613dc19190615c3e565b905250875160e08201516040519081526001600160a01b03909116907f0f5273269f52308b9c40fafda3ca13cc42f715fcd795365e87f351f59e2493139060200160405180910390a25b60005460208901518251620100009092046001600160a01b03169163cfbacc149190613e3b578360200151613e3e565b83515b6040516001600160e01b031960e085901b1681526004810192909252602482015260016044820181905260648201526084016020604051808303816000875af1158015613e8f573d6000803e3d6000fd5b505050506040513d601f19601f82011682018060405250810190613eb391906159d0565b6101008201819052608089018051613ecc908390615c3e565b90525087516101008201516040519081526001600160a01b0390911690600080516020615f7f8339815191529060200160405180910390a26402540be4006064836001600160a01b0316639c8dd2fa8b602001516040518263ffffffff1660e01b8152600401613f3e91815260200190565b602060405180830381865afa158015613f5b573d6000803e3d6000fd5b505050506040513d601f19601f82011682018060405250810190613f7f91906159d0565b8360200151613f8e9190615995565b613f9891906159ff565b613fa291906159ff565b6101008201819052608089018051613fbb908390615c3e565b9052506105dc87101561415a57613fdb8161010001518960000151614dfa565b80604001516402540be400826101000151613ff69190615995565b61400091906159ff565b6101208201908152600154604080516080810182528b516001600160a01b0390811682526020808e0151908301528183018b9052600360608301529351828601519251630891674d60e31b8152949093169363448b3a6893614066939091600401615cac565b600060405180830381600087803b15801561408057600080fd5b505af1158015614094573d6000803e3d6000fd5b50506000546101208401516040516339caebcf60e11b8152600481018c90526024810191909152620100009091046001600160a01b03169250637395d79e9150604401600060405180830381600087803b1580156140f157600080fd5b505af1158015614105573d6000803e3d6000fd5b5050505087600001516001600160a01b03167fcada75418f444febbe725c87360b063440c54e00e82d578010de1ed009d756c582610100015160405161414d91815260200190565b60405180910390a261416d565b61416d8860000151826101000151614eb2565b600054885160208a015160405163292c161760e01b81526001600160a01b039283166004820152602481019190915262010000909204169063292c161790604401602060405180830381865afa1580156141cb573d6000803e3d6000fd5b505050506040513d601f19601f820116820180604052508101906141ef91906159d0565b6040808a01919091528101516080890151614210906402540be40090615995565b61421a91906159ff565b8860600181815250506142408860a001518960e001518a61010001518b60c00151614f53565b886101000181815250506142678860a001518960e001518a61012001518b60c00151614fe6565b610120890152600254885160208a01516040808c015160c08d01519151630735e1cd60e11b81526001600160a01b0394851660048201526024810193909352604483015215156064820152911690630e6bc39a90608401600060405180830381600087803b1580156142d857600080fd5b505af11580156142ec573d6000803e3d6000fd5b505050506020880151608089015160c08a01516040516310787e2f60e11b81526004810193909352602483019190915215156044820152600160648201526001600160a01b038316906320f0fc5e90608401600060405180830381600087803b15801561435857600080fd5b505af115801561436c573d6000803e3d6000fd5b5050600b548a5160208c015160408d015160e08e015160808f01516001600160a01b03909516965063ce67edfb95509293919290916143ab9190615995565b60018e60c001516040518763ffffffff1660e01b81526004016143d396959493929190615d31565b600060405180830381600087803b1580156143ed57600080fd5b505af1158015614401573d6000803e3d6000fd5b50505050600060029054906101000a90046001600160a01b03166001600160a01b031663c311ab31896040518060c0016040528060008152602001856040015181526020018c60e001518d6080015161445a9190615995565b81526020016000815260200160008152602001600015158152506040518363ffffffff1660e01b8152600401614491929190615d68565b600060405180830381600087803b1580156144ab57600080fd5b505af11580156144bf573d6000803e3d6000fd5b505089516001600160a01b03166000908152600a60209081526040808320828e015184528252808320818e0151845282528083208380529091528120925090506145076145dd565b825467ffffffffffffffff191663ffffffff9190911690811764010000000082021763ffffffff60601b1916600160601b91909102179091555060400151969795505050505050565b61455861529a565b6000546040516351d407ff60e11b8152620100009091046001600160a01b03169063a3a80ffe9061459190879087908790600401615849565b61014060405180830381865afa1580156145af573d6000803e3d6000fd5b505050506040513d601f19601f820116820180604052508101906145d39190615e52565b90505b9392505050565b600061a4b14614806145f1575062066eed46145b1561465e5760646001600160a01b031663a3b1b31d6040518163ffffffff1660e01b8152600401602060405180830381865afa158015614635573d6000803e3d6000fd5b505050506040513d601f19601f8201168201806040525081019061465991906159d0565b905090565b504390565b60008060029054906101000a90046001600160a01b03166001600160a01b0316633078fff56040518163ffffffff1660e01b8152600401602060405180830381865afa1580156146b7573d6000803e3d6000fd5b505050506040513d601f19601f820116820180604052508101906146db9190615b63565b6001600160a01b03166335b03c176040518163ffffffff1660e01b8152600401602060405180830381865afa158015614718573d6000803e3d6000fd5b505050506040513d601f19601f820116820180604052508101906146599190615b63565b600060029054906101000a90046001600160a01b03166001600160a01b031663ec44acf26040518163ffffffff1660e01b8152600401602060405180830381865afa1580156135f7573d6000803e3d6000fd5b6000806147a36402540be400610384615e6f565b905085836402540be400866147c1576147bc888a615e9f565b6147cb565b6147cb8989615e9f565b6147d6906064615e6f565b6147e09190615e6f565b6147ea9190615e6f565b6147f49190615ebf565b91508082136148035781613783565b95945050505050565b600080600060029054906101000a90046001600160a01b03166001600160a01b031663fbfa77cf6040518163ffffffff1660e01b8152600401602060405180830381865afa158015614862573d6000803e3d6000fd5b505050506040513d601f19601f820116820180604052508101906148869190615b63565b905061489d8987896148988789615ccb565b615060565b600b548a5160208c015160408d015160e08e015160808f01519597506001600160a01b039094169463ce67edfb946148d491615995565b60008f60c001516040518763ffffffff1660e01b81526004016148fc96959493929190615d31565b600060405180830381600087803b15801561491657600080fd5b505af115801561492a573d6000803e3d6000fd5b50505050614936614663565b60208a015160c08b01516040516310787e2f60e11b815260048101929092526024820188905215156044820152600060648201526001600160a01b0391909116906320f0fc5e90608401600060405180830381600087803b15801561499a57600080fd5b505af11580156149ae573d6000803e3d6000fd5b50506000548b5160208d01516040808f015190516390d112b960e01b8152620100009094046001600160a01b031695506390d112b994506149f193600401615849565b600060405180830381600087803b158015614a0b57600080fd5b505af1158015614a1f573d6000803e3d6000fd5b50505050608089015115614c4b57614a35615247565b606460055486614a459190615995565b614a4f91906159ff565b6101008201819052614a62903090614d8b565b61010081015160405163940a4e4560e01b815260048101919091526001600160a01b0383169063940a4e4590602401600060405180830381600087803b158015614aab57600080fd5b505af1158015614abf573d6000803e3d6000fd5b5050505089600001516001600160a01b03167f60c73da98faf96842eabd77a0c73964cd189dbaf2c9ae90923a3fed137f30e3e826101000151604051614b0791815260200190565b60405180910390a288614b3357606460075486614b249190615995565b614b2e91906159ff565b614b57565b606460075486614b439190615995565b614b4d91906159ff565b614b579085615ccb565b61012082018190528a51614b6a91614eb2565b600081610100015182610120015189614b839190615c3e565b614b8d9190615c3e565b905080841115614c24576001600160a01b03831663e66a6e3b614bb08387615c3e565b8d5160405160e084901b6001600160e01b031916815260048101929092526001600160a01b03166024820152604401600060405180830381600087803b158015614bf957600080fd5b505af1158015614c0d573d6000803e3d6000fd5b50505050614c1f8b6000015182614d8b565b614c44565b614c38614c318583615c3e565b8c51614dfa565b8a51614c449085614d8b565b5050614cb1565b885160405163e66a6e3b60e01b8152600481018490526001600160a01b0391821660248201529082169063e66a6e3b90604401600060405180830381600087803b158015614c9857600080fd5b505af1158015614cac573d6000803e3d6000fd5b505050505b50979650505050505050565b600060029054906101000a90046001600160a01b03166001600160a01b03166312d43a516040518163ffffffff1660e01b8152600401602060405180830381865afa1580156135f7573d6000803e3d6000fd5b614d186152f8565b60005460405163b66e6b0560e01b815260048101849052620100009091046001600160a01b03169063b66e6b05906024016101e060405180830381865afa158015614d67573d6000803e3d6000fd5b505050506040513d601f19601f820116820180604052508101906139d39190615eed565b60005460405163373873db60e11b81526001600160a01b0362010000909204821660048201819052918416602482015260448101839052636e70e7b6906064015b600060405180830381600087803b158015614de657600080fd5b505af115801561049c573d6000803e3d6000fd5b614e043083614d8b565b600060029054906101000a90046001600160a01b03166001600160a01b031663fbfa77cf6040518163ffffffff1660e01b8152600401602060405180830381865afa158015614e57573d6000803e3d6000fd5b505050506040513d601f19601f82011682018060405250810190614e7b9190615b63565b60405163a481c14b60e01b8152600481018490526001600160a01b038381166024830152919091169063a481c14b90604401614dcc565b614ebc3082614d8b565b6004805460405163b243fb0160e01b81529182018390526001600160a01b03169063b243fb0190602401600060405180830381600087803b158015614f0057600080fd5b505af1158015614f14573d6000803e3d6000fd5b50505050816001600160a01b03167fd1e388cc27c5125a80cf538c12b26dc5a784071d324a81a736e4d17f238588e48260405161369391815260200190565b6000821580614f7c5750614f6e6402540be400610384615e6f565b614f7a8685858861478f565b145b15614fdd576000606485614f9261038489615995565b614f9c91906159ff565b614fa691906159ff565b905082614fcb5785811115614fbc576000614fd5565b614fc68187615c3e565b614fd5565b614fd58187615ccb565b915050613787565b50909392505050565b6000808311801561501c57506150026402540be400604b615e6f565b61500e90600019615e6f565b61501a8685858861478f565b125b15614fdd576000606485615031604b89615995565b61503b91906159ff565b61504591906159ff565b90508261505657614fc68187615ccb565b614fd58187615c3e565b60025484516020860151604087015160c088015160e08901516000956001600160a01b031694636ceaca67949093909290918a9061509f8d838d615138565b6040516001600160e01b031960e08a901b1681526001600160a01b039097166004880152602487019590955260448601939093529015156064850152608484015260a483015260c482015260e48101859052610104016020604051808303816000875af1158015615114573d6000803e3d6000fd5b505050506040513d601f19601f8201168201806040525081019061480391906159d0565b600b546040805160c0808201835286516001600160a01b03908116835260208089015190840190815288850151848601908152928901511515606085019081526080850189815260e08b015160a087019081529651632d28a81760e01b8152955184166004870152915160248601529251604485015291511515606484015290516084830152915160a482015260009285926402540be40092911690632d28a8179060c401602060405180830381865afa1580156151fa573d6000803e3d6000fd5b505050506040513d601f19601f8201168201806040525081019061521e91906159d0565b615229906064615995565b6152339190615995565b61523d91906159ff565b6145d39083615e9f565b604051806101400160405280600081526020016000815260200160008152602001600081526020016000815260200160008152602001600081526020016000815260200160008152602001600081525090565b60405180610140016040528060006001600160a01b0316815260200160008152602001600081526020016000815260200160008152602001600081526020016000151581526020016000815260200160008152602001600081525090565b6040518060c0016040528061530b61529a565b815260200160008152602001600081526020016000815260200160008152602001600081525090565b60008083601f84011261534657600080fd5b50813567ffffffffffffffff81111561535e57600080fd5b6020830191508360208260051b850101111561537957600080fd5b9250929050565b6000806000806040858703121561539657600080fd5b843567ffffffffffffffff808211156153ae57600080fd5b6153ba88838901615334565b909650945060208701359150808211156153d357600080fd5b506153e087828801615334565b95989497509550505050565b634e487b7160e01b600052604160045260246000fd5b60405160c0810167ffffffffffffffff8111828210171561543357634e487b7160e01b600052604160045260246000fd5b60405290565b6040516101a0810167ffffffffffffffff8111828210171561543357634e487b7160e01b600052604160045260246000fd5b604051610140810167ffffffffffffffff8111828210171561543357634e487b7160e01b600052604160045260246000fd5b6000606082840312156154af57600080fd5b6040516060810181811067ffffffffffffffff821117156154e057634e487b7160e01b600052604160045260246000fd5b80604052508235815260208301356020820152604083013560408201528091505092915050565b60006020828403121561551957600080fd5b5035919050565b6020808252825182820181905260009190848201906040850190845b818110156155585783518352928401929184019160010161553c565b50909695505050505050565b6000806040838503121561557757600080fd5b50508035926020909101359150565b803563ffffffff8116811461559a57600080fd5b919050565b6000808284036101008112156155b457600080fd5b60808112156155c257600080fd5b8392506080607f19820112156155d757600080fd5b506040516080810181811067ffffffffffffffff8211171561560957634e487b7160e01b600052604160045260246000fd5b60405261561860808501615586565b815261562660a08501615586565b602082015261563760c08501615586565b604082015261564860e08501615586565b6060820152809150509250929050565b6001600160a01b03811681146128a357600080fd5b80356002811061559a57600080fd5b6000806000806080858703121561569257600080fd5b843561569d81615658565b935060208501359250604085013591506156b96060860161566d565b905092959194509250565b60008060008060008060008060008060006101608c8e0312156156e657600080fd5b8b356156f181615658565b9a5060208c013561570181615658565b995060408c013561571181615658565b985060608c013561572181615658565b975060808c013561573181615658565b965060a08c013561574181615658565b955060c08c013561575181615658565b8095505060e08c013593506101008c013592506101208c013591506101408c013590509295989b509295989b9093969950565b60008060006060848603121561579957600080fd5b505081359360208301359350604090920135919050565b634e487b7160e01b600052603260045260246000fd5b805161559a81615658565b600060c082840312156157e357600080fd5b6157eb615402565b82516157f681615658565b815260208381015190820152604083015161581081615658565b80604083015250606083015160608201526080830151608082015260a08301516004811061583d57600080fd5b60a08201529392505050565b6001600160a01b039390931683526020830191909152604082015260600190565b8051801515811461559a57600080fd5b60006020828403121561588c57600080fd5b6145d68261586a565b634e487b7160e01b600052602160045260246000fd5b60006101a082840312156158be57600080fd5b6158c6615439565b6158cf836157c6565b81526020830151602082015260408301516040820152606083015160608201526080830151608082015261590560a0840161586a565b60a082015260c0838101519082015260e080840151908201526101008084015190820152610120808401519082015261014080840151908201526101608084015190820152610180928301519281019290925250919050565b60006020828403121561597057600080fd5b8151600381106145d657600080fd5b634e487b7160e01b600052601160045260246000fd5b80820281158282048414176139d3576139d361597f565b600080604083850312156159bf57600080fd5b505080516020909101519092909150565b6000602082840312156159e257600080fd5b5051919050565b634e487b7160e01b600052601260045260246000fd5b600082615a0e57615a0e6159e9565b500490565b80516001600160a01b031682526020810151602083015260408101516040830152606081015160608301526080810151608083015260a081015160a083015260c0810151615a6560c084018215159052565b5060e08181015190830152610100808201519083015261012090810151910152565b60048110615a9757615a97615895565b9052565b8881526102208101615ab0602083018a615a13565b615abe610160830189615a87565b6101808201969096526101a08101949094526101c08401929092526101e0830152610200909101529392505050565b600c8110615a9757615a97615895565b83815260608101615b116020830185615a87565b6137876040830184615aed565b60018060a01b03815116825260208101516020830152604081015160408301526060810151615b506060840182615a87565b505050565b608081016139d38284615b1e565b600060208284031215615b7557600080fd5b81516145d681615658565b600060c08284031215615b9257600080fd5b615b9a615402565b8251615ba581615658565b80825250602083015160208201526040830151604082015260608301516060820152615bd36080840161586a565b608082015260a083015160a08201528091505092915050565b600060c08284031215615bfe57600080fd5b615c06615402565b825181526020830151602082015260408301516040820152606083015160608201526080830151608082015261583d60a0840161586a565b818103818111156139d3576139d361597f565b61014081016139d38284615a13565b828152604081016145d66020830184615aed565b600060208284031215615c8657600080fd5b81356145d681615658565b600060208284031215615ca357600080fd5b6145d68261566d565b60c08101615cba8286615b1e565b608082019390935260a00152919050565b808201808211156139d3576139d361597f565b6102008101615ced828a615a13565b9615156101408201526101608101959095526101808501939093526101a08401919091526101c08301526101e090910152919050565b602081016139d38284615aed565b6001600160a01b0396909616865260208601949094526040850192909252606084015215156080830152151560a082015260c00190565b6102008101615d778285615a13565b82516101408301526020830151610160830152604083015161018083015260608301516101a083015260808301516101c083015260a083015115156101e08301529392505050565b60006101408284031215615dd257600080fd5b615dda61546b565b9050615de5826157c6565b81526020820151602082015260408201516040820152606082015160608201526080820151608082015260a082015160a0820152615e2560c0830161586a565b60c082015260e082015160e082015261010080830151818301525061012080830151818301525092915050565b60006101408284031215615e6557600080fd5b6145d68383615dbf565b80820260008212600160ff1b84141615615e8b57615e8b61597f565b81810583148215176139d3576139d361597f565b81810360008312801583831316838312821617156115665761156661597f565b600082615ece57615ece6159e9565b600160ff1b821460001984141615615ee857615ee861597f565b500590565b60006101e08284031215615f0057600080fd5b60405160c0810181811067ffffffffffffffff82111715615f3157634e487b7160e01b600052604160045260246000fd5b604052615f3e8484615dbf565b81526101408301516020820152610160830151604082015261018083015160608201526101a083015160808201526101c09092015160a08301525091905056fe4628f3d38f72d5f9e077d3965e10cd3242ff1316aa2bf81f054c0dfb25408406a2646970667358221220c2416125c3e7ccd29801c25fdb92c1430b10ec7e590ec1d4e20a5fae1f1d3f0364736f6c63430008110033",
  "linkReferences": {},
  "deployedLinkReferences": {}
}