{
  "_format": "hh-sol-artifact-1",
  "contractName": "GNSTradingCallbacksV6_4",
  "sourceName": "contracts/v6.4/GNSTradingCallbacksV6_4.sol",
  "abi": [
    {
      "inputs": [],
      "name": "Forbidden",
      "type": "error"
    },
    {
      "inputs": [],
      "name": "WrongParams",
      "type": "error"
    },
    {
      "anonymous": false,
      "inputs": [
        {
          "indexed": true,
          "internalType": "address",
          "name": "trader",
          "type": "address"
        },
        {
          "indexed": false,
          "internalType": "uint256",
          "name": "tradeValueDai",
          "type": "uint256"
        },
        {
          "indexed": false,
          "internalType": "uint256",
          "name": "feeValueDai",
          "type": "uint256"
        }
      ],
      "name": "BorrowingFeeCharged",
      "type": "event"
    },
    {
      "anonymous": false,
      "inputs": [
        {
          "indexed": false,
          "internalType": "uint256",
          "name": "newValue",
          "type": "uint256"
        }
      ],
      "name": "CanExecuteTimeoutUpdated",
      "type": "event"
    },
    {
      "anonymous": false,
      "inputs": [
        {
          "indexed": false,
          "internalType": "uint256",
          "name": "daiVaultFeeP",
          "type": "uint256"
        },
        {
          "indexed": false,
          "internalType": "uint256",
          "name": "lpFeeP",
          "type": "uint256"
        },
        {
          "indexed": false,
          "internalType": "uint256",
          "name": "sssFeeP",
          "type": "uint256"
        }
      ],
      "name": "ClosingFeeSharesPUpdated",
      "type": "event"
    },
    {
      "anonymous": false,
      "inputs": [
        {
          "indexed": true,
          "internalType": "address",
          "name": "trader",
          "type": "address"
        },
        {
          "indexed": false,
          "internalType": "uint256",
          "name": "valueDai",
          "type": "uint256"
        }
      ],
      "name": "DaiVaultFeeCharged",
      "type": "event"
    },
    {
      "anonymous": false,
      "inputs": [
        {
          "indexed": true,
          "internalType": "address",
          "name": "trader",
          "type": "address"
        },
        {
          "indexed": false,
          "internalType": "uint256",
          "name": "valueDai",
          "type": "uint256"
        }
      ],
      "name": "DevGovFeeCharged",
      "type": "event"
    },
    {
      "anonymous": false,
      "inputs": [
        {
          "indexed": false,
          "internalType": "bool",
          "name": "done",
          "type": "bool"
        }
      ],
      "name": "Done",
      "type": "event"
    },
    {
      "anonymous": false,
      "inputs": [
        {
          "indexed": false,
          "internalType": "uint8",
          "name": "version",
          "type": "uint8"
        }
      ],
      "name": "Initialized",
      "type": "event"
    },
    {
      "anonymous": false,
      "inputs": [
        {
          "indexed": true,
          "internalType": "uint256",
          "name": "orderId",
          "type": "uint256"
        },
        {
          "indexed": false,
          "internalType": "uint256",
          "name": "limitIndex",
          "type": "uint256"
        },
        {
          "components": [
            {
              "internalType": "address",
              "name": "trader",
              "type": "address"
            },
            {
              "internalType": "uint256",
              "name": "pairIndex",
              "type": "uint256"
            },
            {
              "internalType": "uint256",
              "name": "index",
              "type": "uint256"
            },
            {
              "internalType": "uint256",
              "name": "initialPosToken",
              "type": "uint256"
            },
            {
              "internalType": "uint256",
              "name": "positionSizeDai",
              "type": "uint256"
            },
            {
              "internalType": "uint256",
              "name": "openPrice",
              "type": "uint256"
            },
            {
              "internalType": "bool",
              "name": "buy",
              "type": "bool"
            },
            {
              "internalType": "uint256",
              "name": "leverage",
              "type": "uint256"
            },
            {
              "internalType": "uint256",
              "name": "tp",
              "type": "uint256"
            },
            {
              "internalType": "uint256",
              "name": "sl",
              "type": "uint256"
            }
          ],
          "indexed": false,
          "internalType": "struct StorageInterfaceV5.Trade",
          "name": "t",
          "type": "tuple"
        },
        {
          "indexed": true,
          "internalType": "address",
          "name": "nftHolder",
          "type": "address"
        },
        {
          "indexed": false,
          "internalType": "enum StorageInterfaceV5.LimitOrder",
          "name": "orderType",
          "type": "uint8"
        },
        {
          "indexed": false,
          "internalType": "uint256",
          "name": "price",
          "type": "uint256"
        },
        {
          "indexed": false,
          "internalType": "uint256",
          "name": "priceImpactP",
          "type": "uint256"
        },
        {
          "indexed": false,
          "internalType": "uint256",
          "name": "positionSizeDai",
          "type": "uint256"
        },
        {
          "indexed": false,
          "internalType": "int256",
          "name": "percentProfit",
          "type": "int256"
        },
        {
          "indexed": false,
          "internalType": "uint256",
          "name": "daiSentToTrader",
          "type": "uint256"
        },
        {
          "indexed": false,
          "internalType": "bool",
          "name": "exactExecution",
          "type": "bool"
        }
      ],
      "name": "LimitExecuted",
      "type": "event"
    },
    {
      "anonymous": false,
      "inputs": [
        {
          "indexed": true,
          "internalType": "uint256",
          "name": "orderId",
          "type": "uint256"
        },
        {
          "indexed": true,
          "internalType": "address",
          "name": "trader",
          "type": "address"
        },
        {
          "indexed": true,
          "internalType": "uint256",
          "name": "pairIndex",
          "type": "uint256"
        },
        {
          "indexed": false,
          "internalType": "uint256",
          "name": "index",
          "type": "uint256"
        },
        {
          "indexed": false,
          "internalType": "enum GNSTradingCallbacksV6_4.CancelReason",
          "name": "cancelReason",
          "type": "uint8"
        }
      ],
      "name": "MarketCloseCanceled",
      "type": "event"
    },
    {
      "anonymous": false,
      "inputs": [
        {
          "indexed": true,
          "internalType": "uint256",
          "name": "orderId",
          "type": "uint256"
        },
        {
          "components": [
            {
              "internalType": "address",
              "name": "trader",
              "type": "address"
            },
            {
              "internalType": "uint256",
              "name": "pairIndex",
              "type": "uint256"
            },
            {
              "internalType": "uint256",
              "name": "index",
              "type": "uint256"
            },
            {
              "internalType": "uint256",
              "name": "initialPosToken",
              "type": "uint256"
            },
            {
              "internalType": "uint256",
              "name": "positionSizeDai",
              "type": "uint256"
            },
            {
              "internalType": "uint256",
              "name": "openPrice",
              "type": "uint256"
            },
            {
              "internalType": "bool",
              "name": "buy",
              "type": "bool"
            },
            {
              "internalType": "uint256",
              "name": "leverage",
              "type": "uint256"
            },
            {
              "internalType": "uint256",
              "name": "tp",
              "type": "uint256"
            },
            {
              "internalType": "uint256",
              "name": "sl",
              "type": "uint256"
            }
          ],
          "indexed": false,
          "internalType": "struct StorageInterfaceV5.Trade",
          "name": "t",
          "type": "tuple"
        },
        {
          "indexed": false,
          "internalType": "bool",
          "name": "open",
          "type": "bool"
        },
        {
          "indexed": false,
          "internalType": "uint256",
          "name": "price",
          "type": "uint256"
        },
        {
          "indexed": false,
          "internalType": "uint256",
          "name": "priceImpactP",
          "type": "uint256"
        },
        {
          "indexed": false,
          "internalType": "uint256",
          "name": "positionSizeDai",
          "type": "uint256"
        },
        {
          "indexed": false,
          "internalType": "int256",
          "name": "percentProfit",
          "type": "int256"
        },
        {
          "indexed": false,
          "internalType": "uint256",
          "name": "daiSentToTrader",
          "type": "uint256"
        }
      ],
      "name": "MarketExecuted",
      "type": "event"
    },
    {
      "anonymous": false,
      "inputs": [
        {
          "indexed": true,
          "internalType": "uint256",
          "name": "orderId",
          "type": "uint256"
        },
        {
          "indexed": true,
          "internalType": "address",
          "name": "trader",
          "type": "address"
        },
        {
          "indexed": true,
          "internalType": "uint256",
          "name": "pairIndex",
          "type": "uint256"
        },
        {
          "indexed": false,
          "internalType": "enum GNSTradingCallbacksV6_4.CancelReason",
          "name": "cancelReason",
          "type": "uint8"
        }
      ],
      "name": "MarketOpenCanceled",
      "type": "event"
    },
    {
      "anonymous": false,
      "inputs": [
        {
          "indexed": true,
          "internalType": "address",
          "name": "trader",
          "type": "address"
        },
        {
          "indexed": false,
          "internalType": "uint256",
          "name": "valueDai",
          "type": "uint256"
        }
      ],
      "name": "NftBotFeeCharged",
      "type": "event"
    },
    {
      "anonymous": false,
      "inputs": [
        {
          "indexed": true,
          "internalType": "uint256",
          "name": "orderId",
          "type": "uint256"
        },
        {
          "indexed": true,
          "internalType": "address",
          "name": "nftHolder",
          "type": "address"
        },
        {
          "indexed": false,
          "internalType": "enum StorageInterfaceV5.LimitOrder",
          "name": "orderType",
          "type": "uint8"
        },
        {
          "indexed": false,
          "internalType": "enum GNSTradingCallbacksV6_4.CancelReason",
          "name": "cancelReason",
          "type": "uint8"
        }
      ],
      "name": "NftOrderCanceled",
      "type": "event"
    },
    {
      "anonymous": false,
      "inputs": [
        {
          "indexed": true,
          "internalType": "uint256",
          "name": "pairIndex",
          "type": "uint256"
        },
        {
          "indexed": false,
          "internalType": "uint256",
          "name": "maxLeverage",
          "type": "uint256"
        }
      ],
      "name": "PairMaxLeverageUpdated",
      "type": "event"
    },
    {
      "anonymous": false,
      "inputs": [
        {
          "indexed": false,
          "internalType": "bool",
          "name": "paused",
          "type": "bool"
        }
      ],
      "name": "Pause",
      "type": "event"
    },
    {
      "anonymous": false,
      "inputs": [
        {
          "indexed": true,
          "internalType": "address",
          "name": "trader",
          "type": "address"
        },
        {
          "indexed": false,
          "internalType": "uint256",
          "name": "valueDai",
          "type": "uint256"
        }
      ],
      "name": "ReferralFeeCharged",
      "type": "event"
    },
    {
      "anonymous": false,
      "inputs": [
        {
          "indexed": true,
          "internalType": "uint256",
          "name": "orderId",
          "type": "uint256"
        },
        {
          "indexed": true,
          "internalType": "address",
          "name": "trader",
          "type": "address"
        },
        {
          "indexed": true,
          "internalType": "uint256",
          "name": "pairIndex",
          "type": "uint256"
        },
        {
          "indexed": false,
          "internalType": "uint256",
          "name": "index",
          "type": "uint256"
        },
        {
          "indexed": false,
          "internalType": "enum GNSTradingCallbacksV6_4.CancelReason",
          "name": "cancelReason",
          "type": "uint8"
        }
      ],
      "name": "SlCanceled",
      "type": "event"
    },
    {
      "anonymous": false,
      "inputs": [
        {
          "indexed": true,
          "internalType": "uint256",
          "name": "orderId",
          "type": "uint256"
        },
        {
          "indexed": true,
          "internalType": "address",
          "name": "trader",
          "type": "address"
        },
        {
          "indexed": true,
          "internalType": "uint256",
          "name": "pairIndex",
          "type": "uint256"
        },
        {
          "indexed": false,
          "internalType": "uint256",
          "name": "index",
          "type": "uint256"
        },
        {
          "indexed": false,
          "internalType": "uint256",
          "name": "newSl",
          "type": "uint256"
        }
      ],
      "name": "SlUpdated",
      "type": "event"
    },
    {
      "anonymous": false,
      "inputs": [
        {
          "indexed": true,
          "internalType": "address",
          "name": "trader",
          "type": "address"
        },
        {
          "indexed": false,
          "internalType": "uint256",
          "name": "valueDai",
          "type": "uint256"
        }
      ],
      "name": "SssFeeCharged",
      "type": "event"
    },
    {
      "inputs": [],
      "name": "borrowingFees",
      "outputs": [
        {
          "internalType": "contract GNSBorrowingFeesInterfaceV6_4",
          "name": "",
          "type": "address"
        }
      ],
      "stateMutability": "view",
      "type": "function"
    },
    {
      "inputs": [],
      "name": "canExecuteTimeout",
      "outputs": [
        {
          "internalType": "uint256",
          "name": "",
          "type": "uint256"
        }
      ],
      "stateMutability": "view",
      "type": "function"
    },
    {
      "inputs": [
        {
          "components": [
            {
              "internalType": "uint256",
              "name": "orderId",
              "type": "uint256"
            },
            {
              "internalType": "uint256",
              "name": "price",
              "type": "uint256"
            },
            {
              "internalType": "uint256",
              "name": "spreadP",
              "type": "uint256"
            },
            {
              "internalType": "uint64",
              "name": "open",
              "type": "uint64"
            },
            {
              "internalType": "uint64",
              "name": "high",
              "type": "uint64"
            },
            {
              "internalType": "uint64",
              "name": "low",
              "type": "uint64"
            }
          ],
          "internalType": "struct GNSTradingCallbacksV6_4.AggregatorAnswer",
          "name": "a",
          "type": "tuple"
        }
      ],
      "name": "closeTradeMarketCallback",
      "outputs": [],
      "stateMutability": "nonpayable",
      "type": "function"
    },
    {
      "inputs": [],
      "name": "daiVaultFeeP",
      "outputs": [
        {
          "internalType": "uint256",
          "name": "",
          "type": "uint256"
        }
      ],
      "stateMutability": "view",
      "type": "function"
    },
    {
      "inputs": [],
      "name": "done",
      "outputs": [],
      "stateMutability": "nonpayable",
      "type": "function"
    },
    {
      "inputs": [
        {
          "components": [
            {
              "internalType": "uint256",
              "name": "orderId",
              "type": "uint256"
            },
            {
              "internalType": "uint256",
              "name": "price",
              "type": "uint256"
            },
            {
              "internalType": "uint256",
              "name": "spreadP",
              "type": "uint256"
            },
            {
              "internalType": "uint64",
              "name": "open",
              "type": "uint64"
            },
            {
              "internalType": "uint64",
              "name": "high",
              "type": "uint64"
            },
            {
              "internalType": "uint64",
              "name": "low",
              "type": "uint64"
            }
          ],
          "internalType": "struct GNSTradingCallbacksV6_4.AggregatorAnswer",
          "name": "a",
          "type": "tuple"
        }
      ],
      "name": "executeNftCloseOrderCallback",
      "outputs": [],
      "stateMutability": "nonpayable",
      "type": "function"
    },
    {
      "inputs": [
        {
          "components": [
            {
              "internalType": "uint256",
              "name": "orderId",
              "type": "uint256"
            },
            {
              "internalType": "uint256",
              "name": "price",
              "type": "uint256"
            },
            {
              "internalType": "uint256",
              "name": "spreadP",
              "type": "uint256"
            },
            {
              "internalType": "uint64",
              "name": "open",
              "type": "uint64"
            },
            {
              "internalType": "uint64",
              "name": "high",
              "type": "uint64"
            },
            {
              "internalType": "uint64",
              "name": "low",
              "type": "uint64"
            }
          ],
          "internalType": "struct GNSTradingCallbacksV6_4.AggregatorAnswer",
          "name": "a",
          "type": "tuple"
        }
      ],
      "name": "executeNftOpenOrderCallback",
      "outputs": [],
      "stateMutability": "nonpayable",
      "type": "function"
    },
    {
      "inputs": [],
      "name": "getAllPairsMaxLeverage",
      "outputs": [
        {
          "internalType": "uint256[]",
          "name": "",
          "type": "uint256[]"
        }
      ],
      "stateMutability": "view",
      "type": "function"
    },
    {
      "inputs": [
        {
          "internalType": "contract StorageInterfaceV5",
          "name": "_storageT",
          "type": "address"
        },
        {
          "internalType": "contract NftRewardsInterfaceV6_3_1",
          "name": "_nftRewards",
          "type": "address"
        },
        {
          "internalType": "contract GNSPairInfosInterfaceV6",
          "name": "_pairInfos",
          "type": "address"
        },
        {
          "internalType": "contract GNSReferralsInterfaceV6_2",
          "name": "_referrals",
          "type": "address"
        },
        {
          "internalType": "contract GNSStakingInterfaceV6_2",
          "name": "_staking",
          "type": "address"
        },
        {
          "internalType": "address",
          "name": "vaultToApprove",
          "type": "address"
        },
        {
          "internalType": "uint256",
          "name": "_daiVaultFeeP",
          "type": "uint256"
        },
        {
          "internalType": "uint256",
          "name": "_lpFeeP",
          "type": "uint256"
        },
        {
          "internalType": "uint256",
          "name": "_sssFeeP",
          "type": "uint256"
        },
        {
          "internalType": "uint256",
          "name": "_canExecuteTimeout",
          "type": "uint256"
        }
      ],
      "name": "initialize",
      "outputs": [],
      "stateMutability": "nonpayable",
      "type": "function"
    },
    {
      "inputs": [
        {
          "internalType": "contract GNSBorrowingFeesInterfaceV6_4",
          "name": "_borrowingFees",
          "type": "address"
        }
      ],
      "name": "initializeV2",
      "outputs": [],
      "stateMutability": "nonpayable",
      "type": "function"
    },
    {
      "inputs": [],
      "name": "isDone",
      "outputs": [
        {
          "internalType": "bool",
          "name": "",
          "type": "bool"
        }
      ],
      "stateMutability": "view",
      "type": "function"
    },
    {
      "inputs": [],
      "name": "isPaused",
      "outputs": [
        {
          "internalType": "bool",
          "name": "",
          "type": "bool"
        }
      ],
      "stateMutability": "view",
      "type": "function"
    },
    {
      "inputs": [],
      "name": "lpFeeP",
      "outputs": [
        {
          "internalType": "uint256",
          "name": "",
          "type": "uint256"
        }
      ],
      "stateMutability": "view",
      "type": "function"
    },
    {
      "inputs": [],
      "name": "nftRewards",
      "outputs": [
        {
          "internalType": "contract NftRewardsInterfaceV6_3_1",
          "name": "",
          "type": "address"
        }
      ],
      "stateMutability": "view",
      "type": "function"
    },
    {
      "inputs": [
        {
          "components": [
            {
              "internalType": "uint256",
              "name": "orderId",
              "type": "uint256"
            },
            {
              "internalType": "uint256",
              "name": "price",
              "type": "uint256"
            },
            {
              "internalType": "uint256",
              "name": "spreadP",
              "type": "uint256"
            },
            {
              "internalType": "uint64",
              "name": "open",
              "type": "uint64"
            },
            {
              "internalType": "uint64",
              "name": "high",
              "type": "uint64"
            },
            {
              "internalType": "uint64",
              "name": "low",
              "type": "uint64"
            }
          ],
          "internalType": "struct GNSTradingCallbacksV6_4.AggregatorAnswer",
          "name": "a",
          "type": "tuple"
        }
      ],
      "name": "openTradeMarketCallback",
      "outputs": [],
      "stateMutability": "nonpayable",
      "type": "function"
    },
    {
      "inputs": [],
      "name": "pairInfos",
      "outputs": [
        {
          "internalType": "contract GNSPairInfosInterfaceV6",
          "name": "",
          "type": "address"
        }
      ],
      "stateMutability": "view",
      "type": "function"
    },
    {
      "inputs": [
        {
          "internalType": "uint256",
          "name": "",
          "type": "uint256"
        }
      ],
      "name": "pairMaxLeverage",
      "outputs": [
        {
          "internalType": "uint256",
          "name": "",
          "type": "uint256"
        }
      ],
      "stateMutability": "view",
      "type": "function"
    },
    {
      "inputs": [],
      "name": "pause",
      "outputs": [],
      "stateMutability": "nonpayable",
      "type": "function"
    },
    {
      "inputs": [],
      "name": "referrals",
      "outputs": [
        {
          "internalType": "contract GNSReferralsInterfaceV6_2",
          "name": "",
          "type": "address"
        }
      ],
      "stateMutability": "view",
      "type": "function"
    },
    {
      "inputs": [
        {
          "internalType": "uint256",
          "name": "_canExecuteTimeout",
          "type": "uint256"
        }
      ],
      "name": "setCanExecuteTimeout",
      "outputs": [],
      "stateMutability": "nonpayable",
      "type": "function"
    },
    {
      "inputs": [
        {
          "internalType": "uint256",
          "name": "_daiVaultFeeP",
          "type": "uint256"
        },
        {
          "internalType": "uint256",
          "name": "_lpFeeP",
          "type": "uint256"
        },
        {
          "internalType": "uint256",
          "name": "_sssFeeP",
          "type": "uint256"
        }
      ],
      "name": "setClosingFeeSharesP",
      "outputs": [],
      "stateMutability": "nonpayable",
      "type": "function"
    },
    {
      "inputs": [
        {
          "internalType": "uint256",
          "name": "pairIndex",
          "type": "uint256"
        },
        {
          "internalType": "uint256",
          "name": "maxLeverage",
          "type": "uint256"
        }
      ],
      "name": "setPairMaxLeverage",
      "outputs": [],
      "stateMutability": "nonpayable",
      "type": "function"
    },
    {
      "inputs": [
        {
          "internalType": "uint256[]",
          "name": "indices",
          "type": "uint256[]"
        },
        {
          "internalType": "uint256[]",
          "name": "values",
          "type": "uint256[]"
        }
      ],
      "name": "setPairMaxLeverageArray",
      "outputs": [],
      "stateMutability": "nonpayable",
      "type": "function"
    },
    {
      "inputs": [
        {
          "components": [
            {
              "internalType": "address",
              "name": "trader",
              "type": "address"
            },
            {
              "internalType": "uint256",
              "name": "pairIndex",
              "type": "uint256"
            },
            {
              "internalType": "uint256",
              "name": "index",
              "type": "uint256"
            },
            {
              "internalType": "enum GNSTradingCallbacksV6_4.TradeType",
              "name": "tradeType",
              "type": "uint8"
            }
          ],
          "internalType": "struct GNSTradingCallbacksV6_4.SimplifiedTradeId",
          "name": "_id",
          "type": "tuple"
        },
        {
          "components": [
            {
              "internalType": "uint40",
              "name": "maxSlippageP",
              "type": "uint40"
            },
            {
              "internalType": "uint216",
              "name": "_placeholder",
              "type": "uint216"
            }
          ],
          "internalType": "struct GNSTradingCallbacksV6_4.TradeData",
          "name": "_tradeData",
          "type": "tuple"
        }
      ],
      "name": "setTradeData",
      "outputs": [],
      "stateMutability": "nonpayable",
      "type": "function"
    },
    {
      "inputs": [
        {
          "components": [
            {
              "internalType": "address",
              "name": "trader",
              "type": "address"
            },
            {
              "internalType": "uint256",
              "name": "pairIndex",
              "type": "uint256"
            },
            {
              "internalType": "uint256",
              "name": "index",
              "type": "uint256"
            },
            {
              "internalType": "enum GNSTradingCallbacksV6_4.TradeType",
              "name": "tradeType",
              "type": "uint8"
            }
          ],
          "internalType": "struct GNSTradingCallbacksV6_4.SimplifiedTradeId",
          "name": "_id",
          "type": "tuple"
        },
        {
          "components": [
            {
              "internalType": "uint32",
              "name": "tp",
              "type": "uint32"
            },
            {
              "internalType": "uint32",
              "name": "sl",
              "type": "uint32"
            },
            {
              "internalType": "uint32",
              "name": "limit",
              "type": "uint32"
            },
            {
              "internalType": "uint32",
              "name": "created",
              "type": "uint32"
            }
          ],
          "internalType": "struct GNSTradingCallbacksV6_4.LastUpdated",
          "name": "_lastUpdated",
          "type": "tuple"
        }
      ],
      "name": "setTradeLastUpdated",
      "outputs": [],
      "stateMutability": "nonpayable",
      "type": "function"
    },
    {
      "inputs": [],
      "name": "sssFeeP",
      "outputs": [
        {
          "internalType": "uint256",
          "name": "",
          "type": "uint256"
        }
      ],
      "stateMutability": "view",
      "type": "function"
    },
    {
      "inputs": [],
      "name": "staking",
      "outputs": [
        {
          "internalType": "contract GNSStakingInterfaceV6_2",
          "name": "",
          "type": "address"
        }
      ],
      "stateMutability": "view",
      "type": "function"
    },
    {
      "inputs": [],
      "name": "storageT",
      "outputs": [
        {
          "internalType": "contract StorageInterfaceV5",
          "name": "",
          "type": "address"
        }
      ],
      "stateMutability": "view",
      "type": "function"
    },
    {
      "inputs": [
        {
          "internalType": "address",
          "name": "",
          "type": "address"
        },
        {
          "internalType": "uint256",
          "name": "",
          "type": "uint256"
        },
        {
          "internalType": "uint256",
          "name": "",
          "type": "uint256"
        },
        {
          "internalType": "enum GNSTradingCallbacksV6_4.TradeType",
          "name": "",
          "type": "uint8"
        }
      ],
      "name": "tradeData",
      "outputs": [
        {
          "internalType": "uint40",
          "name": "maxSlippageP",
          "type": "uint40"
        },
        {
          "internalType": "uint216",
          "name": "_placeholder",
          "type": "uint216"
        }
      ],
      "stateMutability": "view",
      "type": "function"
    },
    {
      "inputs": [
        {
          "internalType": "address",
          "name": "",
          "type": "address"
        },
        {
          "internalType": "uint256",
          "name": "",
          "type": "uint256"
        },
        {
          "internalType": "uint256",
          "name": "",
          "type": "uint256"
        },
        {
          "internalType": "enum GNSTradingCallbacksV6_4.TradeType",
          "name": "",
          "type": "uint8"
        }
      ],
      "name": "tradeLastUpdated",
      "outputs": [
        {
          "internalType": "uint32",
          "name": "tp",
          "type": "uint32"
        },
        {
          "internalType": "uint32",
          "name": "sl",
          "type": "uint32"
        },
        {
          "internalType": "uint32",
          "name": "limit",
          "type": "uint32"
        },
        {
          "internalType": "uint32",
          "name": "created",
          "type": "uint32"
        }
      ],
      "stateMutability": "view",
      "type": "function"
    }
  ],
  "bytecode": "0x608060405234801561001057600080fd5b50615a9a80620000216000396000f3fe608060405234801561001057600080fd5b50600436106101995760003560e01c80637e09ae8a116100e4578063a38ea9a811610092578063a38ea9a814610454578063ae8421e11461045d578063b187bd2614610465578063b3f2f4d614610472578063b9340a2214610485578063c68078b914610498578063c68365df146104ab578063d3dc7539146104b457600080fd5b80637e09ae8a1461034e578063803a4392146103615780638456cb59146103745780638f0622271461037c578063930dde0f1461039e5780639b267453146103b15780639bd24d83146103c457600080fd5b80633986de6a1161014c5780633986de6a1461026557806346f93a631461027857806348829122146102f05780634cf088d914610303578063531cc965146103165780635ad9f99314610329578063676c51641461033c5780637bb6c11c1461034557600080fd5b8062e0fa891461019e5780631346b0ff146101b357806316fff074146101e357806321c86196146101fc578063281b693c1461020f57806329b6eca91461023d57806337edb13814610250575b600080fd5b6101b16101ac366004614d79565b6104c7565b005b6002546101c6906001600160a01b031681565b6040516001600160a01b0390911681526020015b60405180910390f35b6000546101c6906201000090046001600160a01b031681565b6101b161020a366004614eaa565b610545565b61022f61021d366004614f54565b600c6020526000908152604090205481565b6040519081526020016101da565b6101b161024b366004614f82565b610600565b6102586106e2565b6040516101da9190614f9f565b6101b1610273366004614fe3565b6107df565b6102cb6102863660046150a1565b600d60209081526000948552604080862082529385528385208152918452828420909152825290205464ffffffffff811690600160281b90046001600160d81b031682565b6040805164ffffffffff90931683526001600160d81b039091166020830152016101da565b6101b16102fe3660046150e9565b610b2d565b6004546101c6906001600160a01b031681565b600b546101c6906001600160a01b031681565b6001546101c6906001600160a01b031681565b61022f60095481565b61022f60075481565b6101b161035c36600461511f565b610b43565b6101b161036f3660046151e9565b610c4c565b6101b161181a565b60085461038e90610100900460ff1681565b60405190151581526020016101da565b6101b16103ac3660046151e9565b611870565b6101b16103bf3660046151e9565b611bac565b6104246103d23660046150a1565b600a60209081526000948552604080862082529385528385208152918452828420909152825290205463ffffffff808216916401000000008104821691600160401b8204811691600160601b90041684565b6040805163ffffffff958616815293851660208501529184169183019190915290911660608201526080016101da565b61022f60055481565b6101b16122cc565b60085461038e9060ff1681565b6101b1610480366004614f54565b61232c565b6101b16104933660046151e9565b612391565b6101b16104a6366004615255565b612b53565b61022f60065481565b6003546101c6906001600160a01b031681565b6104cf612be5565b828181146104f057604051635863f78960e01b815260040160405180910390fd5b60005b8181101561053d5761053586868381811061051057610510615281565b9050602002013585858481811061052957610529615281565b90506020020135612c8f565b6001016104f3565b505050505050565b61054d612ce0565b80600d600061055f6020860186614f82565b6001600160a01b031681526020808201929092526040908101600090812086840135825283528181208683013582529092528120906105a46080860160608701615297565b60018111156105b5576105b56152b2565b60018111156105c6576105c66152b2565b8152602080820192909252604001600020825192909101516001600160d81b0316600160281b0264ffffffffff9092169190911790555050565b600054600290610100900460ff16158015610622575060005460ff8083169116105b6106475760405162461bcd60e51b815260040161063e906152c8565b60405180910390fd5b6000805461ffff191660ff8316176101001790556001600160a01b03821661068257604051635863f78960e01b815260040160405180910390fd5b600b80546001600160a01b0319166001600160a01b0384161790556000805461ff001916905560405160ff821681527f7f26b83ff96e1f2b6a682f133852f6798a09c465da95921460cefb38474024989060200160405180910390a15050565b606060006106ee612d33565b6001600160a01b031663b81b2b716040518163ffffffff1660e01b8152600401602060405180830381865afa15801561072b573d6000803e3d6000fd5b505050506040513d601f19601f8201168201806040525081019061074f9190615316565b90506000816001600160401b0381111561076b5761076b614dfc565b604051908082528060200260200182016040528015610794578160200160208202803683370190505b50905060005b828110156107d8576000818152600c602052604090205482518390839081106107c5576107c5615281565b602090810291909101015260010161079a565b5092915050565b600054610100900460ff16158080156107ff5750600054600160ff909116105b806108195750303b158015610819575060005460ff166001145b6108355760405162461bcd60e51b815260040161063e906152c8565b6000805460ff191660011790558015610858576000805461ff0019166101001790555b6001600160a01b038b16158061087557506001600160a01b038a16155b8061088757506001600160a01b038916155b8061089957506001600160a01b038816155b806108ab57506001600160a01b038716155b806108bd57506001600160a01b038616155b806108dd5750826108ce8587615345565b6108d89190615345565b606414155b806108e85750600582115b1561090657604051635863f78960e01b815260040160405180910390fd5b600080546001600160a01b03808e166201000090810262010000600160b01b031990931692909217808455600180548f84166001600160a01b031991821617909155600280548f8516908316179055600380548e8516908316179055600480548d8516921691909117815560058a90556006899055600788905560098790556040805163f4b9fa7560e01b81529051949092049092169263f4b9fa75928281019260209291908290030181865afa1580156109c5573d6000803e3d6000fd5b505050506040513d601f19601f820116820180604052508101906109e99190615358565b6004805460405163095ea7b360e01b81529293506001600160a01b038085169363095ea7b393610a2193909216916000199101615375565b6020604051808303816000875af1158015610a40573d6000803e3d6000fd5b505050506040513d601f19601f82011682018060405250810190610a64919061539e565b5060405163095ea7b360e01b81526001600160a01b0382169063095ea7b390610a95908a9060001990600401615375565b6020604051808303816000875af1158015610ab4573d6000803e3d6000fd5b505050506040513d601f19601f82011682018060405250810190610ad8919061539e565b50508015610b20576000805461ff0019169055604051600181527f7f26b83ff96e1f2b6a682f133852f6798a09c465da95921460cefb38474024989060200160405180910390a15b5050505050505050505050565b610b35612be5565b610b3f8282612c8f565b5050565b610b4b612ce0565b80600a6000610b5d6020860186614f82565b6001600160a01b03168152602080820192909252604090810160009081208684013582528352818120868301358252909252812090610ba26080860160608701615297565b6001811115610bb357610bb36152b2565b6001811115610bc457610bc46152b2565b8152602080820192909252604090810160002083518154938501519285015160609095015163ffffffff908116600160601b0263ffffffff60601b19968216600160401b029690961667ffffffffffffffff60401b199482166401000000000267ffffffffffffffff1990961691909216179390931791909116919091179190911790555050565b610c54612e11565b610c5c612e64565b6060810151608082015160a08301516000805485516040516399794d3560e01b815260048101919091526001600160401b03958616959485169490931692620100009091046001600160a01b0316906399794d359060240160c060405180830381865afa158015610cd1573d6000803e3d6000fd5b505050506040513d601f19601f82011682018060405250810190610cf591906153c4565b90506000604051806080016040528083604001516001600160a01b0316815260200183606001518152602001836080015181526020018360a001516003811115610d4157610d416152b2565b81525090506000610d5f836040015184606001518560800151612e8d565b905060008060029054906101000a90046001600160a01b03166001600160a01b0316633078fff56040518163ffffffff1660e01b8152600401602060405180830381865afa158015610db5573d6000803e3d6000fd5b505050506040513d601f19601f82011682018060405250810190610dd99190615358565b905060008715610dfb5760e083015115610df4576000610dfe565b6009610dfe565b60025b9050600081600b811115610e1457610e146152b2565b036116e0576000610e32846000015185602001518660400151612f1a565b90506000836001600160a01b03166335b03c176040518163ffffffff1660e01b8152600401602060405180830381865afa158015610e74573d6000803e3d6000fd5b505050506040513d601f19601f82011682018060405250810190610e989190615358565b9050610ea2614c38565b6402540be4008660e0015184602001518860600151610ec19190615430565b610ecb9190615430565b610ed5919061545d565b6020820181905260e0870151610eea9161545d565b815260028860a001516003811115610f0457610f046152b2565b0361101e57600b546040805160e0808201835289516001600160a01b0390811683526020808c0151908401528a8401518385015260a0808c0151606085015260c0808d015115156080860152875191850191909152918b0151918301919091529151633837d79d60e11b8152919092169163706faf3a91610fd7919060040181516001600160a01b0316815260208083015190820152604080830151908201526060808301519082015260808083015115159082015260a0828101519082015260c0918201519181019190915260e00190565b602060405180830381865afa158015610ff4573d6000803e3d6000fd5b505050506040513d601f19601f820116820180604052508101906110189190615316565b60a08201525b60008860a001516003811115611036576110366152b2565b1461106d5760018860a001516003811115611053576110536152b2565b14611062578060a00151611074565b856101200151611074565b8561010001515b608082018190521580159061108d575080608001518911155b801561109d575080608001518a10155b15801561014083015261118e5760028860a0015160038111156110c2576110c26152b2565b1461116a576402540be4006064836001600160a01b0316639c8dd2fa89602001516040518263ffffffff1660e01b815260040161110191815260200190565b602060405180830381865afa15801561111e573d6000803e3d6000fd5b505050506040513d601f19601f820116820180604052508101906111429190615316565b83602001516111519190615430565b61115b919061545d565b611165919061545d565b611184565b805160649061117a906005615430565b611184919061545d565b60e0820152611354565b608081018b905260028860a0015160038111156111ad576111ad6152b2565b1461130a5760008860a0015160038111156111ca576111ca6152b2565b1480156111dc57506000866101000151115b801561120457508560c001516111fa578561010001518b1115611204565b8561010001518b10155b8061125c575060018860a001516003811115611222576112226152b2565b14801561123457506000866101200151115b801561125c57508560c00151611252578561012001518b101561125c565b8561012001518b11155b61126757600061134e565b6402540be4006064836001600160a01b0316639c8dd2fa89602001516040518263ffffffff1660e01b81526004016112a191815260200190565b602060405180830381865afa1580156112be573d6000803e3d6000fd5b505050506040513d601f19601f820116820180604052508101906112e29190615316565b83602001516112f19190615430565b6112fb919061545d565b611305919061545d565b61134e565b8560c00151611320578060a001518b1015611329565b8060a001518b11155b61133457600061134e565b8051606490611344906005615430565b61134e919061545d565b60e08201525b60e081015115611365576000611368565b600b5b9350600084600b81111561137e5761137e6152b2565b036116dc5761139f8660a0015182608001518860c001518960e00151612fcf565b816060018181525050846001600160a01b0316633c88e8826040518163ffffffff1660e01b81526004016020604051808303816000875af11580156113e8573d6000803e3d6000fd5b505050506040513d601f19601f8201168201806040525081019061140c9190615316565b81604001818152505061150b8660008360600151846000015187604001516002600381111561143d5761143d6152b2565b8e60a001516003811115611453576114536152b2565b146114fb576402540be4006064896001600160a01b031663836a341a8f602001516040518263ffffffff1660e01b815260040161149291815260200190565b602060405180830381865afa1580156114af573d6000803e3d6000fd5b505050506040513d601f19601f820116820180604052508101906114d39190615316565b89602001516114e29190615430565b6114ec919061545d565b6114f6919061545d565b611501565b8660e001515b8760e0015161304f565b60c0820152604081015160e082015161152a906402540be40090615430565b611534919061545d565b61010082018190526001546040808401519051630891674d60e31b81526001600160a01b039092169263448b3a6892611572928c92916004016154bc565b600060405180830381600087803b15801561158c57600080fd5b505af11580156115a0573d6000803e3d6000fd5b505060005460208b01516101008501516040516339caebcf60e11b815260048101929092526024820152620100009091046001600160a01b03169250637395d79e9150604401600060405180830381600087803b15801561160057600080fd5b505af1158015611614573d6000803e3d6000fd5b5050505085600001516001600160a01b03167fcada75418f444febbe725c87360b063440c54e00e82d578010de1ed009d756c58260e0015160405161165b91815260200190565b60405180910390a287600001516001600160a01b03168c600001517f1ab0771256522e5114b583b488c490436d6f8fe02b1e1c9697443e8704c4e8408a60800151898c60a0015186608001516000886000015189606001518a60c001518b61014001516040516116d39998979695949392919061554f565b60405180910390a35b5050505b600081600b8111156116f4576116f46152b2565b14611747578451895160a08701516040516001600160a01b03909316927fe9681b5336d843735c62e93114e5a0f45912a84ae83fa3f3ed80ca5ad933dfc39161173e9186906155bc565b60405180910390a35b60015460405163bf654d2b60e01b81526001600160a01b039091169063bf654d2b906117779087906004016155d7565b600060405180830381600087803b15801561179157600080fd5b505af11580156117a5573d6000803e3d6000fd5b50506000548b5160405163201d8bdb60e01b81526004810191909152620100009091046001600160a01b0316925063201d8bdb9150602401600060405180830381600087803b1580156117f757600080fd5b505af115801561180b573d6000803e3d6000fd5b50505050505050505050505050565b6118226134ec565b6008805460ff8082161560ff1990921682179092556040519116151581527f9422424b175dda897495a07b091ef74a3ef715cf6d866fc972954c1c7f459304906020015b60405180910390a1565b611878612e11565b611880612e64565b600061188f826000015161353f565b905080602001516000036118a1575050565b600081600001519050600080600061193d60405180610180016040528088602001518152602001876040015181526020018860200151815260200188604001518152602001876080015181526020018660c001511515815260200186602001518152602001866080015181526020018660e0015181526020018760600151815260200186610100015181526020018661012001518152506135c0565b60a0870182905291945092509050600081600b81111561195f5761195f6152b2565b036119ed57600080611975866105dc6000613899565b9150915087600001517f2739a12dffae5d66bd9e126a286078ed771840f2288f0afa5709ce38c33309978360018560a00151896402540be4008789606001516119be9190615430565b6119c8919061545d565b6000806040516119de97969594939291906155e5565b60405180910390a25050611b35565b60008060029054906101000a90046001600160a01b03166001600160a01b031663cfbacc1486602001518760e001518860800151611a2b9190615430565b6001806040518563ffffffff1660e01b8152600401611a4d949392919061562a565b6020604051808303816000875af1158015611a6c573d6000803e3d6000fd5b505050506040513d601f19601f82011682018060405250810190611a909190615316565b9050611aaf8560000151828760800151611aaa9190615649565b6143ed565b84600001516001600160a01b0316600080516020615a4583398151915282604051611adc91815260200190565b60405180910390a2846020015185600001516001600160a01b031688600001517f1dc3532663e5566091476fb5aba1e514ef733714c83d4feec5723de6f16c326985604051611b2b919061565c565b60405180910390a4505b6000548651604051630195728b60e71b8152600481019190915260016024820152620100009091046001600160a01b03169063cab94580906044015b600060405180830381600087803b158015611b8b57600080fd5b505af1158015611b9f573d6000803e3d6000fd5b5050505050505050505b50565b611bb4612e11565b611bbc612e64565b6060810151608082015160a08301516000805485516040516399794d3560e01b815260048101919091526001600160401b03958616959485169490931692620100009091046001600160a01b0316906399794d359060240160c060405180830381865afa158015611c31573d6000803e3d6000fd5b505050506040513d601f19601f82011682018060405250810190611c5591906153c4565b60008054604083810151606085015160808601519251636e6f99cd60e11b81529596509394620100009093046001600160a01b03169363dcdf339a93611c9e939060040161566a565b602060405180830381865afa158015611cbb573d6000803e3d6000fd5b505050506040513d601f19601f82011682018060405250810190611cdf919061539e565b15611ceb576000611cee565b60095b9050600081600b811115611d0457611d046152b2565b0361216f5760008054604084810151606086015160808701519251632e21e28b60e21b8152620100009094046001600160a01b03169363b8878a2c93611d4e93929160040161566a565b6101a060405180830381865afa158015611d6c573d6000803e3d6000fd5b505050506040513d601f19601f82011682018060405250810190611d90919061568b565b600154604080860151606087015160808801519251636a6f32f560e11b81529495506000946001600160a01b039094169363d4de65ea93611dd593929160040161566a565b602060405180830381865afa158015611df2573d6000803e3d6000fd5b505050506040513d601f19601f82011682018060405250810190611e16919061573e565b90506000806000611f35604051806101800160405280876101400151815260200187610140015181526020018c81526020018d604001518152602001876080015181526020018760a001511515815260200187602001518152602001876060015181526020018760c001518152602001600d600089600001516001600160a01b03166001600160a01b031681526020019081526020016000206000896020015181526020019081526020016000206000896040015181526020019081526020016000206000600180811115611eed57611eed6152b2565b6001811115611efe57611efe6152b2565b815260208082019290925260409081016000205464ffffffffff16835260e08a0151918301919091526101008901519101526135c0565b92509250925060008561014001518a10158015611f5757508561014001518911155b905080158015611fbd57506002856002811115611f7657611f766152b2565b14611f9e578560a00151611f91578561014001518b10611fbd565b8561014001518b11611fbd565b8560a00151611fb4578561014001518b11611fbd565b8561014001518b105b611fc75781611fca565b600b5b9650600087600b811115611fe057611fe06152b2565b036121685760008061206a6040518061014001604052808a600001516001600160a01b031681526020018a60200151815260200160008152602001600081526020018a6060015181526020018781526020018a60a00151151581526020018a60c0015181526020018a60e0015181526020018a61010001518152508b602001518c60800151613899565b6000548a5160208c01516040808e0151905163b4b0f56760e01b8152959750939550620100009092046001600160a01b03169363b4b0f567936120b0939160040161566a565b600060405180830381600087803b1580156120ca57600080fd5b505af11580156120de573d6000803e3d6000fd5b5050505089600001516001600160a01b03168e600001517f1ab0771256522e5114b583b488c490436d6f8fe02b1e1c9697443e8704c4e8408c608001518560038760a001518c6402540be400898b6060015161213a9190615430565b612144919061545d565b6000808d60405161215d9998979695949392919061554f565b60405180910390a350505b5050505050505b600081600b811115612183576121836152b2565b146121d65781600001516001600160a01b031686600001517fe9681b5336d843735c62e93114e5a0f45912a84ae83fa3f3ed80ca5ad933dfc36003846040516121cd9291906155bc565b60405180910390a35b600160009054906101000a90046001600160a01b03166001600160a01b031663bf654d2b604051806080016040528085604001516001600160a01b0316815260200185606001518152602001856080015181526020018560a001516003811115612242576122426152b2565b8152506040518263ffffffff1660e01b815260040161226191906155d7565b600060405180830381600087803b15801561227b57600080fd5b505af115801561228f573d6000803e3d6000fd5b5050600054885160405163201d8bdb60e01b81526004810191909152620100009091046001600160a01b0316925063201d8bdb9150602401611b71565b6122d46134ec565b6008805460ff610100808304821615810261ff001990931692909217928390556040517fc3a6f986261de9467c2838c6df8ef74f9107855159205600c0bc7a14cdfd3888936118669390049091161515815260200190565b6123346134ec565b600581111561235657604051635863f78960e01b815260040160405180910390fd5b60098190556040518181527fa57398db99aea3c2cd0d30f5b4e8f597539206c95b9c5b73e84962d8b565bbeb9060200160405180910390a150565b612399612e11565b6123a1612e64565b60006123b0826000015161353f565b905080602001516000036123c2575050565b8051805160208201516040909201516000926123de9291612e8d565b905060008160e00151600014612406576020840151156123ff576000612409565b6002612409565b60095b9050600981600b81111561241f5761241f6152b2565b14612a6c57600061243d836000015184602001518560400151612f1a565b905060008060029054906101000a90046001600160a01b03166001600160a01b0316633078fff56040518163ffffffff1660e01b8152600401602060405180830381865afa158015612493573d6000803e3d6000fd5b505050506040513d601f19601f820116820180604052508101906124b79190615358565b90506124c1614c38565b6402540be4008560e00151846020015187606001516124e09190615430565b6124ea9190615430565b6124f4919061545d565b816020018181525050816001600160a01b0316633c88e8826040518163ffffffff1660e01b81526004016020604051808303816000875af115801561253d573d6000803e3d6000fd5b505050506040513d601f19601f820116820180604052508101906125619190615316565b6040820152600084600b81111561257a5761257a6152b2565b036128335761259b8560a0015188602001518760c001518860e00151612fcf565b606082015260e085015160208201516125b4919061545d565b8160000181815250506127d58560018360600151846000015187604001516402540be4006064896001600160a01b03166335b03c176040518163ffffffff1660e01b8152600401602060405180830381865afa158015612618573d6000803e3d6000fd5b505050506040513d601f19601f8201168201806040525081019061263c9190615358565b6001600160a01b031663836a341a8e602001516040518263ffffffff1660e01b815260040161266d91815260200190565b602060405180830381865afa15801561268a573d6000803e3d6000fd5b505050506040513d601f19601f820116820180604052508101906126ae9190615316565b89602001516126bd9190615430565b6126c7919061545d565b6126d1919061545d565b6402540be40060648a6001600160a01b03166335b03c176040518163ffffffff1660e01b8152600401602060405180830381865afa158015612717573d6000803e3d6000fd5b505050506040513d601f19601f8201168201806040525081019061273b9190615358565b6001600160a01b0316639c8dd2fa8f602001516040518263ffffffff1660e01b815260040161276c91815260200190565b602060405180830381865afa158015612789573d6000803e3d6000fd5b505050506040513d601f19601f820116820180604052508101906127ad9190615316565b8a602001516127bc9190615430565b6127c6919061545d565b6127d0919061545d565b61304f565b60c08201819052875160208901518351606085015160405193947f2739a12dffae5d66bd9e126a286078ed771840f2288f0afa5709ce38c333099794612826948c94600094919385939192916155e5565b60405180910390a2612a68565b6000856080015111612905576040810151600054602087810151908401516402540be40093926201000090046001600160a01b03169163cfbacc1491849061287c908790615430565b612886919061545d565b600060016040518563ffffffff1660e01b81526004016128a9949392919061562a565b6020604051808303816000875af11580156128c8573d6000803e3d6000fd5b505050506040513d601f19601f820116820180604052508101906128ec9190615316565b6128f69190615430565b612900919061545d565b61298c565b600054602086810151908301516040516333eeb30560e21b8152620100009093046001600160a01b03169263cfbacc1492612949929091600190819060040161562a565b6020604051808303816000875af1158015612968573d6000803e3d6000fd5b505050506040513d601f19601f8201168201806040525081019061298c9190615316565b60e082018190526020840151906129a9906402540be40090615430565b6129b3919061545d565b856060018181516129c49190615649565b905250600054604051631a97b52160e31b8152620100009091046001600160a01b03169063d4bda908906129fc90889060040161575f565b600060405180830381600087803b158015612a1657600080fd5b505af1158015612a2a573d6000803e3d6000fd5b5050505084600001516001600160a01b0316600080516020615a458339815191528260e00151604051612a5f91815260200190565b60405180910390a25b5050505b600081600b811115612a8057612a806152b2565b14612adf578251602081015181518651604093840151935192936001600160a01b039092169290917f293df767d6749666902026d2f6a2cc4e5f15cdede46402226c42ef4fdf27a17c91612ad69190879061576e565b60405180910390a45b600080548551604051630195728b60e71b8152600481019190915260248101929092526201000090046001600160a01b03169063cab9458090604401600060405180830381600087803b158015612b3557600080fd5b505af1158015612b49573d6000803e3d6000fd5b5050505050505050565b612b5b6134ec565b80612b668385615345565b612b709190615345565b606414612b9057604051635863f78960e01b815260040160405180910390fd5b60058390556006829055600781905560408051848152602081018490529081018290527f0caa98ed9a1605da290817d1f67b1b83c63f9229abeca5123df5d90581c495589060600160405180910390a1505050565b600260009054906101000a90046001600160a01b03166001600160a01b031663481c6a756040518163ffffffff1660e01b8152600401602060405180830381865afa158015612c38573d6000803e3d6000fd5b505050506040513d601f19601f82011682018060405250810190612c5c9190615358565b6001600160a01b0316336001600160a01b031614612c8d57604051631dd2188d60e31b815260040160405180910390fd5b565b6000828152600c6020526040908190208290555182907f95924bc10431f9a625a06fe5a27d55f4348510b2da42a18fe3bf2a6f2c4eab6790612cd49084815260200190565b60405180910390a25050565b600060029054906101000a90046001600160a01b03166001600160a01b031663ec44acf26040518163ffffffff1660e01b8152600401602060405180830381865afa158015612c38573d6000803e3d6000fd5b60008060029054906101000a90046001600160a01b03166001600160a01b0316633078fff56040518163ffffffff1660e01b8152600401602060405180830381865afa158015612d87573d6000803e3d6000fd5b505050506040513d601f19601f82011682018060405250810190612dab9190615358565b6001600160a01b03166335b03c176040518163ffffffff1660e01b8152600401602060405180830381865afa158015612de8573d6000803e3d6000fd5b505050506040513d601f19601f82011682018060405250810190612e0c9190615358565b905090565b600060029054906101000a90046001600160a01b03166001600160a01b0316633078fff56040518163ffffffff1660e01b8152600401602060405180830381865afa158015612c38573d6000803e3d6000fd5b600854610100900460ff1615612c8d57604051631dd2188d60e31b815260040160405180910390fd5b612e95614c94565b6000546040516351d407ff60e11b8152620100009091046001600160a01b03169063a3a80ffe90612ece9087908790879060040161566a565b61014060405180830381865afa158015612eec573d6000803e3d6000fd5b505050506040513d601f19601f82011682018060405250810190612f109190615815565b90505b9392505050565b612f556040518060c0016040528060008152602001600081526020016000815260200160008152602001600081526020016000151581525090565b600054604051638c8ff1d560e01b8152620100009091046001600160a01b031690638c8ff1d590612f8e9087908790879060040161566a565b60c060405180830381865afa158015612fab573d6000803e3d6000fd5b505050506040513d601f19601f82011682018060405250810190612f109190615832565b600080612fe36402540be400610384615884565b905085836402540be4008661300157612ffc888a6158b4565b61300b565b61300b89896158b4565b613016906064615884565b6130209190615884565b61302a9190615884565b61303491906158d4565b91508082136130435781613045565b805b9695505050505050565b600080600060029054906101000a90046001600160a01b03166001600160a01b031663fbfa77cf6040518163ffffffff1660e01b8152600401602060405180830381865afa1580156130a5573d6000803e3d6000fd5b505050506040513d601f19601f820116820180604052508101906130c99190615358565b90506130e08987896130db8789615345565b61445c565b50600b548a5160208c01516040808e015160c08f0151915163ce67edfb60e01b81529597506001600160a01b039094169463ce67edfb9461312c94939290918c91600091600401615902565b600060405180830381600087803b15801561314657600080fd5b505af115801561315a573d6000803e3d6000fd5b50505050613166612d33565b6001600160a01b03166320f0fc5e8a602001518b60e0015188613189919061545d565b8c60c0015160006040518563ffffffff1660e01b81526004016131af949392919061562a565b600060405180830381600087803b1580156131c957600080fd5b505af11580156131dd573d6000803e3d6000fd5b50506000548b5160208d01516040808f015190516390d112b960e01b8152620100009094046001600160a01b031695506390d112b994506132209360040161566a565b600060405180830381600087803b15801561323a57600080fd5b505af115801561324e573d6000803e3d6000fd5b5050505060808901511561347a57613264614c38565b6064600554866132749190615430565b61327e919061545d565b61010082018190526132919030906143ed565b61010081015160405163940a4e4560e01b815260048101919091526001600160a01b0383169063940a4e4590602401600060405180830381600087803b1580156132da57600080fd5b505af11580156132ee573d6000803e3d6000fd5b5050505089600001516001600160a01b03167f60c73da98faf96842eabd77a0c73964cd189dbaf2c9ae90923a3fed137f30e3e82610100015160405161333691815260200190565b60405180910390a288613362576064600754866133539190615430565b61335d919061545d565b613386565b6064600754866133729190615430565b61337c919061545d565b6133869085615345565b61012082018190528a516133999161457f565b6000816101000151826101200151896133b29190615649565b6133bc9190615649565b905080841115613453576001600160a01b03831663e66a6e3b6133df8387615649565b8d5160405160e084901b6001600160e01b031916815260048101929092526001600160a01b03166024820152604401600060405180830381600087803b15801561342857600080fd5b505af115801561343c573d6000803e3d6000fd5b5050505061344e8b60000151826143ed565b613473565b6134676134608583615649565b8c51614620565b8a5161347390856143ed565b50506134e0565b885160405163e66a6e3b60e01b8152600481018490526001600160a01b0391821660248201529082169063e66a6e3b90604401600060405180830381600087803b1580156134c757600080fd5b505af11580156134db573d6000803e3d6000fd5b505050505b50979650505050505050565b600060029054906101000a90046001600160a01b03166001600160a01b03166312d43a516040518163ffffffff1660e01b8152600401602060405180830381865afa158015612c38573d6000803e3d6000fd5b613547614cf2565b60005460405163b66e6b0560e01b815260048101849052620100009091046001600160a01b03169063b66e6b05906024016101e060405180830381865afa158015613596573d6000803e3d6000fd5b505050506040513d601f19601f820116820180604052508101906135ba9190615939565b92915050565b60025481516060830151608084015160a0850151600094859485946001600160a01b0390921693637ea95f32936135f89391906146d8565b8660c001518760a001518861010001518960e001516136179190615430565b6040516001600160e01b031960e087901b168152600481019490945260248401929092521515604483015260648201526084016040805180830381865afa158015613666573d6000803e3d6000fd5b505050506040513d601f19601f8201168201806040525081019061368a91906159c9565b61012086015191945092506000906136a65784602001516136d7565b6402540be400606486610120015187602001516136c39190615430565b6136cd919061545d565b6136d7919061545d565b60085490915060ff1661388d57604085015115613886578460a0015161370e578085602001516137079190615649565b8310613721565b80856020015161371e9190615345565b83115b61387f57600085610140015111801561375657508460a0015161374c57846101400151831115613756565b8461014001518310155b61387857600085610160015111801561378b57508460a001516137815784610160015183101561378b565b8461016001518311155b613871576137ac8560c001518660a001518760e00151886101000151614748565b1561386a57600260009054906101000a90046001600160a01b03166001600160a01b03166380f6cfc26040518163ffffffff1660e01b8152600401602060405180830381865afa158015613804573d6000803e3d6000fd5b505050506040513d601f19601f820116820180604052508101906138289190615316565b6101008601516138389086615430565b11613863576138508560c001518661010001516148f1565b1561385c576000613890565b6008613890565b6007613890565b6006613890565b6005613890565b6004613890565b6003613890565b6002613890565b60015b93959294505050565b6138a1614c94565b600080600060029054906101000a90046001600160a01b03166001600160a01b0316633078fff56040518163ffffffff1660e01b8152600401602060405180830381865afa1580156138f7573d6000803e3d6000fd5b505050506040513d601f19601f8201168201806040525081019061391b9190615358565b90506000816001600160a01b03166335b03c176040518163ffffffff1660e01b8152600401602060405180830381865afa15801561395d573d6000803e3d6000fd5b505050506040513d601f19601f820116820180604052508101906139819190615358565b905061398b614c38565b8760e00151886080015161399f9190615430565b816020018181525050826001600160a01b0316633c88e8826040518163ffffffff1660e01b81526004016020604051808303816000875af11580156139e8573d6000803e3d6000fd5b505050506040513d601f19601f82011682018060405250810190613a0c9190615316565b60408281019190915260035489519151631862c18d60e31b81526001600160a01b0392831660048201526000929091169063c3160c6890602401602060405180830381865afa158015613a63573d6000803e3d6000fd5b505050506040513d601f19601f82011682018060405250810190613a879190615358565b6001600160a01b031614613ccb57600354885160405163201ad16d60e01b81526001600160a01b0391821660048201526402540be40092606492169063201ad16d90602401602060405180830381865afa158015613ae9573d6000803e3d6000fd5b505050506040513d601f19601f82011682018060405250810190613b0d9190615316565b613b1d6402540be4006064615430565b613b279190615649565b8360200151613b369190615430565b613b40919061545d565b613b4a919061545d565b81526003548851602080840151908b0151604051638251135b60e01b81526001600160a01b039485169463e78c6fd294939290881691638251135b91613b969160040190815260200190565b602060405180830381865afa158015613bb3573d6000803e3d6000fd5b505050506040513d601f19601f82011682018060405250810190613bd79190615316565b60408087015190516001600160e01b031960e087901b1681526001600160a01b0390941660048501526024840192909252604483015260648201526084016020604051808303816000875af1158015613c34573d6000803e3d6000fd5b505050506040513d601f19601f82011682018060405250810190613c589190615316565b60e082018190528851613c6b9190614620565b8060e0015188608001818151613c819190615649565b905250875160e08201516040519081526001600160a01b03909116907f0f5273269f52308b9c40fafda3ca13cc42f715fcd795365e87f351f59e2493139060200160405180910390a25b60005460208901518251620100009092046001600160a01b03169163cfbacc149190613cfb578360200151613cfe565b83515b6001806040518563ffffffff1660e01b8152600401613d20949392919061562a565b6020604051808303816000875af1158015613d3f573d6000803e3d6000fd5b505050506040513d601f19601f82011682018060405250810190613d639190615316565b6101008201819052608089018051613d7c908390615649565b90525087516101008201516040519081526001600160a01b0390911690600080516020615a458339815191529060200160405180910390a26402540be4006064836001600160a01b0316639c8dd2fa8b602001516040518263ffffffff1660e01b8152600401613dee91815260200190565b602060405180830381865afa158015613e0b573d6000803e3d6000fd5b505050506040513d601f19601f82011682018060405250810190613e2f9190615316565b8360200151613e3e9190615430565b613e48919061545d565b613e52919061545d565b6101008201819052608089018051613e6b908390615649565b9052506105dc87101561400a57613e8b8161010001518960000151614620565b80604001516402540be400826101000151613ea69190615430565b613eb0919061545d565b6101208201908152600154604080516080810182528b516001600160a01b0390811682526020808e0151908301528183018b9052600360608301529351828601519251630891674d60e31b8152949093169363448b3a6893613f169390916004016154bc565b600060405180830381600087803b158015613f3057600080fd5b505af1158015613f44573d6000803e3d6000fd5b50506000546101208401516040516339caebcf60e11b8152600481018c90526024810191909152620100009091046001600160a01b03169250637395d79e9150604401600060405180830381600087803b158015613fa157600080fd5b505af1158015613fb5573d6000803e3d6000fd5b5050505087600001516001600160a01b03167fcada75418f444febbe725c87360b063440c54e00e82d578010de1ed009d756c5826101000151604051613ffd91815260200190565b60405180910390a261401d565b61401d886000015182610100015161457f565b600054885160208a015160405163292c161760e01b8152620100009093046001600160a01b03169263292c161792614059929091600401615375565b602060405180830381865afa158015614076573d6000803e3d6000fd5b505050506040513d601f19601f8201168201806040525081019061409a9190615316565b6040808a019190915281015160808901516140bb906402540be40090615430565b6140c5919061545d565b8860600181815250506140eb8860a001518960e001518a61010001518b60c00151614990565b886101000181815250506141128860a001518960e001518a61012001518b60c00151614a23565b610120890152600254885160208a01516040808c015160c08d01519151630735e1cd60e11b81526001600160a01b0394851660048201526024810193909352604483015215156064820152911690630e6bc39a90608401600060405180830381600087803b15801561418357600080fd5b505af1158015614197573d6000803e3d6000fd5b505050602089015160808a015160c08b01516040516310787e2f60e11b81526001600160a01b03871694506320f0fc5e936141db939092909160019060040161562a565b600060405180830381600087803b1580156141f557600080fd5b505af1158015614209573d6000803e3d6000fd5b5050600b548a5160208c015160408d015160e08e015160808f01516001600160a01b03909516965063ce67edfb95509293919290916142489190615430565b60018e60c001516040518763ffffffff1660e01b815260040161427096959493929190615902565b600060405180830381600087803b15801561428a57600080fd5b505af115801561429e573d6000803e3d6000fd5b50505050600060029054906101000a90046001600160a01b03166001600160a01b031663c311ab31896040518060c0016040528060008152602001856040015181526020018c60e001518d608001516142f79190615430565b81526020016000815260200160008152602001600015158152506040518363ffffffff1660e01b815260040161432e9291906159ed565b600060405180830381600087803b15801561434857600080fd5b505af115801561435c573d6000803e3d6000fd5b505089516001600160a01b03166000908152600a60209081526040808320828e015184528252808320818e0151845282528083208380529091528120925090506143a4614a9d565b825467ffffffffffffffff191663ffffffff9190911690811764010000000082021763ffffffff60601b1916600160601b91909102179091555060400151969795505050505050565b60005460405163373873db60e11b81526001600160a01b0362010000909204821660048201819052918416602482015260448101839052636e70e7b6906064015b600060405180830381600087803b15801561444857600080fd5b505af115801561053d573d6000803e3d6000fd5b600080600061446c878787614b1e565b600254895160208b01516040808d015160c08e015160e08f01519251636ceaca6760e01b81526001600160a01b0395861660048201526024810194909452604484019190915215156064830152608482018c905260a482015260c4810185905260e481018990529295509293509190911690636ceaca6790610104016020604051808303816000875af1158015614507573d6000803e3d6000fd5b505050506040513d601f19601f8201168201806040525081019061452b9190615316565b875160408051838152602081018690529295506001600160a01b03909116917fe7d34775bf6fd7b34e703a903ef79ab16166ebdffce96a66f4d2f84b6263bb29910160405180910390a25094509492505050565b61458930826143ed565b6004805460405163b243fb0160e01b81529182018390526001600160a01b03169063b243fb0190602401600060405180830381600087803b1580156145cd57600080fd5b505af11580156145e1573d6000803e3d6000fd5b50505050816001600160a01b03167fd1e388cc27c5125a80cf538c12b26dc5a784071d324a81a736e4d17f238588e482604051612cd491815260200190565b61462a30836143ed565b600060029054906101000a90046001600160a01b03166001600160a01b031663fbfa77cf6040518163ffffffff1660e01b8152600401602060405180830381865afa15801561467d573d6000803e3d6000fd5b505050506040513d601f19601f820116820180604052508101906146a19190615358565b60405163a481c14b60e01b8152600481018490526001600160a01b038381166024830152919091169063a481c14b9060440161442e565b6000806402540be4006064806146ee8789615430565b6146f8919061545d565b6147029088615649565b61470c9089615430565b614716919061545d565b614720919061545d565b905082614736576147318187615649565b613045565b6130458187615345565b949350505050565b6000806147558385615430565b600b54604051632e53fe8760e21b8152600481018990529192506001600160a01b03169063b94ffa1c90602401602060405180830381865afa15801561479f573d6000803e3d6000fd5b505050506040513d601f19601f820116820180604052508101906147c39190615316565b6147d1906305f5e100615430565b60005482906201000090046001600160a01b03166328daca2189896147f75760016147fa565b60005b6040516001600160e01b031960e085901b168152600481019290925260ff166024820152604401602060405180830381865afa15801561483e573d6000803e3d6000fd5b505050506040513d601f19601f820116820180604052508101906148629190615316565b61486c9190615345565b111580156130455750600b5460405163d627450560e01b8152600481018890528615156024820152604481018390526001600160a01b039091169063d627450590606401602060405180830381865afa1580156148cd573d6000803e3d6000fd5b505050506040513d601f19601f82011682018060405250810190613045919061539e565b6000828152600c6020526040812054801561490f5780831115614740565b614917612d33565b6001600160a01b031663281b693c856040518263ffffffff1660e01b815260040161494491815260200190565b602060405180830381865afa158015614961573d6000803e3d6000fd5b505050506040513d601f19601f820116820180604052508101906149859190615316565b831115949350505050565b60008215806149b957506149ab6402540be400610384615884565b6149b786858588612fcf565b145b15614a1a5760006064856149cf61038489615430565b6149d9919061545d565b6149e3919061545d565b905082614a0857858111156149f9576000614a12565b614a038187615649565b614a12565b614a128187615345565b915050614740565b50909392505050565b60008083118015614a595750614a3f6402540be400604b615884565b614a4b90600019615884565b614a5786858588612fcf565b125b15614a1a576000606485614a6e604b89615430565b614a78919061545d565b614a82919061545d565b905082614a9357614a038187615345565b614a128187615649565b600061a4b1461480614ab1575062066eed46145b15614b195760646001600160a01b031663a3b1b31d6040518163ffffffff1660e01b8152600401602060405180830381865afa158015614af5573d6000803e3d6000fd5b505050506040513d601f19601f82011682018060405250810190612e0c9190615316565b504390565b600b546040805160c0808201835286516001600160a01b03908116835260208089015190840190815288850151848601908152928901511515606085019081526080850189815260e08b015160a087019081529651632d28a81760e01b8152955184166004870152915160248601529251604485015291511515606484015290516084830152915160a482015260009283921690632d28a8179060c401602060405180830381865afa158015614bd8573d6000803e3d6000fd5b505050506040513d601f19601f82011682018060405250810190614bfc9190615316565b9050836402540be400614c10836064615430565b614c1a9190615430565b614c24919061545d565b614c2e90846158b4565b9150935093915050565b604051806101600160405280600081526020016000815260200160008152602001600081526020016000815260200160008152602001600081526020016000815260200160008152602001600081526020016000151581525090565b60405180610140016040528060006001600160a01b0316815260200160008152602001600081526020016000815260200160008152602001600081526020016000151581526020016000815260200160008152602001600081525090565b6040518060c00160405280614d05614c94565b815260200160008152602001600081526020016000815260200160008152602001600081525090565b60008083601f840112614d4057600080fd5b5081356001600160401b03811115614d5757600080fd5b6020830191508360208260051b8501011115614d7257600080fd5b9250929050565b60008060008060408587031215614d8f57600080fd5b84356001600160401b0380821115614da657600080fd5b614db288838901614d2e565b90965094506020870135915080821115614dcb57600080fd5b50614dd887828801614d2e565b95989497509550505050565b600060808284031215614df657600080fd5b50919050565b634e487b7160e01b600052604160045260246000fd5b60405160c081016001600160401b0381118282101715614e4257634e487b7160e01b600052604160045260246000fd5b60405290565b6040516101a081016001600160401b0381118282101715614e4257634e487b7160e01b600052604160045260246000fd5b60405161014081016001600160401b0381118282101715614e4257634e487b7160e01b600052604160045260246000fd5b60008082840360c0811215614ebe57600080fd5b614ec88585614de4565b92506040607f1982011215614edc57600080fd5b50604051604081018181106001600160401b0382111715614f0d57634e487b7160e01b600052604160045260246000fd5b604052608084013564ffffffffff81168114614f2857600080fd5b815260a08401356001600160d81b0381168114614f4457600080fd5b6020820152919491935090915050565b600060208284031215614f6657600080fd5b5035919050565b6001600160a01b0381168114611ba957600080fd5b600060208284031215614f9457600080fd5b8135612f1381614f6d565b6020808252825182820181905260009190848201906040850190845b81811015614fd757835183529284019291840191600101614fbb565b50909695505050505050565b6000806000806000806000806000806101408b8d03121561500357600080fd5b8a3561500e81614f6d565b995060208b013561501e81614f6d565b985060408b013561502e81614f6d565b975060608b013561503e81614f6d565b965060808b013561504e81614f6d565b955060a08b013561505e81614f6d565b999c989b5096999598949794965050505060c08301359260e08101359261010082013592506101209091013590565b80356002811061509c57600080fd5b919050565b600080600080608085870312156150b757600080fd5b84356150c281614f6d565b935060208501359250604085013591506150de6060860161508d565b905092959194509250565b600080604083850312156150fc57600080fd5b50508035926020909101359150565b803563ffffffff8116811461509c57600080fd5b60008082840361010081121561513457600080fd5b61513e8585614de4565b92506080607f198201121561515257600080fd5b50604051608081018181106001600160401b038211171561518357634e487b7160e01b600052604160045260246000fd5b6040526151926080850161510b565b81526151a060a0850161510b565b60208201526151b160c0850161510b565b60408201526151c260e0850161510b565b6060820152809150509250929050565b80356001600160401b038116811461509c57600080fd5b600060c082840312156151fb57600080fd5b615203614e12565b823581526020830135602082015260408301356040820152615227606084016151d2565b6060820152615238608084016151d2565b608082015261524960a084016151d2565b60a08201529392505050565b60008060006060848603121561526a57600080fd5b505081359360208301359350604090920135919050565b634e487b7160e01b600052603260045260246000fd5b6000602082840312156152a957600080fd5b612f138261508d565b634e487b7160e01b600052602160045260246000fd5b6020808252602e908201527f496e697469616c697a61626c653a20636f6e747261637420697320616c72656160408201526d191e481a5b9a5d1a585b1a5e995960921b606082015260800190565b60006020828403121561532857600080fd5b5051919050565b634e487b7160e01b600052601160045260246000fd5b808201808211156135ba576135ba61532f565b60006020828403121561536a57600080fd5b8151612f1381614f6d565b6001600160a01b03929092168252602082015260400190565b8051801515811461509c57600080fd5b6000602082840312156153b057600080fd5b612f138261538e565b805161509c81614f6d565b600060c082840312156153d657600080fd5b6153de614e12565b82516153e981614f6d565b815260208381015190820152604083015161540381614f6d565b80604083015250606083015160608201526080830151608082015260a08301516004811061524957600080fd5b80820281158282048414176135ba576135ba61532f565b634e487b7160e01b600052601260045260246000fd5b60008261546c5761546c615447565b500490565b60048110615481576154816152b2565b9052565b60018060a01b038151168252602081015160208301526040810151604083015260608101516154b76060840182615471565b505050565b60c081016154ca8286615485565b608082019390935260a00152919050565b80516001600160a01b031682526020810151602083015260408101516040830152606081015160608301526080810151608083015260a081015160a083015260c081015161552d60c084018215159052565b5060e08181015190830152610100808201519083015261012090810151910152565b8981526102408101615564602083018b6154db565b61557261016083018a615471565b87610180830152866101a0830152856101c0830152846101e0830152836102008301528215156102208301529a9950505050505050505050565b600c8110615481576154816152b2565b604081016155ca8285615471565b612f1360208301846155ac565b608081016135ba8284615485565b61020081016155f4828a6154db565b9615156101408201526101608101959095526101808501939093526101a08401919091526101c08301526101e090910152919050565b9384526020840192909252151560408301521515606082015260800190565b818103818111156135ba576135ba61532f565b602081016135ba82846155ac565b6001600160a01b039390931683526020830191909152604082015260600190565b60006101a0828403121561569e57600080fd5b6156a6614e48565b6156af836153b9565b8152602083015160208201526040830151604082015260608301516060820152608083015160808201526156e560a0840161538e565b60a082015260c0838101519082015260e080840151908201526101008084015190820152610120808401519082015261014080840151908201526101608084015190820152610180928301519281019290925250919050565b60006020828403121561575057600080fd5b815160038110612f1357600080fd5b61014081016135ba82846154db565b82815260408101612f1360208301846155ac565b6000610140828403121561579557600080fd5b61579d614e79565b90506157a8826153b9565b81526020820151602082015260408201516040820152606082015160608201526080820151608082015260a082015160a08201526157e860c0830161538e565b60c082015260e082015160e082015261010080830151818301525061012080830151818301525092915050565b6000610140828403121561582857600080fd5b612f138383615782565b600060c0828403121561584457600080fd5b61584c614e12565b825181526020830151602082015260408301516040820152606083015160608201526080830151608082015261524960a0840161538e565b80820260008212600160ff1b841416156158a0576158a061532f565b81810583148215176135ba576135ba61532f565b81810360008312801583831316838312821617156107d8576107d861532f565b6000826158e3576158e3615447565b600160ff1b8214600019841416156158fd576158fd61532f565b500590565b6001600160a01b0396909616865260208601949094526040850192909252606084015215156080830152151560a082015260c00190565b60006101e0828403121561594c57600080fd5b60405160c081018181106001600160401b038211171561597c57634e487b7160e01b600052604160045260246000fd5b6040526159898484615782565b81526101408301516020820152610160830151604082015261018083015160608201526101a083015160808201526101c09092015160a083015250919050565b600080604083850312156159dc57600080fd5b505080516020909101519092909150565b61020081016159fc82856154db565b82516101408301526020830151610160830152604083015161018083015260608301516101a083015260808301516101c083015260a083015115156101e0830152939250505056fe4628f3d38f72d5f9e077d3965e10cd3242ff1316aa2bf81f054c0dfb25408406a26469706673582212201f3ac248748aa0d331523f3f1d67a1d785288d1bc02614618330edd79969052764736f6c63430008110033",
  "linkReferences": {},
  "deployedLinkReferences": {}
}