{
  "_format": "hh-sol-artifact-1",
  "contractName": "GNSTradingStorage",
  "sourceName": "contracts/core/GNSTradingStorage.sol",
  "abi": [
    {
      "inputs": [],
      "stateMutability": "nonpayable",
      "type": "constructor"
    },
    {
      "anonymous": false,
      "inputs": [
        {
          "indexed": false,
          "internalType": "string",
          "name": "name",
          "type": "string"
        },
        {
          "indexed": false,
          "internalType": "address",
          "name": "a",
          "type": "address"
        }
      ],
      "name": "AddressUpdated",
      "type": "event"
    },
    {
      "anonymous": false,
      "inputs": [
        {
          "indexed": true,
          "internalType": "address",
          "name": "asset",
          "type": "address"
        },
        {
          "indexed": true,
          "internalType": "address",
          "name": "delegatee",
          "type": "address"
        },
        {
          "indexed": false,
          "internalType": "bool",
          "name": "success",
          "type": "bool"
        }
      ],
      "name": "Delegated",
      "type": "event"
    },
    {
      "anonymous": false,
      "inputs": [
        {
          "indexed": false,
          "internalType": "uint8",
          "name": "version",
          "type": "uint8"
        }
      ],
      "name": "Initialized",
      "type": "event"
    },
    {
      "anonymous": false,
      "inputs": [
        {
          "indexed": false,
          "internalType": "string",
          "name": "name",
          "type": "string"
        },
        {
          "indexed": false,
          "internalType": "uint256",
          "name": "value",
          "type": "uint256"
        }
      ],
      "name": "NumberUpdated",
      "type": "event"
    },
    {
      "anonymous": false,
      "inputs": [
        {
          "indexed": false,
          "internalType": "string",
          "name": "name",
          "type": "string"
        },
        {
          "indexed": false,
          "internalType": "uint256",
          "name": "pairIndex",
          "type": "uint256"
        },
        {
          "indexed": false,
          "internalType": "uint256",
          "name": "value",
          "type": "uint256"
        }
      ],
      "name": "NumberUpdatedPair",
      "type": "event"
    },
    {
      "anonymous": false,
      "inputs": [
        {
          "indexed": false,
          "internalType": "address",
          "name": "a",
          "type": "address"
        }
      ],
      "name": "TradingContractAdded",
      "type": "event"
    },
    {
      "anonymous": false,
      "inputs": [
        {
          "indexed": false,
          "internalType": "address",
          "name": "a",
          "type": "address"
        }
      ],
      "name": "TradingContractRemoved",
      "type": "event"
    },
    {
      "inputs": [],
      "name": "MINTER_ROLE",
      "outputs": [
        {
          "internalType": "bytes32",
          "name": "",
          "type": "bytes32"
        }
      ],
      "stateMutability": "view",
      "type": "function"
    },
    {
      "inputs": [],
      "name": "PRECISION",
      "outputs": [
        {
          "internalType": "uint256",
          "name": "",
          "type": "uint256"
        }
      ],
      "stateMutability": "view",
      "type": "function"
    },
    {
      "inputs": [
        {
          "internalType": "address",
          "name": "_trading",
          "type": "address"
        }
      ],
      "name": "addTradingContract",
      "outputs": [],
      "stateMutability": "nonpayable",
      "type": "function"
    },
    {
      "inputs": [],
      "name": "callbacks",
      "outputs": [
        {
          "internalType": "address",
          "name": "",
          "type": "address"
        }
      ],
      "stateMutability": "view",
      "type": "function"
    },
    {
      "inputs": [],
      "name": "dai",
      "outputs": [
        {
          "internalType": "contract IERC20",
          "name": "",
          "type": "address"
        }
      ],
      "stateMutability": "view",
      "type": "function"
    },
    {
      "inputs": [],
      "name": "dev",
      "outputs": [
        {
          "internalType": "address",
          "name": "",
          "type": "address"
        }
      ],
      "stateMutability": "view",
      "type": "function"
    },
    {
      "inputs": [],
      "name": "devFeesDai",
      "outputs": [
        {
          "internalType": "uint256",
          "name": "",
          "type": "uint256"
        }
      ],
      "stateMutability": "view",
      "type": "function"
    },
    {
      "inputs": [],
      "name": "devFeesToken",
      "outputs": [
        {
          "internalType": "uint256",
          "name": "",
          "type": "uint256"
        }
      ],
      "stateMutability": "view",
      "type": "function"
    },
    {
      "inputs": [
        {
          "internalType": "address",
          "name": "trader",
          "type": "address"
        },
        {
          "internalType": "uint256",
          "name": "pairIndex",
          "type": "uint256"
        }
      ],
      "name": "firstEmptyOpenLimitIndex",
      "outputs": [
        {
          "internalType": "uint256",
          "name": "index",
          "type": "uint256"
        }
      ],
      "stateMutability": "view",
      "type": "function"
    },
    {
      "inputs": [
        {
          "internalType": "address",
          "name": "trader",
          "type": "address"
        },
        {
          "internalType": "uint256",
          "name": "pairIndex",
          "type": "uint256"
        }
      ],
      "name": "firstEmptyTradeIndex",
      "outputs": [
        {
          "internalType": "uint256",
          "name": "index",
          "type": "uint256"
        }
      ],
      "stateMutability": "view",
      "type": "function"
    },
    {
      "inputs": [
        {
          "internalType": "address",
          "name": "_trader",
          "type": "address"
        },
        {
          "internalType": "uint256",
          "name": "_pairIndex",
          "type": "uint256"
        },
        {
          "internalType": "uint256",
          "name": "_index",
          "type": "uint256"
        }
      ],
      "name": "getOpenLimitOrder",
      "outputs": [
        {
          "components": [
            {
              "internalType": "address",
              "name": "trader",
              "type": "address"
            },
            {
              "internalType": "uint256",
              "name": "pairIndex",
              "type": "uint256"
            },
            {
              "internalType": "uint256",
              "name": "index",
              "type": "uint256"
            },
            {
              "internalType": "uint256",
              "name": "positionSize",
              "type": "uint256"
            },
            {
              "internalType": "uint256",
              "name": "spreadReductionP",
              "type": "uint256"
            },
            {
              "internalType": "bool",
              "name": "buy",
              "type": "bool"
            },
            {
              "internalType": "uint256",
              "name": "leverage",
              "type": "uint256"
            },
            {
              "internalType": "uint256",
              "name": "tp",
              "type": "uint256"
            },
            {
              "internalType": "uint256",
              "name": "sl",
              "type": "uint256"
            },
            {
              "internalType": "uint256",
              "name": "minPrice",
              "type": "uint256"
            },
            {
              "internalType": "uint256",
              "name": "maxPrice",
              "type": "uint256"
            },
            {
              "internalType": "uint256",
              "name": "block",
              "type": "uint256"
            },
            {
              "internalType": "uint256",
              "name": "tokenId",
              "type": "uint256"
            }
          ],
          "internalType": "struct GNSTradingStorage.OpenLimitOrder",
          "name": "",
          "type": "tuple"
        }
      ],
      "stateMutability": "view",
      "type": "function"
    },
    {
      "inputs": [],
      "name": "getOpenLimitOrders",
      "outputs": [
        {
          "components": [
            {
              "internalType": "address",
              "name": "trader",
              "type": "address"
            },
            {
              "internalType": "uint256",
              "name": "pairIndex",
              "type": "uint256"
            },
            {
              "internalType": "uint256",
              "name": "index",
              "type": "uint256"
            },
            {
              "internalType": "uint256",
              "name": "positionSize",
              "type": "uint256"
            },
            {
              "internalType": "uint256",
              "name": "spreadReductionP",
              "type": "uint256"
            },
            {
              "internalType": "bool",
              "name": "buy",
              "type": "bool"
            },
            {
              "internalType": "uint256",
              "name": "leverage",
              "type": "uint256"
            },
            {
              "internalType": "uint256",
              "name": "tp",
              "type": "uint256"
            },
            {
              "internalType": "uint256",
              "name": "sl",
              "type": "uint256"
            },
            {
              "internalType": "uint256",
              "name": "minPrice",
              "type": "uint256"
            },
            {
              "internalType": "uint256",
              "name": "maxPrice",
              "type": "uint256"
            },
            {
              "internalType": "uint256",
              "name": "block",
              "type": "uint256"
            },
            {
              "internalType": "uint256",
              "name": "tokenId",
              "type": "uint256"
            }
          ],
          "internalType": "struct GNSTradingStorage.OpenLimitOrder[]",
          "name": "",
          "type": "tuple[]"
        }
      ],
      "stateMutability": "view",
      "type": "function"
    },
    {
      "inputs": [
        {
          "internalType": "address",
          "name": "_trader",
          "type": "address"
        }
      ],
      "name": "getPendingOrderIds",
      "outputs": [
        {
          "internalType": "uint256[]",
          "name": "",
          "type": "uint256[]"
        }
      ],
      "stateMutability": "view",
      "type": "function"
    },
    {
      "inputs": [],
      "name": "gov",
      "outputs": [
        {
          "internalType": "address",
          "name": "",
          "type": "address"
        }
      ],
      "stateMutability": "view",
      "type": "function"
    },
    {
      "inputs": [],
      "name": "govFeesDai",
      "outputs": [
        {
          "internalType": "uint256",
          "name": "",
          "type": "uint256"
        }
      ],
      "stateMutability": "view",
      "type": "function"
    },
    {
      "inputs": [],
      "name": "govFeesToken",
      "outputs": [
        {
          "internalType": "uint256",
          "name": "",
          "type": "uint256"
        }
      ],
      "stateMutability": "view",
      "type": "function"
    },
    {
      "inputs": [
        {
          "internalType": "address",
          "name": "trader",
          "type": "address"
        },
        {
          "internalType": "uint256",
          "name": "pairIndex",
          "type": "uint256"
        },
        {
          "internalType": "uint256",
          "name": "index",
          "type": "uint256"
        }
      ],
      "name": "hasOpenLimitOrder",
      "outputs": [
        {
          "internalType": "bool",
          "name": "",
          "type": "bool"
        }
      ],
      "stateMutability": "view",
      "type": "function"
    },
    {
      "inputs": [
        {
          "internalType": "contract IERC20",
          "name": "_dai",
          "type": "address"
        },
        {
          "internalType": "contract IERC20",
          "name": "_linkErc677",
          "type": "address"
        },
        {
          "internalType": "contract IERC20",
          "name": "_token",
          "type": "address"
        },
        {
          "internalType": "address",
          "name": "_gov",
          "type": "address"
        }
      ],
      "name": "initialize",
      "outputs": [],
      "stateMutability": "nonpayable",
      "type": "function"
    },
    {
      "inputs": [
        {
          "internalType": "address",
          "name": "",
          "type": "address"
        }
      ],
      "name": "isTradingContract",
      "outputs": [
        {
          "internalType": "bool",
          "name": "",
          "type": "bool"
        }
      ],
      "stateMutability": "view",
      "type": "function"
    },
    {
      "inputs": [],
      "name": "linkErc677",
      "outputs": [
        {
          "internalType": "contract IERC20",
          "name": "",
          "type": "address"
        }
      ],
      "stateMutability": "view",
      "type": "function"
    },
    {
      "inputs": [],
      "name": "maxPendingMarketOrders",
      "outputs": [
        {
          "internalType": "uint256",
          "name": "",
          "type": "uint256"
        }
      ],
      "stateMutability": "view",
      "type": "function"
    },
    {
      "inputs": [],
      "name": "maxTradesPerPair",
      "outputs": [
        {
          "internalType": "uint256",
          "name": "",
          "type": "uint256"
        }
      ],
      "stateMutability": "view",
      "type": "function"
    },
    {
      "inputs": [
        {
          "internalType": "uint256",
          "name": "",
          "type": "uint256"
        }
      ],
      "name": "nftLastSuccess",
      "outputs": [
        {
          "internalType": "uint256",
          "name": "",
          "type": "uint256"
        }
      ],
      "stateMutability": "view",
      "type": "function"
    },
    {
      "inputs": [],
      "name": "nftRewards",
      "outputs": [
        {
          "internalType": "uint256",
          "name": "",
          "type": "uint256"
        }
      ],
      "stateMutability": "view",
      "type": "function"
    },
    {
      "inputs": [],
      "name": "nftSuccessTimelock",
      "outputs": [
        {
          "internalType": "uint256",
          "name": "",
          "type": "uint256"
        }
      ],
      "stateMutability": "view",
      "type": "function"
    },
    {
      "inputs": [
        {
          "internalType": "uint256",
          "name": "",
          "type": "uint256"
        }
      ],
      "name": "nfts",
      "outputs": [
        {
          "internalType": "address",
          "name": "",
          "type": "address"
        }
      ],
      "stateMutability": "view",
      "type": "function"
    },
    {
      "inputs": [
        {
          "internalType": "uint256",
          "name": "",
          "type": "uint256"
        },
        {
          "internalType": "uint256",
          "name": "",
          "type": "uint256"
        }
      ],
      "name": "openInterestDai",
      "outputs": [
        {
          "internalType": "uint256",
          "name": "",
          "type": "uint256"
        }
      ],
      "stateMutability": "view",
      "type": "function"
    },
    {
      "inputs": [
        {
          "internalType": "address",
          "name": "",
          "type": "address"
        },
        {
          "internalType": "uint256",
          "name": "",
          "type": "uint256"
        },
        {
          "internalType": "uint256",
          "name": "",
          "type": "uint256"
        }
      ],
      "name": "openLimitOrderIds",
      "outputs": [
        {
          "internalType": "uint256",
          "name": "",
          "type": "uint256"
        }
      ],
      "stateMutability": "view",
      "type": "function"
    },
    {
      "inputs": [
        {
          "internalType": "uint256",
          "name": "",
          "type": "uint256"
        }
      ],
      "name": "openLimitOrders",
      "outputs": [
        {
          "internalType": "address",
          "name": "trader",
          "type": "address"
        },
        {
          "internalType": "uint256",
          "name": "pairIndex",
          "type": "uint256"
        },
        {
          "internalType": "uint256",
          "name": "index",
          "type": "uint256"
        },
        {
          "internalType": "uint256",
          "name": "positionSize",
          "type": "uint256"
        },
        {
          "internalType": "uint256",
          "name": "spreadReductionP",
          "type": "uint256"
        },
        {
          "internalType": "bool",
          "name": "buy",
          "type": "bool"
        },
        {
          "internalType": "uint256",
          "name": "leverage",
          "type": "uint256"
        },
        {
          "internalType": "uint256",
          "name": "tp",
          "type": "uint256"
        },
        {
          "internalType": "uint256",
          "name": "sl",
          "type": "uint256"
        },
        {
          "internalType": "uint256",
          "name": "minPrice",
          "type": "uint256"
        },
        {
          "internalType": "uint256",
          "name": "maxPrice",
          "type": "uint256"
        },
        {
          "internalType": "uint256",
          "name": "block",
          "type": "uint256"
        },
        {
          "internalType": "uint256",
          "name": "tokenId",
          "type": "uint256"
        }
      ],
      "stateMutability": "view",
      "type": "function"
    },
    {
      "inputs": [
        {
          "internalType": "address",
          "name": "",
          "type": "address"
        },
        {
          "internalType": "uint256",
          "name": "",
          "type": "uint256"
        }
      ],
      "name": "openLimitOrdersCount",
      "outputs": [
        {
          "internalType": "uint256",
          "name": "",
          "type": "uint256"
        }
      ],
      "stateMutability": "view",
      "type": "function"
    },
    {
      "inputs": [
        {
          "internalType": "address",
          "name": "",
          "type": "address"
        },
        {
          "internalType": "uint256",
          "name": "",
          "type": "uint256"
        },
        {
          "internalType": "uint256",
          "name": "",
          "type": "uint256"
        }
      ],
      "name": "openTrades",
      "outputs": [
        {
          "internalType": "address",
          "name": "trader",
          "type": "address"
        },
        {
          "internalType": "uint256",
          "name": "pairIndex",
          "type": "uint256"
        },
        {
          "internalType": "uint256",
          "name": "index",
          "type": "uint256"
        },
        {
          "internalType": "uint256",
          "name": "initialPosToken",
          "type": "uint256"
        },
        {
          "internalType": "uint256",
          "name": "positionSizeDai",
          "type": "uint256"
        },
        {
          "internalType": "uint256",
          "name": "openPrice",
          "type": "uint256"
        },
        {
          "internalType": "bool",
          "name": "buy",
          "type": "bool"
        },
        {
          "internalType": "uint256",
          "name": "leverage",
          "type": "uint256"
        },
        {
          "internalType": "uint256",
          "name": "tp",
          "type": "uint256"
        },
        {
          "internalType": "uint256",
          "name": "sl",
          "type": "uint256"
        }
      ],
      "stateMutability": "view",
      "type": "function"
    },
    {
      "inputs": [
        {
          "internalType": "address",
          "name": "",
          "type": "address"
        },
        {
          "internalType": "uint256",
          "name": "",
          "type": "uint256"
        }
      ],
      "name": "openTradesCount",
      "outputs": [
        {
          "internalType": "uint256",
          "name": "",
          "type": "uint256"
        }
      ],
      "stateMutability": "view",
      "type": "function"
    },
    {
      "inputs": [
        {
          "internalType": "address",
          "name": "",
          "type": "address"
        },
        {
          "internalType": "uint256",
          "name": "",
          "type": "uint256"
        },
        {
          "internalType": "uint256",
          "name": "",
          "type": "uint256"
        }
      ],
      "name": "openTradesInfo",
      "outputs": [
        {
          "internalType": "uint256",
          "name": "tokenId",
          "type": "uint256"
        },
        {
          "internalType": "uint256",
          "name": "tokenPriceDai",
          "type": "uint256"
        },
        {
          "internalType": "uint256",
          "name": "openInterestDai",
          "type": "uint256"
        },
        {
          "internalType": "uint256",
          "name": "tpLastUpdated",
          "type": "uint256"
        },
        {
          "internalType": "uint256",
          "name": "slLastUpdated",
          "type": "uint256"
        },
        {
          "internalType": "bool",
          "name": "beingMarketClosed",
          "type": "bool"
        }
      ],
      "stateMutability": "view",
      "type": "function"
    },
    {
      "inputs": [
        {
          "internalType": "uint256",
          "name": "",
          "type": "uint256"
        },
        {
          "internalType": "uint256",
          "name": "",
          "type": "uint256"
        }
      ],
      "name": "pairTraders",
      "outputs": [
        {
          "internalType": "address",
          "name": "",
          "type": "address"
        }
      ],
      "stateMutability": "view",
      "type": "function"
    },
    {
      "inputs": [
        {
          "internalType": "uint256",
          "name": "_pairIndex",
          "type": "uint256"
        }
      ],
      "name": "pairTradersArray",
      "outputs": [
        {
          "internalType": "address[]",
          "name": "",
          "type": "address[]"
        }
      ],
      "stateMutability": "view",
      "type": "function"
    },
    {
      "inputs": [
        {
          "internalType": "address",
          "name": "",
          "type": "address"
        },
        {
          "internalType": "uint256",
          "name": "",
          "type": "uint256"
        }
      ],
      "name": "pairTradersId",
      "outputs": [
        {
          "internalType": "uint256",
          "name": "",
          "type": "uint256"
        }
      ],
      "stateMutability": "view",
      "type": "function"
    },
    {
      "inputs": [
        {
          "internalType": "address",
          "name": "",
          "type": "address"
        },
        {
          "internalType": "uint256",
          "name": "",
          "type": "uint256"
        }
      ],
      "name": "pendingMarketCloseCount",
      "outputs": [
        {
          "internalType": "uint256",
          "name": "",
          "type": "uint256"
        }
      ],
      "stateMutability": "view",
      "type": "function"
    },
    {
      "inputs": [
        {
          "internalType": "address",
          "name": "",
          "type": "address"
        },
        {
          "internalType": "uint256",
          "name": "",
          "type": "uint256"
        }
      ],
      "name": "pendingMarketOpenCount",
      "outputs": [
        {
          "internalType": "uint256",
          "name": "",
          "type": "uint256"
        }
      ],
      "stateMutability": "view",
      "type": "function"
    },
    {
      "inputs": [
        {
          "internalType": "address",
          "name": "",
          "type": "address"
        },
        {
          "internalType": "uint256",
          "name": "",
          "type": "uint256"
        }
      ],
      "name": "pendingOrderIds",
      "outputs": [
        {
          "internalType": "uint256",
          "name": "",
          "type": "uint256"
        }
      ],
      "stateMutability": "view",
      "type": "function"
    },
    {
      "inputs": [
        {
          "internalType": "address",
          "name": "_trader",
          "type": "address"
        }
      ],
      "name": "pendingOrderIdsCount",
      "outputs": [
        {
          "internalType": "uint256",
          "name": "",
          "type": "uint256"
        }
      ],
      "stateMutability": "view",
      "type": "function"
    },
    {
      "inputs": [],
      "name": "pool",
      "outputs": [
        {
          "internalType": "address",
          "name": "",
          "type": "address"
        }
      ],
      "stateMutability": "view",
      "type": "function"
    },
    {
      "inputs": [],
      "name": "priceAggregator",
      "outputs": [
        {
          "internalType": "contract IGNSPriceAggregator",
          "name": "",
          "type": "address"
        }
      ],
      "stateMutability": "view",
      "type": "function"
    },
    {
      "inputs": [
        {
          "internalType": "address",
          "name": "_trading",
          "type": "address"
        }
      ],
      "name": "removeTradingContract",
      "outputs": [],
      "stateMutability": "nonpayable",
      "type": "function"
    },
    {
      "inputs": [
        {
          "internalType": "uint256",
          "name": "",
          "type": "uint256"
        }
      ],
      "name": "reqID_pendingMarketOrder",
      "outputs": [
        {
          "components": [
            {
              "internalType": "address",
              "name": "trader",
              "type": "address"
            },
            {
              "internalType": "uint256",
              "name": "pairIndex",
              "type": "uint256"
            },
            {
              "internalType": "uint256",
              "name": "index",
              "type": "uint256"
            },
            {
              "internalType": "uint256",
              "name": "initialPosToken",
              "type": "uint256"
            },
            {
              "internalType": "uint256",
              "name": "positionSizeDai",
              "type": "uint256"
            },
            {
              "internalType": "uint256",
              "name": "openPrice",
              "type": "uint256"
            },
            {
              "internalType": "bool",
              "name": "buy",
              "type": "bool"
            },
            {
              "internalType": "uint256",
              "name": "leverage",
              "type": "uint256"
            },
            {
              "internalType": "uint256",
              "name": "tp",
              "type": "uint256"
            },
            {
              "internalType": "uint256",
              "name": "sl",
              "type": "uint256"
            }
          ],
          "internalType": "struct GNSTradingStorage.Trade",
          "name": "trade",
          "type": "tuple"
        },
        {
          "internalType": "uint256",
          "name": "block",
          "type": "uint256"
        },
        {
          "internalType": "uint256",
          "name": "wantedPrice",
          "type": "uint256"
        },
        {
          "internalType": "uint256",
          "name": "slippageP",
          "type": "uint256"
        },
        {
          "internalType": "uint256",
          "name": "spreadReductionP",
          "type": "uint256"
        },
        {
          "internalType": "uint256",
          "name": "tokenId",
          "type": "uint256"
        }
      ],
      "stateMutability": "view",
      "type": "function"
    },
    {
      "inputs": [
        {
          "internalType": "uint256",
          "name": "",
          "type": "uint256"
        }
      ],
      "name": "reqID_pendingNftOrder",
      "outputs": [
        {
          "internalType": "address",
          "name": "nftHolder",
          "type": "address"
        },
        {
          "internalType": "uint256",
          "name": "nftId",
          "type": "uint256"
        },
        {
          "internalType": "address",
          "name": "trader",
          "type": "address"
        },
        {
          "internalType": "uint256",
          "name": "pairIndex",
          "type": "uint256"
        },
        {
          "internalType": "uint256",
          "name": "index",
          "type": "uint256"
        },
        {
          "internalType": "enum GNSTradingStorage.LimitOrder",
          "name": "orderType",
          "type": "uint8"
        }
      ],
      "stateMutability": "view",
      "type": "function"
    },
    {
      "inputs": [
        {
          "internalType": "address",
          "name": "_callbacks",
          "type": "address"
        }
      ],
      "name": "setCallbacks",
      "outputs": [],
      "stateMutability": "nonpayable",
      "type": "function"
    },
    {
      "inputs": [
        {
          "internalType": "address",
          "name": "_delegatee",
          "type": "address"
        }
      ],
      "name": "setDelegatee",
      "outputs": [],
      "stateMutability": "nonpayable",
      "type": "function"
    },
    {
      "inputs": [
        {
          "internalType": "address",
          "name": "_gov",
          "type": "address"
        }
      ],
      "name": "setGov",
      "outputs": [],
      "stateMutability": "nonpayable",
      "type": "function"
    },
    {
      "inputs": [
        {
          "internalType": "uint256",
          "name": "_maxPendingMarketOrders",
          "type": "uint256"
        }
      ],
      "name": "setMaxPendingMarketOrders",
      "outputs": [],
      "stateMutability": "nonpayable",
      "type": "function"
    },
    {
      "inputs": [
        {
          "internalType": "uint256",
          "name": "_maxTradesPerPair",
          "type": "uint256"
        }
      ],
      "name": "setMaxTradesPerPair",
      "outputs": [],
      "stateMutability": "nonpayable",
      "type": "function"
    },
    {
      "inputs": [
        {
          "internalType": "address",
          "name": "_aggregator",
          "type": "address"
        }
      ],
      "name": "setPriceAggregator",
      "outputs": [],
      "stateMutability": "nonpayable",
      "type": "function"
    },
    {
      "inputs": [
        {
          "internalType": "address",
          "name": "_vault",
          "type": "address"
        }
      ],
      "name": "setVault",
      "outputs": [],
      "stateMutability": "nonpayable",
      "type": "function"
    },
    {
      "inputs": [
        {
          "internalType": "uint256",
          "name": "",
          "type": "uint256"
        }
      ],
      "name": "spreadReductionsP",
      "outputs": [
        {
          "internalType": "uint256",
          "name": "",
          "type": "uint256"
        }
      ],
      "stateMutability": "view",
      "type": "function"
    },
    {
      "inputs": [
        {
          "components": [
            {
              "internalType": "address",
              "name": "trader",
              "type": "address"
            },
            {
              "internalType": "uint256",
              "name": "pairIndex",
              "type": "uint256"
            },
            {
              "internalType": "uint256",
              "name": "index",
              "type": "uint256"
            },
            {
              "internalType": "uint256",
              "name": "positionSize",
              "type": "uint256"
            },
            {
              "internalType": "uint256",
              "name": "spreadReductionP",
              "type": "uint256"
            },
            {
              "internalType": "bool",
              "name": "buy",
              "type": "bool"
            },
            {
              "internalType": "uint256",
              "name": "leverage",
              "type": "uint256"
            },
            {
              "internalType": "uint256",
              "name": "tp",
              "type": "uint256"
            },
            {
              "internalType": "uint256",
              "name": "sl",
              "type": "uint256"
            },
            {
              "internalType": "uint256",
              "name": "minPrice",
              "type": "uint256"
            },
            {
              "internalType": "uint256",
              "name": "maxPrice",
              "type": "uint256"
            },
            {
              "internalType": "uint256",
              "name": "block",
              "type": "uint256"
            },
            {
              "internalType": "uint256",
              "name": "tokenId",
              "type": "uint256"
            }
          ],
          "internalType": "struct GNSTradingStorage.OpenLimitOrder",
          "name": "o",
          "type": "tuple"
        }
      ],
      "name": "storeOpenLimitOrder",
      "outputs": [],
      "stateMutability": "nonpayable",
      "type": "function"
    },
    {
      "inputs": [
        {
          "components": [
            {
              "components": [
                {
                  "internalType": "address",
                  "name": "trader",
                  "type": "address"
                },
                {
                  "internalType": "uint256",
                  "name": "pairIndex",
                  "type": "uint256"
                },
                {
                  "internalType": "uint256",
                  "name": "index",
                  "type": "uint256"
                },
                {
                  "internalType": "uint256",
                  "name": "initialPosToken",
                  "type": "uint256"
                },
                {
                  "internalType": "uint256",
                  "name": "positionSizeDai",
                  "type": "uint256"
                },
                {
                  "internalType": "uint256",
                  "name": "openPrice",
                  "type": "uint256"
                },
                {
                  "internalType": "bool",
                  "name": "buy",
                  "type": "bool"
                },
                {
                  "internalType": "uint256",
                  "name": "leverage",
                  "type": "uint256"
                },
                {
                  "internalType": "uint256",
                  "name": "tp",
                  "type": "uint256"
                },
                {
                  "internalType": "uint256",
                  "name": "sl",
                  "type": "uint256"
                }
              ],
              "internalType": "struct GNSTradingStorage.Trade",
              "name": "trade",
              "type": "tuple"
            },
            {
              "internalType": "uint256",
              "name": "block",
              "type": "uint256"
            },
            {
              "internalType": "uint256",
              "name": "wantedPrice",
              "type": "uint256"
            },
            {
              "internalType": "uint256",
              "name": "slippageP",
              "type": "uint256"
            },
            {
              "internalType": "uint256",
              "name": "spreadReductionP",
              "type": "uint256"
            },
            {
              "internalType": "uint256",
              "name": "tokenId",
              "type": "uint256"
            }
          ],
          "internalType": "struct GNSTradingStorage.PendingMarketOrder",
          "name": "_order",
          "type": "tuple"
        },
        {
          "internalType": "uint256",
          "name": "_id",
          "type": "uint256"
        },
        {
          "internalType": "bool",
          "name": "_open",
          "type": "bool"
        }
      ],
      "name": "storePendingMarketOrder",
      "outputs": [],
      "stateMutability": "nonpayable",
      "type": "function"
    },
    {
      "inputs": [
        {
          "components": [
            {
              "internalType": "address",
              "name": "nftHolder",
              "type": "address"
            },
            {
              "internalType": "uint256",
              "name": "nftId",
              "type": "uint256"
            },
            {
              "internalType": "address",
              "name": "trader",
              "type": "address"
            },
            {
              "internalType": "uint256",
              "name": "pairIndex",
              "type": "uint256"
            },
            {
              "internalType": "uint256",
              "name": "index",
              "type": "uint256"
            },
            {
              "internalType": "enum GNSTradingStorage.LimitOrder",
              "name": "orderType",
              "type": "uint8"
            }
          ],
          "internalType": "struct GNSTradingStorage.PendingNftOrder",
          "name": "_nftOrder",
          "type": "tuple"
        },
        {
          "internalType": "uint256",
          "name": "_orderId",
          "type": "uint256"
        }
      ],
      "name": "storePendingNftOrder",
      "outputs": [],
      "stateMutability": "nonpayable",
      "type": "function"
    },
    {
      "inputs": [
        {
          "components": [
            {
              "internalType": "address",
              "name": "trader",
              "type": "address"
            },
            {
              "internalType": "uint256",
              "name": "pairIndex",
              "type": "uint256"
            },
            {
              "internalType": "uint256",
              "name": "index",
              "type": "uint256"
            },
            {
              "internalType": "uint256",
              "name": "initialPosToken",
              "type": "uint256"
            },
            {
              "internalType": "uint256",
              "name": "positionSizeDai",
              "type": "uint256"
            },
            {
              "internalType": "uint256",
              "name": "openPrice",
              "type": "uint256"
            },
            {
              "internalType": "bool",
              "name": "buy",
              "type": "bool"
            },
            {
              "internalType": "uint256",
              "name": "leverage",
              "type": "uint256"
            },
            {
              "internalType": "uint256",
              "name": "tp",
              "type": "uint256"
            },
            {
              "internalType": "uint256",
              "name": "sl",
              "type": "uint256"
            }
          ],
          "internalType": "struct GNSTradingStorage.Trade",
          "name": "_trade",
          "type": "tuple"
        },
        {
          "components": [
            {
              "internalType": "uint256",
              "name": "tokenId",
              "type": "uint256"
            },
            {
              "internalType": "uint256",
              "name": "tokenPriceDai",
              "type": "uint256"
            },
            {
              "internalType": "uint256",
              "name": "openInterestDai",
              "type": "uint256"
            },
            {
              "internalType": "uint256",
              "name": "tpLastUpdated",
              "type": "uint256"
            },
            {
              "internalType": "uint256",
              "name": "slLastUpdated",
              "type": "uint256"
            },
            {
              "internalType": "bool",
              "name": "beingMarketClosed",
              "type": "bool"
            }
          ],
          "internalType": "struct GNSTradingStorage.TradeInfo",
          "name": "_tradeInfo",
          "type": "tuple"
        }
      ],
      "name": "storeTrade",
      "outputs": [],
      "stateMutability": "nonpayable",
      "type": "function"
    },
    {
      "inputs": [
        {
          "internalType": "uint256",
          "name": "",
          "type": "uint256"
        }
      ],
      "name": "supportedTokens",
      "outputs": [
        {
          "internalType": "address",
          "name": "",
          "type": "address"
        }
      ],
      "stateMutability": "view",
      "type": "function"
    },
    {
      "inputs": [],
      "name": "token",
      "outputs": [
        {
          "internalType": "contract IERC20",
          "name": "",
          "type": "address"
        }
      ],
      "stateMutability": "view",
      "type": "function"
    },
    {
      "inputs": [],
      "name": "tokensBurned",
      "outputs": [
        {
          "internalType": "uint256",
          "name": "",
          "type": "uint256"
        }
      ],
      "stateMutability": "view",
      "type": "function"
    },
    {
      "inputs": [],
      "name": "tokensMinted",
      "outputs": [
        {
          "internalType": "uint256",
          "name": "",
          "type": "uint256"
        }
      ],
      "stateMutability": "view",
      "type": "function"
    },
    {
      "inputs": [],
      "name": "trading",
      "outputs": [
        {
          "internalType": "address",
          "name": "",
          "type": "address"
        }
      ],
      "stateMutability": "view",
      "type": "function"
    },
    {
      "inputs": [
        {
          "internalType": "address",
          "name": "_from",
          "type": "address"
        },
        {
          "internalType": "address",
          "name": "_to",
          "type": "address"
        },
        {
          "internalType": "uint256",
          "name": "_amount",
          "type": "uint256"
        }
      ],
      "name": "transferDai",
      "outputs": [],
      "stateMutability": "nonpayable",
      "type": "function"
    },
    {
      "inputs": [
        {
          "internalType": "address",
          "name": "_from",
          "type": "address"
        },
        {
          "internalType": "uint256",
          "name": "_pairIndex",
          "type": "uint256"
        },
        {
          "internalType": "uint256",
          "name": "_leveragedPosDai",
          "type": "uint256"
        }
      ],
      "name": "transferLinkToAggregator",
      "outputs": [],
      "stateMutability": "nonpayable",
      "type": "function"
    },
    {
      "inputs": [
        {
          "internalType": "address",
          "name": "_trader",
          "type": "address"
        },
        {
          "internalType": "uint256",
          "name": "_pairIndex",
          "type": "uint256"
        },
        {
          "internalType": "uint256",
          "name": "_index",
          "type": "uint256"
        }
      ],
      "name": "unregisterOpenLimitOrder",
      "outputs": [],
      "stateMutability": "nonpayable",
      "type": "function"
    },
    {
      "inputs": [
        {
          "internalType": "uint256",
          "name": "_id",
          "type": "uint256"
        },
        {
          "internalType": "bool",
          "name": "_open",
          "type": "bool"
        }
      ],
      "name": "unregisterPendingMarketOrder",
      "outputs": [],
      "stateMutability": "nonpayable",
      "type": "function"
    },
    {
      "inputs": [
        {
          "internalType": "uint256",
          "name": "_order",
          "type": "uint256"
        }
      ],
      "name": "unregisterPendingNftOrder",
      "outputs": [],
      "stateMutability": "nonpayable",
      "type": "function"
    },
    {
      "inputs": [
        {
          "internalType": "address",
          "name": "trader",
          "type": "address"
        },
        {
          "internalType": "uint256",
          "name": "pairIndex",
          "type": "uint256"
        },
        {
          "internalType": "uint256",
          "name": "index",
          "type": "uint256"
        }
      ],
      "name": "unregisterTrade",
      "outputs": [],
      "stateMutability": "nonpayable",
      "type": "function"
    },
    {
      "inputs": [
        {
          "components": [
            {
              "internalType": "address",
              "name": "trader",
              "type": "address"
            },
            {
              "internalType": "uint256",
              "name": "pairIndex",
              "type": "uint256"
            },
            {
              "internalType": "uint256",
              "name": "index",
              "type": "uint256"
            },
            {
              "internalType": "uint256",
              "name": "positionSize",
              "type": "uint256"
            },
            {
              "internalType": "uint256",
              "name": "spreadReductionP",
              "type": "uint256"
            },
            {
              "internalType": "bool",
              "name": "buy",
              "type": "bool"
            },
            {
              "internalType": "uint256",
              "name": "leverage",
              "type": "uint256"
            },
            {
              "internalType": "uint256",
              "name": "tp",
              "type": "uint256"
            },
            {
              "internalType": "uint256",
              "name": "sl",
              "type": "uint256"
            },
            {
              "internalType": "uint256",
              "name": "minPrice",
              "type": "uint256"
            },
            {
              "internalType": "uint256",
              "name": "maxPrice",
              "type": "uint256"
            },
            {
              "internalType": "uint256",
              "name": "block",
              "type": "uint256"
            },
            {
              "internalType": "uint256",
              "name": "tokenId",
              "type": "uint256"
            }
          ],
          "internalType": "struct GNSTradingStorage.OpenLimitOrder",
          "name": "_o",
          "type": "tuple"
        }
      ],
      "name": "updateOpenLimitOrder",
      "outputs": [],
      "stateMutability": "nonpayable",
      "type": "function"
    },
    {
      "inputs": [
        {
          "internalType": "address",
          "name": "_trader",
          "type": "address"
        },
        {
          "internalType": "uint256",
          "name": "_pairIndex",
          "type": "uint256"
        },
        {
          "internalType": "uint256",
          "name": "_index",
          "type": "uint256"
        },
        {
          "internalType": "uint256",
          "name": "_newSl",
          "type": "uint256"
        }
      ],
      "name": "updateSl",
      "outputs": [],
      "stateMutability": "nonpayable",
      "type": "function"
    },
    {
      "inputs": [
        {
          "internalType": "address",
          "name": "_trader",
          "type": "address"
        },
        {
          "internalType": "uint256",
          "name": "_pairIndex",
          "type": "uint256"
        },
        {
          "internalType": "uint256",
          "name": "_index",
          "type": "uint256"
        },
        {
          "internalType": "uint256",
          "name": "_newTp",
          "type": "uint256"
        }
      ],
      "name": "updateTp",
      "outputs": [],
      "stateMutability": "nonpayable",
      "type": "function"
    },
    {
      "inputs": [
        {
          "components": [
            {
              "internalType": "address",
              "name": "trader",
              "type": "address"
            },
            {
              "internalType": "uint256",
              "name": "pairIndex",
              "type": "uint256"
            },
            {
              "internalType": "uint256",
              "name": "index",
              "type": "uint256"
            },
            {
              "internalType": "uint256",
              "name": "initialPosToken",
              "type": "uint256"
            },
            {
              "internalType": "uint256",
              "name": "positionSizeDai",
              "type": "uint256"
            },
            {
              "internalType": "uint256",
              "name": "openPrice",
              "type": "uint256"
            },
            {
              "internalType": "bool",
              "name": "buy",
              "type": "bool"
            },
            {
              "internalType": "uint256",
              "name": "leverage",
              "type": "uint256"
            },
            {
              "internalType": "uint256",
              "name": "tp",
              "type": "uint256"
            },
            {
              "internalType": "uint256",
              "name": "sl",
              "type": "uint256"
            }
          ],
          "internalType": "struct GNSTradingStorage.Trade",
          "name": "_t",
          "type": "tuple"
        }
      ],
      "name": "updateTrade",
      "outputs": [],
      "stateMutability": "nonpayable",
      "type": "function"
    },
    {
      "inputs": [],
      "name": "vault",
      "outputs": [
        {
          "internalType": "address",
          "name": "",
          "type": "address"
        }
      ],
      "stateMutability": "view",
      "type": "function"
    }
  ],
  "bytecode": "0x60806040523480156200001157600080fd5b506200001c62000022565b620000e3565b600054610100900460ff16156200008f5760405162461bcd60e51b815260206004820152602760248201527f496e697469616c697a61626c653a20636f6e747261637420697320696e697469604482015266616c697a696e6760c81b606482015260840160405180910390fd5b60005460ff90811614620000e1576000805460ff191660ff9081179091556040519081527f7f26b83ff96e1f2b6a682f133852f6798a09c465da95921460cefb38474024989060200160405180910390a15b565b61455780620000f36000396000f3fe608060405234801561001057600080fd5b50600436106104325760003560e01c8063aa3b7d7711610236578063e3cbe3a71161013b578063f65d9dbe116100c3578063fbfa77cf11610087578063fbfa77cf14610cc7578063fc0c546a14610cda578063fdb5941314610ced578063fe0fc8d614610cf6578063fece4eac14610d0957600080fd5b8063f65d9dbe14610c66578063f7b3c6fd14610c6f578063f823e2ae14610c98578063f8c8765e14610cab578063f8d24b4814610cbe57600080fd5b8063ec44acf21161010a578063ec44acf214610bed578063ecf56a1f14610c00578063eda00d5414610c13578063ee92a4ff14610c44578063f4b9fa7514610c4d57600080fd5b8063e3cbe3a714610bb5578063e7873b5814610bc8578063e842a64b14610bd1578063ea5c3c3314610be457600080fd5b8063c6255626116101be578063d3b5fe701161018d578063d3b5fe7014610b54578063d4bda90814610b67578063d539139314610b7a578063dc2123ff14610b8f578063dcdf339a14610ba257600080fd5b8063c625562614610b08578063c76faf7814610b1b578063cab9458014610b2e578063cfad57a214610b4157600080fd5b8063b767608a11610205578063b767608a14610a84578063b7682d5414610a97578063b8878a2c14610ac2578063bcc9f1d314610ae2578063c311ab3114610af557600080fd5b8063aa3b7d7714610973578063aaf5eb6814610993578063b4b0f5671461099f578063b66e6b05146109b257600080fd5b80635fbfe8cc1161033c5780638a0bd702116102c457806397e7995a1161029357806397e7995a146107d257806399794d35146107fd5780639c8912f114610861578063a35441811461088c578063a3a80ffe1461089f57600080fd5b80638a0bd702146107135780638c8ff1d51461072857806390d112b9146107ac57806391cca3db146107bf57600080fd5b80636de9f32b1161030b5780636de9f32b146106c85780636e70e7b6146106d15780637fdb96f3146106e45780638049fde7146106f7578063817fa1a41461070057600080fd5b80635fbfe8cc1461064f5780636690a8061461066f5780636817031b146106825780636d81d9811461069557600080fd5b80633078fff5116103bf57806344d44f5a1161038e57806344d44f5a146105ed5780635070e837146106005780635ad9f993146106135780635b621e321461061c5780635c76ac9e1461062f57600080fd5b80633078fff51461051d57806332149592146105305780633dae10a0146105af5780634415b369146105c257600080fd5b80631c8636b4116104065780631c8636b4146104a4578063201d8bdb146104cf578063265aa621146104e457806328daca21146104f7578063292c16171461050a57600080fd5b8062b127831461043757806312d43a511461046757806316f0115b1461047a57806318407fe01461048d575b600080fd5b60055461044a906001600160a01b031681565b6040516001600160a01b0390911681526020015b60405180910390f35b60155461044a906001600160a01b031681565b60035461044a906001600160a01b031681565b610496601a5481565b60405190815260200161045e565b6104966104b2366004613b3f565b602160209081526000928352604080842090915290825290205481565b6104e26104dd366004613b6b565b610d1c565b005b61044a6104f2366004613b6b565b610e0c565b610496610505366004613b84565b610e2c565b610496610518366004613b3f565b610e51565b60025461044a906001600160a01b031681565b61054361053e366004613b6b565b610eb3565b604080516001600160a01b03909e168e5260208e019c909c529a8c019990995260608b019790975260808a019590955292151560a089015260c088019190915260e08701526101008601526101208501526101408401526101608301526101808201526101a00161045e565b6104966105bd366004613b6b565b610f3a565b6104966105d0366004613b3f565b602b60209081526000928352604080842090915290825290205481565b6104966105fb366004613b3f565b610f51565b6104e261060e366004613ba6565b610f86565b610496601d5481565b6104e261062a366004613ba6565b61101d565b61064261063d366004613ba6565b611098565b60405161045e9190613bc3565b61066261065d366004613b6b565b611104565b60405161045e9190613c07565b6104e261067d366004613c48565b61116f565b6104e2610690366004613ba6565b6112a8565b6106b86106a3366004613ba6565b602e6020526000908152604090205460ff1681565b604051901515815260200161045e565b610496601c5481565b6104e26106df366004613c7d565b61132e565b6104e26106f2366004613cbe565b61141d565b610496600e5481565b6104e261070e366004613d94565b61152e565b61071b61166e565b60405161045e9190613eb9565b61077d610736366004613c48565b602080805260009384526040808520825292845282842090528252902080546001820154600283015460038401546004850154600590950154939492939192909160ff1686565b6040805196875260208701959095529385019290925260608401526080830152151560a082015260c00161045e565b6104e26107ba366004613c48565b61175d565b60165461044a906001600160a01b031681565b6104966107e0366004613b3f565b602360209081526000928352604080842090915290825290205481565b61084f61080b366004613b6b565b6026602052600090815260409020805460018201546002830154600384015460048501546005909501546001600160a01b0394851695939490921692909160ff1686565b60405161045e96959493929190613f12565b61049661086f366004613b3f565b602860209081526000928352604080842090915290825290205481565b6104e261089a366004613cbe565b611acb565b61091d6108ad366004613c48565b601f60209081526000938452604080852082529284528284209052825290208054600182015460028301546003840154600485015460058601546006870154600788015460088901546009909901546001600160a01b03909816989697959694959394929360ff9092169290918a565b604080516001600160a01b03909b168b5260208b0199909952978901969096526060880194909452608087019290925260a0860152151560c085015260e08401526101008301526101208201526101400161045e565b610496610981366004613b6b565b602d6020526000908152604090205481565b6104966402540be40081565b6104e26109ad366004613c48565b611bdb565b610a726109c0366004613b6b565b60256020908152600091825260409182902082516101408101845281546001600160a01b031681526001820154928101929092526002810154928201929092526003820154606082015260048201546080820152600582015460a0820152600682015460ff16151560c0820152600782015460e082015260088201546101008201526009820154610120820152600a820154600b830154600c840154600d850154600e90950154939492939192909186565b60405161045e96959493929190613f6e565b6104e2610a92366004614014565b611f5c565b610496610aa5366004613b3f565b602960209081526000928352604080842090915290825290205481565b610ad5610ad0366004613c48565b612100565b60405161045e919061402d565b610496610af0366004613b3f565b612284565b6104e2610b033660046140ee565b6122b5565b61044a610b16366004613b6b565b612579565b6104e2610b2936600461417e565b6125a3565b6104e2610b3c366004614210565b6127f9565b6104e2610b4f366004613ba6565b612b6d565b6104e2610b62366004614240565b612bf1565b6104e2610b753660046142f3565b612f7c565b61049660008051602061450283398151915281565b6104e2610b9d366004613b6b565b61308e565b6106b8610bb0366004613c48565b613111565b61044a610bc3366004613b84565b6131b0565b610496601b5481565b6104e2610bdf366004613ba6565b6131e8565b61049660185481565b60045461044a906001600160a01b031681565b6104e2610c0e366004613b6b565b613262565b610496610c21366004613c48565b602260209081526000938452604080852082529284528284209052825290205481565b61049660175481565b60005461044a906201000090046001600160a01b031681565b610496600d5481565b610496610c7d366004613ba6565b6001600160a01b031660009081526027602052604090205490565b6104e2610ca6366004613ba6565b6132eb565b6104e2610cb9366004614310565b613423565b610496600f5481565b600c5461044a906001600160a01b031681565b60065461044a906001600160a01b031681565b61049660195481565b6104e2610d04366004613ba6565b613619565b60015461044a906001600160a01b031681565b336000908152602e602052604090205460ff168015610db75750600654604051632474521560e21b81526001600160a01b03909116906391d1485490610d769060008051602061450283398151915290339060040161436c565b602060405180830381865afa158015610d93573d6000803e3d6000fd5b505050506040513d601f19601f82011682018060405250810190610db79190614383565b610dc057600080fd5b600090815260266020526040812080546001600160a01b03199081168255600182018390556002820180549091169055600381018290556004810191909155600501805460ff19169055565b60078160058110610e1c57600080fd5b01546001600160a01b0316905081565b602c6020528160005260406000208160038110610e4857600080fd5b01549150829050565b6000805b600d54811015610eac576001600160a01b0384166000908152601f6020908152604080832086845282528083208484529091528120600701549003610e9c57809150610eac565b610ea5816143b6565b9050610e55565b5092915050565b60248181548110610ec357600080fd5b60009182526020909120600d9091020180546001820154600283015460038401546004850154600586015460068701546007880154600889015460098a0154600a8b0154600b8c0154600c909c01546001600160a01b03909b169c50989a97999698959760ff90951696939592949193909291908d565b60108160058110610f4a57600080fd5b0154905081565b6000805b600d54811015610eac57610f6a848483613111565b610f7657809150610eac565b610f7f816143b6565b9050610f55565b6015546001600160a01b03163314610f9d57600080fd5b6001600160a01b038116610fb057600080fd5b600280546001600160a01b0319166001600160a01b03831690811790915560408051818152600f918101919091526e383934b1b2a0b3b3b932b3b0ba37b960891b606082015260208101919091526000805160206144e2833981519152906080015b60405180910390a150565b6015546001600160a01b0316331461103457600080fd5b6001600160a01b03811661104757600080fd5b6001600160a01b0381166000818152602e6020908152604091829020805460ff1916905590519182527ff9cf924d7d98e6e0a27ec523cd7214b0bbdfaba197018b33b41a702f5238190e9101611012565b6001600160a01b0381166000908152602760209081526040918290208054835181840281018401909452808452606093928301828280156110f857602002820191906000526020600020905b8154815260200190600101908083116110e4575b50505050509050919050565b6000818152602a60209081526040918290208054835181840281018401909452808452606093928301828280156110f857602002820191906000526020600020905b81546001600160a01b031681526001909101906020018083116111465750505050509050919050565b336000908152602e602052604090205460ff16801561120a5750600654604051632474521560e21b81526001600160a01b03909116906391d14854906111c99060008051602061450283398151915290339060040161436c565b602060405180830381865afa1580156111e6573d6000803e3d6000fd5b505050506040513d601f19601f8201168201806040525081019061120a9190614383565b61121357600080fd5b60025460405163b9e0336f60e01b815260048101849052602481018390526112a39185916001600160a01b0390911690819063b9e0336f90604401602060405180830381865afa15801561126b573d6000803e3d6000fd5b505050506040513d601f19601f8201168201806040525081019061128f91906143cf565b6001546001600160a01b03169291906136a3565b505050565b6015546001600160a01b031633146112bf57600080fd5b6001600160a01b0381166112d257600080fd5b600c80546001600160a01b0319166001600160a01b03831690811790915560408051818152600591810191909152641d985d5b1d60da1b606082015260208101919091526000805160206144e283398151915290608001611012565b336000908152602e602052604090205460ff1680156113c95750600654604051632474521560e21b81526001600160a01b03909116906391d14854906113889060008051602061450283398151915290339060040161436c565b602060405180830381865afa1580156113a5573d6000803e3d6000fd5b505050506040513d601f19601f820116820180604052508101906113c99190614383565b6113d257600080fd5b306001600160a01b038416036113ff576000546112a3906201000090046001600160a01b0316838361370e565b6000546112a3906201000090046001600160a01b03168484846136a3565b336000908152602e602052604090205460ff1680156114b85750600654604051632474521560e21b81526001600160a01b03909116906391d14854906114779060008051602061450283398151915290339060040161436c565b602060405180830381865afa158015611494573d6000803e3d6000fd5b505050506040513d601f19601f820116820180604052508101906114b89190614383565b6114c157600080fd5b6001600160a01b0384166000818152601f6020908152604080832087845282528083208684528252808320938352818052808320878452825280832086845290915281206007830154909103611518575050611528565b6008909101829055436003909101555b50505050565b336000908152602e602052604090205460ff1680156115c95750600654604051632474521560e21b81526001600160a01b03909116906391d14854906115889060008051602061450283398151915290339060040161436c565b602060405180830381865afa1580156115a5573d6000803e3d6000fd5b505050506040513d601f19601f820116820180604052508101906115c99190614383565b6115d257600080fd5b600081815260266020908152604091829020845181546001600160a01b03199081166001600160a01b03928316178355928601516001808401919091559386015160028301805490941691161790915560608401516003808301919091556080850151600483015560a085015160058301805487959293919260ff1990911691849081111561166357611663613efc565b021790555050505050565b60606024805480602002602001604051908101604052809291908181526020016000905b82821015611754576000848152602090819020604080516101a081018252600d860290920180546001600160a01b03168352600180820154848601526002820154928401929092526003810154606084015260048101546080840152600581015460ff16151560a0840152600681015460c0840152600781015460e084015260088101546101008401526009810154610120840152600a810154610140840152600b810154610160840152600c01546101808301529083529092019101611692565b50505050905090565b336000908152602e602052604090205460ff1680156117f85750600654604051632474521560e21b81526001600160a01b03909116906391d14854906117b79060008051602061450283398151915290339060040161436c565b602060405180830381865afa1580156117d4573d6000803e3d6000fd5b505050506040513d601f19601f820116820180604052508101906117f89190614383565b61180157600080fd5b6001600160a01b0383166000818152601f6020908152604080832086845282528083208584528252808320938352818052808320868452825280832085845290915281206007830154909103611858575050505050565b6002810154600683015461187391869160009060ff1661373e565b6001600160a01b03851660009081526021602090815260408083208784529091529020546001036119e0576001600160a01b0385166000908152602b60209081526040808320878452825280832054602a909252909120805481906118da906001906143e8565b815481106118ea576118ea6143fb565b9060005260206000200160009054906101000a90046001600160a01b031681838154811061191a5761191a6143fb565b9060005260206000200160006101000a8154816001600160a01b0302191690836001600160a01b0316021790555081602b600083858154811061195f5761195f6143fb565b60009182526020808320909101546001600160a01b03908116845283820194909452604092830182208b8352815282822094909455918a168252602b83528082208983529092529081205580548190806119bb576119bb614411565b600082815260209020810160001990810180546001600160a01b031916905501905550505b6001600160a01b0385166000818152601f602090815260408083208884528252808320878452825280832080546001600160a01b03191681556001808201859055600280830186905560038084018790556004808501889055600580860189905560068601805460ff19908116909155600787018a9055600887018a905560099096018990558989528780528689208e8a5288528689208d8a52885286892089815594850189905592840188905590830187905582018690550180549091169055928252602181528282208783529052908120805491611abf83614427565b91905055505050505050565b336000908152602e602052604090205460ff168015611b665750600654604051632474521560e21b81526001600160a01b03909116906391d1485490611b259060008051602061450283398151915290339060040161436c565b602060405180830381865afa158015611b42573d6000803e3d6000fd5b505050506040513d601f19601f82011682018060405250810190611b669190614383565b611b6f57600080fd5b6001600160a01b0384166000818152601f6020908152604080832087845282528083208684528252808320938352818052808320878452825280832086845290915281206007830154909103611bc6575050611528565b60099091018290554360049091015550505050565b336000908152602e602052604090205460ff168015611c765750600654604051632474521560e21b81526001600160a01b03909116906391d1485490611c359060008051602061450283398151915290339060040161436c565b602060405180830381865afa158015611c52573d6000803e3d6000fd5b505050506040513d601f19601f82011682018060405250810190611c769190614383565b611c7f57600080fd5b611c8a838383613111565b156112a3576001600160a01b0383166000908152602260209081526040808320858452825280832084845290915290205460248054611ccb906001906143e8565b81548110611cdb57611cdb6143fb565b90600052602060002090600d020160248281548110611cfc57611cfc6143fb565b6000918252602082208354600d9092020180546001600160a01b0319166001600160a01b0390921691909117815560018084015490820155600280840154908201556003808401549082015560048084015490820155600580840154908201805460ff909216151560ff1990921691909117905560068084015490820155600780840154908201556008808401549082015560098084015490820155600a8084015490820155600b8084015490820155600c92830154920191909155602480548392602292909184908110611dd357611dd36143fb565b60009182526020808320600d909202909101546001600160a01b0316835282019290925260400181206024805491929185908110611e1357611e136143fb565b90600052602060002090600d0201600101548152602001908152602001600020600060248481548110611e4857611e486143fb565b600091825260208083206002600d90930201919091015483528281019390935260409182018120939093556001600160a01b03871683526022825280832086845282528083208584529091528120556024805480611ea857611ea8614411565b60008281526020808220600d6000199094019384020180546001600160a01b03191681556001810183905560028101839055600381018390556004810183905560058101805460ff1916905560068101839055600781018390556008810183905560098101839055600a8101839055600b8101839055600c01829055919092556001600160a01b03861682526023815260408083208684529091528120805491611f5183614427565b919050555050505050565b336000908152602e602052604090205460ff168015611ff75750600654604051632474521560e21b81526001600160a01b03909116906391d1485490611fb69060008051602061450283398151915290339060040161436c565b602060405180830381865afa158015611fd3573d6000803e3d6000fd5b505050506040513d601f19601f82011682018060405250810190611ff79190614383565b61200057600080fd5b61201f6120106020830183613ba6565b82602001358360400135613111565b156120fd57600060246022826120386020860186613ba6565b6001600160a01b031681526020808201929092526040908101600090812086840135825283528181208683013582529092529020548154811061207d5761207d6143fb565b90600052602060002090600d02019050816060013581600301819055508160a00160208101906120ad919061443e565b60058201805460ff191691151591909117905560c0820135600682015560e0820135600782015561010082013560088201556101208201356009820155610140820135600a82015543600b909101555b50565b612176604051806101a0016040528060006001600160a01b0316815260200160008152602001600081526020016000815260200160008152602001600015158152602001600081526020016000815260200160008152602001600081526020016000815260200160008152602001600081525090565b612181848484613111565b61218a57600080fd5b6001600160a01b038416600090815260226020908152604080832086845282528083208584529091529020546024805490919081106121cb576121cb6143fb565b6000918252602091829020604080516101a081018252600d90930290910180546001600160a01b031683526001810154938301939093526002830154908201526003820154606082015260048201546080820152600582015460ff16151560a0820152600682015460c0820152600782015460e082015260088201546101008201526009820154610120820152600a820154610140820152600b820154610160820152600c9091015461018082015290505b9392505050565b602760205281600052604060002081815481106122a057600080fd5b90600052602060002001600091509150505481565b336000908152602e602052604090205460ff1680156123505750600654604051632474521560e21b81526001600160a01b03909116906391d148549061230f9060008051602061450283398151915290339060040161436c565b602060405180830381865afa15801561232c573d6000803e3d6000fd5b505050506040513d601f19601f820116820180604052508101906123509190614383565b61235957600080fd5b61236b82600001518360200151610e51565b604083810191825283516001600160a01b039081166000908152601f602090815283822081880180518452908252848320865184528252848320885181546001600160a01b031916951694851781558151600182015595516002870155606088015160038701556080880151600487015560a0880151600587015560c088015160068701805460ff191691151591909117905560e08801516007870155610100880151600887015561012088015160099096019590955591815260218252828120935181529290528120805491612441836143b6565b909155505081516001600160a01b031660009081526021602090815260408083208286015184529091529020546001036124e157602082810180516000908152602a80845260408083205487516001600160a01b039081168552602b87528285208651865287528285209190915593518352908452812085518154600181018355918352939091200180546001600160a01b031916929091169190911790555b600060a0820181815283516001600160a01b03168252602080805260408084208287018051865290835281852082880151865283529381902085518155918501516001808401919091559085015160028301819055606086015160038401556080860151600484015592516005909201805460ff191692151592909217909155915160c0850151612575939192919061373e565b5050565b601e818154811061258957600080fd5b6000918252602090912001546001600160a01b0316905081565b336000908152602e602052604090205460ff16801561263e5750600654604051632474521560e21b81526001600160a01b03909116906391d14854906125fd9060008051602061450283398151915290339060040161436c565b602060405180830381865afa15801561261a573d6000803e3d6000fd5b505050506040513d601f19601f8201168201806040525081019061263e9190614383565b61264757600080fd5b8251516001600160a01b0390811660009081526027602090815260408083208054600180820183559185528385200187905586845260258352928190208751805182546001600160a01b031916961695909517815591840151928201929092558282015160028201556060808401516003830155608080850151600484015560a080860151600585015560c086015160068501805460ff191691151591909117905560e08601516007850155610100860151600885015561012090950151600984015592870151600b830155860151600c82015590850151600d82015590840151600e82015543600a909101558015612779578251516001600160a01b0316600090815260286020908152604080832086518301518452909152812080549161276f836143b6565b9190505550505050565b8251516001600160a01b031660009081526029602090815260408083208651830151845290915281208054916127ae836143b6565b90915550508251516001600160a01b0316600090815260208080526040808320865183015184528252808320865182015184529091529020600501805460ff19166001179055505050565b336000908152602e602052604090205460ff1680156128945750600654604051632474521560e21b81526001600160a01b03909116906391d14854906128539060008051602061450283398151915290339060040161436c565b602060405180830381865afa158015612870573d6000803e3d6000fd5b505050506040513d601f19601f820116820180604052508101906128949190614383565b61289d57600080fd5b600082815260256020908152604080832081516102008101835281546001600160a01b031660c08201818152600184015460e08401526002840154610100840152600384015461012084015260048401546101408401526005840154610160840152600684015460ff16151561018084015260078401546101a084015260088401546101c084015260098401546101e08401528252600a83015482860152600b83015482850152600c8301546060830152600d8301546080830152600e9092015460a08201529084526027909252822090915b8154811015612b66578482828154811061298c5761298c6143fb565b906000526020600020015403612b565783156129e1578251516001600160a01b031660009081526028602090815260408083208651830151845290915281208054916129d783614427565b9190505550612a5a565b8251516001600160a01b03166000908152602960209081526040808320865183015184529091528120805491612a1683614427565b90915550508251516001600160a01b0316600090815260208080526040808320865183015184528252808320865182015184529091529020600501805460ff191690555b81548290612a6a906001906143e8565b81548110612a7a57612a7a6143fb565b9060005260206000200154828281548110612a9757612a976143fb565b906000526020600020018190555081805480612ab557612ab5614411565b600082815260208082208301600019908101839055909201909255868252602590526040812080546001600160a01b0319168155600181018290556002810182905560038101829055600481018290556005810182905560068101805460ff19169055600781018290556008810182905560098101829055600a8101829055600b8101829055600c8101829055600d8101829055600e015550612575915050565b612b5f816143b6565b9050612970565b5050505050565b6015546001600160a01b03163314612b8457600080fd5b6001600160a01b038116612b9757600080fd5b601580546001600160a01b0319166001600160a01b038316908117909155604080518181526003918101919091526233b7bb60e91b606082015260208101919091526000805160206144e283398151915290608001611012565b336000908152602e602052604090205460ff168015612c8c5750600654604051632474521560e21b81526001600160a01b03909116906391d1485490612c4b9060008051602061450283398151915290339060040161436c565b602060405180830381865afa158015612c68573d6000803e3d6000fd5b505050506040513d601f19601f82011682018060405250810190612c8c9190614383565b612c9557600080fd5b612ca781600001518260200151610f51565b604082019081524361016083019081526024805460018082018355600083905285517f7cd332d19b93bcabe3cce7ca0c18a052f57e5fd03b4758a09f30f5ddc4b22ec4600d90930292830180546001600160a01b0319166001600160a01b0390921691909117905560208601517f7cd332d19b93bcabe3cce7ca0c18a052f57e5fd03b4758a09f30f5ddc4b22ec583015593517f7cd332d19b93bcabe3cce7ca0c18a052f57e5fd03b4758a09f30f5ddc4b22ec682015560608501517f7cd332d19b93bcabe3cce7ca0c18a052f57e5fd03b4758a09f30f5ddc4b22ec782015560808501517f7cd332d19b93bcabe3cce7ca0c18a052f57e5fd03b4758a09f30f5ddc4b22ec882015560a08501517f7cd332d19b93bcabe3cce7ca0c18a052f57e5fd03b4758a09f30f5ddc4b22ec98201805460ff191691151591909117905560c08501517f7cd332d19b93bcabe3cce7ca0c18a052f57e5fd03b4758a09f30f5ddc4b22eca82015560e08501517f7cd332d19b93bcabe3cce7ca0c18a052f57e5fd03b4758a09f30f5ddc4b22ecb8201556101008501517f7cd332d19b93bcabe3cce7ca0c18a052f57e5fd03b4758a09f30f5ddc4b22ecc8201556101208501517f7cd332d19b93bcabe3cce7ca0c18a052f57e5fd03b4758a09f30f5ddc4b22ecd8201556101408501517f7cd332d19b93bcabe3cce7ca0c18a052f57e5fd03b4758a09f30f5ddc4b22ece82015591517f7cd332d19b93bcabe3cce7ca0c18a052f57e5fd03b4758a09f30f5ddc4b22ecf8301556101808401517f7cd332d19b93bcabe3cce7ca0c18a052f57e5fd03b4758a09f30f5ddc4b22ed09092019190915554612f1691906143e8565b81516001600160a01b03908116600090815260226020908152604080832082870180518552908352818420828801518552835281842095909555855190931682526023815282822093518252929092528120805491612f74836143b6565b919050555050565b336000908152602e602052604090205460ff1680156130175750600654604051632474521560e21b81526001600160a01b03909116906391d1485490612fd69060008051602061450283398151915290339060040161436c565b602060405180830381865afa158015612ff3573d6000803e3d6000fd5b505050506040513d601f19601f820116820180604052508101906130179190614383565b61302057600080fd5b80516001600160a01b03166000908152601f60209081526040808320828501518452825280832081850151845290915281206007810154909103613062575050565b606082015160038201556080820151600482015560a0820151600582015560e082015160079091015550565b6015546001600160a01b031633146130a557600080fd5b600081116130b257600080fd5b600d819055604080518181526010918101919091526f36b0bc2a3930b232b9a832b92830b4b960811b6060820152602081018290527f8cf3e35f6221b16e1670a3413180c9484bf5aa71787905909fa82a6a2662e9ab90608001611012565b60245460009081036131255750600061227d565b6001600160a01b03841660009081526022602090815260408083208684528252808320858452909152812054602480549091908110613166576131666143fb565b60009182526020909120600d9091020180549091506001600160a01b0386811691161480156131985750838160010154145b80156131a75750828160020154145b95945050505050565b602a60205281600052604060002081815481106131cc57600080fd5b6000918252602090912001546001600160a01b03169150829050565b6015546001600160a01b031633146131ff57600080fd5b6001600160a01b0381166132465760405162461bcd60e51b81526020600482015260096024820152680414444524553535f360bc1b60448201526064015b60405180910390fd5b6000546120fd906201000090046001600160a01b0316826137c9565b6015546001600160a01b0316331461327957600080fd5b6000811161328657600080fd5b600e81905560408051818152601691810191909152756d617850656e64696e674d61726b65744f726465727360501b6060820152602081018290527f8cf3e35f6221b16e1670a3413180c9484bf5aa71787905909fa82a6a2662e9ab90608001611012565b6015546001600160a01b0316331461330257600080fd5b600654604051632474521560e21b81526001600160a01b03909116906391d14854906133429060008051602061450283398151915290859060040161436c565b602060405180830381865afa15801561335f573d6000803e3d6000fd5b505050506040513d601f19601f820116820180604052508101906133839190614383565b6133bc5760405162461bcd60e51b815260206004820152600a6024820152692727aa2fa6a4a72a22a960b11b604482015260640161323d565b6001600160a01b0381166133cf57600080fd5b6001600160a01b0381166000818152602e6020908152604091829020805460ff1916600117905590519182527fb692fa98cbec9bd705572b4c7e0927e3f7698e9fe526dcef6f40f3d4d4980ca39101611012565b600054610100900460ff16158080156134435750600054600160ff909116105b8061345d5750303b15801561345d575060005460ff166001145b6134c05760405162461bcd60e51b815260206004820152602e60248201527f496e697469616c697a61626c653a20636f6e747261637420697320616c72656160448201526d191e481a5b9a5d1a585b1a5e995960921b606482015260840161323d565b6000805460ff1916600117905580156134e3576000805461ff0019166101001790555b6001600160a01b0385161580159061350357506001600160a01b03841615155b801561351757506001600160a01b03831615155b801561352b57506001600160a01b03821615155b6135665760405162461bcd60e51b815260206004820152600c60248201526b57524f4e475f504152414d5360a01b604482015260640161323d565b6000805462010000600160b01b031916620100006001600160a01b038881169190910291909117909155600180546001600160a01b031990811687841617909155600680548216868416179055601580549091169184169190911790556003600d556005600e558015612b66576000805461ff0019169055604051600181527f7f26b83ff96e1f2b6a682f133852f6798a09c465da95921460cefb38474024989060200160405180910390a15050505050565b6015546001600160a01b0316331461363057600080fd5b6001600160a01b03811661364357600080fd5b600580546001600160a01b0319166001600160a01b038316908117909155604080518181526009918101919091526863616c6c6261636b7360b81b606082015260208101919091526000805160206144e283398151915290608001611012565b6040516001600160a01b03808516602483015283166044820152606481018290526115289085906323b872dd60e01b906084015b60408051601f198184030181529190526020810180516001600160e01b03166001600160e01b0319909316929092179091526138b5565b6040516001600160a01b0383166024820152604481018290526112a390849063a9059cbb60e01b906064016136d7565b60008161374c57600161374f565b60005b6000868152602c6020526040902060ff9190911691508361378e578481836003811061377d5761377d6143fb565b015461378991906143e8565b6137ad565b848183600381106137a1576137a16143fb565b01546137ad919061445b565b8183600381106137bf576137bf6143fb565b0155505050505050565b6040516001600160a01b0382811660248301526000919084169060440160408051601f198184030181529181526020820180516001600160e01b03166317066a5760e21b1790525161381b9190614492565b6000604051808303816000865af19150503d8060008114613858576040519150601f19603f3d011682016040523d82523d6000602084013e61385d565b606091505b50509050816001600160a01b0316836001600160a01b03167fb1247c60c1f535e393496ecb92a45670b346b057bf9e382c99cb0dca11ee8abc836040516138a8911515815260200190565b60405180910390a3505050565b600061390a826040518060400160405280602081526020017f5361666545524332303a206c6f772d6c6576656c2063616c6c206661696c6564815250856001600160a01b031661398a9092919063ffffffff16565b905080516000148061392b57508080602001905181019061392b9190614383565b6112a35760405162461bcd60e51b815260206004820152602a60248201527f5361666545524332303a204552433230206f7065726174696f6e20646964206e6044820152691bdd081cdd58d8d9595960b21b606482015260840161323d565b606061399984846000856139a1565b949350505050565b606082471015613a025760405162461bcd60e51b815260206004820152602660248201527f416464726573733a20696e73756666696369656e742062616c616e636520666f6044820152651c8818d85b1b60d21b606482015260840161323d565b600080866001600160a01b03168587604051613a1e9190614492565b60006040518083038185875af1925050503d8060008114613a5b576040519150601f19603f3d011682016040523d82523d6000602084013e613a60565b606091505b5091509150613a7187838387613a7c565b979650505050505050565b60608315613aeb578251600003613ae4576001600160a01b0385163b613ae45760405162461bcd60e51b815260206004820152601d60248201527f416464726573733a2063616c6c20746f206e6f6e2d636f6e7472616374000000604482015260640161323d565b5081613999565b6139998383815115613b005781518083602001fd5b8060405162461bcd60e51b815260040161323d91906144ae565b6001600160a01b03811681146120fd57600080fd5b8035613b3a81613b1a565b919050565b60008060408385031215613b5257600080fd5b8235613b5d81613b1a565b946020939093013593505050565b600060208284031215613b7d57600080fd5b5035919050565b60008060408385031215613b9757600080fd5b50508035926020909101359150565b600060208284031215613bb857600080fd5b813561227d81613b1a565b6020808252825182820181905260009190848201906040850190845b81811015613bfb57835183529284019291840191600101613bdf565b50909695505050505050565b6020808252825182820181905260009190848201906040850190845b81811015613bfb5783516001600160a01b031683529284019291840191600101613c23565b600080600060608486031215613c5d57600080fd5b8335613c6881613b1a565b95602085013595506040909401359392505050565b600080600060608486031215613c9257600080fd5b8335613c9d81613b1a565b92506020840135613cad81613b1a565b929592945050506040919091013590565b60008060008060808587031215613cd457600080fd5b8435613cdf81613b1a565b966020860135965060408601359560600135945092505050565b60405160c0810167ffffffffffffffff81118282101715613d2a57634e487b7160e01b600052604160045260246000fd5b60405290565b604051610140810167ffffffffffffffff81118282101715613d2a57634e487b7160e01b600052604160045260246000fd5b6040516101a0810167ffffffffffffffff81118282101715613d2a57634e487b7160e01b600052604160045260246000fd5b60008082840360e0811215613da857600080fd5b60c0811215613db657600080fd5b50613dbf613cf9565b8335613dca81613b1a565b8152602084810135908201526040840135613de481613b1a565b80604083015250606084013560608201526080840135608082015260a084013560048110613e1157600080fd5b60a08201529460c0939093013593505050565b80516001600160a01b031682526020810151602083015260408101516040830152606081015160608301526080810151608083015260a0810151613e6c60a084018215159052565b5060c0818101519083015260e08082015190830152610100808201519083015261012080820151908301526101408082015190830152610160808201519083015261018090810151910152565b6020808252825182820181905260009190848201906040850190845b81811015613bfb57613ee8838551613e24565b928401926101a09290920191600101613ed5565b634e487b7160e01b600052602160045260246000fd5b6001600160a01b0387811682526020820187905285166040820152606081018490526080810183905260c0810160048310613f5d57634e487b7160e01b600052602160045260246000fd5b8260a0830152979650505050505050565b86516001600160a01b031681526101e081016020880151602083015260408801516040830152606088015160608301526080880151608083015260a088015160a083015260c0880151613fc560c084018215159052565b5060e08881015190830152610100808901519083015261012097880151978201979097526101408101959095526101608501939093526101808401919091526101a08301526101c09091015290565b60006101a0828403121561402757600080fd5b50919050565b6101a0810161403c8284613e24565b92915050565b80151581146120fd57600080fd5b8035613b3a81614042565b6000610140828403121561406e57600080fd5b614076613d30565b905061408182613b2f565b81526020820135602082015260408201356040820152606082013560608201526080820135608082015260a082013560a08201526140c160c08301614050565b60c082015260e082013560e082015261010080830135818301525061012080830135818301525092915050565b60008082840361020081121561410357600080fd5b61410d858561405b565b925060c061013f198201121561412257600080fd5b5061412b613cf9565b6101408401358152610160840135602082015261018084013560408201526101a084013560608201526101c084013560808201526101e084013561416e81614042565b60a0820152919491935090915050565b600080600083850361022081121561419557600080fd5b6101e0808212156141a557600080fd5b6141ad613cf9565b91506141b9878761405b565b82526101408601356020830152610160860135604083015261018086013560608301526101a086013560808301526101c086013560a083015290935084013591506142076102008501614050565b90509250925092565b6000806040838503121561422357600080fd5b82359150602083013561423581614042565b809150509250929050565b60006101a0828403121561425357600080fd5b61425b613d62565b61426483613b2f565b81526020830135602082015260408301356040820152606083013560608201526080830135608082015261429a60a08401614050565b60a082015260c0838101359082015260e080840135908201526101008084013590820152610120808401359082015261014080840135908201526101608084013590820152610180928301359281019290925250919050565b6000610140828403121561430657600080fd5b61227d838361405b565b6000806000806080858703121561432657600080fd5b843561433181613b1a565b9350602085013561434181613b1a565b9250604085013561435181613b1a565b9150606085013561436181613b1a565b939692955090935050565b9182526001600160a01b0316602082015260400190565b60006020828403121561439557600080fd5b815161227d81614042565b634e487b7160e01b600052601160045260246000fd5b6000600182016143c8576143c86143a0565b5060010190565b6000602082840312156143e157600080fd5b5051919050565b8181038181111561403c5761403c6143a0565b634e487b7160e01b600052603260045260246000fd5b634e487b7160e01b600052603160045260246000fd5b600081614436576144366143a0565b506000190190565b60006020828403121561445057600080fd5b813561227d81614042565b8082018082111561403c5761403c6143a0565b60005b83811015614489578181015183820152602001614471565b50506000910152565b600082516144a481846020870161446e565b9190910192915050565b60208152600082518060208401526144cd81604085016020870161446e565b601f01601f1916919091016040019291505056fe943e9d45a11aaae5d87503e3bc248665d9807856e5cf2bdb4a988bee444227819f2df0fed2c77648de5860a4cc508cd0818c85b8b8a1ab4ceeef8d981c8956a6a2646970667358221220741350b63869771d0f69678aaa333a2a5d02e58083bb19c1b9ed8b4d32e9836e64736f6c63430008110033",
  "linkReferences": {},
  "deployedLinkReferences": {}
}