{
    "_format": "hh-sol-artifact-1",
    "contractName": "GTokenV6_3_2",
    "sourceName": "contracts/v6.3.2/GTokenV6_3_2.sol",
    "abi": [
        {
            "anonymous": false,
            "inputs": [
                {
                    "indexed": false,
                    "internalType": "uint256",
                    "name": "newAccValue",
                    "type": "uint256"
                }
            ],
            "name": "AccBlockWeightedMarketCapStored",
            "type": "event"
        },
        {
            "anonymous": false,
            "inputs": [
                {
                    "indexed": true,
                    "internalType": "address",
                    "name": "sender",
                    "type": "address"
                },
                {
                    "indexed": true,
                    "internalType": "uint256",
                    "name": "newEpoch",
                    "type": "uint256"
                },
                {
                    "indexed": false,
                    "internalType": "uint256",
                    "name": "prevPositiveOpenPnl",
                    "type": "uint256"
                },
                {
                    "indexed": false,
                    "internalType": "uint256",
                    "name": "newPositiveOpenPnl",
                    "type": "uint256"
                },
                {
                    "indexed": false,
                    "internalType": "uint256",
                    "name": "newEpochPositiveOpenPnl",
                    "type": "uint256"
                },
                {
                    "indexed": false,
                    "internalType": "int256",
                    "name": "newAccPnlPerTokenUsed",
                    "type": "int256"
                }
            ],
            "name": "AccPnlPerTokenUsedUpdated",
            "type": "event"
        },
        {
            "anonymous": false,
            "inputs": [
                {
                    "indexed": false,
                    "internalType": "string",
                    "name": "name",
                    "type": "string"
                },
                {
                    "indexed": false,
                    "internalType": "address",
                    "name": "newValue",
                    "type": "address"
                }
            ],
            "name": "AddressParamUpdated",
            "type": "event"
        },
        {
            "anonymous": false,
            "inputs": [
                {
                    "indexed": true,
                    "internalType": "address",
                    "name": "owner",
                    "type": "address"
                },
                {
                    "indexed": true,
                    "internalType": "address",
                    "name": "spender",
                    "type": "address"
                },
                {
                    "indexed": false,
                    "internalType": "uint256",
                    "name": "value",
                    "type": "uint256"
                }
            ],
            "name": "Approval",
            "type": "event"
        },
        {
            "anonymous": false,
            "inputs": [
                {
                    "indexed": true,
                    "internalType": "address",
                    "name": "sender",
                    "type": "address"
                },
                {
                    "indexed": true,
                    "internalType": "address",
                    "name": "user",
                    "type": "address"
                },
                {
                    "indexed": false,
                    "internalType": "uint256",
                    "name": "assets",
                    "type": "uint256"
                },
                {
                    "indexed": false,
                    "internalType": "uint256",
                    "name": "assetsLessDeplete",
                    "type": "uint256"
                }
            ],
            "name": "AssetsReceived",
            "type": "event"
        },
        {
            "anonymous": false,
            "inputs": [
                {
                    "indexed": true,
                    "internalType": "address",
                    "name": "sender",
                    "type": "address"
                },
                {
                    "indexed": true,
                    "internalType": "address",
                    "name": "receiver",
                    "type": "address"
                },
                {
                    "indexed": false,
                    "internalType": "uint256",
                    "name": "assets",
                    "type": "uint256"
                }
            ],
            "name": "AssetsSent",
            "type": "event"
        },
        {
            "anonymous": false,
            "inputs": [
                {
                    "indexed": false,
                    "internalType": "uint256",
                    "name": "newValue",
                    "type": "uint256"
                }
            ],
            "name": "CurrentMaxSupplyUpdated",
            "type": "event"
        },
        {
            "anonymous": false,
            "inputs": [],
            "name": "DailyAccPnlDeltaReset",
            "type": "event"
        },
        {
            "anonymous": false,
            "inputs": [
                {
                    "indexed": true,
                    "internalType": "address",
                    "name": "sender",
                    "type": "address"
                },
                {
                    "indexed": false,
                    "internalType": "uint256",
                    "name": "assets",
                    "type": "uint256"
                },
                {
                    "indexed": false,
                    "internalType": "uint256",
                    "name": "amountGns",
                    "type": "uint256"
                }
            ],
            "name": "Depleted",
            "type": "event"
        },
        {
            "anonymous": false,
            "inputs": [
                {
                    "indexed": true,
                    "internalType": "address",
                    "name": "sender",
                    "type": "address"
                },
                {
                    "indexed": true,
                    "internalType": "address",
                    "name": "owner",
                    "type": "address"
                },
                {
                    "indexed": false,
                    "internalType": "uint256",
                    "name": "assets",
                    "type": "uint256"
                },
                {
                    "indexed": false,
                    "internalType": "uint256",
                    "name": "shares",
                    "type": "uint256"
                }
            ],
            "name": "Deposit",
            "type": "event"
        },
        {
            "anonymous": false,
            "inputs": [
                {
                    "indexed": true,
                    "internalType": "address",
                    "name": "sender",
                    "type": "address"
                },
                {
                    "indexed": true,
                    "internalType": "address",
                    "name": "owner",
                    "type": "address"
                },
                {
                    "indexed": false,
                    "internalType": "uint256",
                    "name": "depositId",
                    "type": "uint256"
                },
                {
                    "components": [
                        {
                            "internalType": "address",
                            "name": "owner",
                            "type": "address"
                        },
                        {
                            "internalType": "uint256",
                            "name": "shares",
                            "type": "uint256"
                        },
                        {
                            "internalType": "uint256",
                            "name": "assetsDeposited",
                            "type": "uint256"
                        },
                        {
                            "internalType": "uint256",
                            "name": "assetsDiscount",
                            "type": "uint256"
                        },
                        {
                            "internalType": "uint256",
                            "name": "atTimestamp",
                            "type": "uint256"
                        },
                        {
                            "internalType": "uint256",
                            "name": "lockDuration",
                            "type": "uint256"
                        }
                    ],
                    "indexed": false,
                    "internalType": "struct IGToken.LockedDeposit",
                    "name": "d",
                    "type": "tuple"
                }
            ],
            "name": "DepositLocked",
            "type": "event"
        },
        {
            "anonymous": false,
            "inputs": [
                {
                    "indexed": true,
                    "internalType": "address",
                    "name": "sender",
                    "type": "address"
                },
                {
                    "indexed": true,
                    "internalType": "address",
                    "name": "receiver",
                    "type": "address"
                },
                {
                    "indexed": true,
                    "internalType": "address",
                    "name": "owner",
                    "type": "address"
                },
                {
                    "indexed": false,
                    "internalType": "uint256",
                    "name": "depositId",
                    "type": "uint256"
                },
                {
                    "components": [
                        {
                            "internalType": "address",
                            "name": "owner",
                            "type": "address"
                        },
                        {
                            "internalType": "uint256",
                            "name": "shares",
                            "type": "uint256"
                        },
                        {
                            "internalType": "uint256",
                            "name": "assetsDeposited",
                            "type": "uint256"
                        },
                        {
                            "internalType": "uint256",
                            "name": "assetsDiscount",
                            "type": "uint256"
                        },
                        {
                            "internalType": "uint256",
                            "name": "atTimestamp",
                            "type": "uint256"
                        },
                        {
                            "internalType": "uint256",
                            "name": "lockDuration",
                            "type": "uint256"
                        }
                    ],
                    "indexed": false,
                    "internalType": "struct IGToken.LockedDeposit",
                    "name": "d",
                    "type": "tuple"
                }
            ],
            "name": "DepositUnlocked",
            "type": "event"
        },
        {
            "anonymous": false,
            "inputs": [
                {
                    "components": [
                        {
                            "internalType": "address",
                            "name": "addr",
                            "type": "address"
                        },
                        {
                            "internalType": "bytes",
                            "name": "signature",
                            "type": "bytes"
                        }
                    ],
                    "indexed": false,
                    "internalType": "struct GTokenV6_3_2.GnsPriceProvider",
                    "name": "newValue",
                    "type": "tuple"
                }
            ],
            "name": "GnsPriceProviderUpdated",
            "type": "event"
        },
        {
            "anonymous": false,
            "inputs": [
                {
                    "indexed": false,
                    "internalType": "uint8",
                    "name": "version",
                    "type": "uint8"
                }
            ],
            "name": "Initialized",
            "type": "event"
        },
        {
            "anonymous": false,
            "inputs": [
                {
                    "indexed": false,
                    "internalType": "string",
                    "name": "name",
                    "type": "string"
                },
                {
                    "indexed": false,
                    "internalType": "uint256",
                    "name": "newValue",
                    "type": "uint256"
                }
            ],
            "name": "NumberParamUpdated",
            "type": "event"
        },
        {
            "anonymous": false,
            "inputs": [],
            "name": "OpenTradesPnlFeedCallFailed",
            "type": "event"
        },
        {
            "anonymous": false,
            "inputs": [
                {
                    "indexed": true,
                    "internalType": "address",
                    "name": "previousOwner",
                    "type": "address"
                },
                {
                    "indexed": true,
                    "internalType": "address",
                    "name": "newOwner",
                    "type": "address"
                }
            ],
            "name": "OwnershipTransferred",
            "type": "event"
        },
        {
            "anonymous": false,
            "inputs": [
                {
                    "indexed": true,
                    "internalType": "address",
                    "name": "sender",
                    "type": "address"
                },
                {
                    "indexed": false,
                    "internalType": "uint256",
                    "name": "assets",
                    "type": "uint256"
                },
                {
                    "indexed": false,
                    "internalType": "uint256",
                    "name": "amountGns",
                    "type": "uint256"
                }
            ],
            "name": "Refilled",
            "type": "event"
        },
        {
            "anonymous": false,
            "inputs": [
                {
                    "indexed": true,
                    "internalType": "address",
                    "name": "sender",
                    "type": "address"
                },
                {
                    "indexed": false,
                    "internalType": "uint256",
                    "name": "assets",
                    "type": "uint256"
                }
            ],
            "name": "RewardDistributed",
            "type": "event"
        },
        {
            "anonymous": false,
            "inputs": [
                {
                    "indexed": false,
                    "internalType": "uint256",
                    "name": "newValue",
                    "type": "uint256"
                }
            ],
            "name": "ShareToAssetsPriceUpdated",
            "type": "event"
        },
        {
            "anonymous": false,
            "inputs": [
                {
                    "indexed": true,
                    "internalType": "address",
                    "name": "from",
                    "type": "address"
                },
                {
                    "indexed": true,
                    "internalType": "address",
                    "name": "to",
                    "type": "address"
                },
                {
                    "indexed": false,
                    "internalType": "uint256",
                    "name": "value",
                    "type": "uint256"
                }
            ],
            "name": "Transfer",
            "type": "event"
        },
        {
            "anonymous": false,
            "inputs": [
                {
                    "indexed": true,
                    "internalType": "address",
                    "name": "sender",
                    "type": "address"
                },
                {
                    "indexed": true,
                    "internalType": "address",
                    "name": "receiver",
                    "type": "address"
                },
                {
                    "indexed": true,
                    "internalType": "address",
                    "name": "owner",
                    "type": "address"
                },
                {
                    "indexed": false,
                    "internalType": "uint256",
                    "name": "assets",
                    "type": "uint256"
                },
                {
                    "indexed": false,
                    "internalType": "uint256",
                    "name": "shares",
                    "type": "uint256"
                }
            ],
            "name": "Withdraw",
            "type": "event"
        },
        {
            "anonymous": false,
            "inputs": [
                {
                    "indexed": true,
                    "internalType": "address",
                    "name": "sender",
                    "type": "address"
                },
                {
                    "indexed": true,
                    "internalType": "address",
                    "name": "owner",
                    "type": "address"
                },
                {
                    "indexed": false,
                    "internalType": "uint256",
                    "name": "shares",
                    "type": "uint256"
                },
                {
                    "indexed": false,
                    "internalType": "uint256",
                    "name": "currEpoch",
                    "type": "uint256"
                },
                {
                    "indexed": true,
                    "internalType": "uint256",
                    "name": "unlockEpoch",
                    "type": "uint256"
                }
            ],
            "name": "WithdrawCanceled",
            "type": "event"
        },
        {
            "anonymous": false,
            "inputs": [
                {
                    "indexed": false,
                    "internalType": "uint256[2]",
                    "name": "newValue",
                    "type": "uint256[2]"
                }
            ],
            "name": "WithdrawLockThresholdsPUpdated",
            "type": "event"
        },
        {
            "anonymous": false,
            "inputs": [
                {
                    "indexed": true,
                    "internalType": "address",
                    "name": "sender",
                    "type": "address"
                },
                {
                    "indexed": true,
                    "internalType": "address",
                    "name": "owner",
                    "type": "address"
                },
                {
                    "indexed": false,
                    "internalType": "uint256",
                    "name": "shares",
                    "type": "uint256"
                },
                {
                    "indexed": false,
                    "internalType": "uint256",
                    "name": "currEpoch",
                    "type": "uint256"
                },
                {
                    "indexed": true,
                    "internalType": "uint256",
                    "name": "unlockEpoch",
                    "type": "uint256"
                }
            ],
            "name": "WithdrawRequested",
            "type": "event"
        },
        {
            "inputs": [],
            "name": "MIN_LOCK_DURATION",
            "outputs": [
                {
                    "internalType": "uint256",
                    "name": "",
                    "type": "uint256"
                }
            ],
            "stateMutability": "view",
            "type": "function"
        },
        {
            "inputs": [],
            "name": "accBlockWeightedMarketCap",
            "outputs": [
                {
                    "internalType": "uint256",
                    "name": "",
                    "type": "uint256"
                }
            ],
            "stateMutability": "view",
            "type": "function"
        },
        {
            "inputs": [],
            "name": "accBlockWeightedMarketCapLastStored",
            "outputs": [
                {
                    "internalType": "uint256",
                    "name": "",
                    "type": "uint256"
                }
            ],
            "stateMutability": "view",
            "type": "function"
        },
        {
            "inputs": [],
            "name": "accPnlPerToken",
            "outputs": [
                {
                    "internalType": "int256",
                    "name": "",
                    "type": "int256"
                }
            ],
            "stateMutability": "view",
            "type": "function"
        },
        {
            "inputs": [],
            "name": "accPnlPerTokenUsed",
            "outputs": [
                {
                    "internalType": "int256",
                    "name": "",
                    "type": "int256"
                }
            ],
            "stateMutability": "view",
            "type": "function"
        },
        {
            "inputs": [],
            "name": "accRewardsPerToken",
            "outputs": [
                {
                    "internalType": "uint256",
                    "name": "",
                    "type": "uint256"
                }
            ],
            "stateMutability": "view",
            "type": "function"
        },
        {
            "inputs": [],
            "name": "admin",
            "outputs": [
                {
                    "internalType": "address",
                    "name": "",
                    "type": "address"
                }
            ],
            "stateMutability": "view",
            "type": "function"
        },
        {
            "inputs": [
                {
                    "internalType": "address",
                    "name": "owner",
                    "type": "address"
                },
                {
                    "internalType": "address",
                    "name": "spender",
                    "type": "address"
                }
            ],
            "name": "allowance",
            "outputs": [
                {
                    "internalType": "uint256",
                    "name": "",
                    "type": "uint256"
                }
            ],
            "stateMutability": "view",
            "type": "function"
        },
        {
            "inputs": [
                {
                    "internalType": "address",
                    "name": "spender",
                    "type": "address"
                },
                {
                    "internalType": "uint256",
                    "name": "amount",
                    "type": "uint256"
                }
            ],
            "name": "approve",
            "outputs": [
                {
                    "internalType": "bool",
                    "name": "",
                    "type": "bool"
                }
            ],
            "stateMutability": "nonpayable",
            "type": "function"
        },
        {
            "inputs": [],
            "name": "asset",
            "outputs": [
                {
                    "internalType": "address",
                    "name": "",
                    "type": "address"
                }
            ],
            "stateMutability": "view",
            "type": "function"
        },
        {
            "inputs": [],
            "name": "assetsToDeplete",
            "outputs": [
                {
                    "internalType": "uint256",
                    "name": "",
                    "type": "uint256"
                }
            ],
            "stateMutability": "view",
            "type": "function"
        },
        {
            "inputs": [],
            "name": "availableAssets",
            "outputs": [
                {
                    "internalType": "uint256",
                    "name": "",
                    "type": "uint256"
                }
            ],
            "stateMutability": "view",
            "type": "function"
        },
        {
            "inputs": [
                {
                    "internalType": "address",
                    "name": "account",
                    "type": "address"
                }
            ],
            "name": "balanceOf",
            "outputs": [
                {
                    "internalType": "uint256",
                    "name": "",
                    "type": "uint256"
                }
            ],
            "stateMutability": "view",
            "type": "function"
        },
        {
            "inputs": [
                {
                    "internalType": "uint256",
                    "name": "shares",
                    "type": "uint256"
                },
                {
                    "internalType": "address",
                    "name": "owner",
                    "type": "address"
                },
                {
                    "internalType": "uint256",
                    "name": "unlockEpoch",
                    "type": "uint256"
                }
            ],
            "name": "cancelWithdrawRequest",
            "outputs": [],
            "stateMutability": "nonpayable",
            "type": "function"
        },
        {
            "inputs": [],
            "name": "collateralizationP",
            "outputs": [
                {
                    "internalType": "uint256",
                    "name": "",
                    "type": "uint256"
                }
            ],
            "stateMutability": "view",
            "type": "function"
        },
        {
            "inputs": [
                {
                    "internalType": "uint256",
                    "name": "shares",
                    "type": "uint256"
                }
            ],
            "name": "convertToAssets",
            "outputs": [
                {
                    "internalType": "uint256",
                    "name": "assets",
                    "type": "uint256"
                }
            ],
            "stateMutability": "view",
            "type": "function"
        },
        {
            "inputs": [
                {
                    "internalType": "uint256",
                    "name": "assets",
                    "type": "uint256"
                }
            ],
            "name": "convertToShares",
            "outputs": [
                {
                    "internalType": "uint256",
                    "name": "shares",
                    "type": "uint256"
                }
            ],
            "stateMutability": "view",
            "type": "function"
        },
        {
            "inputs": [],
            "name": "currentBalanceDai",
            "outputs": [
                {
                    "internalType": "uint256",
                    "name": "",
                    "type": "uint256"
                }
            ],
            "stateMutability": "view",
            "type": "function"
        },
        {
            "inputs": [],
            "name": "currentEpoch",
            "outputs": [
                {
                    "internalType": "uint256",
                    "name": "",
                    "type": "uint256"
                }
            ],
            "stateMutability": "view",
            "type": "function"
        },
        {
            "inputs": [],
            "name": "currentEpochPositiveOpenPnl",
            "outputs": [
                {
                    "internalType": "uint256",
                    "name": "",
                    "type": "uint256"
                }
            ],
            "stateMutability": "view",
            "type": "function"
        },
        {
            "inputs": [],
            "name": "currentEpochStart",
            "outputs": [
                {
                    "internalType": "uint256",
                    "name": "",
                    "type": "uint256"
                }
            ],
            "stateMutability": "view",
            "type": "function"
        },
        {
            "inputs": [],
            "name": "currentMaxSupply",
            "outputs": [
                {
                    "internalType": "uint256",
                    "name": "",
                    "type": "uint256"
                }
            ],
            "stateMutability": "view",
            "type": "function"
        },
        {
            "inputs": [],
            "name": "dailyAccPnlDelta",
            "outputs": [
                {
                    "internalType": "int256",
                    "name": "",
                    "type": "int256"
                }
            ],
            "stateMutability": "view",
            "type": "function"
        },
        {
            "inputs": [],
            "name": "dailyMintedGns",
            "outputs": [
                {
                    "internalType": "uint256",
                    "name": "",
                    "type": "uint256"
                }
            ],
            "stateMutability": "view",
            "type": "function"
        },
        {
            "inputs": [],
            "name": "decimals",
            "outputs": [
                {
                    "internalType": "uint8",
                    "name": "",
                    "type": "uint8"
                }
            ],
            "stateMutability": "view",
            "type": "function"
        },
        {
            "inputs": [
                {
                    "internalType": "address",
                    "name": "spender",
                    "type": "address"
                },
                {
                    "internalType": "uint256",
                    "name": "subtractedValue",
                    "type": "uint256"
                }
            ],
            "name": "decreaseAllowance",
            "outputs": [
                {
                    "internalType": "bool",
                    "name": "",
                    "type": "bool"
                }
            ],
            "stateMutability": "nonpayable",
            "type": "function"
        },
        {
            "inputs": [
                {
                    "internalType": "uint256",
                    "name": "assets",
                    "type": "uint256"
                }
            ],
            "name": "deplete",
            "outputs": [],
            "stateMutability": "nonpayable",
            "type": "function"
        },
        {
            "inputs": [
                {
                    "internalType": "uint256",
                    "name": "assets",
                    "type": "uint256"
                },
                {
                    "internalType": "address",
                    "name": "receiver",
                    "type": "address"
                }
            ],
            "name": "deposit",
            "outputs": [
                {
                    "internalType": "uint256",
                    "name": "",
                    "type": "uint256"
                }
            ],
            "stateMutability": "nonpayable",
            "type": "function"
        },
        {
            "inputs": [
                {
                    "internalType": "uint256",
                    "name": "assets",
                    "type": "uint256"
                },
                {
                    "internalType": "uint256",
                    "name": "lockDuration",
                    "type": "uint256"
                },
                {
                    "internalType": "address",
                    "name": "receiver",
                    "type": "address"
                }
            ],
            "name": "depositWithDiscountAndLock",
            "outputs": [
                {
                    "internalType": "uint256",
                    "name": "",
                    "type": "uint256"
                }
            ],
            "stateMutability": "nonpayable",
            "type": "function"
        },
        {
            "inputs": [
                {
                    "internalType": "uint256",
                    "name": "assets",
                    "type": "uint256"
                }
            ],
            "name": "distributeReward",
            "outputs": [],
            "stateMutability": "nonpayable",
            "type": "function"
        },
        {
            "inputs": [
                {
                    "internalType": "uint256",
                    "name": "depositId",
                    "type": "uint256"
                }
            ],
            "name": "getLockedDeposit",
            "outputs": [
                {
                    "components": [
                        {
                            "internalType": "address",
                            "name": "owner",
                            "type": "address"
                        },
                        {
                            "internalType": "uint256",
                            "name": "shares",
                            "type": "uint256"
                        },
                        {
                            "internalType": "uint256",
                            "name": "assetsDeposited",
                            "type": "uint256"
                        },
                        {
                            "internalType": "uint256",
                            "name": "assetsDiscount",
                            "type": "uint256"
                        },
                        {
                            "internalType": "uint256",
                            "name": "atTimestamp",
                            "type": "uint256"
                        },
                        {
                            "internalType": "uint256",
                            "name": "lockDuration",
                            "type": "uint256"
                        }
                    ],
                    "internalType": "struct IGToken.LockedDeposit",
                    "name": "",
                    "type": "tuple"
                }
            ],
            "stateMutability": "view",
            "type": "function"
        },
        {
            "inputs": [
                {
                    "internalType": "uint256",
                    "name": "currentBlock",
                    "type": "uint256"
                }
            ],
            "name": "getPendingAccBlockWeightedMarketCap",
            "outputs": [
                {
                    "internalType": "uint256",
                    "name": "",
                    "type": "uint256"
                }
            ],
            "stateMutability": "view",
            "type": "function"
        },
        {
            "inputs": [],
            "name": "gnsPriceProvider",
            "outputs": [
                {
                    "internalType": "address",
                    "name": "addr",
                    "type": "address"
                },
                {
                    "internalType": "bytes",
                    "name": "signature",
                    "type": "bytes"
                }
            ],
            "stateMutability": "view",
            "type": "function"
        },
        {
            "inputs": [],
            "name": "gnsToken",
            "outputs": [
                {
                    "internalType": "address",
                    "name": "",
                    "type": "address"
                }
            ],
            "stateMutability": "view",
            "type": "function"
        },
        {
            "inputs": [],
            "name": "gnsTokenToAssetsPrice",
            "outputs": [
                {
                    "internalType": "uint256",
                    "name": "price",
                    "type": "uint256"
                }
            ],
            "stateMutability": "view",
            "type": "function"
        },
        {
            "inputs": [
                {
                    "internalType": "address",
                    "name": "spender",
                    "type": "address"
                },
                {
                    "internalType": "uint256",
                    "name": "addedValue",
                    "type": "uint256"
                }
            ],
            "name": "increaseAllowance",
            "outputs": [
                {
                    "internalType": "bool",
                    "name": "",
                    "type": "bool"
                }
            ],
            "stateMutability": "nonpayable",
            "type": "function"
        },
        {
            "inputs": [
                {
                    "internalType": "string",
                    "name": "_name",
                    "type": "string"
                },
                {
                    "internalType": "string",
                    "name": "_symbol",
                    "type": "string"
                },
                {
                    "components": [
                        {
                            "internalType": "address",
                            "name": "asset",
                            "type": "address"
                        },
                        {
                            "internalType": "address",
                            "name": "owner",
                            "type": "address"
                        },
                        {
                            "internalType": "address",
                            "name": "manager",
                            "type": "address"
                        },
                        {
                            "internalType": "address",
                            "name": "admin",
                            "type": "address"
                        },
                        {
                            "internalType": "address",
                            "name": "gnsToken",
                            "type": "address"
                        },
                        {
                            "internalType": "address",
                            "name": "lockedDepositNft",
                            "type": "address"
                        },
                        {
                            "internalType": "address",
                            "name": "pnlHandler",
                            "type": "address"
                        },
                        {
                            "internalType": "address",
                            "name": "openTradesPnlFeed",
                            "type": "address"
                        },
                        {
                            "components": [
                                {
                                    "internalType": "address",
                                    "name": "addr",
                                    "type": "address"
                                },
                                {
                                    "internalType": "bytes",
                                    "name": "signature",
                                    "type": "bytes"
                                }
                            ],
                            "internalType": "struct GTokenV6_3_2.GnsPriceProvider",
                            "name": "gnsPriceProvider",
                            "type": "tuple"
                        }
                    ],
                    "internalType": "struct GTokenV6_3_2.ContractAddresses",
                    "name": "_contractAddresses",
                    "type": "tuple"
                },
                {
                    "internalType": "uint256",
                    "name": "_MIN_LOCK_DURATION",
                    "type": "uint256"
                },
                {
                    "internalType": "uint256",
                    "name": "_maxAccOpenPnlDelta",
                    "type": "uint256"
                },
                {
                    "internalType": "uint256",
                    "name": "_maxDailyAccPnlDelta",
                    "type": "uint256"
                },
                {
                    "internalType": "uint256[2]",
                    "name": "_withdrawLockThresholdsP",
                    "type": "uint256[2]"
                },
                {
                    "internalType": "uint256",
                    "name": "_maxSupplyIncreaseDailyP",
                    "type": "uint256"
                },
                {
                    "internalType": "uint256",
                    "name": "_lossesBurnP",
                    "type": "uint256"
                },
                {
                    "internalType": "uint256",
                    "name": "_maxGnsSupplyMintDailyP",
                    "type": "uint256"
                },
                {
                    "internalType": "uint256",
                    "name": "_maxDiscountP",
                    "type": "uint256"
                },
                {
                    "internalType": "uint256",
                    "name": "_maxDiscountThresholdP",
                    "type": "uint256"
                }
            ],
            "name": "initialize",
            "outputs": [],
            "stateMutability": "nonpayable",
            "type": "function"
        },
        {
            "inputs": [],
            "name": "initializeV2",
            "outputs": [],
            "stateMutability": "nonpayable",
            "type": "function"
        },
        {
            "inputs": [],
            "name": "lastDailyAccPnlDeltaReset",
            "outputs": [
                {
                    "internalType": "uint256",
                    "name": "",
                    "type": "uint256"
                }
            ],
            "stateMutability": "view",
            "type": "function"
        },
        {
            "inputs": [],
            "name": "lastDailyMintedGnsReset",
            "outputs": [
                {
                    "internalType": "uint256",
                    "name": "",
                    "type": "uint256"
                }
            ],
            "stateMutability": "view",
            "type": "function"
        },
        {
            "inputs": [],
            "name": "lastMaxSupplyUpdate",
            "outputs": [
                {
                    "internalType": "uint256",
                    "name": "",
                    "type": "uint256"
                }
            ],
            "stateMutability": "view",
            "type": "function"
        },
        {
            "inputs": [
                {
                    "internalType": "uint256",
                    "name": "collatP",
                    "type": "uint256"
                },
                {
                    "internalType": "uint256",
                    "name": "lockDuration",
                    "type": "uint256"
                }
            ],
            "name": "lockDiscountP",
            "outputs": [
                {
                    "internalType": "uint256",
                    "name": "",
                    "type": "uint256"
                }
            ],
            "stateMutability": "view",
            "type": "function"
        },
        {
            "inputs": [],
            "name": "lockedDepositNft",
            "outputs": [
                {
                    "internalType": "contract INft",
                    "name": "",
                    "type": "address"
                }
            ],
            "stateMutability": "view",
            "type": "function"
        },
        {
            "inputs": [
                {
                    "internalType": "uint256",
                    "name": "",
                    "type": "uint256"
                }
            ],
            "name": "lockedDeposits",
            "outputs": [
                {
                    "internalType": "address",
                    "name": "owner",
                    "type": "address"
                },
                {
                    "internalType": "uint256",
                    "name": "shares",
                    "type": "uint256"
                },
                {
                    "internalType": "uint256",
                    "name": "assetsDeposited",
                    "type": "uint256"
                },
                {
                    "internalType": "uint256",
                    "name": "assetsDiscount",
                    "type": "uint256"
                },
                {
                    "internalType": "uint256",
                    "name": "atTimestamp",
                    "type": "uint256"
                },
                {
                    "internalType": "uint256",
                    "name": "lockDuration",
                    "type": "uint256"
                }
            ],
            "stateMutability": "view",
            "type": "function"
        },
        {
            "inputs": [],
            "name": "lockedDepositsCount",
            "outputs": [
                {
                    "internalType": "uint256",
                    "name": "",
                    "type": "uint256"
                }
            ],
            "stateMutability": "view",
            "type": "function"
        },
        {
            "inputs": [],
            "name": "lossesBurnP",
            "outputs": [
                {
                    "internalType": "uint256",
                    "name": "",
                    "type": "uint256"
                }
            ],
            "stateMutability": "view",
            "type": "function"
        },
        {
            "inputs": [
                {
                    "internalType": "uint256",
                    "name": "shares",
                    "type": "uint256"
                },
                {
                    "internalType": "address",
                    "name": "owner",
                    "type": "address"
                }
            ],
            "name": "makeWithdrawRequest",
            "outputs": [],
            "stateMutability": "nonpayable",
            "type": "function"
        },
        {
            "inputs": [],
            "name": "manager",
            "outputs": [
                {
                    "internalType": "address",
                    "name": "",
                    "type": "address"
                }
            ],
            "stateMutability": "view",
            "type": "function"
        },
        {
            "inputs": [],
            "name": "marketCap",
            "outputs": [
                {
                    "internalType": "uint256",
                    "name": "",
                    "type": "uint256"
                }
            ],
            "stateMutability": "view",
            "type": "function"
        },
        {
            "inputs": [],
            "name": "maxAccOpenPnlDelta",
            "outputs": [
                {
                    "internalType": "uint256",
                    "name": "",
                    "type": "uint256"
                }
            ],
            "stateMutability": "view",
            "type": "function"
        },
        {
            "inputs": [],
            "name": "maxAccPnlPerToken",
            "outputs": [
                {
                    "internalType": "uint256",
                    "name": "",
                    "type": "uint256"
                }
            ],
            "stateMutability": "view",
            "type": "function"
        },
        {
            "inputs": [],
            "name": "maxDailyAccPnlDelta",
            "outputs": [
                {
                    "internalType": "uint256",
                    "name": "",
                    "type": "uint256"
                }
            ],
            "stateMutability": "view",
            "type": "function"
        },
        {
            "inputs": [
                {
                    "internalType": "address",
                    "name": "owner",
                    "type": "address"
                }
            ],
            "name": "maxDeposit",
            "outputs": [
                {
                    "internalType": "uint256",
                    "name": "",
                    "type": "uint256"
                }
            ],
            "stateMutability": "view",
            "type": "function"
        },
        {
            "inputs": [],
            "name": "maxDiscountP",
            "outputs": [
                {
                    "internalType": "uint256",
                    "name": "",
                    "type": "uint256"
                }
            ],
            "stateMutability": "view",
            "type": "function"
        },
        {
            "inputs": [],
            "name": "maxDiscountThresholdP",
            "outputs": [
                {
                    "internalType": "uint256",
                    "name": "",
                    "type": "uint256"
                }
            ],
            "stateMutability": "view",
            "type": "function"
        },
        {
            "inputs": [],
            "name": "maxGnsSupplyMintDailyP",
            "outputs": [
                {
                    "internalType": "uint256",
                    "name": "",
                    "type": "uint256"
                }
            ],
            "stateMutability": "view",
            "type": "function"
        },
        {
            "inputs": [
                {
                    "internalType": "address",
                    "name": "",
                    "type": "address"
                }
            ],
            "name": "maxMint",
            "outputs": [
                {
                    "internalType": "uint256",
                    "name": "",
                    "type": "uint256"
                }
            ],
            "stateMutability": "view",
            "type": "function"
        },
        {
            "inputs": [
                {
                    "internalType": "address",
                    "name": "owner",
                    "type": "address"
                }
            ],
            "name": "maxRedeem",
            "outputs": [
                {
                    "internalType": "uint256",
                    "name": "",
                    "type": "uint256"
                }
            ],
            "stateMutability": "view",
            "type": "function"
        },
        {
            "inputs": [],
            "name": "maxSupplyIncreaseDailyP",
            "outputs": [
                {
                    "internalType": "uint256",
                    "name": "",
                    "type": "uint256"
                }
            ],
            "stateMutability": "view",
            "type": "function"
        },
        {
            "inputs": [
                {
                    "internalType": "address",
                    "name": "owner",
                    "type": "address"
                }
            ],
            "name": "maxWithdraw",
            "outputs": [
                {
                    "internalType": "uint256",
                    "name": "",
                    "type": "uint256"
                }
            ],
            "stateMutability": "view",
            "type": "function"
        },
        {
            "inputs": [
                {
                    "internalType": "uint256",
                    "name": "shares",
                    "type": "uint256"
                },
                {
                    "internalType": "address",
                    "name": "receiver",
                    "type": "address"
                }
            ],
            "name": "mint",
            "outputs": [
                {
                    "internalType": "uint256",
                    "name": "",
                    "type": "uint256"
                }
            ],
            "stateMutability": "nonpayable",
            "type": "function"
        },
        {
            "inputs": [
                {
                    "internalType": "uint256",
                    "name": "shares",
                    "type": "uint256"
                },
                {
                    "internalType": "uint256",
                    "name": "lockDuration",
                    "type": "uint256"
                },
                {
                    "internalType": "address",
                    "name": "receiver",
                    "type": "address"
                }
            ],
            "name": "mintWithDiscountAndLock",
            "outputs": [
                {
                    "internalType": "uint256",
                    "name": "",
                    "type": "uint256"
                }
            ],
            "stateMutability": "nonpayable",
            "type": "function"
        },
        {
            "inputs": [],
            "name": "name",
            "outputs": [
                {
                    "internalType": "string",
                    "name": "",
                    "type": "string"
                }
            ],
            "stateMutability": "view",
            "type": "function"
        },
        {
            "inputs": [],
            "name": "openTradesPnlFeed",
            "outputs": [
                {
                    "internalType": "contract IOpenTradesPnlFeed",
                    "name": "",
                    "type": "address"
                }
            ],
            "stateMutability": "view",
            "type": "function"
        },
        {
            "inputs": [],
            "name": "owner",
            "outputs": [
                {
                    "internalType": "address",
                    "name": "",
                    "type": "address"
                }
            ],
            "stateMutability": "view",
            "type": "function"
        },
        {
            "inputs": [],
            "name": "pnlHandler",
            "outputs": [
                {
                    "internalType": "address",
                    "name": "",
                    "type": "address"
                }
            ],
            "stateMutability": "view",
            "type": "function"
        },
        {
            "inputs": [
                {
                    "internalType": "uint256",
                    "name": "assets",
                    "type": "uint256"
                }
            ],
            "name": "previewDeposit",
            "outputs": [
                {
                    "internalType": "uint256",
                    "name": "",
                    "type": "uint256"
                }
            ],
            "stateMutability": "view",
            "type": "function"
        },
        {
            "inputs": [
                {
                    "internalType": "uint256",
                    "name": "shares",
                    "type": "uint256"
                }
            ],
            "name": "previewMint",
            "outputs": [
                {
                    "internalType": "uint256",
                    "name": "",
                    "type": "uint256"
                }
            ],
            "stateMutability": "view",
            "type": "function"
        },
        {
            "inputs": [
                {
                    "internalType": "uint256",
                    "name": "shares",
                    "type": "uint256"
                }
            ],
            "name": "previewRedeem",
            "outputs": [
                {
                    "internalType": "uint256",
                    "name": "",
                    "type": "uint256"
                }
            ],
            "stateMutability": "view",
            "type": "function"
        },
        {
            "inputs": [
                {
                    "internalType": "uint256",
                    "name": "assets",
                    "type": "uint256"
                }
            ],
            "name": "previewWithdraw",
            "outputs": [
                {
                    "internalType": "uint256",
                    "name": "",
                    "type": "uint256"
                }
            ],
            "stateMutability": "view",
            "type": "function"
        },
        {
            "inputs": [
                {
                    "internalType": "uint256",
                    "name": "assets",
                    "type": "uint256"
                },
                {
                    "internalType": "address",
                    "name": "user",
                    "type": "address"
                }
            ],
            "name": "receiveAssets",
            "outputs": [],
            "stateMutability": "nonpayable",
            "type": "function"
        },
        {
            "inputs": [
                {
                    "internalType": "uint256",
                    "name": "shares",
                    "type": "uint256"
                },
                {
                    "internalType": "address",
                    "name": "receiver",
                    "type": "address"
                },
                {
                    "internalType": "address",
                    "name": "owner",
                    "type": "address"
                }
            ],
            "name": "redeem",
            "outputs": [
                {
                    "internalType": "uint256",
                    "name": "",
                    "type": "uint256"
                }
            ],
            "stateMutability": "nonpayable",
            "type": "function"
        },
        {
            "inputs": [
                {
                    "internalType": "uint256",
                    "name": "assets",
                    "type": "uint256"
                }
            ],
            "name": "refill",
            "outputs": [],
            "stateMutability": "nonpayable",
            "type": "function"
        },
        {
            "inputs": [],
            "name": "renounceOwnership",
            "outputs": [],
            "stateMutability": "nonpayable",
            "type": "function"
        },
        {
            "inputs": [
                {
                    "internalType": "uint256",
                    "name": "assets",
                    "type": "uint256"
                },
                {
                    "internalType": "address",
                    "name": "receiver",
                    "type": "address"
                }
            ],
            "name": "sendAssets",
            "outputs": [],
            "stateMutability": "nonpayable",
            "type": "function"
        },
        {
            "inputs": [],
            "name": "shareToAssetsPrice",
            "outputs": [
                {
                    "internalType": "uint256",
                    "name": "",
                    "type": "uint256"
                }
            ],
            "stateMutability": "view",
            "type": "function"
        },
        {
            "inputs": [],
            "name": "storeAccBlockWeightedMarketCap",
            "outputs": [],
            "stateMutability": "nonpayable",
            "type": "function"
        },
        {
            "inputs": [],
            "name": "symbol",
            "outputs": [
                {
                    "internalType": "string",
                    "name": "",
                    "type": "string"
                }
            ],
            "stateMutability": "view",
            "type": "function"
        },
        {
            "inputs": [],
            "name": "totalAssets",
            "outputs": [
                {
                    "internalType": "uint256",
                    "name": "",
                    "type": "uint256"
                }
            ],
            "stateMutability": "view",
            "type": "function"
        },
        {
            "inputs": [],
            "name": "totalClosedPnl",
            "outputs": [
                {
                    "internalType": "int256",
                    "name": "",
                    "type": "int256"
                }
            ],
            "stateMutability": "view",
            "type": "function"
        },
        {
            "inputs": [],
            "name": "totalDepleted",
            "outputs": [
                {
                    "internalType": "uint256",
                    "name": "",
                    "type": "uint256"
                }
            ],
            "stateMutability": "view",
            "type": "function"
        },
        {
            "inputs": [],
            "name": "totalDepletedGns",
            "outputs": [
                {
                    "internalType": "uint256",
                    "name": "",
                    "type": "uint256"
                }
            ],
            "stateMutability": "view",
            "type": "function"
        },
        {
            "inputs": [],
            "name": "totalDeposited",
            "outputs": [
                {
                    "internalType": "uint256",
                    "name": "",
                    "type": "uint256"
                }
            ],
            "stateMutability": "view",
            "type": "function"
        },
        {
            "inputs": [],
            "name": "totalDiscounts",
            "outputs": [
                {
                    "internalType": "uint256",
                    "name": "",
                    "type": "uint256"
                }
            ],
            "stateMutability": "view",
            "type": "function"
        },
        {
            "inputs": [],
            "name": "totalLiability",
            "outputs": [
                {
                    "internalType": "int256",
                    "name": "",
                    "type": "int256"
                }
            ],
            "stateMutability": "view",
            "type": "function"
        },
        {
            "inputs": [],
            "name": "totalLockedDiscounts",
            "outputs": [
                {
                    "internalType": "uint256",
                    "name": "",
                    "type": "uint256"
                }
            ],
            "stateMutability": "view",
            "type": "function"
        },
        {
            "inputs": [],
            "name": "totalRefilled",
            "outputs": [
                {
                    "internalType": "uint256",
                    "name": "",
                    "type": "uint256"
                }
            ],
            "stateMutability": "view",
            "type": "function"
        },
        {
            "inputs": [],
            "name": "totalRefilledGns",
            "outputs": [
                {
                    "internalType": "uint256",
                    "name": "",
                    "type": "uint256"
                }
            ],
            "stateMutability": "view",
            "type": "function"
        },
        {
            "inputs": [],
            "name": "totalRewards",
            "outputs": [
                {
                    "internalType": "uint256",
                    "name": "",
                    "type": "uint256"
                }
            ],
            "stateMutability": "view",
            "type": "function"
        },
        {
            "inputs": [
                {
                    "internalType": "address",
                    "name": "owner",
                    "type": "address"
                }
            ],
            "name": "totalSharesBeingWithdrawn",
            "outputs": [
                {
                    "internalType": "uint256",
                    "name": "shares",
                    "type": "uint256"
                }
            ],
            "stateMutability": "view",
            "type": "function"
        },
        {
            "inputs": [],
            "name": "totalSupply",
            "outputs": [
                {
                    "internalType": "uint256",
                    "name": "",
                    "type": "uint256"
                }
            ],
            "stateMutability": "view",
            "type": "function"
        },
        {
            "inputs": [
                {
                    "internalType": "address",
                    "name": "to",
                    "type": "address"
                },
                {
                    "internalType": "uint256",
                    "name": "amount",
                    "type": "uint256"
                }
            ],
            "name": "transfer",
            "outputs": [
                {
                    "internalType": "bool",
                    "name": "",
                    "type": "bool"
                }
            ],
            "stateMutability": "nonpayable",
            "type": "function"
        },
        {
            "inputs": [
                {
                    "internalType": "address",
                    "name": "from",
                    "type": "address"
                },
                {
                    "internalType": "address",
                    "name": "to",
                    "type": "address"
                },
                {
                    "internalType": "uint256",
                    "name": "amount",
                    "type": "uint256"
                }
            ],
            "name": "transferFrom",
            "outputs": [
                {
                    "internalType": "bool",
                    "name": "",
                    "type": "bool"
                }
            ],
            "stateMutability": "nonpayable",
            "type": "function"
        },
        {
            "inputs": [
                {
                    "internalType": "address",
                    "name": "newOwner",
                    "type": "address"
                }
            ],
            "name": "transferOwnership",
            "outputs": [],
            "stateMutability": "nonpayable",
            "type": "function"
        },
        {
            "inputs": [],
            "name": "tryNewOpenPnlRequestOrEpoch",
            "outputs": [],
            "stateMutability": "nonpayable",
            "type": "function"
        },
        {
            "inputs": [],
            "name": "tryResetDailyAccPnlDelta",
            "outputs": [],
            "stateMutability": "nonpayable",
            "type": "function"
        },
        {
            "inputs": [],
            "name": "tryUpdateCurrentMaxSupply",
            "outputs": [],
            "stateMutability": "nonpayable",
            "type": "function"
        },
        {
            "inputs": [],
            "name": "tvl",
            "outputs": [
                {
                    "internalType": "uint256",
                    "name": "",
                    "type": "uint256"
                }
            ],
            "stateMutability": "view",
            "type": "function"
        },
        {
            "inputs": [
                {
                    "internalType": "uint256",
                    "name": "depositId",
                    "type": "uint256"
                },
                {
                    "internalType": "address",
                    "name": "receiver",
                    "type": "address"
                }
            ],
            "name": "unlockDeposit",
            "outputs": [],
            "stateMutability": "nonpayable",
            "type": "function"
        },
        {
            "inputs": [
                {
                    "internalType": "uint256",
                    "name": "prevPositiveOpenPnl",
                    "type": "uint256"
                },
                {
                    "internalType": "uint256",
                    "name": "newPositiveOpenPnl",
                    "type": "uint256"
                }
            ],
            "name": "updateAccPnlPerTokenUsed",
            "outputs": [
                {
                    "internalType": "uint256",
                    "name": "",
                    "type": "uint256"
                }
            ],
            "stateMutability": "nonpayable",
            "type": "function"
        },
        {
            "inputs": [
                {
                    "internalType": "address",
                    "name": "newValue",
                    "type": "address"
                }
            ],
            "name": "updateAdmin",
            "outputs": [],
            "stateMutability": "nonpayable",
            "type": "function"
        },
        {
            "inputs": [
                {
                    "components": [
                        {
                            "internalType": "address",
                            "name": "addr",
                            "type": "address"
                        },
                        {
                            "internalType": "bytes",
                            "name": "signature",
                            "type": "bytes"
                        }
                    ],
                    "internalType": "struct GTokenV6_3_2.GnsPriceProvider",
                    "name": "newValue",
                    "type": "tuple"
                }
            ],
            "name": "updateGnsPriceProvider",
            "outputs": [],
            "stateMutability": "nonpayable",
            "type": "function"
        },
        {
            "inputs": [
                {
                    "internalType": "uint256",
                    "name": "newValue",
                    "type": "uint256"
                }
            ],
            "name": "updateLossesBurnP",
            "outputs": [],
            "stateMutability": "nonpayable",
            "type": "function"
        },
        {
            "inputs": [
                {
                    "internalType": "address",
                    "name": "newValue",
                    "type": "address"
                }
            ],
            "name": "updateManager",
            "outputs": [],
            "stateMutability": "nonpayable",
            "type": "function"
        },
        {
            "inputs": [
                {
                    "internalType": "uint256",
                    "name": "newValue",
                    "type": "uint256"
                }
            ],
            "name": "updateMaxAccOpenPnlDelta",
            "outputs": [],
            "stateMutability": "nonpayable",
            "type": "function"
        },
        {
            "inputs": [
                {
                    "internalType": "uint256",
                    "name": "newValue",
                    "type": "uint256"
                }
            ],
            "name": "updateMaxDailyAccPnlDelta",
            "outputs": [],
            "stateMutability": "nonpayable",
            "type": "function"
        },
        {
            "inputs": [
                {
                    "internalType": "uint256",
                    "name": "newValue",
                    "type": "uint256"
                }
            ],
            "name": "updateMaxDiscountP",
            "outputs": [],
            "stateMutability": "nonpayable",
            "type": "function"
        },
        {
            "inputs": [
                {
                    "internalType": "uint256",
                    "name": "newValue",
                    "type": "uint256"
                }
            ],
            "name": "updateMaxDiscountThresholdP",
            "outputs": [],
            "stateMutability": "nonpayable",
            "type": "function"
        },
        {
            "inputs": [
                {
                    "internalType": "uint256",
                    "name": "newValue",
                    "type": "uint256"
                }
            ],
            "name": "updateMaxGnsSupplyMintDailyP",
            "outputs": [],
            "stateMutability": "nonpayable",
            "type": "function"
        },
        {
            "inputs": [
                {
                    "internalType": "uint256",
                    "name": "newValue",
                    "type": "uint256"
                }
            ],
            "name": "updateMaxSupplyIncreaseDailyP",
            "outputs": [],
            "stateMutability": "nonpayable",
            "type": "function"
        },
        {
            "inputs": [
                {
                    "internalType": "address",
                    "name": "newValue",
                    "type": "address"
                }
            ],
            "name": "updateOpenTradesPnlFeed",
            "outputs": [],
            "stateMutability": "nonpayable",
            "type": "function"
        },
        {
            "inputs": [
                {
                    "internalType": "address",
                    "name": "newValue",
                    "type": "address"
                }
            ],
            "name": "updatePnlHandler",
            "outputs": [],
            "stateMutability": "nonpayable",
            "type": "function"
        },
        {
            "inputs": [
                {
                    "internalType": "uint256[2]",
                    "name": "newValue",
                    "type": "uint256[2]"
                }
            ],
            "name": "updateWithdrawLockThresholdsP",
            "outputs": [],
            "stateMutability": "nonpayable",
            "type": "function"
        },
        {
            "inputs": [
                {
                    "internalType": "uint256",
                    "name": "assets",
                    "type": "uint256"
                },
                {
                    "internalType": "address",
                    "name": "receiver",
                    "type": "address"
                },
                {
                    "internalType": "address",
                    "name": "owner",
                    "type": "address"
                }
            ],
            "name": "withdraw",
            "outputs": [
                {
                    "internalType": "uint256",
                    "name": "",
                    "type": "uint256"
                }
            ],
            "stateMutability": "nonpayable",
            "type": "function"
        },
        {
            "inputs": [],
            "name": "withdrawEpochsTimelock",
            "outputs": [
                {
                    "internalType": "uint256",
                    "name": "",
                    "type": "uint256"
                }
            ],
            "stateMutability": "view",
            "type": "function"
        },
        {
            "inputs": [
                {
                    "internalType": "uint256",
                    "name": "",
                    "type": "uint256"
                }
            ],
            "name": "withdrawLockThresholdsP",
            "outputs": [
                {
                    "internalType": "uint256",
                    "name": "",
                    "type": "uint256"
                }
            ],
            "stateMutability": "view",
            "type": "function"
        },
        {
            "inputs": [
                {
                    "internalType": "address",
                    "name": "",
                    "type": "address"
                },
                {
                    "internalType": "uint256",
                    "name": "",
                    "type": "uint256"
                }
            ],
            "name": "withdrawRequests",
            "outputs": [
                {
                    "internalType": "uint256",
                    "name": "",
                    "type": "uint256"
                }
            ],
            "stateMutability": "view",
            "type": "function"
        }
    ],
    "bytecode": "0x608060405234801561001057600080fd5b50615f2280620000216000396000f3fe608060405234801561001057600080fd5b50600436106106175760003560e01c80638da5cb5b11610328578063ce96cb77116101b4578063e7839676116100fa578063f2fde38b116100a8578063f2fde38b14610d3f578063f31bd8f714610d52578063f5521eaa14610d5b578063f851a44014610d6e578063f8fb10f714610d81578063faf33f2914610d8a578063fe0b6d9014610d93578063ff50abdc14610da657600080fd5b8063e783967614610ca6578063e7899c0614610d09578063e8e4311014610d11578063ea5f2bba14610d24578063ef01ed9314610d2d578063ef8b30f714610b84578063f0a7744614610d3657600080fd5b8063d905777e11610162578063d905777e14610c37578063db0447d514610c4a578063dd62ed3e14610c53578063ddd65e3114610c66578063e065600514610c6f578063e2f273bd14610c78578063e5328e0614610c8b578063e66a6e3b14610c9357600080fd5b8063ce96cb7714610bbd578063ce9e1b2114610bd0578063cf39c2db14610be3578063d1e08c2014610bf6578063d229b2dd14610c09578063d272df1014610c1c578063d8bdfd4814610c2f57600080fd5b8063b224e73511610279578063be216e8311610227578063be216e8314610b45578063c117ef3d14610b4d578063c4c1416914610b56578063c63384ab14610b69578063c63d75b614610b71578063c6e6f59214610b84578063ca9d07ba14610b97578063cb7f2c3914610baa57600080fd5b8063b224e73514610a59578063b3c4850a14610a62578063b3d7f6b914610a75578063b460af9414610a88578063b54bf9c914610a9b578063b82c589914610aae578063ba08765214610b3257600080fd5b8063a457c2d7116102d6578063a457c2d7146109d4578063a481c14b146109e7578063a50043a0146109fa578063a8abe90514610a0d578063a9059cbb14610a20578063aabf8ede14610a33578063ad00a5a414610a4657600080fd5b80638da5cb5b14610966578063940a4e451461097757806394bf804d1461098a57806395d89b411461099d578063979abb25146109a5578063979b0895146109b85780639aca06dc146109cb57600080fd5b8063481c6a75116104a75780636ce7dcc9116103f857806375cd9da9116103a657806375cd9da914610914578063766718081461091d57806378b4330f1461092657806379431d9c1461092f5780637dfc6922146109425780637fcff2af1461094b5780638c465629146109545780638d6cb2881461095d57600080fd5b80636ce7dcc9146108825780636d6ca319146108955780636e553f65146108c05780636ee432f2146108d357806370a08231146108e6578063715018a6146108f95780637361a5441461090157600080fd5b80635a6953d3116104555780635a6953d31461083b5780635cd8a76b1461084e5780635e93f860146108565780635f4ae7411461085f57806361a8c8c4146108685780636445ec001461087157806366d8ecf11461087957600080fd5b8063481c6a75146107da5780634cdad5061461066a5780634ea0ddf7146107ed57806353409be2146107f657806354508847146107ff57806358aba00f14610812578063596f0bc51461082557600080fd5b80631f91f2871161056c5780632c135b931161051a5780632c135b9314610762578063313ce5671461076a57806338d52e0f14610789578063395093511461079a5780633b418c1e146107ad5780633cc77527146107b65780633d7e4587146107bf578063402d267d146107c757600080fd5b80631f91f287146106ef5780631fc8d0991461071a57806320124bce1461072257806320e70a561461072a578063215e2fae1461073d57806322b2ef851461074657806323b872dd1461074f57600080fd5b80630a28a477116105c95780630a28a477146106a85780630dfb5287146106bb5780630e15561a146106c35780630fc29349146106cc5780630fcc6f31146106d5578063104aeef8146106de57806318160ddd146106e757600080fd5b806301e1d1141461061c5780630307604f146106375780630344e8a31461064057806306fdde031461065557806307a2d13a1461066a5780630851a2021461067d578063095ea7b314610685575b600080fd5b610624610daf565b6040519081526020015b60405180910390f35b61062460f75481565b61065361064e36600461514d565b610e21565b005b61065d6111bb565b60405161062e91906151cd565b6106246106783660046151e0565b61124d565b610624611260565b6106986106933660046151f9565b61126a565b604051901515815260200161062e565b6106246106b63660046151e0565b611282565b61065361128f565b61062460ef5481565b61062460f05481565b61062460ee5481565b61062460e55481565b603554610624565b60ce54610702906001600160a01b031681565b6040516001600160a01b03909116815260200161062e565b61062461134a565b61062461145c565b610653610738366004615225565b611499565b61062460e85481565b61062460e65481565b61069861075d366004615242565b611536565b610624611590565b606554600160a01b900460ff1660405160ff909116815260200161062e565b6065546001600160a01b0316610702565b6106986107a83660046151f9565b6115a7565b61062460d45481565b61062460d95481565b6106536115c9565b6106246107d5366004615225565b611618565b60cb54610702906001600160a01b031681565b61062460de5481565b61062460f15481565b61065361080d3660046151e0565b61162d565b610653610820366004615225565b6116e2565b61082d6117b6565b60405161062e929190615283565b60cd54610702906001600160a01b031681565b610653611857565b61062460e05481565b61062460f55481565b61062460e35481565b610653611908565b61062460ea5481565b6106536108903660046151e0565b6119a9565b6106246108a33660046151f9565b60e760209081526000928352604080842090915290825290205481565b6106246108ce36600461514d565b611af6565b6106246108e13660046151e0565b611bc2565b6106246108f4366004615225565b611bd9565b610653611bf4565b61062461090f3660046152a7565b611c06565b61062460d85481565b61062460e25481565b61062460d15481565b60ca54610702906001600160a01b031681565b61062460db5481565b61062460df5481565b61062460eb5481565b61062460f85481565b6097546001600160a01b0316610702565b6106536109853660046151e0565b611dd2565b61062461099836600461514d565b611e96565b61065d611f58565b6106536109b33660046151e0565b611f67565b6106246109c63660046151e0565b61203a565b61062460f25481565b6106986109e23660046151f9565b61208f565b6106536109f536600461514d565b612115565b610653610a083660046152c9565b61229b565b610653610a1b36600461514d565b6123fa565b610698610a2e3660046151f9565b612609565b610653610a41366004615592565b612652565b610624610a54366004615225565b612a9d565b61062460e15481565b610624610a70366004615689565b612b1e565b610624610a833660046151e0565b612c92565b610624610a963660046156c2565b612c9f565b610653610aa93660046156f9565b612da9565b610afb610abc3660046151e0565b60e9602052600090815260409020805460018201546002830154600384015460048501546005909501546001600160a01b039094169492939192909186565b604080516001600160a01b0390971687526020870195909552938501929092526060840152608083015260a082015260c00161062e565b610624610b403660046156c2565b612eab565b610624612fa9565b61062460f45481565b610653610b643660046151e0565b612fc1565b610624613079565b610624610b7f366004615225565b6130ea565b610624610b923660046151e0565b613119565b610653610ba53660046151e0565b613126565b60c954610702906001600160a01b031681565b610624610bcb366004615225565b613458565b610653610bde3660046151e0565b613466565b610653610bf13660046151e0565b613513565b610624610c043660046152a7565b6135ca565b610653610c17366004615225565b61365f565b610653610c2a3660046151e0565b6136ee565b610624613745565b610624610c45366004615225565b6137e9565b61062460d75481565b610624610c6136600461572d565b6138a2565b61062460dd5481565b61062460ec5481565b610653610c86366004615225565b6138cd565b6106246139ca565b610653610ca136600461514d565b6139e6565b610cb9610cb43660046151e0565b613baa565b60405161062e919081516001600160a01b031681526020808301519082015260408083015190820152606080830151908201526080808301519082015260a0918201519181019190915260c00190565b610653613c4e565b610624610d1f366004615689565b613c99565b61062460dc5481565b61062460f65481565b61062460d35481565b610653610d4d366004615225565b613e05565b61062460f35481565b610653610d6936600461575b565b613ec3565b60cc54610702906001600160a01b031681565b61062460da5481565b61062460e45481565b610653610da13660046151e0565b613f4b565b61062460ed5481565b6065546040516370a0823160e01b81523060048201526000916001600160a01b0316906370a0823190602401602060405180830381865afa158015610df8573d6000803e3d6000fd5b505050506040513d601f19601f82011682018060405250810190610e1c9190615777565b905090565b600082815260e960205260408120903360ca546040516331a9108f60e11b8152600481018790529192506000916001600160a01b0390911690636352211e90602401602060405180830381865afa158015610e80573d6000803e3d6000fd5b505050506040513d601f19601f82011682018060405250810190610ea49190615790565b9050816001600160a01b0316816001600160a01b03161480610f3b575060ca5460405163020604bf60e21b8152600481018790526001600160a01b0384811692169063081812fc90602401602060405180830381865afa158015610f0c573d6000803e3d6000fd5b505050506040513d601f19601f82011682018060405250810190610f309190615790565b6001600160a01b0316145b80610fb7575060ca5460405163e985e9c560e01b81526001600160a01b03838116600483015284811660248301529091169063e985e9c590604401602060405180830381865afa158015610f93573d6000803e3d6000fd5b505050506040513d601f19601f82011682018060405250810190610fb791906157ad565b610fdc5760405162461bcd60e51b8152600401610fd3906157cf565b60405180910390fd5b82600501548360040154610ff0919061580a565b42101561102e5760405162461bcd60e51b815260206004820152600c60248201526b1393d517d5539313d0d2d15160a21b6044820152606401610fd3565b6000611053670de0b6b3a764000061104560355490565b600387015491906001614004565b90508060de6000828254611067919061581d565b909155506110759050612fa9565b60de5413156110965760405162461bcd60e51b8152600401610fd390615845565b60ca54604051630852cd8d60e31b8152600481018890526001600160a01b03909116906342966c6890602401600060405180830381600087803b1580156110dc57600080fd5b505af11580156110f0573d6000803e3d6000fd5b505050508060dd6000828254611106919061581d565b909155506111149050614063565b836003015460f0600082825461112a919061581d565b9091555050600384015460f18054600090611146908490615870565b9250508190555061115c308686600101546140c7565b816001600160a01b0316856001600160a01b0316846001600160a01b03167fe37405a4f414fe3119839681cc26ea3462fc575fd2f81734417e52144d3f34b989886040516111ab929190615883565b60405180910390a4505050505050565b6060603680546111ca906158cd565b80601f01602080910402602001604051908101604052809291908181526020018280546111f6906158cd565b80156112435780601f1061121857610100808354040283529160200191611243565b820191906000526020600020905b81548152906001019060200180831161122657829003601f168201915b5050505050905090565b600061125a826000614259565b92915050565b6000610e1c61145c565b60003361127881858561429a565b5060019392505050565b600061125a8260016143be565b60ce5460408051600481526024810182526020810180516001600160e01b031663bef35b7960e01b17905290516000926001600160a01b0316916112d291615901565b6000604051808303816000865af19150503d806000811461130f576040519150601f19603f3d011682016040523d82523d6000602084013e611314565b606091505b5050905080611347576040517f46f2d6138acb3be39ad6ae5c9279b648c2a2c68743d0ddc18cc3a81cedecebd590600090a15b50565b60cf54604051600091829182916001600160a01b03169061136d9060d09061591d565b600060405180830381855afa9150503d80600081146113a8576040519150601f19603f3d011682016040523d82523d6000602084013e6113ad565b606091505b5090925090506001821515146113fd5760405162461bcd60e51b815260206004820152601560248201527411d394d7d4149250d157d0d0531317d19052531151605a1b6044820152606401610fd3565b808060200190518101906114119190615777565b9250600083116114575760405162461bcd60e51b81526020600482015260116024820152700474e535f544f4b454e5f50524943455f3607c1b6044820152606401610fd3565b505090565b6000670de0b6b3a764000061147060355490565b60dd5461147b612fa9565b6114859190615993565b61148f91906159b3565b610e1c91906159e0565b6114a16143da565b6001600160a01b0381166114c75760405162461bcd60e51b8152600401610fd3906159f4565b60ce80546001600160a01b0319166001600160a01b03831690811790915560408051818152601191810191909152701bdc195b951c9859195cd41b9b11995959607a1b60608201526020810191909152600080516020615ecd833981519152906080015b60405180910390a150565b60008161154285611bd9565b61154c9190615870565b61155585612a9d565b11156115735760405162461bcd60e51b8152600401610fd390615a17565b61157e843384614434565b6112788484846140c7565b9392505050565b6000670de0b6b3a764000060dc5461148560355490565b6000336112788185856115ba83836138a2565b6115c4919061580a565b61429a565b60006115d36144a8565b90506115de8161203a565b60f781905560f88290556040519081527f9551c7fda0233728a7b7eae3d388b53a068086c3f7d613bdf74e6e58dd6b41ec9060200161152b565b600061125a611626836130ea565b6000614259565b60cb546001600160a01b0316336001600160a01b0316146116605760405162461bcd60e51b8152600401610fd390615a43565b611673600a670de0b6b3a76400006159e0565b8110156116925760405162461bcd60e51b8152600401610fd390615a69565b60d481905560408051818152601391810191909152726d61784461696c79416363506e6c44656c746160681b606082015260208101829052600080516020615e8d8339815191529060800161152b565b6116ea6143da565b6001600160a01b0381166117105760405162461bcd60e51b8152600401610fd3906159f4565b6097546001600160a01b0382811691161480159061173c575060cc546001600160a01b03828116911614155b6117585760405162461bcd60e51b8152600401610fd390615a8c565b60cb80546001600160a01b0319166001600160a01b038316908117909155604080518181526007918101919091526636b0b730b3b2b960c91b60608201526020810191909152600080516020615ecd8339815191529060800161152b565b60cf805460d080546001600160a01b0390921692916117d4906158cd565b80601f0160208091040260200160405190810160405280929190818152602001828054611800906158cd565b801561184d5780601f106118225761010080835404028352916020019161184d565b820191906000526020600020905b81548152906001019060200180831161183057829003601f168201915b5050505050905082565b600054600290610100900460ff16158015611879575060005460ff8083169116105b6118955760405162461bcd60e51b8152600401610fd390615ab1565b6000805461ffff191660ff8316176101001790556118b16115c9565b60ef5460ed60008282546118c5919061580a565b90915550506000805461ff001916905560405160ff821681527f7f26b83ff96e1f2b6a682f133852f6798a09c465da95921460cefb38474024989060200161152b565b6201518060e6544261191a9190615870565b106119a757611932670de0b6b3a764000060646159b3565b60d754611948670de0b6b3a764000060646159b3565b611952919061580a565b60355461195f91906159b3565b61196991906159e0565b60e58190554260e6556040519081527fd103db6eec024592fa6d47db028ec6408076ac4762eb021a6e52b525828bab9b906020015b60405180910390a15b565b60ea548111156119cb5760405162461bcd60e51b8152600401610fd390615aff565b8060ea60008282546119dd9190615870565b9091555060009050611a006402540be4006119f661134a565b8491906001614004565b905060003360c954604051632770a7eb60e21b81529192506001600160a01b031690639dc29fac90611a389084908690600401615b27565b600060405180830381600087803b158015611a5257600080fd5b505af1158015611a66573d6000803e3d6000fd5b505050508260f36000828254611a7c919061580a565b925050819055508160f46000828254611a95919061580a565b90915550611aad9050611aa6614505565b8285614519565b60408051848152602081018490526001600160a01b038316917f1fb4f167278bb29c47ac4fd58ca1586b0626b52807f2991ef78abdbb97bb4333910160405180910390a2505050565b600082600060dc5411611b1b5760405162461bcd60e51b8152600401610fd390615b40565b60008111611b3b5760405162461bcd60e51b8152600401610fd390615b61565b611b4483611618565b841115611b935760405162461bcd60e51b815260206004820152601e60248201527f455243343632363a206465706f736974206d6f7265207468616e206d617800006044820152606401610fd3565b6000611b9e85613119565b9050611bac81866001614574565b611bb833858784614650565b91505b5092915050565b60d58160028110611bd257600080fd5b0154905081565b6001600160a01b031660009081526033602052604090205490565b611bfc6143da565b6119a760006146c0565b60ce5460009033906001600160a01b03168114611c555760405162461bcd60e51b815260206004820152600d60248201526c13d3931657d4139317d1915151609a1b6044820152606401610fd3565b6000611c618585615993565b90506000611c6e60355490565b90506000611cce670de0b6b3a76400008360de54611c8a612fa9565b611c949190615993565b611c9e91906159b3565b611ca891906159e0565b670de0b6b3a76400008460d354611cbf91906159b3565b611cc991906159e0565b614712565b9050808313611cdd5782611cdf565b805b925081611cf4670de0b6b3a764000085615b82565b611cfe9190615bb2565b60de6000828254611d0f919061581d565b925050819055508260f06000828254611d28919061581d565b909155505060de5460dd55611d3b614063565b60e28054906000611d4b83615be0565b90915550504260e355611d5e838861581d565b60e455611d69611908565b60e25460e45460dd54604080518b8152602081018b90529081019290925260608201526001600160a01b038616907f115621a72d6f59323a1d752b116219634bc004cadb85d6bdc8e7eb254905722d9060800160405180910390a3505060e45495945050505050565b33611de6611dde614505565b823085614728565b603554611dfb670de0b6b3a7640000846159b3565b611e0591906159e0565b60df6000828254611e16919061580a565b90915550611e249050614063565b8160ef6000828254611e36919061580a565b925050819055508160ed6000828254611e4f919061580a565b90915550506040518281526001600160a01b038216907fe34918ff1c7084970068b53fd71ad6d8b04e9f15d3886cbf006443e6cdc52ea69060200160405180910390a25050565b600082600060dc5411611ebb5760405162461bcd60e51b8152600401610fd390615b40565b60008111611edb5760405162461bcd60e51b8152600401610fd390615b61565b611ee4836130ea565b841115611f335760405162461bcd60e51b815260206004820152601b60248201527f455243343632363a206d696e74206d6f7265207468616e206d617800000000006044820152606401610fd3565b6000611f3e85612c92565b9050611f4c85826001614574565b611bb833858388614650565b6060603780546111ca906158cd565b60cb546001600160a01b0316336001600160a01b031614611f9a5760405162461bcd60e51b8152600401610fd390615a43565b611fad670de0b6b3a7640000600a6159b3565b811115611ff15760405162461bcd60e51b8152602060048201526012602482015271105093d59157d3505617d11254d0d3d5539560721b6044820152606401610fd3565b60da81905560408051818152600c918101919091526b06d6178446973636f756e74560a41b606082015260208101829052600080516020615e8d8339815191529060800161152b565b600061204e612047611590565b6001614760565b701d6329f1c35ca4bfabb9f561000000000060f8548461206e9190615870565b61207891906159b3565b61208291906159e0565b60f75461125a919061580a565b6000338161209d82866138a2565b9050838110156120fd5760405162461bcd60e51b815260206004820152602560248201527f45524332303a2064656372656173656420616c6c6f77616e63652062656c6f77604482015264207a65726f60d81b6064820152608401610fd3565b61210a828686840361429a565b506001949350505050565b33612129612121614505565b823086614728565b60dd548390600013801561213f5750600060de54125b1561219b5760006064670de0b6b3a764000060d8548761215f91906159b3565b61216991906159e0565b61217391906159e0565b90508060ea6000828254612187919061580a565b9091555061219790508183615870565b9150505b60006121a660355490565b6121b8670de0b6b3a7640000846159b3565b6121c291906159e0565b90508060de60008282546121d69190615993565b909155506121e49050613c4e565b8060e060008282546121f69190615993565b925050819055508160f0600082825461220f9190615993565b925050819055508160ee60008282546122289190615993565b90915550612236905061128f565b61223e611908565b836001600160a01b0316836001600160a01b03167f2083893e39f8ae736fed502f7e149cc5bfe6159878615fae685a9a98bc452d5a878560405161228c929190918252602082015260400190565b60405180910390a35050505050565b6001600160a01b038216600090815260e76020908152604080832084845290915290205483111561230a5760405162461bcd60e51b81526020600482015260196024820152781353d49157d512105397d5d2551211149055d7d05353d55395603a1b6044820152606401610fd3565b33600061231784836138a2565b9050836001600160a01b0316826001600160a01b0316148061234457506000811180156123445750848110155b6123605760405162461bcd60e51b8152600401610fd3906157cf565b6001600160a01b038416600090815260e76020908152604080832086845290915281208054879290612393908490615870565b9250508190555082846001600160a01b0316836001600160a01b03167f443ccdbbbde35bd48740a9ea14c47318b735db4631ed1ebcdaaaa9f4636c84ea8860e2546040516123eb929190918252602082015260400190565b60405180910390a45050505050565b60ce60009054906101000a90046001600160a01b03166001600160a01b031663b8feee646040518163ffffffff1660e01b8152600401602060405180830381865afa15801561244d573d6000803e3d6000fd5b505050506040513d601f19601f820116820180604052508101906124719190615777565b156124ad5760405162461bcd60e51b815260206004820152600c60248201526b08a9c88be9e8cbe8aa09e86960a31b6044820152606401610fd3565b3360006124ba83836138a2565b9050826001600160a01b0316826001600160a01b031614806124e757506000811180156124e75750838110155b6125035760405162461bcd60e51b8152600401610fd3906157cf565b61250c83611bd9565b8461251685612a9d565b612520919061580a565b11156125625760405162461bcd60e51b81526020600482015260116024820152704d4f52455f5448414e5f42414c414e434560781b6044820152606401610fd3565b600061256c613745565b60e254612579919061580a565b6001600160a01b038516600090815260e7602090815260408083208484529091528120805492935087929091906125b190849061580a565b9250508190555080846001600160a01b0316846001600160a01b03167f21b8e5e36008677ea26efbbc967e568e01b127f731ed0fda0a8685fda37d0d5f8860e2546040516123eb929190918252602082015260400190565b6000338261261682611bd9565b6126209190615870565b61262982612a9d565b11156126475760405162461bcd60e51b8152600401610fd390615a17565b6112788185856140c7565b600054610100900460ff16158080156126725750600054600160ff909116105b8061268c5750303b15801561268c575060005460ff166001145b6126a85760405162461bcd60e51b8152600401610fd390615ab1565b6000805460ff1916600117905580156126cb576000805461ff0019166101001790555b8a516001600160a01b0316158015906126f0575060208b01516001600160a01b031615155b8015612708575060408b01516001600160a01b031615155b8015612720575060608b01516001600160a01b031615155b801561274657508a604001516001600160a01b03168b602001516001600160a01b031614155b801561276c57508a606001516001600160a01b03168b604001516001600160a01b031614155b8015612784575060808b01516001600160a01b031615155b801561279c575060a08b01516001600160a01b031615155b80156127b4575060c08b01516001600160a01b031615155b80156127cc575060e08b01516001600160a01b031615155b80156127e657506101008b0151516001600160a01b031615155b80156127fc575060008b61010001516020015151115b801561281a5750612816600a670de0b6b3a76400006159e0565b8810155b801561282a575086516020880151115b80156128485750612844670de0b6b3a764000060326159b3565b8611155b80156128665750612862670de0b6b3a764000060196159b3565b8511155b801561288457506128806014670de0b6b3a76400006159e0565b8411155b80156128a2575061289e670de0b6b3a7640000600a6159b3565b8311155b80156128c057506128bc670de0b6b3a764000060646159b3565b8210155b6128fb5760405162461bcd60e51b815260206004820152600c60248201526b57524f4e475f504152414d5360a01b6044820152606401610fd3565b6129058d8d61476f565b8a51612910906147a4565b61291d8b602001516146c0565b60808b015160c980546001600160a01b03199081166001600160a01b039384161790915560a08d015160ca8054831691841691909117905560408d015160cb8054831691841691909117905560608d015160cc8054831691841691909117905560c08d015160cd8054831691841691909117905560e08d015160ce805483169184169190911790556101008d0151805160cf80549093169316929092178155602082015160d0906129ce9082615c5d565b50505060d18a905560d389905560d48890556129ed60d5886002615095565b5060d786905560d885905560d984905560da83905560db829055670de0b6b3a764000060dc55600160e28190554260e3556040805160608101825260038082526002602083015291810192909252612a479160d2916150d3565b508015612a8e576000805461ff0019169055604051600181527f7f26b83ff96e1f2b6a682f133852f6798a09c465da95921460cefb38474024989060200160405180910390a15b50505050505050505050505050565b60e2546000905b60d2600081548110612ab857612ab8615bf9565b906000526020600020015460e254612ad0919061580a565b8111612b18576001600160a01b038316600090815260e760209081526040808320848452909152902054612b04908361580a565b915080612b1081615be0565b915050612aa4565b50919050565b600083600060dc5411612b435760405162461bcd60e51b8152600401610fd390615b40565b60008111612b635760405162461bcd60e51b8152600401610fd390615b61565b83600060da5411612b865760405162461bcd60e51b8152600401610fd390615d1c565b60d154811015612ba85760405162461bcd60e51b8152600401610fd390615d48565b6301e13380811115612bcc5760405162461bcd60e51b8152600401610fd390615d79565b612bd5846130ea565b861115612c195760405162461bcd60e51b815260206004820152601260248201527109a929ca8be9a9ea48abea890829cbe9a82b60731b6044820152606401610fd3565b6000612c2487612c92565b9050612c8781612c3b612c35613079565b896135ca565b612c4e670de0b6b3a764000060646159b3565b612c58919061580a565b612c6b670de0b6b3a764000060646159b3565b612c7590856159b3565b612c7f91906159e0565b8989896147d4565b979650505050505050565b600061125a826001614259565b600083600060dc5411612cc45760405162461bcd60e51b8152600401610fd390615b40565b60008111612ce45760405162461bcd60e51b8152600401610fd390615b61565b612ced83613458565b851115612d3c5760405162461bcd60e51b815260206004820152601f60248201527f455243343632363a207769746864726177206d6f7265207468616e206d6178006044820152606401610fd3565b6000612d4786611282565b6001600160a01b038516600090815260e76020908152604080832060e2548452909152812080549293508392909190612d81908490615870565b90915550612d93905081876000614574565b612da0338686898561498d565b95945050505050565b60cb546001600160a01b0316336001600160a01b031614612ddc5760405162461bcd60e51b8152600401610fd390615a43565b80516001600160a01b0316612e035760405162461bcd60e51b8152600401610fd3906159f4565b600081602001515111612e425760405162461bcd60e51b8152602060048201526007602482015266042595445535f360cc1b6044820152606401610fd3565b805160cf80546001600160a01b0319166001600160a01b03909216919091178155602082015182919060d090612e789082615c5d565b509050507f2763c7adb1b7018e25499ef5553ec78e35bb46be6384b393861c35d501825dce8160405161152b9190615daa565b600083600060dc5411612ed05760405162461bcd60e51b8152600401610fd390615b40565b60008111612ef05760405162461bcd60e51b8152600401610fd390615b61565b612ef9836137e9565b851115612f485760405162461bcd60e51b815260206004820152601d60248201527f455243343632363a2072656465656d206d6f7265207468616e206d61780000006044820152606401610fd3565b6001600160a01b038316600090815260e76020908152604080832060e254845290915281208054879290612f7d908490615870565b9091555060009050612f8e8661124d565b9050612f9c86826000614574565b612da0338686848a61498d565b600060df54670de0b6b3a7640000610e1c919061580a565b60cb546001600160a01b0316336001600160a01b031614612ff45760405162461bcd60e51b8152600401610fd390615a43565b6130076014670de0b6b3a76400006159e0565b8111156130265760405162461bcd60e51b8152600401610fd390615dd7565b60d9819055604080518181526016918101919091527506d6178476e73537570706c794d696e744461696c79560541b606082015260208101829052600080516020615e8d8339815191529060800161152b565b600080613084612fa9565b905080670de0b6b3a7640000600060dd54136130b85760dd546130a990600019615b82565b6130b3908461580a565b6130c5565b60dd546130c59084615870565b6130d09060646159b3565b6130da91906159b3565b6130e491906159e0565b91505090565b60008060dd54136130fd5760001961125a565b61310c60e554611cc960355490565b60e55461125a9190615870565b600061125a8260006143be565b600060dd54136131735760405162461bcd60e51b81526020600482015260186024820152771393d517d55391115497d0d3d3131055115490531256915160421b6044820152606401610fd3565b600061317e60355490565b9050670de0b6b3a76400008160dd5461319791906159b3565b6131a191906159e0565b8211156131c05760405162461bcd60e51b8152600401610fd390615aff565b6201518060ec54426131d29190615870565b106131e157600060eb554260ec555b60006131eb61134a565b6131fa6402540be400856159b3565b61320491906159e0565b90508060eb6000828254613218919061580a565b925050819055506064670de0b6b3a764000060c960009054906101000a90046001600160a01b03166001600160a01b03166318160ddd6040518163ffffffff1660e01b8152600401602060405180830381865afa15801561327d573d6000803e3d6000fd5b505050506040513d601f19601f820116820180604052508101906132a19190615777565b60d9546132ae91906159b3565b6132b891906159e0565b6132c291906159e0565b60eb54111561330b5760405162461bcd60e51b8152602060048201526015602482015274105093d59157d253919310551253d397d312535255605a1b6044820152606401610fd3565b3361331f613317614505565b823087614728565b600083613334670de0b6b3a7640000876159b3565b61333e91906159e0565b90508060de60008282546133529190615993565b925050819055508060dd600082825461336b9190615993565b909155506133799050614063565b8460f5600082825461338b919061580a565b925050819055508260f660008282546133a4919061580a565b909155505060c9546040516340c10f1960e01b81526001600160a01b03909116906340c10f19906133db9085908790600401615b27565b600060405180830381600087803b1580156133f557600080fd5b505af1158015613409573d6000803e3d6000fd5b505060408051888152602081018790526001600160a01b03861693507f19aee2c21e4d63823896cb2a77a3e61197dda70b1043a55fca38aa8d75c0edd392500160405180910390a25050505050565b600061125a611626836137e9565b60cb546001600160a01b0316336001600160a01b0316146134995760405162461bcd60e51b8152600401610fd390615a43565b6134ac670de0b6b3a764000060196159b3565b8111156134cb5760405162461bcd60e51b8152600401610fd390615dd7565b60d881905560408051818152600b918101919091526a06c6f737365734275726e560ac1b606082015260208101829052600080516020615e8d8339815191529060800161152b565b60cb546001600160a01b0316336001600160a01b0316146135465760405162461bcd60e51b8152600401610fd390615a43565b613559670de0b6b3a764000060646159b3565b8110156135785760405162461bcd60e51b8152600401610fd390615a69565b60db819055604080518181526015918101919091527406d6178446973636f756e745468726573686f6c645605c1b606082015260208101829052600080516020615e8d8339815191529060800161152b565b60006301e13380826135e5670de0b6b3a764000060646159b3565b8511156136475760db548511156135fd57600061364b565b613610670de0b6b3a764000060646159b3565b60db5461361d9190615870565b8560db5461362b9190615870565b60da5461363891906159b3565b61364291906159e0565b61364b565b60da545b61365591906159b3565b61158991906159e0565b6136676143da565b6001600160a01b03811661368d5760405162461bcd60e51b8152600401610fd3906159f4565b60cd80546001600160a01b0319166001600160a01b03831690811790915560408051818152600a91810191909152693837362430b7323632b960b11b60608201526020810191909152600080516020615ecd8339815191529060800161152b565b6136f66143da565b60d381905560408051818152601291810191909152716d61784163634f70656e506e6c44656c746160701b606082015260208101829052600080516020615e8d8339815191529060800161152b565b600080613750613079565b9050600061376b82611cc9670de0b6b3a764000060646159b3565b6137759083615870565b60d65490915081116137c25760d55481116137ae5760d260008154811061379e5761379e615bf9565b90600052602060002001546137e2565b60d260018154811061379e5761379e615bf9565b60d26002815481106137d6576137d6615bf9565b90600052602060002001545b9250505090565b60ce5460408051632e3fbb9960e21b815290516000926001600160a01b03169163b8feee649160048083019260209291908290030181865afa158015613833573d6000803e3d6000fd5b505050506040513d601f19601f820116820180604052508101906138579190615777565b1561386357600061125a565b6001600160a01b038216600090815260e76020908152604080832060e254845290915290205461125a90600161389860355490565b611cc99190615870565b6001600160a01b03918216600090815260346020908152604080832093909416825291909152205490565b60cb546001600160a01b0316336001600160a01b0316146139005760405162461bcd60e51b8152600401610fd390615a43565b6001600160a01b0381166139265760405162461bcd60e51b8152600401610fd3906159f4565b6097546001600160a01b03828116911614801590613952575060cb546001600160a01b03828116911614155b61396e5760405162461bcd60e51b8152600401610fd390615a8c565b60cc80546001600160a01b0319166001600160a01b038316908117909155604080518181526005918101919091526430b236b4b760d91b60608201526020810191909152600080516020615ecd8339815191529060800161152b565b6000670de0b6b3a76400006139de60355490565b611485612fa9565b60cd5433906001600160a01b03168114613a3d5760405162461bcd60e51b815260206004820152601860248201527727a7262cafaa2920a224a723afa827262fa420a7222622a960411b6044820152606401610fd3565b6000613a5e670de0b6b3a7640000613a5460355490565b8691906001614004565b90508060de6000828254613a72919061581d565b90915550613a809050612fa9565b60de541315613aa15760405162461bcd60e51b8152600401610fd390615845565b613aa9613c4e565b8060e06000828254613abb919061581d565b909155505060d45460e0541315613b045760405162461bcd60e51b815260206004820152600d60248201526c13505617d11052531657d41393609a1b6044820152606401610fd3565b8360f06000828254613b16919061581d565b925050819055508360ee6000828254613b2f919061581d565b90915550613b3d905061128f565b613b45611908565b613b57613b50614505565b8486614519565b826001600160a01b0316826001600160a01b03167f17ffe64fb2212f31d60284d6471e06abb7db8d66f0a60f9b884b29f1597d05da86604051613b9c91815260200190565b60405180910390a350505050565b613bec6040518060c0016040528060006001600160a01b0316815260200160008152602001600081526020016000815260200160008152602001600081525090565b50600090815260e96020908152604091829020825160c08101845281546001600160a01b03168152600182015492810192909252600281015492820192909252600382015460608201526004820154608082015260059091015460a082015290565b6201518060e15442613c609190615870565b106119a757600060e08190554260e1556040517fa047de172c12fcf40e0ff45a86ac45befb232ae644862699ef140a8c5f763b419190a1565b600083600060dc5411613cbe5760405162461bcd60e51b8152600401610fd390615b40565b60008111613cde5760405162461bcd60e51b8152600401610fd390615b61565b83600060da5411613d015760405162461bcd60e51b8152600401610fd390615d1c565b60d154811015613d235760405162461bcd60e51b8152600401610fd390615d48565b6301e13380811115613d475760405162461bcd60e51b8152600401610fd390615d79565b6000613d5c670de0b6b3a764000060646159b3565b613d6d613d67613079565b886135ca565b613d80670de0b6b3a764000060646159b3565b613d8a919061580a565b613d9490896159b3565b613d9e91906159e0565b9050613da985611618565b811115613df05760405162461bcd60e51b81526020600482015260156024820152740888aa09ea692a8be9a9ea48abea890829cbe9a82b605b1b6044820152606401610fd3565b612c878188613dfe84613119565b89896147d4565b613e0d6143da565b6001600160a01b038116613e725760405162461bcd60e51b815260206004820152602660248201527f4f776e61626c653a206e6577206f776e657220697320746865207a65726f206160448201526564647265737360d01b6064820152608401610fd3565b60cb546001600160a01b03828116911614801590613e9e575060cc546001600160a01b03828116911614155b613eba5760405162461bcd60e51b8152600401610fd390615a8c565b611347816146c0565b613ecb6143da565b8051602082015111613f0e5760405162461bcd60e51b815260206004820152600c60248201526b57524f4e475f56414c55455360a01b6044820152606401610fd3565b613f1b60d5826002615095565b507f8472b50e25b52d8de564f9719bd793b18d83cf59ce4d309e211fb6a4fdc148118160405161152b9190615dfa565b60cb546001600160a01b0316336001600160a01b031614613f7e5760405162461bcd60e51b8152600401610fd390615a43565b613f91670de0b6b3a764000060326159b3565b811115613fb05760405162461bcd60e51b8152600401610fd390615dd7565b60d7819055604080518181526017918101919091527606d6178537570706c79496e6372656173654461696c795604c1b606082015260208101829052600080516020615e8d8339815191529060800161152b565b600080614012868686614a2a565b9050600183600281111561402857614028615e2b565b148015614045575060008480614040576140406159ca565b868809115b156140585761405560018261580a565b90505b90505b949350505050565b61406b6115c9565b600060dd541361407c576000614080565b60dd545b614088612fa9565b6140929190615870565b60dc8190556040519081527f547c25b7a5677a006ff044a0e4b5e699598339825e7b42d3dc645117ceee80509060200161199e565b6001600160a01b03831661412b5760405162461bcd60e51b815260206004820152602560248201527f45524332303a207472616e736665722066726f6d20746865207a65726f206164604482015264647265737360d81b6064820152608401610fd3565b6001600160a01b03821661418d5760405162461bcd60e51b815260206004820152602360248201527f45524332303a207472616e7366657220746f20746865207a65726f206164647260448201526265737360e81b6064820152608401610fd3565b6001600160a01b038316600090815260336020526040902054818110156142055760405162461bcd60e51b815260206004820152602660248201527f45524332303a207472616e7366657220616d6f756e7420657863656564732062604482015265616c616e636560d01b6064820152608401610fd3565b6001600160a01b038085166000818152603360205260408082208686039055928616808252908390208054860190559151600080516020615ead83398151915290613b9c9086815260200190565b50505050565b6000600019831480156142765750670de0b6b3a764000060dc5410155b1561428257508161125a565b60dc54611589908490670de0b6b3a764000085614004565b6001600160a01b0383166142fc5760405162461bcd60e51b8152602060048201526024808201527f45524332303a20617070726f76652066726f6d20746865207a65726f206164646044820152637265737360e01b6064820152608401610fd3565b6001600160a01b03821661435d5760405162461bcd60e51b815260206004820152602260248201527f45524332303a20617070726f766520746f20746865207a65726f206164647265604482015261737360f01b6064820152608401610fd3565b6001600160a01b0383811660008181526034602090815260408083209487168084529482529182902085905590518481527f8c5be1e5ebec7d5bd14f71427d1e84f3dd0314c0f7b2291e5b200ac8c7c3b925910160405180910390a3505050565b60dc54600090611589908490670de0b6b3a76400009085614004565b6097546001600160a01b031633146119a75760405162461bcd60e51b815260206004820181905260248201527f4f776e61626c653a2063616c6c6572206973206e6f7420746865206f776e65726044820152606401610fd3565b600061444084846138a2565b90506000198114614253578181101561449b5760405162461bcd60e51b815260206004820152601d60248201527f45524332303a20696e73756666696369656e7420616c6c6f77616e63650000006044820152606401610fd3565b614253848484840361429a565b600061a4b14614806144bc575062066eed46145b156145005760646001600160a01b031663a3b1b31d6040518163ffffffff1660e01b8152600401602060405180830381865afa158015610df8573d6000803e3d6000fd5b504390565b6000610e1c6065546001600160a01b031690565b61456f8363a9059cbb60e01b8484604051602401614538929190615b27565b60408051601f198184030181529190526020810180516001600160e01b03166001600160e01b031990931692909217909152614ad9565b505050565b600061457f60355490565b9050600060de5412156145ca57816145a05761459b8482615870565b6145aa565b6145aa848261580a565b8160de546145b89190615b82565b6145c29190615bb2565b60de5561461f565b600060de54131561461f57816145e2576000196145e5565b60015b8160f054866145f49190615b82565b6145fe9190615bb2565b6146089190615b82565b60f06000828254614619919061581d565b90915550505b81614637578260ed546146329190615870565b614645565b8260ed54614645919061580a565b60ed556142536115c9565b606554614668906001600160a01b0316853085614728565b6146728382614bab565b826001600160a01b0316846001600160a01b03167fdcbc1c05240f31ff3ad067ef1ee35ce4997762752e3a095284754544f4c709d78484604051613b9c929190918252602082015260400190565b609780546001600160a01b038381166001600160a01b0319831681179093556040519116919082907f8be0079c531659141344cd1fd0a4f28419497f9722a3daafe3b4186f6b6457e090600090a35050565b60008183106147215781611589565b5090919050565b6040516001600160a01b03808516602483015283166044820152606481018290526142539085906323b872dd60e01b90608401614538565b60008183116147215781611589565b600054610100900460ff166147965760405162461bcd60e51b8152600401610fd390615e41565b6147a08282614c5a565b5050565b600054610100900460ff166147cb5760405162461bcd60e51b8152600401610fd390615e41565b61134781614c9a565b60008486116148135760405162461bcd60e51b815260206004820152600b60248201526a1393d7d11254d0d3d5539560aa1b6044820152606401610fd3565b600060e86000815461482490615be0565b9182905550905060006148378789615870565b600083815260e96020526040902080546001600160a01b0319166001600160a01b0387161781556001808201899055600282018a90556003820183905542600483015560058201889055919250906148929088908a90614574565b3361489f81308b8b614650565b8260f260008282546148b1919061580a565b925050819055508260f160008282546148ca919061580a565b909155505060ca546040516340c10f1960e01b81526001600160a01b03909116906340c10f19906149019089908890600401615b27565b600060405180830381600087803b15801561491b57600080fd5b505af115801561492f573d6000803e3d6000fd5b505083546040516001600160a01b03918216935090841691507f5d26cdffbd8401ba2a961d2094f7f008ee7bd735ac02a949721ee0fd0f0d5afc906149779088908790615883565b60405180910390a3509198975050505050505050565b826001600160a01b0316856001600160a01b0316146149b1576149b1838683614434565b6149bb8382614d1f565b6065546149d2906001600160a01b03168584614519565b826001600160a01b0316846001600160a01b0316866001600160a01b03167ffbde797d201c681b91056529119e0b02407c7bb96a4a2c75c01fc9667232c8db85856040516123eb929190918252602082015260400190565b6000808060001985870985870292508281108382030391505080600003614a6457838281614a5a57614a5a6159ca565b0492505050611589565b808411614a7057600080fd5b60008486880960026001871981018816978890046003810283188082028403028082028403028082028403028082028403028082028403029081029092039091026000889003889004909101858311909403939093029303949094049190911702949350505050565b6000614b2e826040518060400160405280602081526020017f5361666545524332303a206c6f772d6c6576656c2063616c6c206661696c6564815250856001600160a01b0316614e419092919063ffffffff16565b80519091501561456f5780806020019051810190614b4c91906157ad565b61456f5760405162461bcd60e51b815260206004820152602a60248201527f5361666545524332303a204552433230206f7065726174696f6e20646964206e6044820152691bdd081cdd58d8d9595960b21b6064820152608401610fd3565b6001600160a01b038216614c015760405162461bcd60e51b815260206004820152601f60248201527f45524332303a206d696e7420746f20746865207a65726f2061646472657373006044820152606401610fd3565b8060356000828254614c13919061580a565b90915550506001600160a01b038216600081815260336020908152604080832080548601905551848152600080516020615ead833981519152910160405180910390a35050565b600054610100900460ff16614c815760405162461bcd60e51b8152600401610fd390615e41565b6036614c8d8382615c5d565b50603761456f8282615c5d565b600054610100900460ff16614cc15760405162461bcd60e51b8152600401610fd390615e41565b600080614ccd83614e50565b9150915081614cdd576012614cdf565b805b606580546001600160a01b039095166001600160a01b031960ff93909316600160a01b02929092166001600160a81b031990951694909417179092555050565b6001600160a01b038216614d7f5760405162461bcd60e51b815260206004820152602160248201527f45524332303a206275726e2066726f6d20746865207a65726f206164647265736044820152607360f81b6064820152608401610fd3565b6001600160a01b03821660009081526033602052604090205481811015614df35760405162461bcd60e51b815260206004820152602260248201527f45524332303a206275726e20616d6f756e7420657863656564732062616c616e604482015261636560f01b6064820152608401610fd3565b6001600160a01b0383166000818152603360209081526040808320868603905560358054879003905551858152919291600080516020615ead833981519152910160405180910390a3505050565b606061405b8484600085614f2c565b60408051600481526024810182526020810180516001600160e01b031663313ce56760e01b17905290516000918291829182916001600160a01b03871691614e9791615901565b600060405180830381855afa9150503d8060008114614ed2576040519150601f19603f3d011682016040523d82523d6000602084013e614ed7565b606091505b5091509150818015614eeb57506020815110155b15614f1f57600081806020019051810190614f069190615777565b905060ff8111614f1d576001969095509350505050565b505b5060009485945092505050565b606082471015614f8d5760405162461bcd60e51b815260206004820152602660248201527f416464726573733a20696e73756666696369656e742062616c616e636520666f6044820152651c8818d85b1b60d21b6064820152608401610fd3565b600080866001600160a01b03168587604051614fa99190615901565b60006040518083038185875af1925050503d8060008114614fe6576040519150601f19603f3d011682016040523d82523d6000602084013e614feb565b606091505b5091509150612c87878383876060831561506657825160000361505f576001600160a01b0385163b61505f5760405162461bcd60e51b815260206004820152601d60248201527f416464726573733a2063616c6c20746f206e6f6e2d636f6e74726163740000006044820152606401610fd3565b508161405b565b61405b838381511561507b5781518083602001fd5b8060405162461bcd60e51b8152600401610fd391906151cd565b82600281019282156150c3579160200282015b828111156150c35782518255916020019190600101906150a8565b506150cf929150615113565b5090565b8280548282559060005260206000209081019282156150c3579160200282015b828111156150c3578251829060ff169055916020019190600101906150f3565b5b808211156150cf5760008155600101615114565b6001600160a01b038116811461134757600080fd5b803561514881615128565b919050565b6000806040838503121561516057600080fd5b82359150602083013561517281615128565b809150509250929050565b60005b83811015615198578181015183820152602001615180565b50506000910152565b600081518084526151b981602086016020860161517d565b601f01601f19169290920160200192915050565b60208152600061158960208301846151a1565b6000602082840312156151f257600080fd5b5035919050565b6000806040838503121561520c57600080fd5b823561521781615128565b946020939093013593505050565b60006020828403121561523757600080fd5b813561158981615128565b60008060006060848603121561525757600080fd5b833561526281615128565b9250602084013561527281615128565b929592945050506040919091013590565b6001600160a01b038316815260406020820181905260009061405b908301846151a1565b600080604083850312156152ba57600080fd5b50508035926020909101359150565b6000806000606084860312156152de57600080fd5b83359250602084013561527281615128565b634e487b7160e01b600052604160045260246000fd5b60405161012081016001600160401b0381118282101715615329576153296152f0565b60405290565b60006001600160401b0380841115615349576153496152f0565b604051601f8501601f19908116603f01168101908282118183101715615371576153716152f0565b8160405280935085815286868601111561538a57600080fd5b858560208301376000602087830101525050509392505050565b600082601f8301126153b557600080fd5b6115898383356020850161532f565b6000604082840312156153d657600080fd5b604051604081016001600160401b0382821081831117156153f9576153f96152f0565b816040528293508435915061540d82615128565b9082526020840135908082111561542357600080fd5b508301601f8101851361543557600080fd5b6154448582356020840161532f565b6020830152505092915050565b6000610120828403121561546457600080fd5b61546c615306565b90506154778261513d565b81526154856020830161513d565b60208201526154966040830161513d565b60408201526154a76060830161513d565b60608201526154b86080830161513d565b60808201526154c960a0830161513d565b60a08201526154da60c0830161513d565b60c08201526154eb60e0830161513d565b60e0820152610100808301356001600160401b0381111561550b57600080fd5b615517858286016153c4565b82840152505092915050565b600082601f83011261553457600080fd5b604051604081018181106001600160401b0382111715615556576155566152f0565b806040525080604084018581111561556d57600080fd5b845b8181101561558757803583526020928301920161556f565b509195945050505050565b6000806000806000806000806000806000806101a08d8f0312156155b557600080fd5b6001600160401b038d3511156155ca57600080fd5b6155d78e8e358f016153a4565b9b506001600160401b0360208e013511156155f157600080fd5b6156018e60208f01358f016153a4565b9a506001600160401b0360408e0135111561561b57600080fd5b61562b8e60408f01358f01615451565b995060608d0135985060808d0135975060a08d0135965061564f8e60c08f01615523565b95506101008d013594506101208d013593506101408d013592506101608d013591506101808d013590509295989b509295989b509295989b565b60008060006060848603121561569e57600080fd5b833592506020840135915060408401356156b781615128565b809150509250925092565b6000806000606084860312156156d757600080fd5b8335925060208401356156e981615128565b915060408401356156b781615128565b60006020828403121561570b57600080fd5b81356001600160401b0381111561572157600080fd5b61405b848285016153c4565b6000806040838503121561574057600080fd5b823561574b81615128565b9150602083013561517281615128565b60006040828403121561576d57600080fd5b6115898383615523565b60006020828403121561578957600080fd5b5051919050565b6000602082840312156157a257600080fd5b815161158981615128565b6000602082840312156157bf57600080fd5b8151801515811461158957600080fd5b6020808252600b908201526a1393d517d0531313d5d15160aa1b604082015260600190565b634e487b7160e01b600052601160045260246000fd5b8082018082111561125a5761125a6157f4565b808201828112600083128015821682158216171561583d5761583d6157f4565b505092915050565b6020808252601190820152704e4f545f454e4f5547485f41535345545360781b604082015260600190565b8181038181111561125a5761125a6157f4565b91825280546001600160a01b03166020830152600181015460408301526002810154606083015260038101546080830152600481015460a08301526005015460c082015260e00190565b600181811c908216806158e157607f821691505b602082108103612b1857634e487b7160e01b600052602260045260246000fd5b6000825161591381846020870161517d565b9190910192915050565b600080835461592b816158cd565b60018281168015615943576001811461595857615987565b60ff1984168752821515830287019450615987565b8760005260208060002060005b8581101561597e5781548a820152908401908201615965565b50505082870194505b50929695505050505050565b8181036000831280158383131683831282161715611bbb57611bbb6157f4565b808202811582820484141761125a5761125a6157f4565b634e487b7160e01b600052601260045260246000fd5b6000826159ef576159ef6159ca565b500490565b6020808252600990820152680414444524553535f360bc1b604082015260600190565b60208082526012908201527114115391125391d7d5d2551211149055d05360721b604082015260600190565b6020808252600c908201526b27a7262cafa6a0a720a3a2a960a11b604082015260600190565b6020808252600990820152682122a627abafa6a4a760b91b604082015260600190565b6020808252600b908201526a57524f4e475f56414c554560a81b604082015260600190565b6020808252602e908201527f496e697469616c697a61626c653a20636f6e747261637420697320616c72656160408201526d191e481a5b9a5d1a585b1a5e995960921b606082015260800190565b6020808252600e908201526d414d4f554e545f544f4f5f42494760901b604082015260600190565b6001600160a01b03929092168252602082015260400190565b602080825260079082015266050524943455f360cc1b604082015260600190565b602080825260079082015266056414c55455f360cc1b604082015260600190565b80820260008212600160ff1b84141615615b9e57615b9e6157f4565b818105831482151761125a5761125a6157f4565b600082615bc157615bc16159ca565b600160ff1b821460001984141615615bdb57615bdb6157f4565b500590565b600060018201615bf257615bf26157f4565b5060010190565b634e487b7160e01b600052603260045260246000fd5b601f82111561456f57600081815260208120601f850160051c81016020861015615c365750805b601f850160051c820191505b81811015615c5557828155600101615c42565b505050505050565b81516001600160401b03811115615c7657615c766152f0565b615c8a81615c8484546158cd565b84615c0f565b602080601f831160018114615cbf5760008415615ca75750858301515b600019600386901b1c1916600185901b178555615c55565b600085815260208120601f198616915b82811015615cee57888601518255948401946001909101908401615ccf565b5085821015615d0c5787850151600019600388901b60f8161c191681555b5050505050600190811b01905550565b6020808252601290820152711393d7d050d512559157d11254d0d3d5539560721b604082015260600190565b6020808252601790820152762122a627abafa6a4a72fa627a1a5afa22aa920aa24a7a760491b604082015260600190565b60208082526017908201527620a127ab22afa6a0ac2fa627a1a5afa22aa920aa24a7a760491b604082015260600190565b602080825282516001600160a01b03168282015282015160408083015260009061405b60608401826151a1565b602080825260099082015268082849eac8abe9a82b60bb1b604082015260600190565b60408101818360005b6002811015615e22578151835260209283019290910190600101615e03565b50505092915050565b634e487b7160e01b600052602160045260246000fd5b6020808252602b908201527f496e697469616c697a61626c653a20636f6e7472616374206973206e6f74206960408201526a6e697469616c697a696e6760a81b60608201526080019056fe127735ae9d047cae55da37db2c8ee184c735aacd68cef068d4e70be6a41661d9ddf252ad1be2c89b69c2b068fc378daa952ba7f163c4a11628f55a4df523b3ef60f89fdb372abe626eac485ef96b2a09f1cfbd7f225dd1e2b491a2b4069c2376a2646970667358221220aafb7c26f659db268e3f2f0d77cbe317a91ab3e58694896912507103987d7d4f64736f6c63430008110033",
    "linkReferences": {},
    "deployedLinkReferences": {}
}