{
  "contractName": "GTokenOpenPnlFeed",
  "abi": [
    {
      "inputs": [
        {
          "internalType": "uint256",
          "name": "_LINK_FEE_BALANCE_DIVIDER",
          "type": "uint256"
        },
        {
          "internalType": "address",
          "name": "_linkToken",
          "type": "address"
        },
        {
          "internalType": "contract IGToken",
          "name": "_gToken",
          "type": "address"
        },
        {
          "internalType": "address[]",
          "name": "_oracles",
          "type": "address[]"
        },
        {
          "internalType": "bytes32",
          "name": "_job",
          "type": "bytes32"
        },
        {
          "internalType": "uint256",
          "name": "_minAnswers",
          "type": "uint256"
        }
      ],
      "stateMutability": "nonpayable",
      "type": "constructor"
    },
    {
      "anonymous": false,
      "inputs": [
        {
          "indexed": true,
          "internalType": "bytes32",
          "name": "id",
          "type": "bytes32"
        }
      ],
      "name": "ChainlinkCancelled",
      "type": "event"
    },
    {
      "anonymous": false,
      "inputs": [
        {
          "indexed": true,
          "internalType": "bytes32",
          "name": "id",
          "type": "bytes32"
        }
      ],
      "name": "ChainlinkFulfilled",
      "type": "event"
    },
    {
      "anonymous": false,
      "inputs": [
        {
          "indexed": true,
          "internalType": "bytes32",
          "name": "id",
          "type": "bytes32"
        }
      ],
      "name": "ChainlinkRequested",
      "type": "event"
    },
    {
      "anonymous": false,
      "inputs": [
        {
          "indexed": false,
          "internalType": "bytes32",
          "name": "newValue",
          "type": "bytes32"
        }
      ],
      "name": "JobUpdated",
      "type": "event"
    },
    {
      "anonymous": false,
      "inputs": [
        {
          "indexed": true,
          "internalType": "uint256",
          "name": "newEpoch",
          "type": "uint256"
        },
        {
          "indexed": true,
          "internalType": "uint256",
          "name": "requestId",
          "type": "uint256"
        },
        {
          "indexed": false,
          "internalType": "int256[]",
          "name": "epochMedianValues",
          "type": "int256[]"
        },
        {
          "indexed": false,
          "internalType": "int256",
          "name": "epochAverageValue",
          "type": "int256"
        },
        {
          "indexed": false,
          "internalType": "uint256",
          "name": "newEpochPositiveOpenPnl",
          "type": "uint256"
        }
      ],
      "name": "NewEpoch",
      "type": "event"
    },
    {
      "anonymous": false,
      "inputs": [
        {
          "indexed": true,
          "internalType": "uint256",
          "name": "newEpoch",
          "type": "uint256"
        }
      ],
      "name": "NewEpochForced",
      "type": "event"
    },
    {
      "anonymous": false,
      "inputs": [
        {
          "indexed": true,
          "internalType": "uint256",
          "name": "currEpoch",
          "type": "uint256"
        },
        {
          "indexed": true,
          "internalType": "uint256",
          "name": "requestId",
          "type": "uint256"
        },
        {
          "indexed": false,
          "internalType": "bytes32",
          "name": "job",
          "type": "bytes32"
        },
        {
          "indexed": false,
          "internalType": "uint256",
          "name": "oraclesCount",
          "type": "uint256"
        },
        {
          "indexed": false,
          "internalType": "uint256",
          "name": "linkFeePerNode",
          "type": "uint256"
        }
      ],
      "name": "NextEpochValueRequested",
      "type": "event"
    },
    {
      "anonymous": false,
      "inputs": [
        {
          "indexed": true,
          "internalType": "uint256",
          "name": "currEpoch",
          "type": "uint256"
        },
        {
          "indexed": false,
          "internalType": "uint256",
          "name": "requestsResetCount",
          "type": "uint256"
        }
      ],
      "name": "NextEpochValuesReset",
      "type": "event"
    },
    {
      "anonymous": false,
      "inputs": [
        {
          "indexed": false,
          "internalType": "string",
          "name": "name",
          "type": "string"
        },
        {
          "indexed": false,
          "internalType": "uint256",
          "name": "newValue",
          "type": "uint256"
        }
      ],
      "name": "NumberParamUpdated",
      "type": "event"
    },
    {
      "anonymous": false,
      "inputs": [
        {
          "indexed": false,
          "internalType": "uint256",
          "name": "index",
          "type": "uint256"
        },
        {
          "indexed": false,
          "internalType": "address",
          "name": "newValue",
          "type": "address"
        }
      ],
      "name": "OracleUpdated",
      "type": "event"
    },
    {
      "anonymous": false,
      "inputs": [
        {
          "indexed": false,
          "internalType": "address[]",
          "name": "newValues",
          "type": "address[]"
        }
      ],
      "name": "OraclesUpdated",
      "type": "event"
    },
    {
      "anonymous": false,
      "inputs": [
        {
          "indexed": true,
          "internalType": "uint256",
          "name": "currEpoch",
          "type": "uint256"
        },
        {
          "indexed": true,
          "internalType": "uint256",
          "name": "requestId",
          "type": "uint256"
        },
        {
          "indexed": false,
          "internalType": "int256[]",
          "name": "requestValues",
          "type": "int256[]"
        },
        {
          "indexed": false,
          "internalType": "int256",
          "name": "medianValue",
          "type": "int256"
        }
      ],
      "name": "RequestMedianValueSet",
      "type": "event"
    },
    {
      "anonymous": false,
      "inputs": [
        {
          "indexed": false,
          "internalType": "bool",
          "name": "isLate",
          "type": "bool"
        },
        {
          "indexed": true,
          "internalType": "uint256",
          "name": "currEpoch",
          "type": "uint256"
        },
        {
          "indexed": true,
          "internalType": "uint256",
          "name": "requestId",
          "type": "uint256"
        },
        {
          "indexed": false,
          "internalType": "bytes32",
          "name": "oracleRequestId",
          "type": "bytes32"
        },
        {
          "indexed": true,
          "internalType": "address",
          "name": "oracle",
          "type": "address"
        },
        {
          "indexed": false,
          "internalType": "int256",
          "name": "requestValue",
          "type": "int256"
        },
        {
          "indexed": false,
          "internalType": "uint256",
          "name": "linkFee",
          "type": "uint256"
        }
      ],
      "name": "RequestValueReceived",
      "type": "event"
    },
    {
      "inputs": [],
      "name": "LINK_FEE_BALANCE_DIVIDER",
      "outputs": [
        {
          "internalType": "uint256",
          "name": "",
          "type": "uint256"
        }
      ],
      "stateMutability": "view",
      "type": "function"
    },
    {
      "inputs": [],
      "name": "gToken",
      "outputs": [
        {
          "internalType": "contract IGToken",
          "name": "",
          "type": "address"
        }
      ],
      "stateMutability": "view",
      "type": "function"
    },
    {
      "inputs": [],
      "name": "job",
      "outputs": [
        {
          "internalType": "bytes32",
          "name": "",
          "type": "bytes32"
        }
      ],
      "stateMutability": "view",
      "type": "function"
    },
    {
      "inputs": [],
      "name": "lastRequestId",
      "outputs": [
        {
          "internalType": "uint256",
          "name": "",
          "type": "uint256"
        }
      ],
      "stateMutability": "view",
      "type": "function"
    },
    {
      "inputs": [],
      "name": "minAnswers",
      "outputs": [
        {
          "internalType": "uint256",
          "name": "",
          "type": "uint256"
        }
      ],
      "stateMutability": "view",
      "type": "function"
    },
    {
      "inputs": [
        {
          "internalType": "uint256",
          "name": "",
          "type": "uint256"
        }
      ],
      "name": "nextEpochValues",
      "outputs": [
        {
          "internalType": "int256",
          "name": "",
          "type": "int256"
        }
      ],
      "stateMutability": "view",
      "type": "function"
    },
    {
      "inputs": [],
      "name": "nextEpochValuesLastRequest",
      "outputs": [
        {
          "internalType": "uint256",
          "name": "",
          "type": "uint256"
        }
      ],
      "stateMutability": "view",
      "type": "function"
    },
    {
      "inputs": [],
      "name": "nextEpochValuesRequestCount",
      "outputs": [
        {
          "internalType": "uint256",
          "name": "",
          "type": "uint256"
        }
      ],
      "stateMutability": "view",
      "type": "function"
    },
    {
      "inputs": [
        {
          "internalType": "uint256",
          "name": "",
          "type": "uint256"
        }
      ],
      "name": "oracles",
      "outputs": [
        {
          "internalType": "address",
          "name": "",
          "type": "address"
        }
      ],
      "stateMutability": "view",
      "type": "function"
    },
    {
      "inputs": [
        {
          "internalType": "uint256",
          "name": "",
          "type": "uint256"
        },
        {
          "internalType": "uint256",
          "name": "",
          "type": "uint256"
        }
      ],
      "name": "requestAnswers",
      "outputs": [
        {
          "internalType": "int256",
          "name": "",
          "type": "int256"
        }
      ],
      "stateMutability": "view",
      "type": "function"
    },
    {
      "inputs": [
        {
          "internalType": "bytes32",
          "name": "",
          "type": "bytes32"
        }
      ],
      "name": "requestIds",
      "outputs": [
        {
          "internalType": "uint256",
          "name": "",
          "type": "uint256"
        }
      ],
      "stateMutability": "view",
      "type": "function"
    },
    {
      "inputs": [
        {
          "internalType": "uint256",
          "name": "",
          "type": "uint256"
        }
      ],
      "name": "requests",
      "outputs": [
        {
          "internalType": "bool",
          "name": "initiated",
          "type": "bool"
        },
        {
          "internalType": "bool",
          "name": "active",
          "type": "bool"
        },
        {
          "internalType": "uint256",
          "name": "linkFeePerNode",
          "type": "uint256"
        }
      ],
      "stateMutability": "view",
      "type": "function"
    },
    {
      "inputs": [],
      "name": "requestsCount",
      "outputs": [
        {
          "internalType": "uint256",
          "name": "",
          "type": "uint256"
        }
      ],
      "stateMutability": "view",
      "type": "function"
    },
    {
      "inputs": [],
      "name": "requestsEvery",
      "outputs": [
        {
          "internalType": "uint256",
          "name": "",
          "type": "uint256"
        }
      ],
      "stateMutability": "view",
      "type": "function"
    },
    {
      "inputs": [],
      "name": "requestsStart",
      "outputs": [
        {
          "internalType": "uint256",
          "name": "",
          "type": "uint256"
        }
      ],
      "stateMutability": "view",
      "type": "function"
    },
    {
      "inputs": [
        {
          "internalType": "uint256",
          "name": "newValue",
          "type": "uint256"
        }
      ],
      "name": "updateRequestsStart",
      "outputs": [],
      "stateMutability": "nonpayable",
      "type": "function"
    },
    {
      "inputs": [
        {
          "internalType": "uint256",
          "name": "newValue",
          "type": "uint256"
        }
      ],
      "name": "updateRequestsEvery",
      "outputs": [],
      "stateMutability": "nonpayable",
      "type": "function"
    },
    {
      "inputs": [
        {
          "internalType": "uint256",
          "name": "newValue",
          "type": "uint256"
        }
      ],
      "name": "updateRequestsCount",
      "outputs": [],
      "stateMutability": "nonpayable",
      "type": "function"
    },
    {
      "inputs": [
        {
          "internalType": "uint256",
          "name": "newRequestsStart",
          "type": "uint256"
        },
        {
          "internalType": "uint256",
          "name": "newRequestsEvery",
          "type": "uint256"
        },
        {
          "internalType": "uint256",
          "name": "newRequestsCount",
          "type": "uint256"
        }
      ],
      "name": "updateRequestsInfoBatch",
      "outputs": [],
      "stateMutability": "nonpayable",
      "type": "function"
    },
    {
      "inputs": [
        {
          "internalType": "uint256",
          "name": "newValue",
          "type": "uint256"
        }
      ],
      "name": "updateMinAnswers",
      "outputs": [],
      "stateMutability": "nonpayable",
      "type": "function"
    },
    {
      "inputs": [
        {
          "internalType": "uint256",
          "name": "_index",
          "type": "uint256"
        },
        {
          "internalType": "address",
          "name": "newValue",
          "type": "address"
        }
      ],
      "name": "updateOracle",
      "outputs": [],
      "stateMutability": "nonpayable",
      "type": "function"
    },
    {
      "inputs": [
        {
          "internalType": "address[]",
          "name": "newValues",
          "type": "address[]"
        }
      ],
      "name": "updateOracles",
      "outputs": [],
      "stateMutability": "nonpayable",
      "type": "function"
    },
    {
      "inputs": [
        {
          "internalType": "bytes32",
          "name": "newValue",
          "type": "bytes32"
        }
      ],
      "name": "updateJob",
      "outputs": [],
      "stateMutability": "nonpayable",
      "type": "function"
    },
    {
      "inputs": [],
      "name": "resetNextEpochValueRequests",
      "outputs": [],
      "stateMutability": "nonpayable",
      "type": "function"
    },
    {
      "inputs": [],
      "name": "forceNewEpoch",
      "outputs": [],
      "stateMutability": "nonpayable",
      "type": "function"
    },
    {
      "inputs": [],
      "name": "newOpenPnlRequestOrEpoch",
      "outputs": [],
      "stateMutability": "nonpayable",
      "type": "function"
    },
    {
      "inputs": [
        {
          "internalType": "bytes32",
          "name": "requestId",
          "type": "bytes32"
        },
        {
          "internalType": "int256",
          "name": "value",
          "type": "int256"
        }
      ],
      "name": "fulfill",
      "outputs": [],
      "stateMutability": "nonpayable",
      "type": "function"
    }
  ],
  "bytecode": "0x60c060405260016004556202a30060065561546060075560046008553480156200002857600080fd5b5060405162002b0b38038062002b0b8339810160408190526200004b916200022f565b6000861180156200006457506001600160a01b03851615155b80156200007957506001600160a01b03841615155b801562000087575060008351115b80156200009357508115155b8015620000a1575060038110155b8015620000ba5750620000b660028262000360565b6001145b8015620000d6575060028351620000d2919062000377565b8111155b620001165760405162461bcd60e51b815260206004820152600c60248201526b57524f4e475f504152414d5360a01b604482015260640160405180910390fd5b6080869052600280546001600160a01b0319166001600160a01b0387161790556001600160a01b03841660a0528251620001589060099060208601906200016d565b50600a91909155600b55506200038e92505050565b828054828255906000526020600020908101928215620001c5579160200282015b82811115620001c557825182546001600160a01b0319166001600160a01b039091161782556020909201916001909101906200018e565b50620001d3929150620001d7565b5090565b5b80821115620001d35760008155600101620001d8565b6001600160a01b03811681146200020457600080fd5b50565b80516200021481620001ee565b919050565b634e487b7160e01b600052604160045260246000fd5b60008060008060008060c087890312156200024957600080fd5b865195506020808801516200025e81620001ee565b60408901519096506200027181620001ee565b60608901519095506001600160401b03808211156200028f57600080fd5b818a0191508a601f830112620002a457600080fd5b815181811115620002b957620002b962000219565b8060051b604051601f19603f83011681018181108582111715620002e157620002e162000219565b60405291825284820192508381018501918d8311156200030057600080fd5b938501935b828510156200032957620003198562000207565b8452938501939285019262000305565b8098505050505050506080870151915060a087015190509295509295509295565b634e487b7160e01b600052601260045260246000fd5b6000826200037257620003726200034a565b500690565b6000826200038957620003896200034a565b500490565b60805160a0516126d96200043260003960008181610234015281816103e001528181610531015281816106990152818161081c015281816108d401528181610a1101528181610b5601528181610ddc01528181610ff9015281816110e4015281816111e2015281816113ac015281816114ad015281816118f0015281816119d001528181611ac70152611b7101526000818161038f015261173a01526126d96000f3fe608060405234801561001057600080fd5b50600436106101a95760003560e01c8063a90d67a1116100f9578063cb9945a111610097578063e704fc5111610071578063e704fc51146103b1578063f5ed447c146103b9578063fbfa4b7f146103cc578063fc2a88c3146103d557600080fd5b8063cb9945a114610364578063ce43963214610377578063d5a28da31461038a57600080fd5b8063bda71d04116100d3578063bda71d041461032d578063bea1675814610340578063bef35b7914610349578063c591ff4c1461035157600080fd5b8063a90d67a114610308578063b006812c14610311578063b8feee641461032457600080fd5b806376ffb9bd1161016657806392c3c58b1161014057806392c3c58b146102c75780639496f9e3146102cf5780639dbc2686146102e2578063a5c2aafd146102f557600080fd5b806376ffb9bd1461022f57806381d12c58146102565780638645f7a8146102a757600080fd5b80632eb64ec4146101ae57806334fa54a1146101ca578063473d2f21146101df5780635614a211146101e857806358e7ec3c146101fb5780635b69a7d814610204575b600080fd5b6101b760065481565b6040519081526020015b60405180910390f35b6101dd6101d836600461216b565b6103de565b005b6101b7600e5481565b6101dd6101f636600461216b565b61052f565b6101b7600a5481565b61021761021236600461216b565b61066d565b6040516001600160a01b0390911681526020016101c1565b6102177f000000000000000000000000000000000000000000000000000000000000000081565b61028a61026436600461216b565b6011602052600090815260409020805460019091015460ff808316926101009004169083565b6040805193151584529115156020840152908201526060016101c1565b6101b76102b536600461216b565b60106020526000908152604090205481565b6101dd610697565b6101dd6102dd36600461216b565b6108d2565b6101dd6102f03660046121bf565b610a0f565b6101dd61030336600461216b565b610b54565b6101b760075481565b6101b761031f36600461216b565b610c95565b6101b7600d5481565b6101dd61033b366004612284565b610cb6565b6101b7600b5481565b6101dd610fe8565b6101dd61035f3660046122a6565b6110e2565b6101b7610372366004612284565b6111af565b6101dd6103853660046122d2565b6111e0565b6101b77f000000000000000000000000000000000000000000000000000000000000000081565b6101dd61138d565b6101dd6103c736600461216b565b6114ab565b6101b760085481565b6101b7600f5481565b7f00000000000000000000000000000000000000000000000000000000000000006001600160a01b0316638da5cb5b6040518163ffffffff1660e01b8152600401602060405180830381865afa15801561043c573d6000803e3d6000fd5b505050506040513d601f19601f820116820180604052508101906104609190612302565b6001600160a01b0316336001600160a01b0316146104995760405162461bcd60e51b81526004016104909061231f565b60405180910390fd5b610e108110156104bb5760405162461bcd60e51b815260040161049090612343565b620151808111156104de5760405162461bcd60e51b815260040161049090612366565b600781905560408051818152600d918101919091526c7265717565737473457665727960981b606082015260208101829052600080516020612684833981519152906080015b60405180910390a150565b7f00000000000000000000000000000000000000000000000000000000000000006001600160a01b0316638da5cb5b6040518163ffffffff1660e01b8152600401602060405180830381865afa15801561058d573d6000803e3d6000fd5b505050506040513d601f19601f820116820180604052508101906105b19190612302565b6001600160a01b0316336001600160a01b0316146105e15760405162461bcd60e51b81526004016104909061231f565b60038110156106025760405162461bcd60e51b815260040161049090612343565b600a8111156106235760405162461bcd60e51b815260040161049090612366565b600881905560408051818152600d918101919091526c1c995c5d595cdd1cd0dbdd5b9d609a1b60608201526020810182905260008051602061268483398151915290608001610524565b6009818154811061067d57600080fd5b6000918252602090912001546001600160a01b0316905081565b7f00000000000000000000000000000000000000000000000000000000000000006001600160a01b031663f851a4406040518163ffffffff1660e01b8152600401602060405180830381865afa1580156106f5573d6000803e3d6000fd5b505050506040513d601f19601f820116820180604052508101906107199190612302565b6001600160a01b0316336001600160a01b0316146107665760405162461bcd60e51b815260206004820152600a60248201526927a7262cafa0a226a4a760b11b6044820152606401610490565b600d54806107ac5760405162461bcd60e51b81526020600482015260136024820152721393d7d49154555154d517d513d7d49154d155606a1b6044820152606401610490565b6107b8600c6000612098565b6000600d819055600e8190555b818110156108195760006011600083600f546107e1919061239f565b8152602081019190915260400160002080549115156101000261ff001990921691909117905580610811816123b2565b9150506107c5565b507f00000000000000000000000000000000000000000000000000000000000000006001600160a01b031663766718086040518163ffffffff1660e01b8152600401602060405180830381865afa158015610878573d6000803e3d6000fd5b505050506040513d601f19601f8201168201806040525081019061089c91906123cb565b6040518281527f605f3f824643ee56deaf2717c1581f7ad3df423365aede8e2d771b6b3a30fd2b9060200160405180910390a250565b7f00000000000000000000000000000000000000000000000000000000000000006001600160a01b031663481c6a756040518163ffffffff1660e01b8152600401602060405180830381865afa158015610930573d6000803e3d6000fd5b505050506040513d601f19601f820116820180604052508101906109549190612302565b6001600160a01b0316336001600160a01b0316146109a35760405162461bcd60e51b815260206004820152600c60248201526b27a7262cafa6a0a720a3a2a960a11b6044820152606401610490565b806109da5760405162461bcd60e51b8152602060048201526007602482015266056414c55455f360cc1b6044820152606401610490565b600a8190556040518181527f9f3fa8c139076940687248e93aed7dda099cf9a90cc38c428cf3d5b6b642fdd490602001610524565b7f00000000000000000000000000000000000000000000000000000000000000006001600160a01b0316638da5cb5b6040518163ffffffff1660e01b8152600401602060405180830381865afa158015610a6d573d6000803e3d6000fd5b505050506040513d601f19601f82011682018060405250810190610a919190612302565b6001600160a01b0316336001600160a01b031614610ac15760405162461bcd60e51b81526004016104909061231f565b600b54610acf9060026123e4565b81511015610b115760405162461bcd60e51b815260206004820152600f60248201526e105494905657d513d3d7d4d3505313608a1b6044820152606401610490565b8051610b249060099060208401906120b6565b507f4b806663ee384a0ada322e70cdf3fd2046424181359f2470a97a6f0cec328e9c8160405161052491906123fb565b7f00000000000000000000000000000000000000000000000000000000000000006001600160a01b0316638da5cb5b6040518163ffffffff1660e01b8152600401602060405180830381865afa158015610bb2573d6000803e3d6000fd5b505050506040513d601f19601f82011682018060405250810190610bd69190612302565b6001600160a01b0316336001600160a01b031614610c065760405162461bcd60e51b81526004016104909061231f565b610e10811015610c285760405162461bcd60e51b815260040161049090612343565b62093a80811115610c4b5760405162461bcd60e51b815260040161049090612366565b600681905560408051818152600d918101919091526c1c995c5d595cdd1cd4dd185c9d609a1b60608201526020810182905260008051602061268483398151915290608001610524565b600c8181548110610ca557600080fd5b600091825260209091200154905081565b60008281526005602052604090205482906001600160a01b03163314610d2f5760405162461bcd60e51b815260206004820152602860248201527f536f75726365206d75737420626520746865206f7261636c65206f6620746865604482015267081c995c5d595cdd60c21b6064820152608401610490565b60008181526005602052604080822080546001600160a01b03191690555182917f7cc135e0cebb02c3480ae5d74d377283180a2601f8f644edf7987b009316c63a91a26000838152601060209081526040808320805490849055808452601183528184208251606081018452815460ff808216151583526101009091041615158186015260019190910154818401528251630ecce30160e31b815292519194909390926001600160a01b037f000000000000000000000000000000000000000000000000000000000000000016926376671808926004808401939192918290030181865afa158015610e25573d6000803e3d6000fd5b505050506040513d601f19601f82011682018060405250810190610e4991906123cb565b6020808401516040808601518151921583529282018a9052810188905260608101919091529091503390849083907f5e18490ff1cb10067b5d5b0aec04678191bb80c2d229a2578526c389270027bf9060800160405180910390a48160200151610eb557505050505050565b6000838152601260209081526040822080546001810182558184529190922001869055600b54815403610fde576000610f3c82805480602002602001604051908101604052809291908181526020018280548015610f3257602002820191906000526020600020905b815481526020019060010190808311610f1e575b5050505050611655565b600c80546001810182556000919091527fdf6966c971051c3d54ec59162606531493a51404a002842f56009d7e5cf4a8c701819055604051909150859084907f2cc31a5acf549ee44228d82c08e88b92b9d332ad5193a2290a79345e113c0b4c90610faa9086908690612488565b60405180910390a36000858152601160209081526040808320805461ff001916905560129091528120610fdc91612098565b505b505050505b505050565b600e541580801561108657506006547f00000000000000000000000000000000000000000000000000000000000000006001600160a01b03166361a8c8c46040518163ffffffff1660e01b8152600401602060405180830381865afa158015611055573d6000803e3d6000fd5b505050506040513d601f19601f8201168201806040525081019061107991906123cb565b611083904261239f565b10155b1561109657611093611719565b50565b801580156110b25750600754600e546110af904261239f565b10155b1561109357600854600d5410156110cb57611093611719565b600854600c5410611093576110de6119bb565b5050565b7f00000000000000000000000000000000000000000000000000000000000000006001600160a01b0316638da5cb5b6040518163ffffffff1660e01b8152600401602060405180830381865afa158015611140573d6000803e3d6000fd5b505050506040513d601f19601f820116820180604052508101906111649190612302565b6001600160a01b0316336001600160a01b0316146111945760405162461bcd60e51b81526004016104909061231f565b61119d83610b54565b6111a6826103de565b610fe38161052f565b601260205281600052604060002081815481106111cb57600080fd5b90600052602060002001600091509150505481565b7f00000000000000000000000000000000000000000000000000000000000000006001600160a01b0316638da5cb5b6040518163ffffffff1660e01b8152600401602060405180830381865afa15801561123e573d6000803e3d6000fd5b505050506040513d601f19601f820116820180604052508101906112629190612302565b6001600160a01b0316336001600160a01b0316146112925760405162461bcd60e51b81526004016104909061231f565b60095482106112d35760405162461bcd60e51b815260206004820152600d60248201526c494e4445585f544f4f5f42494760981b6044820152606401610490565b6001600160a01b0381166113135760405162461bcd60e51b8152602060048201526007602482015266056414c55455f360cc1b6044820152606401610490565b8060098381548110611327576113276124aa565b60009182526020918290200180546001600160a01b0319166001600160a01b0393841617905560408051858152928416918301919091527f8323208263554cf72b3658bcdbd0f96f4ccf2c9c919fa30246aaee34537b5509910160405180910390a15050565b60085460075461139d91906123e4565b6006546113aa91906124c0565b7f00000000000000000000000000000000000000000000000000000000000000006001600160a01b03166361a8c8c46040518163ffffffff1660e01b8152600401602060405180830381865afa158015611408573d6000803e3d6000fd5b505050506040513d601f19601f8201168201806040525081019061142c91906123cb565b611436904261239f565b10156114705760405162461bcd60e51b8152602060048201526009602482015268544f4f5f4541524c5960b81b6044820152606401610490565b600061147a6119bb565b60405190915081907f446b8726654d216fe9781583f0f34cc8ac84d240bb3ad5293c10e2ff831f1eb290600090a250565b7f00000000000000000000000000000000000000000000000000000000000000006001600160a01b031663481c6a756040518163ffffffff1660e01b8152600401602060405180830381865afa158015611509573d6000803e3d6000fd5b505050506040513d601f19601f8201168201806040525081019061152d9190612302565b6001600160a01b0316336001600160a01b03161461157c5760405162461bcd60e51b815260206004820152600c60248201526b27a7262cafa6a0a720a3a2a960a11b6044820152606401610490565b600381101561159d5760405162461bcd60e51b815260040161049090612343565b6115a86002826124e9565b6001146115e05760405162461bcd60e51b81526004016104909060208082526004908201526322ab22a760e11b604082015260600190565b6009546115ef906002906124fd565b81111561160e5760405162461bcd60e51b815260040161049090612366565b600b81905560408051818152600a91810191909152696d696e416e737765727360b01b60608201526020810182905260008051602061268483398151915290608001610524565b60006116648260008451611c45565b6002825161167291906124e9565b156116a357816002835161168691906124fd565b81518110611696576116966124aa565b6020026020010151611713565b600282600284516116b491906124fd565b815181106116c4576116c46124aa565b6020026020010151836001600286516116dd91906124fd565b6116e7919061239f565b815181106116f7576116f76124aa565b60200260200101516117099190612511565b6117139190612539565b92915050565b600061172f600a543063bda71d0460e01b611d08565b6009549091506000907f000000000000000000000000000000000000000000000000000000000000000061176b6002546001600160a01b031690565b6040516370a0823160e01b81523060048201526001600160a01b0391909116906370a0823190602401602060405180830381865afa1580156117b1573d6000803e3d6000fd5b505050506040513d601f19601f820116820180604052508101906117d591906123cb565b6117df91906124fd565b6117e991906124fd565b905060405180606001604052806001151581526020016001151581526020018281525060116000600f6000815461181f906123b2565b9182905550815260208082019290925260409081016000908120845181549486015161ffff1990951690151561ff0019161761010094151594909402939093178355920151600190910155600d805491611878836123b2565b909155505042600e5560005b6009548110156118ea57600f54601060006118c7600985815481106118ab576118ab6124aa565b6000918252602090912001546001600160a01b03168787611d2d565b8152602081019190915260400160002055806118e2816123b2565b915050611884565b50600f547f00000000000000000000000000000000000000000000000000000000000000006001600160a01b031663766718086040518163ffffffff1660e01b8152600401602060405180830381865afa15801561194c573d6000803e3d6000fd5b505050506040513d601f19601f8201168201806040525081019061197091906123cb565b600a5460095460408051928352602083019190915281018490527fb5f2943c67db1794f39a3b46b95086765f48c7e05d12851dc6607bcdb0bcc7a39060600160405180910390a35050565b600080600d819055506000600e8190555060007f00000000000000000000000000000000000000000000000000000000000000006001600160a01b031663faf33f296040518163ffffffff1660e01b8152600401602060405180830381865afa158015611a2c573d6000803e3d6000fd5b505050506040513d601f19601f82011682018060405250810190611a5091906123cb565b600854600c549192506000911015611a685781611ac1565b611ac1600c805480602002602001604051908101604052809291908181526020018280548015611ab757602002820191906000526020600020905b815481526020019060010190808311611aa3575b5050505050611dc0565b905060007f00000000000000000000000000000000000000000000000000000000000000006001600160a01b0316637361a5448460008513611b04576000611b06565b845b6040516001600160e01b031960e085901b168152600481019290925260248201526044016020604051808303816000875af1158015611b49573d6000803e3d6000fd5b505050506040513d601f19601f82011682018060405250810190611b6d91906123cb565b90507f00000000000000000000000000000000000000000000000000000000000000006001600160a01b031663766718086040518163ffffffff1660e01b8152600401602060405180830381865afa158015611bcd573d6000803e3d6000fd5b505050506040513d601f19601f82011682018060405250810190611bf191906123cb565b9350600f54847f263c5efc95bb2e2134e3fc52ae914fbd38e2381f37d95ae011a56f996578bf17600c8585604051611c2b93929190612567565b60405180910390a3611c3f600c6000612098565b50505090565b808210611c5157505050565b60008290506000848281518110611c6a57611c6a6124aa565b602002602001015190506000846001611c8391906124c0565b90505b83811015611cd55781868281518110611ca157611ca16124aa565b60200260200101511215611cc557611cc58682611cbd866123b2565b955085611e1c565b611cce816123b2565b9050611c86565b50611ce1858584611e1c565b611cec858584611c45565b611d0185611cfb8460016124c0565b85611c45565b5050505050565b611d1061211b565b611d1861211b565b611d2481868686611e8f565b95945050505050565b600454600090611d3e8160016124c0565b600455835160408086015160808701515191516000936320214ca360e11b93611d769386938493923092918a916001916024016125d2565b60408051601f198184030181529190526020810180516001600160e01b03166001600160e01b0319909316929092179091529050611db686838684611ed5565b9695505050505050565b60008060005b8351811015611e0857838181518110611de157611de16124aa565b602002602001015182611df49190612511565b915080611e00816123b2565b915050611dc6565b508251611e159082612539565b9392505050565b828181518110611e2e57611e2e6124aa565b6020026020010151838381518110611e4857611e486124aa565b6020026020010151848481518110611e6257611e626124aa565b60200260200101858481518110611e7b57611e7b6124aa565b602090810291909101019190915252505050565b611e9761211b565b611ea78560800151610100612033565b50508284526001600160a01b03821660208501526001600160e01b031981166040850152835b949350505050565b6040516bffffffffffffffffffffffff193060601b1660208201526034810184905260009060540160408051808303601f1901815282825280516020918201206000818152600590925291812080546001600160a01b0319166001600160a01b038a1617905590925082917fb5e6e01e79f91267dc17b4e6314d5d4d03593d2ceee0fbb452b750bd70ea5af99190a2600254604051630200057560e51b81526001600160a01b0390911690634000aea090611f989088908790879060040161263a565b6020604051808303816000875af1158015611fb7573d6000803e3d6000fd5b505050506040513d601f19601f82011682018060405250810190611fdb9190612661565b611ecd5760405162461bcd60e51b815260206004820152602360248201527f756e61626c6520746f207472616e73666572416e6443616c6c20746f206f7261604482015262636c6560e81b6064820152608401610490565b6040805180820190915260608152600060208201526120536020836124e9565b1561207b576120636020836124e9565b61206e90602061239f565b61207890836124c0565b91505b506020828101829052604080518085526000815290920101905290565b50805460008255906000526020600020908101906110939190612156565b82805482825590600052602060002090810192821561210b579160200282015b8281111561210b57825182546001600160a01b0319166001600160a01b039091161782556020909201916001909101906120d6565b50612117929150612156565b5090565b6040805160a0810182526000808252602080830182905282840182905260608084018390528451808601909552845283015290608082015290565b5b808211156121175760008155600101612157565b60006020828403121561217d57600080fd5b5035919050565b634e487b7160e01b600052604160045260246000fd5b6001600160a01b038116811461109357600080fd5b80356121ba8161219a565b919050565b600060208083850312156121d257600080fd5b823567ffffffffffffffff808211156121ea57600080fd5b818501915085601f8301126121fe57600080fd5b81358181111561221057612210612184565b8060051b604051601f19603f8301168101818110858211171561223557612235612184565b60405291825284820192508381018501918883111561225357600080fd5b938501935b8285101561227857612269856121af565b84529385019392850192612258565b98975050505050505050565b6000806040838503121561229757600080fd5b50508035926020909101359150565b6000806000606084860312156122bb57600080fd5b505081359360208301359350604090920135919050565b600080604083850312156122e557600080fd5b8235915060208301356122f78161219a565b809150509250929050565b60006020828403121561231457600080fd5b8151611e158161219a565b6020808252600a908201526927a7262cafa7aba722a960b11b604082015260600190565b6020808252600990820152682122a627abafa6a4a760b91b604082015260600190565b602080825260099082015268082849eac8abe9a82b60bb1b604082015260600190565b634e487b7160e01b600052601160045260246000fd5b8181038181111561171357611713612389565b6000600182016123c4576123c4612389565b5060010190565b6000602082840312156123dd57600080fd5b5051919050565b808202811582820484141761171357611713612389565b6020808252825182820181905260009190848201906040850190845b8181101561243c5783516001600160a01b031683529284019291840191600101612417565b50909695505050505050565b6000815480845260208085019450836000528060002060005b8381101561247d57815487529582019560019182019101612461565b509495945050505050565b60408152600061249b6040830185612448565b90508260208301529392505050565b634e487b7160e01b600052603260045260246000fd5b8082018082111561171357611713612389565b634e487b7160e01b600052601260045260246000fd5b6000826124f8576124f86124d3565b500690565b60008261250c5761250c6124d3565b500490565b808201828112600083128015821682158216171561253157612531612389565b505092915050565b600082612548576125486124d3565b600160ff1b82146000198414161561256257612562612389565b500590565b60608152600061257a6060830186612448565b60208301949094525060400152919050565b6000815180845260005b818110156125b257602081850181015186830182015201612596565b506000602082860101526020601f19601f83011685010191505092915050565b6001600160a01b0389811682526020820189905260408201889052861660608201526001600160e01b03198516608082015260a0810184905260c0810183905261010060e0820181905260009061262b8382018561258c565b9b9a5050505050505050505050565b60018060a01b0384168152826020820152606060408201526000611d24606083018461258c565b60006020828403121561267357600080fd5b81518015158114611e1557600080fdfe127735ae9d047cae55da37db2c8ee184c735aacd68cef068d4e70be6a41661d9a2646970667358221220508c7a2761f8a62f1246632caffe0279d3a266a31b7e23b1b163d2cbf3e7748b64736f6c63430008110033",
  "immutableReferences": {
    "52053": [
      {
        "length": 32,
        "start": 911
      },
      {
        "length": 32,
        "start": 5946
      }
    ],
    "52077": [
      {
        "length": 32,
        "start": 564
      },
      {
        "length": 32,
        "start": 992
      },
      {
        "length": 32,
        "start": 1329
      },
      {
        "length": 32,
        "start": 1689
      },
      {
        "length": 32,
        "start": 2076
      },
      {
        "length": 32,
        "start": 2260
      },
      {
        "length": 32,
        "start": 2577
      },
      {
        "length": 32,
        "start": 2902
      },
      {
        "length": 32,
        "start": 3548
      },
      {
        "length": 32,
        "start": 4089
      },
      {
        "length": 32,
        "start": 4324
      },
      {
        "length": 32,
        "start": 4578
      },
      {
        "length": 32,
        "start": 5036
      },
      {
        "length": 32,
        "start": 5293
      },
      {
        "length": 32,
        "start": 6384
      },
      {
        "length": 32,
        "start": 6608
      },
      {
        "length": 32,
        "start": 6855
      },
      {
        "length": 32,
        "start": 7025
      }
    ]
  },
  "source": "// SPDX-License-Identifier: MIT\nimport '@chainlink/contracts/src/v0.8/ChainlinkClient.sol';\nimport '@openzeppelin/contracts/token/ERC20/IERC20.sol';\n\nimport '../interfaces/IGToken.sol';\nimport '../interfaces/IOwnable.sol';\nimport '../interfaces/IOpenTradesPnlFeed.sol';\n\npragma solidity 0.8.17;\n\ncontract GTokenOpenPnlFeed is ChainlinkClient, IOpenTradesPnlFeed{\n    using Chainlink for Chainlink.Request;\n    \n    // Constants\n    uint public immutable LINK_FEE_BALANCE_DIVIDER;\n    uint constant MIN_ANSWERS = 3;\n    uint constant MIN_REQUESTS_START = 1 hours;\n    uint constant MAX_REQUESTS_START = 1 weeks;\n    uint constant MIN_REQUESTS_EVERY = 1 hours;\n    uint constant MAX_REQUESTS_EVERY = 1 days;\n    uint constant MIN_REQUESTS_COUNT = 3;\n    uint constant MAX_REQUESTS_COUNT = 10;\n    \n    // Params\n    IGToken public immutable gToken;\n\n    uint public requestsStart = 2 days;\n    uint public requestsEvery = 6 hours;\n    uint public requestsCount = 4;\n\n    address[] public oracles;\n    bytes32 public job;\n    uint public minAnswers;\n\n    // State\n    int[] public nextEpochValues;\n    uint public nextEpochValuesRequestCount;\n    uint public nextEpochValuesLastRequest;\n\n    uint public lastRequestId;\n    mapping(bytes32 => uint) public requestIds;   // chainlink request id => requestId\n    mapping(uint => Request) public requests;     // requestId => request\n    mapping(uint => int[]) public requestAnswers; // requestId => open pnl (1e18)\n\n    struct Request{\n        bool initiated;\n        bool active;\n        uint linkFeePerNode;\n    }\n\n    // Events\n    event NumberParamUpdated(string name, uint newValue);\n    event OracleUpdated(uint index, address newValue);\n    event OraclesUpdated(address[] newValues);\n    event JobUpdated(bytes32 newValue);\n\n    event NextEpochValuesReset(\n        uint indexed currEpoch,\n        uint requestsResetCount\n    );\n\n    event NewEpochForced(uint indexed newEpoch);\n\n    event NextEpochValueRequested(\n        uint indexed currEpoch,\n        uint indexed requestId,\n        bytes32 job,\n        uint oraclesCount,\n        uint linkFeePerNode\n    );\n\n    event NewEpoch(\n        uint indexed newEpoch,\n        uint indexed requestId,\n        int[] epochMedianValues,\n        int epochAverageValue,\n        uint newEpochPositiveOpenPnl\n    );\n\n    event RequestValueReceived(\n        bool isLate,\n        uint indexed currEpoch,\n        uint indexed requestId,\n        bytes32 oracleRequestId,\n        address indexed oracle,\n        int requestValue,\n        uint linkFee\n    );\n\n    event RequestMedianValueSet(\n        uint indexed currEpoch,\n        uint indexed requestId,\n        int[] requestValues,\n        int medianValue\n    );\n\n    constructor(\n        uint _LINK_FEE_BALANCE_DIVIDER,\n        address _linkToken,\n        IGToken _gToken,\n        address[] memory _oracles,\n        bytes32 _job,\n        uint _minAnswers\n    ){\n        require(_LINK_FEE_BALANCE_DIVIDER > 0\n            && _linkToken != address(0)\n            && address(_gToken) != address(0)\n            && _oracles.length > 0\n            && _job != bytes32(0)\n            && _minAnswers >= MIN_ANSWERS\n            && _minAnswers % 2 == 1\n            && _minAnswers <= _oracles.length / 2, \"WRONG_PARAMS\");\n        \n        LINK_FEE_BALANCE_DIVIDER = _LINK_FEE_BALANCE_DIVIDER;\n        \n        setChainlinkToken(_linkToken);\n\n        gToken = _gToken;\n        oracles = _oracles;\n        job = _job;\n        minAnswers = _minAnswers;\n    }\n\n    // Modifiers\n    modifier onlyGTokenOwner { // 2-week timelock\n        require(msg.sender == IOwnable(address(gToken)).owner(), \"ONLY_OWNER\");\n        _;\n    }\n\n    modifier onlyGTokenManager { // 3-day timelock\n        require(msg.sender == gToken.manager(), \"ONLY_MANAGER\");\n        _;\n    }\n\n    modifier onlyGTokenAdmin { // bypasses timelock, emergency functions only\n        require(msg.sender == gToken.admin(), \"ONLY_ADMIN\");\n        _;\n    }\n\n    // Manage parameters\n    function updateRequestsStart(uint newValue) public onlyGTokenOwner{\n        require(newValue >= MIN_REQUESTS_START, \"BELOW_MIN\");\n        require(newValue <= MAX_REQUESTS_START, \"ABOVE_MAX\");\n        requestsStart = newValue;\n        emit NumberParamUpdated(\"requestsStart\", newValue);\n    }\n\n    function updateRequestsEvery(uint newValue) public onlyGTokenOwner{\n        require(newValue >= MIN_REQUESTS_EVERY, \"BELOW_MIN\");\n        require(newValue <= MAX_REQUESTS_EVERY, \"ABOVE_MAX\");\n        requestsEvery = newValue;\n        emit NumberParamUpdated(\"requestsEvery\", newValue);\n    }\n\n    function updateRequestsCount(uint newValue) public onlyGTokenOwner{\n        require(newValue >= MIN_REQUESTS_COUNT, \"BELOW_MIN\");\n        require(newValue <= MAX_REQUESTS_COUNT, \"ABOVE_MAX\");\n        requestsCount = newValue;\n        emit NumberParamUpdated(\"requestsCount\", newValue);\n    }\n\n    function updateRequestsInfoBatch(\n        uint newRequestsStart,\n        uint newRequestsEvery,\n        uint newRequestsCount\n    ) external onlyGTokenOwner{\n        updateRequestsStart(newRequestsStart);\n        updateRequestsEvery(newRequestsEvery);\n        updateRequestsCount(newRequestsCount);\n    }\n\n    function updateMinAnswers(uint newValue) external onlyGTokenManager{\n        require(newValue >= MIN_ANSWERS, \"BELOW_MIN\");\n        require(newValue % 2 == 1, \"EVEN\");\n        require(newValue <= oracles.length / 2, \"ABOVE_MAX\");\n        minAnswers = newValue;\n        emit NumberParamUpdated(\"minAnswers\", newValue);\n    }\n\n    function updateOracle(uint _index, address newValue) external onlyGTokenOwner{\n        require(_index < oracles.length, \"INDEX_TOO_BIG\");\n        require(newValue != address(0), \"VALUE_0\");\n        oracles[_index] = newValue;\n        emit OracleUpdated(_index, newValue);\n    }\n\n    function updateOracles(address[] memory newValues) external onlyGTokenOwner{\n        require(newValues.length >= minAnswers * 2, \"ARRAY_TOO_SMALL\");\n        oracles = newValues;\n        emit OraclesUpdated(newValues);\n    }\n\n    function updateJob(bytes32 newValue) external onlyGTokenManager{\n        require(newValue != bytes32(0), \"VALUE_0\");\n        job = newValue;\n        emit JobUpdated(newValue);\n    }\n\n    // Emergency function in case of oracle manipulation\n    function resetNextEpochValueRequests() external onlyGTokenAdmin{\n        uint reqToResetCount = nextEpochValuesRequestCount;\n        require(reqToResetCount > 0, \"NO_REQUEST_TO_RESET\");\n\n        delete nextEpochValues;\n\n        nextEpochValuesRequestCount = 0;\n        nextEpochValuesLastRequest = 0;\n\n        for(uint i; i < reqToResetCount; i++){\n            requests[lastRequestId - i].active = false;\n        }\n\n        emit NextEpochValuesReset(\n            gToken.currentEpoch(),\n            reqToResetCount\n        );\n    }\n\n    // Safety function that anyone can call in case the function above is used in an abusive manner,\n    // which could theoretically delay withdrawals indefinitely since it prevents new epochs\n    function forceNewEpoch() external{\n        require(block.timestamp - gToken.currentEpochStart()\n            >= requestsStart + requestsEvery * requestsCount,\"TOO_EARLY\");\n        uint newEpoch = startNewEpoch();\n        emit NewEpochForced(newEpoch);\n    }\n\n    // Called by gToken contract\n    function newOpenPnlRequestOrEpoch() external{\n        bool firstRequest = nextEpochValuesLastRequest == 0;\n\n        if(firstRequest\n            && block.timestamp - gToken.currentEpochStart() >= requestsStart){\n            makeOpenPnlRequest();\n\n        }else if(!firstRequest\n            && block.timestamp - nextEpochValuesLastRequest >= requestsEvery){\n            if(nextEpochValuesRequestCount < requestsCount){\n                makeOpenPnlRequest();\n                \n            }else if(nextEpochValues.length >= requestsCount){\n                startNewEpoch();\n            }\n        }\n    }\n\n    // Create requests\n    function makeOpenPnlRequest() private{\n        Chainlink.Request memory linkRequest = buildChainlinkRequest(\n            job,\n            address(this),\n            this.fulfill.selector\n        );\n\n        uint linkFeePerNode = IERC20(chainlinkTokenAddress())\n            .balanceOf(address(this))\n            / LINK_FEE_BALANCE_DIVIDER\n            / oracles.length;\n\n        requests[++lastRequestId] = Request({\n            initiated: true,\n            active: true,\n            linkFeePerNode: linkFeePerNode\n        });\n\n        nextEpochValuesRequestCount++;\n        nextEpochValuesLastRequest = block.timestamp;\n        \n        for(uint i; i < oracles.length; i ++){\n            requestIds[sendChainlinkRequestTo(\n                oracles[i],\n                linkRequest,\n                linkFeePerNode\n            )] = lastRequestId;\n        }\n\n        emit NextEpochValueRequested(\n            gToken.currentEpoch(),\n            lastRequestId,\n            job,\n            oracles.length,\n            linkFeePerNode\n        );\n    }\n\n    // Handle answers\n    function fulfill(\n        bytes32 requestId,\n        int value // 1e18\n    ) external recordChainlinkFulfillment(requestId){\n\n        uint reqId = requestIds[requestId];\n        delete requestIds[requestId];\n\n        Request memory r = requests[reqId];\n        uint currentEpoch = gToken.currentEpoch();\n\n        emit RequestValueReceived(\n            !r.active,\n            currentEpoch,\n            reqId,\n            requestId,\n            msg.sender,\n            value,\n            r.linkFeePerNode\n        );\n\n        if(!r.active){\n            return;\n        }\n\n        int[] storage answers = requestAnswers[reqId];\n        answers.push(value);\n\n        if(answers.length == minAnswers){\n            int medianValue = median(answers);\n            nextEpochValues.push(medianValue);\n\n            emit RequestMedianValueSet(\n                currentEpoch,\n                reqId,\n                answers,\n                medianValue\n            );\n\n            requests[reqId].active = false;\n            delete requestAnswers[reqId];\n        }\n    }\n\n    // Increment epoch and update feed value\n    function startNewEpoch() private returns(uint newEpoch){\n        nextEpochValuesRequestCount = 0;\n        nextEpochValuesLastRequest = 0;\n\n        uint currentEpochPositiveOpenPnl = gToken.currentEpochPositiveOpenPnl();\n\n        // If all responses arrived, use mean, otherwise it means we forced a new epoch,\n        // so as a safety we use the last epoch value\n        int newEpochOpenPnl = nextEpochValues.length >= requestsCount ?\n            average(nextEpochValues) : int(currentEpochPositiveOpenPnl);\n\n        uint finalNewEpochPositiveOpenPnl = gToken.updateAccPnlPerTokenUsed(\n            currentEpochPositiveOpenPnl,\n            newEpochOpenPnl > 0 ? uint(newEpochOpenPnl) : 0\n        );\n\n        newEpoch = gToken.currentEpoch();\n\n        emit NewEpoch(\n            newEpoch,\n            lastRequestId,\n            nextEpochValues,\n            newEpochOpenPnl,\n            finalNewEpochPositiveOpenPnl\n        );\n\n        delete nextEpochValues;\n    }\n\n    // Median function\n    function swap(int[] memory array, uint i, uint j) private pure{\n        (array[i], array[j]) = (array[j], array[i]);\n    }\n    \n    function sort(int[] memory array, uint begin, uint end) private pure{\n        if (begin >= end) { return; }\n\n        uint j = begin;\n        int pivot = array[j];\n\n        for (uint i = begin + 1; i < end; ++i) {\n            if (array[i] < pivot) {\n                swap(array, i, ++j);\n            }\n        }\n\n        swap(array, begin, j);\n        sort(array, begin, j);\n        sort(array, j + 1, end);\n    }\n    \n    function median(int[] memory array) private pure returns(int){\n        sort(array, 0, array.length);\n\n        return array.length % 2 == 0 ?\n            (array[array.length / 2 - 1] + array[array.length / 2]) / 2 :\n            array[array.length / 2];\n    }\n\n    // Average function\n    function average(int[] memory array) private pure returns(int){\n        int sum;\n        for(uint i; i < array.length; i++){\n            sum += array[i];\n        }\n\n        return sum / int(array.length);\n    }\n}",
  "sourcePath": "/Users/ntonani/workplace/trinzy/gains/arbitrum-v6.3/contracts/v6.3/GTokenOpenPnlFeed.sol",
  "compiler": {
    "name": "solc",
    "version": "0.8.17+commit.8df45f5f.Emscripten.clang"
  },
  "schemaVersion": "3.4.11",
  "updatedAt": "2023-01-02T17:31:31.037Z",
  "devdoc": {
    "kind": "dev",
    "methods": {},
    "version": 1
  },
  "userdoc": {
    "kind": "user",
    "methods": {},
    "version": 1
  }
}